{
  "address": "0xa3324985102343060cC79fc3E0471BF735C18E74",
  "abi": [
    {
      "inputs": [
        {
          "internalType": "contract AggregatorV3Interface",
          "name": "_feed",
          "type": "address"
        }
      ],
      "stateMutability": "nonpayable",
      "type": "constructor"
    },
    {
      "inputs": [],
      "name": "INCOMPLETE_ROUND",
      "type": "error"
    },
    {
      "inputs": [],
      "name": "NEGATIVE_PRICE",
      "type": "error"
    },
    {
      "inputs": [],
      "name": "STALE_PRICE",
      "type": "error"
    },
    {
      "inputs": [
        {
          "internalType": "uint256",
          "name": "_decimals",
          "type": "uint256"
        }
      ],
      "name": "currentPrice",
      "outputs": [
        {
          "internalType": "uint256",
          "name": "",
          "type": "uint256"
        }
      ],
      "stateMutability": "view",
      "type": "function"
    },
    {
      "inputs": [],
      "name": "feed",
      "outputs": [
        {
          "internalType": "contract AggregatorV3Interface",
          "name": "",
          "type": "address"
        }
      ],
      "stateMutability": "view",
      "type": "function"
    }
  ],
  "transactionHash": "0x605a17fc23ca7b91fe94513b0ba18f539d7de42b8d561948d7020568a82f561b",
  "args": [
    "0x694AA1769357215DE4FAC081bf1f309aDC325306"
  ],
  "numDeployments": 1,
  "solcInputHash": "33eea2f806c535c0b427cd0776b47d2c",
  "bytecode": "0x60a060405234801561001057600080fd5b506040516105fb3803806105fb83398101604081905261002f91610040565b6001600160a01b0316608052610070565b60006020828403121561005257600080fd5b81516001600160a01b038116811461006957600080fd5b9392505050565b6080516105646100976000396000818160400152818160b7015261021701526105646000f3fe608060405234801561001057600080fd5b50600436106100365760003560e01c806337a7b7d81461003b5780637a3c4c171461008c575b600080fd5b6100627f000000000000000000000000000000000000000000000000000000000000000081565b60405173ffffffffffffffffffffffffffffffffffffffff90911681526020015b60405180910390f35b61009f61009a366004610323565b6100ad565b604051908152602001610083565b60008060008060007f000000000000000000000000000000000000000000000000000000000000000073ffffffffffffffffffffffffffffffffffffffff1663feaf968c6040518163ffffffff1660e01b815260040160a060405180830381865afa158015610120573d6000803e3d6000fd5b505050506040513d601f19601f82011682018060405250810190610144919061035b565b9450945050935093508369ffffffffffffffffffff168169ffffffffffffffffffff16101561019f576040517f9cd6c6ab00000000000000000000000000000000000000000000000000000000815260040160405180910390fd5b816000036101d8576040517e56b3a700000000000000000000000000000000000000000000000000000000815260040160405180910390fd5b6000831215610213576040517fb6cc0ca100000000000000000000000000000000000000000000000000000000815260040160405180910390fd5b60007f000000000000000000000000000000000000000000000000000000000000000073ffffffffffffffffffffffffffffffffffffffff1663313ce5676040518163ffffffff1660e01b8152600401602060405180830381865afa158015610280573d6000803e3d6000fd5b505050506040513d601f19601f820116820180604052508101906102a491906103ab565b60ff1690506102b48482896102bf565b979650505050505050565b60008282036102cf57508261031c565b828211156102fd576102e183836103e4565b6102ec90600a6104e1565b6102f690856104ed565b905061031c565b61030782846103e4565b61031290600a6104e1565b6102f6908561050c565b9392505050565b60006020828403121561033557600080fd5b5035919050565b805169ffffffffffffffffffff8116811461035657600080fd5b919050565b600080600080600060a0868803121561037357600080fd5b61037c8661033c565b945060208601519350604086015192506060860151915061039f6080870161033c565b90509295509295909350565b6000602082840312156103bd57600080fd5b815160ff8116811461031c57600080fd5b634e487b7160e01b600052601160045260246000fd5b818103818111156103f7576103f76103ce565b92915050565b600181815b8085111561043857816000190482111561041e5761041e6103ce565b8085161561042b57918102915b93841c9390800290610402565b509250929050565b60008261044f575060016103f7565b8161045c575060006103f7565b8160018114610472576002811461047c57610498565b60019150506103f7565b60ff84111561048d5761048d6103ce565b50506001821b6103f7565b5060208310610133831016604e8410600b84101617156104bb575081810a6103f7565b6104c583836103fd565b80600019048211156104d9576104d96103ce565b029392505050565b600061031c8383610440565b6000816000190483118215151615610507576105076103ce565b500290565b60008261052957634e487b7160e01b600052601260045260246000fd5b50049056fea264697066735822122032da2399af4ef799e3ae2cd92ca91c20e8c017c389fb93e45d6383c0a4e9282264736f6c63430008100033",
  "devdoc": {
    "details": "Adheres to - IJBPriceFeed: General interface for the methods in this contract that interact with the blockchain's state according to the protocol's rules.",
    "kind": "dev",
    "methods": {
      "constructor": {
        "params": {
          "_feed": "The feed to report prices from."
        }
      },
      "currentPrice(uint256)": {
        "params": {
          "_decimals": "The number of decimals the returned fixed point price should include."
        },
        "returns": {
          "_0": "The current price of the feed, as a fixed point number with the specified number of decimals."
        }
      }
    },
    "version": 1
  },
  "userdoc": {
    "kind": "user",
    "methods": {
      "currentPrice(uint256)": {
        "notice": " Gets the current price from the feed, normalized to the specified number of decimals."
      },
      "feed()": {
        "notice": " The feed that prices are reported from."
      }
    },
    "notice": " A generalized price feed for the Chainlink AggregatorV3Interface.",
    "version": 1
  },
  "storageLayout": {
    "storage": [],
    "types": null
  }
}