{
  "address": "0x6f4F73D1F8f013c25D589F0B96173D3BbfCE5546",
  "abi": [
    {
      "inputs": [],
      "name": "ETH",
      "outputs": [
        {
          "internalType": "uint256",
          "name": "",
          "type": "uint256"
        }
      ],
      "stateMutability": "view",
      "type": "function"
    },
    {
      "inputs": [],
      "name": "USD",
      "outputs": [
        {
          "internalType": "uint256",
          "name": "",
          "type": "uint256"
        }
      ],
      "stateMutability": "view",
      "type": "function"
    }
  ],
  "transactionHash": "0x58435177d7b13e06f69ab7f45eb8e68dfd1df14c1b17532489422c16f27a5527",
  "args": [],
  "numDeployments": 1,
  "solcInputHash": "0f5964b38384f4c19030b2b901d536cc",
  "bytecode": "0x6098610038600b82828239805160001a607314602b57634e487b7160e01b600052600060045260246000fd5b30600052607381538281f3fe7300000000000000000000000000000000000000003014608060405260043610603d5760003560e01c80631bf6c21b1460425780638322fff214605b575b600080fd5b6049600281565b60405190815260200160405180910390f35b604960018156fea26469706673582212208e32101aeba6edc358f5290053c6689dcf3794fbbd6e585ae8d847fbb75a0dfe64736f6c63430008100033",
  "devdoc": {
    "kind": "dev",
    "methods": {},
    "version": 1
  },
  "userdoc": {
    "kind": "user",
    "methods": {},
    "version": 1
  },
  "storageLayout": {
    "storage": [],
    "types": null
  }
}