{
  "address": "0xA4A758FD9db2Ef94163Aa5b720a174c2cE1bD4b5",
  "abi": [
    {
      "inputs": [
        {
          "internalType": "contract IJBDirectory",
          "name": "_directory",
          "type": "address"
        }
      ],
      "stateMutability": "nonpayable",
      "type": "constructor"
    },
    {
      "anonymous": false,
      "inputs": [
        {
          "indexed": true,
          "internalType": "contract IJBProjectPayer",
          "name": "projectPayer",
          "type": "address"
        },
        {
          "indexed": false,
          "internalType": "uint256",
          "name": "defaultProjectId",
          "type": "uint256"
        },
        {
          "indexed": false,
          "internalType": "address",
          "name": "defaultBeneficiary",
          "type": "address"
        },
        {
          "indexed": false,
          "internalType": "bool",
          "name": "defaultPreferClaimedTokens",
          "type": "bool"
        },
        {
          "indexed": false,
          "internalType": "string",
          "name": "defaultMemo",
          "type": "string"
        },
        {
          "indexed": false,
          "internalType": "bytes",
          "name": "defaultMetadata",
          "type": "bytes"
        },
        {
          "indexed": false,
          "internalType": "bool",
          "name": "preferAddToBalance",
          "type": "bool"
        },
        {
          "indexed": false,
          "internalType": "contract IJBDirectory",
          "name": "directory",
          "type": "address"
        },
        {
          "indexed": false,
          "internalType": "address",
          "name": "owner",
          "type": "address"
        },
        {
          "indexed": false,
          "internalType": "address",
          "name": "caller",
          "type": "address"
        }
      ],
      "name": "DeployProjectPayer",
      "type": "event"
    },
    {
      "inputs": [
        {
          "internalType": "uint256",
          "name": "_defaultProjectId",
          "type": "uint256"
        },
        {
          "internalType": "address payable",
          "name": "_defaultBeneficiary",
          "type": "address"
        },
        {
          "internalType": "bool",
          "name": "_defaultPreferClaimedTokens",
          "type": "bool"
        },
        {
          "internalType": "string",
          "name": "_defaultMemo",
          "type": "string"
        },
        {
          "internalType": "bytes",
          "name": "_defaultMetadata",
          "type": "bytes"
        },
        {
          "internalType": "bool",
          "name": "_defaultPreferAddToBalance",
          "type": "bool"
        },
        {
          "internalType": "address",
          "name": "_owner",
          "type": "address"
        }
      ],
      "name": "deployProjectPayer",
      "outputs": [
        {
          "internalType": "contract IJBProjectPayer",
          "name": "projectPayer",
          "type": "address"
        }
      ],
      "stateMutability": "nonpayable",
      "type": "function"
    }
  ],
  "transactionHash": "0xb9fe3e35c33d9985d2ba7671c4239df2bf6ede2c2451152a1f66373a1b9c12e7",
  "args": [
    "0x3B3Bd16cc76cd53218e00b600bFCa27aA5057794"
  ],
  "numDeployments": 1,
  "solcInputHash": "33eea2f806c535c0b427cd0776b47d2c",
  "bytecode": "0x60c060405234801561001057600080fd5b5060405161268c38038061268c83398101604081905261002f9161008d565b8060405161003c90610080565b6001600160a01b039091168152602001604051809103906000f080158015610068573d6000803e3d6000fd5b506001600160a01b039081166080521660a0526100bd565b6120778061061583390190565b60006020828403121561009f57600080fd5b81516001600160a01b03811681146100b657600080fd5b9392505050565b60805160a0516105346100e1600039600061014301526000606601526105346000f3fe608060405234801561001057600080fd5b506004361061002b5760003560e01c80635be94a6f14610030575b600080fd5b61004361003e36600461032f565b61005f565b6040516001600160a01b03909116815260200160405180910390f35b600061008a7f000000000000000000000000000000000000000000000000000000000000000061018c565b6040517fc0048ca50000000000000000000000000000000000000000000000000000000081529091506001600160a01b0382169063c0048ca5906100de908b908b908b908b908b908b908b9060040161042b565b600060405180830381600087803b1580156100f857600080fd5b505af115801561010c573d6000803e3d6000fd5b50505050806001600160a01b03167f727d4d4c40bee220af4fdbae0c157cb7a5e5f2ce9c3e9676e8f615cd88bc85df8989898989897f00000000000000000000000000000000000000000000000000000000000000008a336040516101799998979695949392919061048b565b60405180910390a2979650505050505050565b6000763d602d80600a3d3981f3363d3d373d3d3d363d730000008260601b60e81c176000526e5af43d82803e903d91602b57fd5bf38260781b17602052603760096000f090506001600160a01b038116610246576040517f08c379a000000000000000000000000000000000000000000000000000000000815260206004820152601660248201527f455243313136373a20637265617465206661696c656400000000000000000000604482015260640160405180910390fd5b919050565b6001600160a01b038116811461026057600080fd5b50565b8035801515811461024657600080fd5b7f4e487b7100000000000000000000000000000000000000000000000000000000600052604160045260246000fd5b600082601f8301126102b357600080fd5b813567ffffffffffffffff808211156102ce576102ce610273565b604051601f8301601f19908116603f011681019082821181831017156102f6576102f6610273565b8160405283815286602085880101111561030f57600080fd5b836020870160208301376000602085830101528094505050505092915050565b600080600080600080600060e0888a03121561034a57600080fd5b87359650602088013561035c8161024b565b955061036a60408901610263565b9450606088013567ffffffffffffffff8082111561038757600080fd5b6103938b838c016102a2565b955060808a01359150808211156103a957600080fd5b506103b68a828b016102a2565b9350506103c560a08901610263565b915060c08801356103d58161024b565b8091505092959891949750929550565b6000815180845260005b8181101561040b576020818501810151868301820152016103ef565b506000602082860101526020601f19601f83011685010191505092915050565b87815260006001600160a01b038089166020840152871515604084015260e0606084015261045c60e08401886103e5565b838103608085015261046e81886103e5565b95151560a0850152509290921660c0909101525095945050505050565b60006101208b83526001600160a01b03808c1660208501528a151560408501528160608501526104bd8285018b6103e5565b915083820360808501526104d1828a6103e5565b97151560a085015295861660c0840152505091831660e0830152909116610100909101529594505050505056fea264697066735822122007e0b815c48c0ba820a5f66fbab8f079289af1d30ec56f105efd5230c3e0a43864736f6c6343000810003360c06040523480156200001157600080fd5b5060405162002077380380620020778339810160408190526200003491620000a5565b6200003f3362000055565b6001600160a01b03166080523360a052620000d7565b600080546001600160a01b038381166001600160a01b0319831681178455604051919092169283917f8be0079c531659141344cd1fd0a4f28419497f9722a3daafe3b4186f6b6457e09190a35050565b600060208284031215620000b857600080fd5b81516001600160a01b0381168114620000d057600080fd5b9392505050565b60805160a051611f65620001126000396000818161046d0152611088015260008181610579015281816105e401526107e40152611f656000f3fe6080604052600436106100f75760003560e01c80638293fee61161008a578063b96053df11610059578063b96053df14610532578063c0048ca514610547578063c41c2f2414610567578063f2fde38b1461059b57600080fd5b80638293fee6146104c65780638da5cb5b146104d957806393b7f154146104f7578063a4919eb11461051157600080fd5b806354ab58af116100c657806354ab58af1461042357806364d3ed271461045b578063715018a61461048f5780637e646549146104a457600080fd5b806301ffc9a71461039757806309a6b7e5146103cc5780630e45f78e146103df5780633ce9830b146103ff57600080fd5b366103925760055460ff16156102305761022e60015461eeee4760126003805461012090611727565b80601f016020809104026020016040519081016040528092919081815260200182805461014c90611727565b80156101995780601f1061016e57610100808354040283529160200191610199565b820191906000526020600020905b81548152906001019060200180831161017c57829003601f168201915b5050505050600480546101ab90611727565b80601f01602080910402602001604051908101604052809291908181526020018280546101d790611727565b80156102245780601f106101f957610100808354040283529160200191610224565b820191906000526020600020905b81548152906001019060200180831161020757829003601f168201915b50505050506105bb565b005b60015460025461022e919061eeee9047906012906001600160a01b031615610263576002546001600160a01b0316610265565b325b6000600260149054906101000a900460ff166003805461028490611727565b80601f01602080910402602001604051908101604052809291908181526020018280546102b090611727565b80156102fd5780601f106102d2576101008083540402835291602001916102fd565b820191906000526020600020905b8154815290600101906020018083116102e057829003601f168201915b50505050506004805461030f90611727565b80601f016020809104026020016040519081016040528092919081815260200182805461033b90611727565b80156103885780601f1061035d57610100808354040283529160200191610388565b820191906000526020600020905b81548152906001019060200180831161036b57829003601f168201915b50505050506107bb565b600080fd5b3480156103a357600080fd5b506103b76103b2366004611761565b610a18565b60405190151581526020015b60405180910390f35b61022e6103da3660046117f0565b610a81565b3480156103eb57600080fd5b5061022e6103fa366004611950565b610c39565b34801561040b57600080fd5b5061041560015481565b6040519081526020016103c3565b34801561042f57600080fd5b50600254610443906001600160a01b031681565b6040516001600160a01b0390911681526020016103c3565b34801561046757600080fd5b506104437f000000000000000000000000000000000000000000000000000000000000000081565b34801561049b57600080fd5b5061022e610e10565b3480156104b057600080fd5b506104b9610e24565b6040516103c39190611a46565b61022e6104d4366004611a59565b610eb2565b3480156104e557600080fd5b506000546001600160a01b0316610443565b34801561050357600080fd5b506005546103b79060ff1681565b34801561051d57600080fd5b506002546103b790600160a01b900460ff1681565b34801561053e57600080fd5b506104b9611070565b34801561055357600080fd5b5061022e610562366004611b35565b61107d565b34801561057357600080fd5b506104437f000000000000000000000000000000000000000000000000000000000000000081565b3480156105a757600080fd5b5061022e6105b6366004611bef565b61115d565b604051630862026560e41b8152600481018790526001600160a01b0386811660248301526000917f000000000000000000000000000000000000000000000000000000000000000090911690638620265090604401602060405180830381865afa15801561062d573d6000803e3d6000fd5b505050506040513d601f19601f820116820180604052508101906106519190611c0c565b90506001600160a01b03811661067a57604051637dd086eb60e11b815260040160405180910390fd5b60405163b7bad1b160e01b81526001600160a01b03878116600483015285919083169063b7bad1b190602401602060405180830381865afa1580156106c3573d6000803e3d6000fd5b505050506040513d601f19601f820116820180604052508101906106e79190611c29565b1461070557604051632e5c964960e21b815260040160405180910390fd5b6001600160a01b03861661eeee1461072b5761072b6001600160a01b03871682876111f2565b60006001600160a01b03871661eeee14610746576000610748565b855b9050816001600160a01b0316630cf8e858828a898b89896040518763ffffffff1660e01b815260040161077f959493929190611c42565b6000604051808303818588803b15801561079857600080fd5b505af11580156107ac573d6000803e3d6000fd5b50505050505050505050505050565b604051630862026560e41b8152600481018a90526001600160a01b0389811660248301526000917f000000000000000000000000000000000000000000000000000000000000000090911690638620265090604401602060405180830381865afa15801561082d573d6000803e3d6000fd5b505050506040513d601f19601f820116820180604052508101906108519190611c0c565b90506001600160a01b03811661087a57604051637dd086eb60e11b815260040160405180910390fd5b60405163b7bad1b160e01b81526001600160a01b038a8116600483015288919083169063b7bad1b190602401602060405180830381865afa1580156108c3573d6000803e3d6000fd5b505050506040513d601f19601f820116820180604052508101906108e79190611c29565b1461090557604051632e5c964960e21b815260040160405180910390fd5b6001600160a01b03891661eeee1461092b5761092b6001600160a01b038a16828a6111f2565b60006001600160a01b038a1661eeee14610946576000610948565b885b9050816001600160a01b0316631ebc263f828d8c8e60006001600160a01b03168d6001600160a01b03160361099e576002546001600160a01b031661098d57326109a0565b6002546001600160a01b03166109a0565b8c5b8c8c8c8c6040518a63ffffffff1660e01b81526004016109c7989796959493929190611c8e565b60206040518083038185885af11580156109e5573d6000803e3d6000fd5b50505050506040513d601f19601f82011682018060405250810190610a0a9190611c29565b505050505050505050505050565b60006001600160e01b031982167f7ddb72fc000000000000000000000000000000000000000000000000000000001480610a7b57507f01ffc9a7000000000000000000000000000000000000000000000000000000006001600160e01b03198316145b92915050565b6001600160a01b03871661eeee14610bb0573415610ab257604051635e7e9adf60e11b815260040160405180910390fd5b6040516370a0823160e01b81523060048201526000906001600160a01b038916906370a0823190602401602060405180830381865afa158015610af9573d6000803e3d6000fd5b505050506040513d601f19601f82011682018060405250810190610b1d9190611c29565b9050610b346001600160a01b03891633308a61138d565b6040516370a0823160e01b815230600482015281906001600160a01b038a16906370a0823190602401602060405180830381865afa158015610b7a573d6000803e3d6000fd5b505050506040513d601f19601f82011682018060405250810190610b9e9190611c29565b610ba89190611cf8565b965050610bb8565b349550601294505b610c2f8888888888888080601f01602080910402602001604051908101604052809392919081815260200183838082843760009201919091525050604080516020601f8c018190048102820181019092528a815292508a91508990819084018382808284376000920191909152506105bb92505050565b5050505050505050565b610c416113e4565b6001548614610c505760018690555b6002546001600160a01b03868116911614610c8e576002805473ffffffffffffffffffffffffffffffffffffffff19166001600160a01b0387161790555b600260149054906101000a900460ff16151584151514610cdb57600280547fffffffffffffffffffffff00ffffffffffffffffffffffffffffffffffffffff16600160a01b861515021790555b6003604051602001610ced9190611d8c565b6040516020818303038152906040528051906020012083604051602001610d149190611d98565b6040516020818303038152906040528051906020012014610d3d576003610d3b8482611e02565b505b6004604051602001610d4f9190611d8c565b6040516020818303038152906040528051906020012082604051602001610d769190611d98565b6040516020818303038152906040528051906020012014610d9f576004610d9d8382611e02565b505b60055460ff16151581151514610dbe576005805460ff19168215151790555b846001600160a01b0316867f36b1c5cef608e320317b9ee5155756634c65fe7055b424ce57e2f6c59eec79478686868633604051610e00959493929190611ec2565b60405180910390a3505050505050565b610e186113e4565b610e22600061143e565b565b60048054610e3190611727565b80601f0160208091040260200160405190810160405280929190818152602001828054610e5d90611727565b8015610eaa5780601f10610e7f57610100808354040283529160200191610eaa565b820191906000526020600020905b815481529060010190602001808311610e8d57829003601f168201915b505050505081565b6001600160a01b038a1661eeee14610fe1573415610ee357604051635e7e9adf60e11b815260040160405180910390fd5b6040516370a0823160e01b81523060048201526000906001600160a01b038c16906370a0823190602401602060405180830381865afa158015610f2a573d6000803e3d6000fd5b505050506040513d601f19601f82011682018060405250810190610f4e9190611c29565b9050610f656001600160a01b038c1633308d61138d565b6040516370a0823160e01b815230600482015281906001600160a01b038d16906370a0823190602401602060405180830381865afa158015610fab573d6000803e3d6000fd5b505050506040513d601f19601f82011682018060405250810190610fcf9190611c29565b610fd99190611cf8565b995050610fe9565b349850601297505b6110638b8b8b8b8b8b8b8b8b8080601f01602080910402602001604051908101604052809392919081815260200183838082843760009201919091525050604080516020601f8f018190048102820181019092528d815292508d91508c90819084018382808284376000920191909152506107bb92505050565b5050505050505050505050565b60038054610e3190611727565b336001600160a01b037f000000000000000000000000000000000000000000000000000000000000000016146110df576040517f439a74c900000000000000000000000000000000000000000000000000000000815260040160405180910390fd5b600187905560028054861515600160a01b027fffffffffffffffffffffff0000000000000000000000000000000000000000009091166001600160a01b03891617179055600361112f8582611e02565b50600461113c8482611e02565b506005805460ff19168315151790556111548161143e565b50505050505050565b6111656113e4565b6001600160a01b0381166111e65760405162461bcd60e51b815260206004820152602660248201527f4f776e61626c653a206e6577206f776e657220697320746865207a65726f206160448201527f646472657373000000000000000000000000000000000000000000000000000060648201526084015b60405180910390fd5b6111ef8161143e565b50565b80158061128557506040517fdd62ed3e0000000000000000000000000000000000000000000000000000000081523060048201526001600160a01b03838116602483015284169063dd62ed3e90604401602060405180830381865afa15801561125f573d6000803e3d6000fd5b505050506040513d601f19601f820116820180604052508101906112839190611c29565b155b6112f75760405162461bcd60e51b815260206004820152603660248201527f5361666545524332303a20617070726f76652066726f6d206e6f6e2d7a65726f60448201527f20746f206e6f6e2d7a65726f20616c6c6f77616e63650000000000000000000060648201526084016111dd565b6040516001600160a01b0383166024820152604481018290526113889084907f095ea7b300000000000000000000000000000000000000000000000000000000906064015b60408051601f198184030181529190526020810180517bffffffffffffffffffffffffffffffffffffffffffffffffffffffff166001600160e01b03199093169290921790915261149b565b505050565b6040516001600160a01b03808516602483015283166044820152606481018290526113de9085907f23b872dd000000000000000000000000000000000000000000000000000000009060840161133c565b50505050565b6000546001600160a01b03163314610e225760405162461bcd60e51b815260206004820181905260248201527f4f776e61626c653a2063616c6c6572206973206e6f7420746865206f776e657260448201526064016111dd565b600080546001600160a01b0383811673ffffffffffffffffffffffffffffffffffffffff19831681178455604051919092169283917f8be0079c531659141344cd1fd0a4f28419497f9722a3daafe3b4186f6b6457e09190a35050565b60006114f0826040518060400160405280602081526020017f5361666545524332303a206c6f772d6c6576656c2063616c6c206661696c6564815250856001600160a01b03166115809092919063ffffffff16565b805190915015611388578080602001905181019061150e9190611f12565b6113885760405162461bcd60e51b815260206004820152602a60248201527f5361666545524332303a204552433230206f7065726174696f6e20646964206e60448201527f6f7420737563636565640000000000000000000000000000000000000000000060648201526084016111dd565b606061158f8484600085611597565b949350505050565b60608247101561160f5760405162461bcd60e51b815260206004820152602660248201527f416464726573733a20696e73756666696369656e742062616c616e636520666f60448201527f722063616c6c000000000000000000000000000000000000000000000000000060648201526084016111dd565b600080866001600160a01b0316858760405161162b9190611d98565b60006040518083038185875af1925050503d8060008114611668576040519150601f19603f3d011682016040523d82523d6000602084013e61166d565b606091505b509150915061167e87838387611689565b979650505050505050565b606083156116f85782516000036116f1576001600160a01b0385163b6116f15760405162461bcd60e51b815260206004820152601d60248201527f416464726573733a2063616c6c20746f206e6f6e2d636f6e747261637400000060448201526064016111dd565b508161158f565b61158f838381511561170d5781518083602001fd5b8060405162461bcd60e51b81526004016111dd9190611a46565b600181811c9082168061173b57607f821691505b60208210810361175b57634e487b7160e01b600052602260045260246000fd5b50919050565b60006020828403121561177357600080fd5b81356001600160e01b03198116811461178b57600080fd5b9392505050565b6001600160a01b03811681146111ef57600080fd5b60008083601f8401126117b957600080fd5b50813567ffffffffffffffff8111156117d157600080fd5b6020830191508360208285010111156117e957600080fd5b9250929050565b60008060008060008060008060c0898b03121561180c57600080fd5b88359750602089013561181e81611792565b96506040890135955060608901359450608089013567ffffffffffffffff8082111561184957600080fd5b6118558c838d016117a7565b909650945060a08b013591508082111561186e57600080fd5b5061187b8b828c016117a7565b999c989b5096995094979396929594505050565b80151581146111ef57600080fd5b80356118a88161188f565b919050565b634e487b7160e01b600052604160045260246000fd5b600082601f8301126118d457600080fd5b813567ffffffffffffffff808211156118ef576118ef6118ad565b604051601f8301601f19908116603f01168101908282118183101715611917576119176118ad565b8160405283815286602085880101111561193057600080fd5b836020870160208301376000602085830101528094505050505092915050565b60008060008060008060c0878903121561196957600080fd5b86359550602087013561197b81611792565b9450604087013561198b8161188f565b9350606087013567ffffffffffffffff808211156119a857600080fd5b6119b48a838b016118c3565b945060808901359150808211156119ca57600080fd5b506119d789828a016118c3565b92505060a08701356119e88161188f565b809150509295509295509295565b60005b83811015611a115781810151838201526020016119f9565b50506000910152565b60008151808452611a328160208601602086016119f6565b601f01601f19169290920160200192915050565b60208152600061178b6020830184611a1a565b60008060008060008060008060008060006101208c8e031215611a7b57600080fd5b8b359a50611a8c60208d0135611792565b60208c0135995060408c0135985060608c01359750611aae60808d0135611792565b60808c0135965060a08c01359550611ac860c08d0161189d565b945067ffffffffffffffff8060e08e01351115611ae457600080fd5b611af48e60e08f01358f016117a7565b90955093506101008d0135811015611b0b57600080fd5b50611b1d8d6101008e01358e016117a7565b81935080925050509295989b509295989b9093969950565b600080600080600080600060e0888a031215611b5057600080fd5b873596506020880135611b6281611792565b95506040880135611b728161188f565b9450606088013567ffffffffffffffff80821115611b8f57600080fd5b611b9b8b838c016118c3565b955060808a0135915080821115611bb157600080fd5b50611bbe8a828b016118c3565b93505060a0880135611bcf8161188f565b915060c0880135611bdf81611792565b8091505092959891949750929550565b600060208284031215611c0157600080fd5b813561178b81611792565b600060208284031215611c1e57600080fd5b815161178b81611792565b600060208284031215611c3b57600080fd5b5051919050565b8581528460208201526001600160a01b038416604082015260a060608201526000611c7060a0830185611a1a565b8281036080840152611c828185611a1a565b98975050505050505050565b60006101008a83528960208401526001600160a01b03808a16604085015280891660608501525086608084015285151560a08401528060c0840152611cd581840186611a1a565b905082810360e0840152611ce98185611a1a565b9b9a5050505050505050505050565b81810381811115610a7b57634e487b7160e01b600052601160045260246000fd5b60008154611d2681611727565b60018281168015611d3e5760018114611d5357611d82565b60ff1984168752821515830287019450611d82565b8560005260208060002060005b85811015611d795781548a820152908401908201611d60565b50505082870194505b5050505092915050565b600061178b8284611d19565b60008251611daa8184602087016119f6565b9190910192915050565b601f82111561138857600081815260208120601f850160051c81016020861015611ddb5750805b601f850160051c820191505b81811015611dfa57828155600101611de7565b505050505050565b815167ffffffffffffffff811115611e1c57611e1c6118ad565b611e3081611e2a8454611727565b84611db4565b602080601f831160018114611e655760008415611e4d5750858301515b600019600386901b1c1916600185901b178555611dfa565b600085815260208120601f198616915b82811015611e9457888601518255948401946001909101908401611e75565b5085821015611eb25787850151600019600388901b60f8161c191681555b5050505050600190811b01905550565b851515815260a060208201526000611edd60a0830187611a1a565b8281036040840152611eef8187611a1a565b941515606084015250506001600160a01b03919091166080909101529392505050565b600060208284031215611f2457600080fd5b815161178b8161188f56fea2646970667358221220e571d566af121ebabe85a5268e61f9b4969b656f18cc38398f4d14e8727d8b6f64736f6c63430008100033",
  "devdoc": {
    "details": "Adheres to - IJBETHERC20ProjectPayerDeployer:  General interface for the methods in this contract that interact with the blockchain's state according to the protocol's rules.",
    "kind": "dev",
    "methods": {
      "constructor": {
        "params": {
          "_directory": "A contract storing directories of terminals and controllers for each project."
        }
      },
      "deployProjectPayer(uint256,address,bool,string,bytes,bool,address)": {
        "params": {
          "_defaultBeneficiary": "The address that'll receive the project's tokens when the project payer receives payments. ",
          "_defaultMemo": "The memo that'll be forwarded with the project payer's received payments. ",
          "_defaultMetadata": "The metadata that'll be forwarded with the project payer's received payments. ",
          "_defaultPreferAddToBalance": "A flag indicating if received payments should call the `pay` function or the `addToBalance` function of a project.",
          "_defaultPreferClaimedTokens": "A flag indicating whether issued tokens from the project payer's received payments should be automatically claimed into the beneficiary's wallet. ",
          "_defaultProjectId": "The ID of the project whose treasury should be forwarded the project payer contract's received payments.",
          "_owner": "The address that will own the project payer."
        },
        "returns": {
          "projectPayer": "The project payer contract."
        }
      }
    },
    "version": 1
  },
  "userdoc": {
    "kind": "user",
    "methods": {
      "deployProjectPayer(uint256,address,bool,string,bytes,bool,address)": {
        "notice": " Allows anyone to deploy a new project payer contract."
      }
    },
    "notice": " Deploys project payer contracts.",
    "version": 1
  },
  "storageLayout": {
    "storage": [],
    "types": null
  }
}