{
  "address": "0xaB68D1bc17fD9cfBb61E7eFe051015A57a3a7723",
  "abi": [
    {
      "inputs": [
        {
          "internalType": "contract IJBSplitsStore",
          "name": "_splitsStore",
          "type": "address"
        }
      ],
      "stateMutability": "nonpayable",
      "type": "constructor"
    },
    {
      "anonymous": false,
      "inputs": [
        {
          "indexed": true,
          "internalType": "contract IJBSplitsPayer",
          "name": "splitsPayer",
          "type": "address"
        },
        {
          "indexed": false,
          "internalType": "uint256",
          "name": "defaultSplitsProjectId",
          "type": "uint256"
        },
        {
          "indexed": false,
          "internalType": "uint256",
          "name": "defaultSplitsDomain",
          "type": "uint256"
        },
        {
          "indexed": false,
          "internalType": "uint256",
          "name": "defaultSplitsGroup",
          "type": "uint256"
        },
        {
          "indexed": false,
          "internalType": "contract IJBSplitsStore",
          "name": "splitsStore",
          "type": "address"
        },
        {
          "indexed": false,
          "internalType": "uint256",
          "name": "defaultProjectId",
          "type": "uint256"
        },
        {
          "indexed": false,
          "internalType": "address",
          "name": "defaultBeneficiary",
          "type": "address"
        },
        {
          "indexed": false,
          "internalType": "bool",
          "name": "defaultPreferClaimedTokens",
          "type": "bool"
        },
        {
          "indexed": false,
          "internalType": "string",
          "name": "defaultMemo",
          "type": "string"
        },
        {
          "indexed": false,
          "internalType": "bytes",
          "name": "defaultMetadata",
          "type": "bytes"
        },
        {
          "indexed": false,
          "internalType": "bool",
          "name": "preferAddToBalance",
          "type": "bool"
        },
        {
          "indexed": false,
          "internalType": "address",
          "name": "owner",
          "type": "address"
        },
        {
          "indexed": false,
          "internalType": "address",
          "name": "caller",
          "type": "address"
        }
      ],
      "name": "DeploySplitsPayer",
      "type": "event"
    },
    {
      "inputs": [
        {
          "internalType": "uint256",
          "name": "_defaultSplitsProjectId",
          "type": "uint256"
        },
        {
          "internalType": "uint256",
          "name": "_defaultSplitsDomain",
          "type": "uint256"
        },
        {
          "internalType": "uint256",
          "name": "_defaultSplitsGroup",
          "type": "uint256"
        },
        {
          "internalType": "uint256",
          "name": "_defaultProjectId",
          "type": "uint256"
        },
        {
          "internalType": "address payable",
          "name": "_defaultBeneficiary",
          "type": "address"
        },
        {
          "internalType": "bool",
          "name": "_defaultPreferClaimedTokens",
          "type": "bool"
        },
        {
          "internalType": "string",
          "name": "_defaultMemo",
          "type": "string"
        },
        {
          "internalType": "bytes",
          "name": "_defaultMetadata",
          "type": "bytes"
        },
        {
          "internalType": "bool",
          "name": "_defaultPreferAddToBalance",
          "type": "bool"
        },
        {
          "internalType": "address",
          "name": "_owner",
          "type": "address"
        }
      ],
      "name": "deploySplitsPayer",
      "outputs": [
        {
          "internalType": "contract IJBSplitsPayer",
          "name": "splitsPayer",
          "type": "address"
        }
      ],
      "stateMutability": "nonpayable",
      "type": "function"
    },
    {
      "inputs": [
        {
          "internalType": "uint256",
          "name": "_defaultSplitsProjectId",
          "type": "uint256"
        },
        {
          "components": [
            {
              "internalType": "bool",
              "name": "preferClaimed",
              "type": "bool"
            },
            {
              "internalType": "bool",
              "name": "preferAddToBalance",
              "type": "bool"
            },
            {
              "internalType": "uint256",
              "name": "percent",
              "type": "uint256"
            },
            {
              "internalType": "uint256",
              "name": "projectId",
              "type": "uint256"
            },
            {
              "internalType": "address payable",
              "name": "beneficiary",
              "type": "address"
            },
            {
              "internalType": "uint256",
              "name": "lockedUntil",
              "type": "uint256"
            },
            {
              "internalType": "contract IJBSplitAllocator",
              "name": "allocator",
              "type": "address"
            }
          ],
          "internalType": "struct JBSplit[]",
          "name": "_defaultSplits",
          "type": "tuple[]"
        },
        {
          "internalType": "contract IJBSplitsStore",
          "name": "_splitsStore",
          "type": "address"
        },
        {
          "internalType": "uint256",
          "name": "_defaultProjectId",
          "type": "uint256"
        },
        {
          "internalType": "address payable",
          "name": "_defaultBeneficiary",
          "type": "address"
        },
        {
          "internalType": "bool",
          "name": "_defaultPreferClaimedTokens",
          "type": "bool"
        },
        {
          "internalType": "string",
          "name": "_defaultMemo",
          "type": "string"
        },
        {
          "internalType": "bytes",
          "name": "_defaultMetadata",
          "type": "bytes"
        },
        {
          "internalType": "bool",
          "name": "_defaultPreferAddToBalance",
          "type": "bool"
        },
        {
          "internalType": "address",
          "name": "_owner",
          "type": "address"
        }
      ],
      "name": "deploySplitsPayerWithSplits",
      "outputs": [
        {
          "internalType": "contract IJBSplitsPayer",
          "name": "splitsPayer",
          "type": "address"
        }
      ],
      "stateMutability": "nonpayable",
      "type": "function"
    }
  ],
  "transactionHash": "0xaff1ebedf72d16b2ee0a700f840e1600ecff525bb43882a2790ce863866e9411",
  "args": [
    "0xEdE89dB755855aF041b5f100B39db9324b5227Ac"
  ],
  "numDeployments": 1,
  "solcInputHash": "33eea2f806c535c0b427cd0776b47d2c",
  "bytecode": "0x60c060405234801561001057600080fd5b506040516140a93803806140a983398101604081905261002f9161008d565b8060405161003c90610080565b6001600160a01b039091168152602001604051809103906000f080158015610068573d6000803e3d6000fd5b506001600160a01b039081166080521660a0526100bd565b6135fe80610aab83390190565b60006020828403121561009f57600080fd5b81516001600160a01b03811681146100b657600080fd5b9392505050565b60805160a0516109ca6100e1600039600061016401526000608401526109ca6000f3fe608060405234801561001057600080fd5b50600436106100365760003560e01c80631a2a1a201461003b5780632d3fb8a31461006a575b600080fd5b61004e6100493660046104c7565b61007d565b6040516001600160a01b03909116815260200160405180910390f35b61004e61007836600461068c565b6101b9565b60006100a87f00000000000000000000000000000000000000000000000000000000000000006102f5565b6040517fec818c890000000000000000000000000000000000000000000000000000000081529091506001600160a01b0382169063ec818c8990610102908e908e908e908e908e908e908e908e908e908e90600401610764565b600060405180830381600087803b15801561011c57600080fd5b505af1158015610130573d6000803e3d6000fd5b50505050806001600160a01b03167f9d8d9335be0008f50a6547966dd6a854fd9df1f0be7838b8a445b562513627448c8c8c7f00000000000000000000000000000000000000000000000000000000000000008d8d8d8d8d8d8d336040516101a39c9b9a999897969594939291906107e1565b60405180910390a29a9950505050505050505050565b6040516bffffffffffffffffffffffff193360601b1660208201524360348201526000903090829060540160408051808303601f1901815282825280516020909101206001808452838301909252925060609190816020015b60408051808201909152600081526060602082015281526020019060019003908161021257905050905060405180604001604052808381526020018e8152508160008151811061026457610264610886565b60200260200101819052508b6001600160a01b031663f2da44b68f85846040518463ffffffff1660e01b815260040161029f9392919061089c565b600060405180830381600087803b1580156102b957600080fd5b505af11580156102cd573d6000803e3d6000fd5b505050506102e38e84848e8e8e8e8e8e8e61007d565b9e9d5050505050505050505050505050565b6000763d602d80600a3d3981f3363d3d373d3d3d363d730000008260601b60e81c176000526e5af43d82803e903d91602b57fd5bf38260781b17602052603760096000f090506001600160a01b0381166103af576040517f08c379a000000000000000000000000000000000000000000000000000000000815260206004820152601660248201527f455243313136373a20637265617465206661696c656400000000000000000000604482015260640160405180910390fd5b919050565b6001600160a01b03811681146103c957600080fd5b50565b80356103af816103b4565b803580151581146103af57600080fd5b634e487b7160e01b600052604160045260246000fd5b60405160e0810167ffffffffffffffff81118282101715610420576104206103e7565b60405290565b604051601f8201601f1916810167ffffffffffffffff8111828210171561044f5761044f6103e7565b604052919050565b600082601f83011261046857600080fd5b813567ffffffffffffffff811115610482576104826103e7565b610495601f8201601f1916602001610426565b8181528460208386010111156104aa57600080fd5b816020850160208301376000918101602001919091529392505050565b6000806000806000806000806000806101408b8d0312156104e757600080fd5b8a35995060208b0135985060408b0135975060608b0135965061050c60808c016103cc565b955061051a60a08c016103d7565b945060c08b013567ffffffffffffffff8082111561053757600080fd5b6105438e838f01610457565b955060e08d013591508082111561055957600080fd5b506105668d828e01610457565b9350506105766101008c016103d7565b91506105856101208c016103cc565b90509295989b9194979a5092959850565b600082601f8301126105a757600080fd5b8135602067ffffffffffffffff8211156105c3576105c36103e7565b6105d1818360051b01610426565b82815260e092830285018201928282019190878511156105f057600080fd5b8387015b8581101561067f5781818a03121561060c5760008081fd5b6106146103fd565b61061d826103d7565b815261062a8683016103d7565b818701526040828101359082015260608083013590820152608080830135610651816103b4565b9082015260a0828101359082015260c08083013561066e816103b4565b9082015284529284019281016105f4565b5090979650505050505050565b6000806000806000806000806000806101408b8d0312156106ac57600080fd5b8a35995060208b013567ffffffffffffffff808211156106cb57600080fd5b6106d78e838f01610596565b9a506106e560408e016103cc565b995060608d013598506106fa60808e016103cc565b975061070860a08e016103d7565b965060c08d013591508082111561053757600080fd5b6000815180845260005b8181101561074457602081850181015186830182015201610728565b506000602082860101526020601f19601f83011685010191505092915050565b60006101408c83528b60208401528a60408401528960608401526001600160a01b03808a16608085015288151560a08501528160c08501526107a88285018961071e565b915083820360e08501526107bc828861071e565b925085151561010085015280851661012085015250509b9a5050505050505050505050565b60006101808e83528d60208401528c60408401526001600160a01b03808d1660608501528b6080850152808b1660a08501525088151560c08401528060e084015261082e8184018961071e565b9050828103610100840152610843818861071e565b9150508415156101208301526108656101408301856001600160a01b03169052565b6001600160a01b0383166101608301529d9c50505050505050505050505050565b634e487b7160e01b600052603260045260246000fd5b600060608083018684526020868186015260408381870152828751808552608094508488019150848160051b890101848a0160005b83811015610982578a8303607f190185528151805184528701518784018790528051878501819052908801906000908b8601905b8083101561096d5783518051151583528b81015115158c8401528a8101518b8401528d8101518e8401528c8101516001600160a01b039081168e85015260a0808301519085015260c0918201511690830152928a01926001929092019160e090910190610905565b509689019694505050908601906001016108d1565b50909c9b50505050505050505050505056fea2646970667358221220ae20ca73663a1f5c67106e981962e1b68f36273151827b7241836ad5c40222b164736f6c6343000810003360e06040523480156200001157600080fd5b50604051620035fe380380620035fe83398101604081905262000034916200012e565b806001600160a01b031663c41c2f246040518163ffffffff1660e01b8152600401602060405180830381865afa15801562000073573d6000803e3d6000fd5b505050506040513d601f19601f820116820180604052508101906200009991906200012e565b620000a433620000c5565b6001600160a01b039081166080523360a05260016006551660c05262000155565b600080546001600160a01b038381166001600160a01b0319831681178455604051919092169283917f8be0079c531659141344cd1fd0a4f28419497f9722a3daafe3b4186f6b6457e09190a35050565b6001600160a01b03811681146200012b57600080fd5b50565b6000602082840312156200014157600080fd5b81516200014e8162000115565b9392505050565b60805160a05160c051613456620001a86000396000818161053f01528181610869015261186801526000818161061101526118fc01526000818161075d015281816109510152610b5101526134566000f3fe6080604052600436106101845760003560e01c8063715018a6116100d6578063ae16f56a1161007f578063c41c2f2411610059578063c41c2f241461074b578063ec818c891461077f578063f2fde38b1461079f57600080fd5b8063ae16f56a146106f6578063b96053df14610716578063c0048ca51461072b57600080fd5b80638da5cb5b116100b05780638da5cb5b1461069d57806393b7f154146106bb578063a4919eb1146106d557600080fd5b8063715018a6146106535780637e646549146106685780638293fee61461068a57600080fd5b80633ce9830b1161013857806354ab58af1161011257806354ab58af146105df57806364d3ed27146105ff57806371277d571461063357600080fd5b80633ce9830b1461059d578063421a2fb5146105b35780635380cf8f146105c957600080fd5b80630e45f78e116101695780630e45f78e1461050d5780632bdfe0041461052d5780633c212b1c1461057957600080fd5b806301ffc9a7146104c557806309a6b7e5146104fa57600080fd5b366104c0576101916107bf565b6007546008546009546002546000936101d5939092909161eeee9047906012906001600160a01b03166101c4573261081d565b6002546001600160a01b031661081d565b9050806000036101e557506104b4565b600154156104855760055460ff16156103245761031f60015461eeee836012600380546102119061246c565b80601f016020809104026020016040519081016040528092919081815260200182805461023d9061246c565b801561028a5780601f1061025f5761010080835404028352916020019161028a565b820191906000526020600020905b81548152906001019060200180831161026d57829003601f168201915b50505050506004805461029c9061246c565b80601f01602080910402602001604051908101604052809291908181526020018280546102c89061246c565b80156103155780601f106102ea57610100808354040283529160200191610315565b820191906000526020600020905b8154815290600101906020018083116102f857829003601f168201915b5050505050610928565b6104b2565b60015460025461031f919061eeee9084906012906001600160a01b031661034b5732610358565b6002546001600160a01b03165b6000600260149054906101000a900460ff16600380546103779061246c565b80601f01602080910402602001604051908101604052809291908181526020018280546103a39061246c565b80156103f05780601f106103c5576101008083540402835291602001916103f0565b820191906000526020600020905b8154815290600101906020018083116103d357829003601f168201915b5050505050600480546104029061246c565b80601f016020809104026020016040519081016040528092919081815260200182805461042e9061246c565b801561047b5780601f106104505761010080835404028352916020019161047b565b820191906000526020600020905b81548152906001019060200180831161045e57829003601f168201915b5050505050610b28565b6002546104b2906001600160a01b031661049f57326104ac565b6002546001600160a01b03165b82610d85565b505b6104be6001600655565b005b600080fd5b3480156104d157600080fd5b506104e56104e03660046124a6565b610ea3565b60405190151581526020015b60405180910390f35b6104be61050836600461253e565b610ee7565b34801561051957600080fd5b506104be6105283660046126f9565b6111c8565b34801561053957600080fd5b506105617f000000000000000000000000000000000000000000000000000000000000000081565b6040516001600160a01b0390911681526020016104f1565b34801561058557600080fd5b5061058f60095481565b6040519081526020016104f1565b3480156105a957600080fd5b5061058f60015481565b3480156105bf57600080fd5b5061058f60075481565b3480156105d557600080fd5b5061058f60085481565b3480156105eb57600080fd5b50600254610561906001600160a01b031681565b34801561060b57600080fd5b506105617f000000000000000000000000000000000000000000000000000000000000000081565b34801561063f57600080fd5b506104be61064e36600461279f565b61139f565b34801561065f57600080fd5b506104be611412565b34801561067457600080fd5b5061067d611426565b6040516104f1919061281b565b6104be61069836600461282e565b6114b4565b3480156106a957600080fd5b506000546001600160a01b0316610561565b3480156106c757600080fd5b506005546104e59060ff1681565b3480156106e157600080fd5b506002546104e590600160a01b900460ff1681565b34801561070257600080fd5b506104be61071136600461292e565b611830565b34801561072257600080fd5b5061067d6118e4565b34801561073757600080fd5b506104be610746366004612b76565b6118f1565b34801561075757600080fd5b506105617f000000000000000000000000000000000000000000000000000000000000000081565b34801561078b57600080fd5b506104be61079a366004612c30565b6119d1565b3480156107ab57600080fd5b506104be6107ba366004612cff565b6119f8565b6002600654036108165760405162461bcd60e51b815260206004820152601f60248201527f5265656e7472616e637947756172643a207265656e7472616e742063616c6c0060448201526064015b60405180910390fd5b6002600655565b6040517f69e11cc50000000000000000000000000000000000000000000000000000000081526004810188905260248101879052604481018690526000906108e1906001600160a01b037f000000000000000000000000000000000000000000000000000000000000000016906369e11cc590606401600060405180830381865afa1580156108b0573d6000803e3d6000fd5b505050506040513d6000823e601f3d908101601f191682016040526108d89190810190612d1c565b86868686611a88565b604051338152909150869088908a907f2522c1d6a5eb94bdf38d0007aadcdd12c34a8b834b915ab71117e8c0a7e5df809060200160405180910390a4979650505050505050565b604051630862026560e41b8152600481018790526001600160a01b0386811660248301526000917f000000000000000000000000000000000000000000000000000000000000000090911690638620265090604401602060405180830381865afa15801561099a573d6000803e3d6000fd5b505050506040513d601f19601f820116820180604052508101906109be9190612e26565b90506001600160a01b0381166109e757604051637dd086eb60e11b815260040160405180910390fd5b60405163b7bad1b160e01b81526001600160a01b03878116600483015285919083169063b7bad1b190602401602060405180830381865afa158015610a30573d6000803e3d6000fd5b505050506040513d601f19601f82011682018060405250810190610a549190612e43565b14610a7257604051632e5c964960e21b815260040160405180910390fd5b6001600160a01b03861661eeee14610a9857610a986001600160a01b0387168287611da6565b60006001600160a01b03871661eeee14610ab3576000610ab5565b855b9050816001600160a01b0316630cf8e858828a898b89896040518763ffffffff1660e01b8152600401610aec959493929190612e5c565b6000604051808303818588803b158015610b0557600080fd5b505af1158015610b19573d6000803e3d6000fd5b50505050505050505050505050565b604051630862026560e41b8152600481018a90526001600160a01b0389811660248301526000917f000000000000000000000000000000000000000000000000000000000000000090911690638620265090604401602060405180830381865afa158015610b9a573d6000803e3d6000fd5b505050506040513d601f19601f82011682018060405250810190610bbe9190612e26565b90506001600160a01b038116610be757604051637dd086eb60e11b815260040160405180910390fd5b60405163b7bad1b160e01b81526001600160a01b038a8116600483015288919083169063b7bad1b190602401602060405180830381865afa158015610c30573d6000803e3d6000fd5b505050506040513d601f19601f82011682018060405250810190610c549190612e43565b14610c7257604051632e5c964960e21b815260040160405180910390fd5b6001600160a01b03891661eeee14610c9857610c986001600160a01b038a16828a611da6565b60006001600160a01b038a1661eeee14610cb3576000610cb5565b885b9050816001600160a01b0316631ebc263f828d8c8e60006001600160a01b03168d6001600160a01b031603610d0b576002546001600160a01b0316610cfa5732610d0d565b6002546001600160a01b0316610d0d565b8c5b8c8c8c8c6040518a63ffffffff1660e01b8152600401610d34989796959493929190612ea8565b60206040518083038185885af1158015610d52573d6000803e3d6000fd5b50505050506040513d601f19601f82011682018060405250810190610d779190612e43565b505050505050505050505050565b80471015610dd55760405162461bcd60e51b815260206004820152601d60248201527f416464726573733a20696e73756666696369656e742062616c616e6365000000604482015260640161080d565b6000826001600160a01b03168260405160006040518083038185875af1925050503d8060008114610e22576040519150601f19603f3d011682016040523d82523d6000602084013e610e27565b606091505b5050905080610e9e5760405162461bcd60e51b815260206004820152603a60248201527f416464726573733a20756e61626c6520746f2073656e642076616c75652c207260448201527f6563697069656e74206d61792068617665207265766572746564000000000000606482015260840161080d565b505050565b60006001600160e01b031982167f35d42f96000000000000000000000000000000000000000000000000000000001480610ee15750610ee182611f3c565b92915050565b610eef6107bf565b6001600160a01b03871661eeee1461101e573415610f2057604051635e7e9adf60e11b815260040160405180910390fd5b6040516370a0823160e01b81523060048201526000906001600160a01b038916906370a0823190602401602060405180830381865afa158015610f67573d6000803e3d6000fd5b505050506040513d601f19601f82011682018060405250810190610f8b9190612e43565b9050610fa26001600160a01b03891633308a611fa3565b6040516370a0823160e01b815230600482015281906001600160a01b038a16906370a0823190602401602060405180830381865afa158015610fe8573d6000803e3d6000fd5b505050506040513d601f19601f8201168201806040525081019061100c9190612e43565b6110169190612f12565b965050611026565b349550601294505b60075460085460095460025460009361105693909290918c908c908c906001600160a01b03166101c4573261081d565b905080156111455788156110e0576110db8989838989898080601f01602080910402602001604051908101604052809392919081815260200183838082843760009201919091525050604080516020601f8d018190048102820181019092528b815292508b91508a908190840183828082843760009201919091525061092892505050565b611145565b61eeed196001600160a01b0389160161110d576002546110db906001600160a01b031661049f57326104ac565b600254611145906001600160a01b03166111275732611134565b6002546001600160a01b03165b6001600160a01b038a169083611ff4565b60025489907f5f17f788c7f8d3fd7332fb1e6c42a67accbf9bb129ac8e4389fe693b506369f1906001600160a01b031661117f573261118c565b6002546001600160a01b03165b8a8a8a868b8b8b8b336040516111ab9a99989796959493929190612f5c565b60405180910390a2506111be6001600655565b5050505050505050565b6111d061203d565b60015486146111df5760018690555b6002546001600160a01b0386811691161461121d576002805473ffffffffffffffffffffffffffffffffffffffff19166001600160a01b0387161790555b600260149054906101000a900460ff1615158415151461126a57600280547fffffffffffffffffffffff00ffffffffffffffffffffffffffffffffffffffff16600160a01b861515021790555b600360405160200161127c919061303e565b60405160208183030381529060405280519060200120836040516020016112a3919061304a565b60405160208183030381529060405280519060200120146112cc5760036112ca84826130b4565b505b60046040516020016112de919061303e565b6040516020818303038152906040528051906020012082604051602001611305919061304a565b604051602081830303815290604052805190602001201461132e57600461132c83826130b4565b505b60055460ff1615158115151461134d576005805460ff19168215151790555b846001600160a01b0316867f36b1c5cef608e320317b9ee5155756634c65fe7055b424ce57e2f6c59eec7947868686863360405161138f959493929190613174565b60405180910390a3505050505050565b6113a761203d565b60075483146113b65760078390555b60085482146113c55760088290555b60095481146113d45760098190555b6040513381528190839085907f5ef5a6931855992f84842284a6bba50d74bfe8654238b4d6325427473a90f3a59060200160405180910390a4505050565b61141a61203d565b6114246000612097565b565b600480546114339061246c565b80601f016020809104026020016040519081016040528092919081815260200182805461145f9061246c565b80156114ac5780601f10611481576101008083540402835291602001916114ac565b820191906000526020600020905b81548152906001019060200180831161148f57829003601f168201915b505050505081565b6114bc6107bf565b6001600160a01b038a1661eeee146115eb5734156114ed57604051635e7e9adf60e11b815260040160405180910390fd5b6040516370a0823160e01b81523060048201526000906001600160a01b038c16906370a0823190602401602060405180830381865afa158015611534573d6000803e3d6000fd5b505050506040513d601f19601f820116820180604052508101906115589190612e43565b905061156f6001600160a01b038c1633308d611fa3565b6040516370a0823160e01b815230600482015281906001600160a01b038d16906370a0823190602401602060405180830381865afa1580156115b5573d6000803e3d6000fd5b505050506040513d601f19601f820116820180604052508101906115d99190612e43565b6115e39190612f12565b9950506115f3565b349850601297505b60075460085460095460025460009361162393909290918f908f908f906001600160a01b03166101c4573261081d565b90508015611794578b156116f7576116f28c8c838c6001600160a01b038d1661166d576002546001600160a01b031661165c573261166f565b6002546001600160a01b031661166f565b8c5b8c8c8c8c8080601f016020809104026020016040519081016040528093929190818152602001838380828437600081840152601f19601f820116905080830192505050505050508b8b8080601f016020809104026020016040519081016040528093929190818152602001838380828437600092019190915250610b2892505050565b611794565b61eeed196001600160a01b038c1601611749576116f26001600160a01b038916611742576002546001600160a01b031661173157326104ac565b6002546001600160a01b03166104ac565b8882610d85565b6117946001600160a01b038916611781576002546001600160a01b03166117705732611783565b6002546001600160a01b0316611783565b885b6001600160a01b038d169083611ff4565b8b7f72877920bfc936c0f18c54961abe3105d7d2990103eaa013cd8420fecacb0b606001600160a01b038a166117eb576002546001600160a01b03166117da57326117ed565b6002546001600160a01b03166117ed565b895b8d8d8d868d8d8d8d8d8d336040516118109c9b9a999897969594939291906131c4565b60405180910390a2506118236001600655565b5050505050505050505050565b61183861203d565b6040517ff2da44b60000000000000000000000000000000000000000000000000000000081526001600160a01b037f0000000000000000000000000000000000000000000000000000000000000000169063f2da44b6906118a190879087908690600401613244565b600060405180830381600087803b1580156118bb57600080fd5b505af11580156118cf573d6000803e3d6000fd5b505050506118de84848461139f565b50505050565b600380546114339061246c565b336001600160a01b037f00000000000000000000000000000000000000000000000000000000000000001614611953576040517f439a74c900000000000000000000000000000000000000000000000000000000815260040160405180910390fd5b600187905560028054861515600160a01b027fffffffffffffffffffffff0000000000000000000000000000000000000000009091166001600160a01b0389161717905560036119a385826130b4565b5060046119b084826130b4565b506005805460ff19168315151790556119c881612097565b50505050505050565b6119e0878787878787876118f1565b50505060079690965550505060089190915560095550565b611a0061203d565b6001600160a01b038116611a7c5760405162461bcd60e51b815260206004820152602660248201527f4f776e61626c653a206e6577206f776e657220697320746865207a65726f206160448201527f6464726573730000000000000000000000000000000000000000000000000000606482015260840161080d565b611a8581612097565b50565b8260005b8651811015611d9c576000878281518110611aa957611aa961334f565b602002602001015190506000611ac8878360400151633b9aca006120f4565b90508015611d555760c08201516001600160a01b031615611c62576040805160c0810182526001600160a01b038a168082526020820184905291810188905260015460608201526000608082015260a081018490529061eeee14611b405760c0830151611b40906001600160a01b038b169084611da6565b60006001600160a01b038a1661eeee14611b5b576000611b5d565b825b60c080860151604080517f9d740bfa00000000000000000000000000000000000000000000000000000000815286516001600160a01b03908116600483015260208089015160248401528389015160448401526060808a015160648501526080808b0151608486015260a0808c01518051151560a488015293840151151560c48701529583015160e486015290820151610104850152810151821661012484015292830151610144830152919093015181166101648401529293509190911690639d740bfa908390610184016000604051808303818588803b158015611c4257600080fd5b505af1158015611c56573d6000803e3d6000fd5b50505050505050611d48565b606082015115611cdc57816020015115611c9357611c8e8260600151898389600380546102119061246c565b611d48565b611c8e826060015189838960006001600160a01b031687608001516001600160a01b031603611cc25789611cc8565b86608001515b60008860000151600380546103779061246c565b61eeed196001600160a01b03891601611d16576080820151611c8e906001600160a01b0316611d0b57856104ac565b826080015182610d85565b6080820151611d48906001600160a01b0316611d325785611134565b82608001516001600160a01b038a169083611ff4565b611d528185612f12565b93505b7ff44ffe151def7bd57d653ffdd625b5cfff3e6992ad5b8eb1f021cdaca659954482828733604051611d8a9493929190613365565b60405180910390a15050600101611a8c565b5095945050505050565b801580611e3957506040517fdd62ed3e0000000000000000000000000000000000000000000000000000000081523060048201526001600160a01b03838116602483015284169063dd62ed3e90604401602060405180830381865afa158015611e13573d6000803e3d6000fd5b505050506040513d601f19601f82011682018060405250810190611e379190612e43565b155b611eab5760405162461bcd60e51b815260206004820152603660248201527f5361666545524332303a20617070726f76652066726f6d206e6f6e2d7a65726f60448201527f20746f206e6f6e2d7a65726f20616c6c6f77616e636500000000000000000000606482015260840161080d565b6040516001600160a01b038316602482015260448101829052610e9e9084907f095ea7b300000000000000000000000000000000000000000000000000000000906064015b60408051601f198184030181529190526020810180517bffffffffffffffffffffffffffffffffffffffffffffffffffffffff166001600160e01b0319909316929092179091526121e0565b60006001600160e01b031982167f7ddb72fc000000000000000000000000000000000000000000000000000000001480610ee157507f01ffc9a7000000000000000000000000000000000000000000000000000000006001600160e01b0319831614610ee1565b6040516001600160a01b03808516602483015283166044820152606481018290526118de9085907f23b872dd0000000000000000000000000000000000000000000000000000000090608401611ef0565b6040516001600160a01b038316602482015260448101829052610e9e9084907fa9059cbb0000000000000000000000000000000000000000000000000000000090606401611ef0565b6000546001600160a01b031633146114245760405162461bcd60e51b815260206004820181905260248201527f4f776e61626c653a2063616c6c6572206973206e6f7420746865206f776e6572604482015260640161080d565b600080546001600160a01b0383811673ffffffffffffffffffffffffffffffffffffffff19831681178455604051919092169283917f8be0079c531659141344cd1fd0a4f28419497f9722a3daafe3b4186f6b6457e09190a35050565b600080806000198587098587029250828110838203039150508060000361212e57838281612124576121246133ed565b04925050506121d9565b838110612171576040517f773cc18c000000000000000000000000000000000000000000000000000000008152600481018290526024810185905260440161080d565b600084868809851960019081018716968790049682860381900495909211909303600082900391909104909201919091029190911760038402600290811880860282030280860282030280860282030280860282030280860282030280860290910302029150505b9392505050565b6000612235826040518060400160405280602081526020017f5361666545524332303a206c6f772d6c6576656c2063616c6c206661696c6564815250856001600160a01b03166122c59092919063ffffffff16565b805190915015610e9e57808060200190518101906122539190613403565b610e9e5760405162461bcd60e51b815260206004820152602a60248201527f5361666545524332303a204552433230206f7065726174696f6e20646964206e60448201527f6f74207375636365656400000000000000000000000000000000000000000000606482015260840161080d565b60606122d484846000856122dc565b949350505050565b6060824710156123545760405162461bcd60e51b815260206004820152602660248201527f416464726573733a20696e73756666696369656e742062616c616e636520666f60448201527f722063616c6c0000000000000000000000000000000000000000000000000000606482015260840161080d565b600080866001600160a01b03168587604051612370919061304a565b60006040518083038185875af1925050503d80600081146123ad576040519150601f19603f3d011682016040523d82523d6000602084013e6123b2565b606091505b50915091506123c3878383876123ce565b979650505050505050565b6060831561243d578251600003612436576001600160a01b0385163b6124365760405162461bcd60e51b815260206004820152601d60248201527f416464726573733a2063616c6c20746f206e6f6e2d636f6e7472616374000000604482015260640161080d565b50816122d4565b6122d483838151156124525781518083602001fd5b8060405162461bcd60e51b815260040161080d919061281b565b600181811c9082168061248057607f821691505b6020821081036124a057634e487b7160e01b600052602260045260246000fd5b50919050565b6000602082840312156124b857600080fd5b81356001600160e01b0319811681146121d957600080fd5b6001600160a01b0381168114611a8557600080fd5b80356124f0816124d0565b919050565b60008083601f84011261250757600080fd5b50813567ffffffffffffffff81111561251f57600080fd5b60208301915083602082850101111561253757600080fd5b9250929050565b60008060008060008060008060c0898b03121561255a57600080fd5b88359750602089013561256c816124d0565b96506040890135955060608901359450608089013567ffffffffffffffff8082111561259757600080fd5b6125a38c838d016124f5565b909650945060a08b01359150808211156125bc57600080fd5b506125c98b828c016124f5565b999c989b5096995094979396929594505050565b8015158114611a8557600080fd5b80356124f0816125dd565b634e487b7160e01b600052604160045260246000fd5b6040805190810167ffffffffffffffff8111828210171561262f5761262f6125f6565b60405290565b60405160e0810167ffffffffffffffff8111828210171561262f5761262f6125f6565b604051601f8201601f1916810167ffffffffffffffff81118282101715612681576126816125f6565b604052919050565b600082601f83011261269a57600080fd5b813567ffffffffffffffff8111156126b4576126b46125f6565b6126c7601f8201601f1916602001612658565b8181528460208386010111156126dc57600080fd5b816020850160208301376000918101602001919091529392505050565b60008060008060008060c0878903121561271257600080fd5b863595506020870135612724816124d0565b94506040870135612734816125dd565b9350606087013567ffffffffffffffff8082111561275157600080fd5b61275d8a838b01612689565b9450608089013591508082111561277357600080fd5b5061278089828a01612689565b92505060a0870135612791816125dd565b809150509295509295509295565b6000806000606084860312156127b457600080fd5b505081359360208301359350604090920135919050565b60005b838110156127e65781810151838201526020016127ce565b50506000910152565b600081518084526128078160208601602086016127cb565b601f01601f19169290920160200192915050565b6020815260006121d960208301846127ef565b60008060008060008060008060008060006101208c8e03121561285057600080fd5b8b359a5061286160208d01356124d0565b60208c0135995060408c0135985060608c0135975061288360808d01356124d0565b60808c0135965060a08c0135955061289d60c08d016125eb565b945067ffffffffffffffff8060e08e013511156128b957600080fd5b6128c98e60e08f01358f016124f5565b90955093506101008d01358110156128e057600080fd5b506128f28d6101008e01358e016124f5565b81935080925050509295989b509295989b9093969950565b600067ffffffffffffffff821115612924576129246125f6565b5060051b60200190565b6000806000806080858703121561294457600080fd5b84359350602085013592506040850135915067ffffffffffffffff6060860135111561296f57600080fd5b85601f60608701358701011261298457600080fd5b61299c612997606087013587013561290a565b612658565b6060860135860180358083526020808401939260059290921b909101018810156129c557600080fd5b602060608801358801015b60608801358801803560051b01602001811015612b695767ffffffffffffffff813511156129fd57600080fd5b6040606089013589018235018a03601f19011215612a1a57600080fd5b612a2261260c565b606089013589018235016020810135825267ffffffffffffffff6040909101351115612a4d57600080fd5b60608901358901823501604081013501603f81018b13612a6c57600080fd5b612a7c612997602083013561290a565b602082810135808352908201919060e00283016040018d1015612a9e57600080fd5b604083015b604060e0602086013502850101811015612b505760e0818f031215612ac757600080fd5b612acf612635565b612ad982356125dd565b81358152612aea60208301356125dd565b602082013560208201526040820135604082015260608201356060820152612b1560808301356124d0565b6080820135608082015260a082013560a0820152612b3660c08301356124d0565b60c08281013590820152835260209092019160e001612aa3565b50602084810191909152928652505092830192016129d0565b5094979396509194505050565b600080600080600080600060e0888a031215612b9157600080fd5b873596506020880135612ba3816124d0565b95506040880135612bb3816125dd565b9450606088013567ffffffffffffffff80821115612bd057600080fd5b612bdc8b838c01612689565b955060808a0135915080821115612bf257600080fd5b50612bff8a828b01612689565b93505060a0880135612c10816125dd565b915060c0880135612c20816124d0565b8091505092959891949750929550565b6000806000806000806000806000806101408b8d031215612c5057600080fd5b8a35995060208b0135985060408b0135975060608b01359650612c7560808c016124e5565b9550612c8360a08c016125eb565b945060c08b013567ffffffffffffffff80821115612ca057600080fd5b612cac8e838f01612689565b955060e08d0135915080821115612cc257600080fd5b50612ccf8d828e01612689565b935050612cdf6101008c016125eb565b9150612cee6101208c016124e5565b90509295989b9194979a5092959850565b600060208284031215612d1157600080fd5b81356121d9816124d0565b60006020808385031215612d2f57600080fd5b825167ffffffffffffffff811115612d4657600080fd5b8301601f81018513612d5757600080fd5b8051612d656129978261290a565b81815260e09182028301840191848201919088841115612d8457600080fd5b938501935b83851015612e1a5780858a031215612da15760008081fd5b612da9612635565b8551612db4816125dd565b815285870151612dc3816125dd565b818801526040868101519082015260608087015190820152608080870151612dea816124d0565b9082015260a0868101519082015260c080870151612e07816124d0565b9082015283529384019391850191612d89565b50979650505050505050565b600060208284031215612e3857600080fd5b81516121d9816124d0565b600060208284031215612e5557600080fd5b5051919050565b8581528460208201526001600160a01b038416604082015260a060608201526000612e8a60a08301856127ef565b8281036080840152612e9c81856127ef565b98975050505050505050565b60006101008a83528960208401526001600160a01b03808a16604085015280891660608501525086608084015285151560a08401528060c0840152612eef818401866127ef565b905082810360e0840152612f0381856127ef565b9b9a5050505050505050505050565b81810381811115610ee157634e487b7160e01b600052601160045260246000fd5b81835281816020850137506000828201602090810191909152601f909101601f19169091010190565b60006101006001600160a01b03808e168452808d1660208501528b60408501528a60608501528960808501528160a0850152612f9b828501898b612f33565b915083820360c0850152612fb0828789612f33565b925080851660e085015250509b9a5050505050505050505050565b60008154612fd88161246c565b60018281168015612ff0576001811461300557613034565b60ff1984168752821515830287019450613034565b8560005260208060002060005b8581101561302b5781548a820152908401908201613012565b50505082870194505b5050505092915050565b60006121d98284612fcb565b6000825161305c8184602087016127cb565b9190910192915050565b601f821115610e9e57600081815260208120601f850160051c8101602086101561308d5750805b601f850160051c820191505b818110156130ac57828155600101613099565b505050505050565b815167ffffffffffffffff8111156130ce576130ce6125f6565b6130e2816130dc845461246c565b84613066565b602080601f83116001811461311757600084156130ff5750858301515b600019600386901b1c1916600185901b1785556130ac565b600085815260208120601f198616915b8281101561314657888601518255948401946001909101908401613127565b50858210156131645787850151600019600388901b60f8161c191681555b5050505050600190811b01905550565b851515815260a06020820152600061318f60a08301876127ef565b82810360408401526131a181876127ef565b941515606084015250506001600160a01b03919091166080909101529392505050565b60006001600160a01b03808f168352808e1660208401528c60408401528b60608401528a60808401528960a084015288151560c084015261014060e08401526132126101408401888a612f33565b838103610100850152613226818789612f33565b925050808416610120840152509d9c50505050505050505050505050565b60006060808301868452602086818601526040838187015282875180855260808801915060808160051b89010194508389016000805b8381101561333d578a8803607f190185528251805189528701518789018790528051878a018190529088019083908b8b01905b8083101561332857613312828551805115158252602081015115156020830152604081015160408301526060810151606083015260808101516001600160a01b03808216608085015260a083015160a08501528060c08401511660c085015250505050565b60e0820191508a840193506001830192506132ad565b5099505050938601939186019160010161327a565b50959c9b505050505050505050505050565b634e487b7160e01b600052603260045260246000fd5b61014081016133c68287805115158252602081015115156020830152604081015160408301526060810151606083015260808101516001600160a01b03808216608085015260a083015160a08501528060c08401511660c085015250505050565b60e08201949094526001600160a01b03928316610100820152911661012090910152919050565b634e487b7160e01b600052601260045260246000fd5b60006020828403121561341557600080fd5b81516121d9816125dd56fea2646970667358221220df0af4c8d26e15db9d22a0234ed6a5016553df2e91447cdeb8e3c1cf00b5962764736f6c63430008100033",
  "devdoc": {
    "details": "Adheres to - IJBETHERC20SplitsPayerDeployer:  General interface for the methods in this contract that interact with the blockchain's state according to the protocol's rules.",
    "kind": "dev",
    "methods": {
      "deploySplitsPayer(uint256,uint256,uint256,uint256,address,bool,string,bytes,bool,address)": {
        "params": {
          "_defaultBeneficiary": "The address that'll receive the project's tokens when the splits payer receives payments. ",
          "_defaultMemo": "The memo that'll be forwarded with the splits payer's received payments. ",
          "_defaultMetadata": "The metadata that'll be forwarded with the splits payer's received payments. ",
          "_defaultPreferAddToBalance": "A flag indicating if received payments should call the `pay` function or the `addToBalance` function of a project.",
          "_defaultPreferClaimedTokens": "A flag indicating whether issued tokens from the splits payer's received payments should be automatically claimed into the beneficiary's wallet. ",
          "_defaultProjectId": "The ID of the project whose treasury should be forwarded the splits payer contract's received payment leftovers after distributing to the default splits group.",
          "_defaultSplitsDomain": "The splits domain to payout when this contract receives direct payments.",
          "_defaultSplitsGroup": "The splits group to payout when this contract receives direct payments.",
          "_defaultSplitsProjectId": "The ID of project for which the default splits are stored.",
          "_owner": "The address that will own the splits payer."
        },
        "returns": {
          "splitsPayer": "The splits payer contract."
        }
      },
      "deploySplitsPayerWithSplits(uint256,(bool,bool,uint256,uint256,address,uint256,address)[],address,uint256,address,bool,string,bytes,bool,address)": {
        "details": "This contract must have Operator permissions over the SET_SPLITS permission of the specified `_defaultSplitsProjectId`.",
        "params": {
          "_defaultBeneficiary": "The address that'll receive the project's tokens when the splits payer receives payments. ",
          "_defaultMemo": "The memo that'll be forwarded with the splits payer's received payments. ",
          "_defaultMetadata": "The metadata that'll be forwarded with the splits payer's received payments. ",
          "_defaultPreferAddToBalance": "A flag indicating if received payments should call the `pay` function or the `addToBalance` function of a project.",
          "_defaultPreferClaimedTokens": "A flag indicating whether issued tokens from the splits payer's received payments should be automatically claimed into the beneficiary's wallet. ",
          "_defaultProjectId": "The ID of the project whose treasury should be forwarded the splits payer contract's received payment leftovers after distributing to the default splits group.",
          "_defaultSplits": "The splits to payout when this contract receives direct payments.",
          "_defaultSplitsProjectId": "The ID of project for which the default splits are stored.",
          "_owner": "The address that will own the splits payer.",
          "_splitsStore": "A contract that stores splits for each project."
        },
        "returns": {
          "splitsPayer": "The splits payer contract."
        }
      }
    },
    "version": 1
  },
  "userdoc": {
    "kind": "user",
    "methods": {
      "deploySplitsPayer(uint256,uint256,uint256,uint256,address,bool,string,bytes,bool,address)": {
        "notice": " Allows anyone to deploy a new splits payer contract."
      },
      "deploySplitsPayerWithSplits(uint256,(bool,bool,uint256,uint256,address,uint256,address)[],address,uint256,address,bool,string,bytes,bool,address)": {
        "notice": " Allows anyone to deploy a new splits payer contract."
      }
    },
    "notice": " Deploys splits payer contracts.",
    "version": 1
  },
  "storageLayout": {
    "storage": [],
    "types": null
  }
}