{
  "address": "0x25fdda0eBD9e979b8c1657780045Cf87392a14E4",
  "abi": [
    {
      "inputs": [
        {
          "internalType": "contract IJBOperatorStore",
          "name": "_operatorStore",
          "type": "address"
        },
        {
          "internalType": "contract IJBProjects",
          "name": "_projects",
          "type": "address"
        },
        {
          "internalType": "contract IJBDirectory",
          "name": "_directory",
          "type": "address"
        },
        {
          "internalType": "contract IJBFundingCycleStore",
          "name": "_fundingCycleStore",
          "type": "address"
        }
      ],
      "stateMutability": "nonpayable",
      "type": "constructor"
    },
    {
      "inputs": [],
      "name": "ALREADY_SET",
      "type": "error"
    },
    {
      "inputs": [],
      "name": "CONTROLLER_UNAUTHORIZED",
      "type": "error"
    },
    {
      "inputs": [],
      "name": "EMPTY_NAME",
      "type": "error"
    },
    {
      "inputs": [],
      "name": "EMPTY_SYMBOL",
      "type": "error"
    },
    {
      "inputs": [],
      "name": "EMPTY_TOKEN",
      "type": "error"
    },
    {
      "inputs": [],
      "name": "INSUFFICIENT_FUNDS",
      "type": "error"
    },
    {
      "inputs": [],
      "name": "INSUFFICIENT_UNCLAIMED_TOKENS",
      "type": "error"
    },
    {
      "inputs": [],
      "name": "OVERFLOW_ALERT",
      "type": "error"
    },
    {
      "inputs": [],
      "name": "PROJECT_ALREADY_HAS_TOKEN",
      "type": "error"
    },
    {
      "inputs": [],
      "name": "RECIPIENT_ZERO_ADDRESS",
      "type": "error"
    },
    {
      "inputs": [],
      "name": "TOKENS_MUST_HAVE_18_DECIMALS",
      "type": "error"
    },
    {
      "inputs": [],
      "name": "TOKEN_NOT_FOUND",
      "type": "error"
    },
    {
      "inputs": [],
      "name": "TRANSFERS_PAUSED",
      "type": "error"
    },
    {
      "inputs": [],
      "name": "UNAUTHORIZED",
      "type": "error"
    },
    {
      "anonymous": false,
      "inputs": [
        {
          "indexed": true,
          "internalType": "address",
          "name": "holder",
          "type": "address"
        },
        {
          "indexed": true,
          "internalType": "uint256",
          "name": "projectId",
          "type": "uint256"
        },
        {
          "indexed": false,
          "internalType": "uint256",
          "name": "amount",
          "type": "uint256"
        },
        {
          "indexed": false,
          "internalType": "uint256",
          "name": "initialUnclaimedBalance",
          "type": "uint256"
        },
        {
          "indexed": false,
          "internalType": "uint256",
          "name": "initialClaimedBalance",
          "type": "uint256"
        },
        {
          "indexed": false,
          "internalType": "bool",
          "name": "preferClaimedTokens",
          "type": "bool"
        },
        {
          "indexed": false,
          "internalType": "address",
          "name": "caller",
          "type": "address"
        }
      ],
      "name": "Burn",
      "type": "event"
    },
    {
      "anonymous": false,
      "inputs": [
        {
          "indexed": true,
          "internalType": "address",
          "name": "holder",
          "type": "address"
        },
        {
          "indexed": true,
          "internalType": "uint256",
          "name": "projectId",
          "type": "uint256"
        },
        {
          "indexed": false,
          "internalType": "uint256",
          "name": "initialUnclaimedBalance",
          "type": "uint256"
        },
        {
          "indexed": false,
          "internalType": "uint256",
          "name": "amount",
          "type": "uint256"
        },
        {
          "indexed": false,
          "internalType": "address",
          "name": "caller",
          "type": "address"
        }
      ],
      "name": "Claim",
      "type": "event"
    },
    {
      "anonymous": false,
      "inputs": [
        {
          "indexed": true,
          "internalType": "uint256",
          "name": "projectId",
          "type": "uint256"
        },
        {
          "indexed": true,
          "internalType": "contract IJBToken",
          "name": "token",
          "type": "address"
        },
        {
          "indexed": false,
          "internalType": "string",
          "name": "name",
          "type": "string"
        },
        {
          "indexed": false,
          "internalType": "string",
          "name": "symbol",
          "type": "string"
        },
        {
          "indexed": false,
          "internalType": "address",
          "name": "caller",
          "type": "address"
        }
      ],
      "name": "Issue",
      "type": "event"
    },
    {
      "anonymous": false,
      "inputs": [
        {
          "indexed": true,
          "internalType": "address",
          "name": "holder",
          "type": "address"
        },
        {
          "indexed": true,
          "internalType": "uint256",
          "name": "projectId",
          "type": "uint256"
        },
        {
          "indexed": false,
          "internalType": "uint256",
          "name": "amount",
          "type": "uint256"
        },
        {
          "indexed": false,
          "internalType": "bool",
          "name": "tokensWereClaimed",
          "type": "bool"
        },
        {
          "indexed": false,
          "internalType": "bool",
          "name": "preferClaimedTokens",
          "type": "bool"
        },
        {
          "indexed": false,
          "internalType": "address",
          "name": "caller",
          "type": "address"
        }
      ],
      "name": "Mint",
      "type": "event"
    },
    {
      "anonymous": false,
      "inputs": [
        {
          "indexed": true,
          "internalType": "uint256",
          "name": "projectId",
          "type": "uint256"
        },
        {
          "indexed": true,
          "internalType": "contract IJBToken",
          "name": "newToken",
          "type": "address"
        },
        {
          "indexed": false,
          "internalType": "address",
          "name": "caller",
          "type": "address"
        }
      ],
      "name": "Set",
      "type": "event"
    },
    {
      "anonymous": false,
      "inputs": [
        {
          "indexed": true,
          "internalType": "address",
          "name": "holder",
          "type": "address"
        },
        {
          "indexed": true,
          "internalType": "uint256",
          "name": "projectId",
          "type": "uint256"
        },
        {
          "indexed": true,
          "internalType": "address",
          "name": "recipient",
          "type": "address"
        },
        {
          "indexed": false,
          "internalType": "uint256",
          "name": "amount",
          "type": "uint256"
        },
        {
          "indexed": false,
          "internalType": "address",
          "name": "caller",
          "type": "address"
        }
      ],
      "name": "Transfer",
      "type": "event"
    },
    {
      "inputs": [
        {
          "internalType": "address",
          "name": "_holder",
          "type": "address"
        },
        {
          "internalType": "uint256",
          "name": "_projectId",
          "type": "uint256"
        }
      ],
      "name": "balanceOf",
      "outputs": [
        {
          "internalType": "uint256",
          "name": "balance",
          "type": "uint256"
        }
      ],
      "stateMutability": "view",
      "type": "function"
    },
    {
      "inputs": [
        {
          "internalType": "address",
          "name": "_holder",
          "type": "address"
        },
        {
          "internalType": "uint256",
          "name": "_projectId",
          "type": "uint256"
        },
        {
          "internalType": "uint256",
          "name": "_amount",
          "type": "uint256"
        },
        {
          "internalType": "bool",
          "name": "_preferClaimedTokens",
          "type": "bool"
        }
      ],
      "name": "burnFrom",
      "outputs": [],
      "stateMutability": "nonpayable",
      "type": "function"
    },
    {
      "inputs": [
        {
          "internalType": "address",
          "name": "_holder",
          "type": "address"
        },
        {
          "internalType": "uint256",
          "name": "_projectId",
          "type": "uint256"
        },
        {
          "internalType": "uint256",
          "name": "_amount",
          "type": "uint256"
        }
      ],
      "name": "claimFor",
      "outputs": [],
      "stateMutability": "nonpayable",
      "type": "function"
    },
    {
      "inputs": [],
      "name": "directory",
      "outputs": [
        {
          "internalType": "contract IJBDirectory",
          "name": "",
          "type": "address"
        }
      ],
      "stateMutability": "view",
      "type": "function"
    },
    {
      "inputs": [],
      "name": "fundingCycleStore",
      "outputs": [
        {
          "internalType": "contract IJBFundingCycleStore",
          "name": "",
          "type": "address"
        }
      ],
      "stateMutability": "view",
      "type": "function"
    },
    {
      "inputs": [
        {
          "internalType": "uint256",
          "name": "_projectId",
          "type": "uint256"
        },
        {
          "internalType": "string",
          "name": "_name",
          "type": "string"
        },
        {
          "internalType": "string",
          "name": "_symbol",
          "type": "string"
        }
      ],
      "name": "issueFor",
      "outputs": [
        {
          "internalType": "contract IJBToken",
          "name": "token",
          "type": "address"
        }
      ],
      "stateMutability": "nonpayable",
      "type": "function"
    },
    {
      "inputs": [
        {
          "internalType": "address",
          "name": "_holder",
          "type": "address"
        },
        {
          "internalType": "uint256",
          "name": "_projectId",
          "type": "uint256"
        },
        {
          "internalType": "uint256",
          "name": "_amount",
          "type": "uint256"
        },
        {
          "internalType": "bool",
          "name": "_preferClaimedTokens",
          "type": "bool"
        }
      ],
      "name": "mintFor",
      "outputs": [],
      "stateMutability": "nonpayable",
      "type": "function"
    },
    {
      "inputs": [],
      "name": "operatorStore",
      "outputs": [
        {
          "internalType": "contract IJBOperatorStore",
          "name": "",
          "type": "address"
        }
      ],
      "stateMutability": "view",
      "type": "function"
    },
    {
      "inputs": [],
      "name": "projects",
      "outputs": [
        {
          "internalType": "contract IJBProjects",
          "name": "",
          "type": "address"
        }
      ],
      "stateMutability": "view",
      "type": "function"
    },
    {
      "inputs": [
        {
          "internalType": "uint256",
          "name": "_projectId",
          "type": "uint256"
        },
        {
          "internalType": "contract IJBToken",
          "name": "_token",
          "type": "address"
        }
      ],
      "name": "setFor",
      "outputs": [],
      "stateMutability": "nonpayable",
      "type": "function"
    },
    {
      "inputs": [
        {
          "internalType": "uint256",
          "name": "",
          "type": "uint256"
        }
      ],
      "name": "tokenOf",
      "outputs": [
        {
          "internalType": "contract IJBToken",
          "name": "",
          "type": "address"
        }
      ],
      "stateMutability": "view",
      "type": "function"
    },
    {
      "inputs": [
        {
          "internalType": "uint256",
          "name": "_projectId",
          "type": "uint256"
        }
      ],
      "name": "totalSupplyOf",
      "outputs": [
        {
          "internalType": "uint256",
          "name": "totalSupply",
          "type": "uint256"
        }
      ],
      "stateMutability": "view",
      "type": "function"
    },
    {
      "inputs": [
        {
          "internalType": "address",
          "name": "_holder",
          "type": "address"
        },
        {
          "internalType": "uint256",
          "name": "_projectId",
          "type": "uint256"
        },
        {
          "internalType": "address",
          "name": "_recipient",
          "type": "address"
        },
        {
          "internalType": "uint256",
          "name": "_amount",
          "type": "uint256"
        }
      ],
      "name": "transferFrom",
      "outputs": [],
      "stateMutability": "nonpayable",
      "type": "function"
    },
    {
      "inputs": [
        {
          "internalType": "address",
          "name": "",
          "type": "address"
        },
        {
          "internalType": "uint256",
          "name": "",
          "type": "uint256"
        }
      ],
      "name": "unclaimedBalanceOf",
      "outputs": [
        {
          "internalType": "uint256",
          "name": "",
          "type": "uint256"
        }
      ],
      "stateMutability": "view",
      "type": "function"
    },
    {
      "inputs": [
        {
          "internalType": "uint256",
          "name": "",
          "type": "uint256"
        }
      ],
      "name": "unclaimedTotalSupplyOf",
      "outputs": [
        {
          "internalType": "uint256",
          "name": "",
          "type": "uint256"
        }
      ],
      "stateMutability": "view",
      "type": "function"
    }
  ],
  "transactionHash": "0x548b494a21206655079b0ef6fb04ad058680b3178b34984ce2aa65bfdfed235b",
  "args": [
    "0x8f63c744c0280ef4b32af1f821c65e0fd4150ab3",
    "0x43CB8FCe4F0d61579044342A5d5A027aB7aE4D63",
    "0x3B3Bd16cc76cd53218e00b600bFCa27aA5057794",
    "0xCb881e166d527010B9eF11159b487f907040D7C4"
  ],
  "numDeployments": 1,
  "solcInputHash": "0f5964b38384f4c19030b2b901d536cc",
  "bytecode": "0x6101006040523480156200001257600080fd5b5060405162004baf38038062004baf833981016040819052620000359162000072565b6001600160a01b0391821660805292811660a05290811660c0521660e052620000da565b6001600160a01b03811681146200006f57600080fd5b50565b600080600080608085870312156200008957600080fd5b8451620000968162000059565b6020860151909450620000a98162000059565b6040860151909350620000bc8162000059565b6060860151909250620000cf8162000059565b939692955090935050565b60805160a05160c05160e051614a6a620001456000396000818161018e0152611080015260008181610223015281816107270152610df0015260008181610290015281816116a501526117760152600081816102b8015281816109e601526113240152614a6a6000f3fe60806040523480156200001157600080fd5b5060043610620001085760003560e01c80638b79543c11620000a3578063ad007d63116200006e578063ad007d63146200028a578063c41c2f2414620002b2578063ceddd3e414620002da578063ea78803f14620002f157600080fd5b80638b79543c146200021d578063906ebd0f1462000245578063a7f2a70b146200025c578063ac689bcd146200027357600080fd5b8063557e715511620000e4578063557e715514620001885780636607955d14620001d657806375b0d9cd14620001ef578063831d7fac146200020657600080fd5b8062fdd58e146200010d5780631412884f14620001375780635287af37146200015a575b600080fd5b620001246200011e366004620018d2565b6200032a565b6040519081526020015b60405180910390f35b620001246200014836600462001901565b60016020526000908152604090205481565b620001246200016b366004620018d2565b600260209081526000928352604080842090915290825290205481565b620001b07f000000000000000000000000000000000000000000000000000000000000000081565b60405173ffffffffffffffffffffffffffffffffffffffff90911681526020016200012e565b620001ed620001e73660046200191b565b6200041c565b005b620001246200020036600462001901565b6200061a565b620001ed6200021736600462001953565b620006f8565b620001b07f000000000000000000000000000000000000000000000000000000000000000081565b620001ed6200025636600462001995565b6200099e565b620001b06200026d36600462001a30565b62000dbe565b620001ed6200028436600462001ab1565b6200103d565b620001b07f000000000000000000000000000000000000000000000000000000000000000081565b620001b07f000000000000000000000000000000000000000000000000000000000000000081565b620001ed620002eb36600462001995565b620012dc565b620001b06200030236600462001901565b60006020819052908152604090205473ffffffffffffffffffffffffffffffffffffffff1681565b73ffffffffffffffffffffffffffffffffffffffff80831660009081526002602090815260408083208584528252808320549183905290912054909116801562000415576040517efdd58e00000000000000000000000000000000000000000000000000000000815273ffffffffffffffffffffffffffffffffffffffff85811660048301526024820185905282169062fdd58e90604401602060405180830381865afa158015620003e0573d6000803e3d6000fd5b505050506040513d601f19601f8201168201806040525081019062000406919062001afe565b62000412908362001b47565b91505b5092915050565b8282600b6200042d8383836200162a565b60008581526020819052604090205473ffffffffffffffffffffffffffffffffffffffff16806200048a576040517f73c463ce00000000000000000000000000000000000000000000000000000000815260040160405180910390fd5b73ffffffffffffffffffffffffffffffffffffffff8716600090815260026020908152604080832089845290915290205485811015620004f6576040517f83fc8b2d00000000000000000000000000000000000000000000000000000000815260040160405180910390fd5b73ffffffffffffffffffffffffffffffffffffffff88811660008181526002602090815260408083208c845282528083208b8703905560019091529081902080548a90039055517f836a1040000000000000000000000000000000000000000000000000000000008152600481018a90526024810191909152604481018890529083169063836a104090606401600060405180830381600087803b1580156200059e57600080fd5b505af1158015620005b3573d6000803e3d6000fd5b505060408051848152602081018a9052338183015290518a935073ffffffffffffffffffffffffffffffffffffffff8c1692507fe718784128df3c3d45fbd6519133fee450494f7cdb2b53830a5087cd47f980829181900360600190a35050505050505050565b600081815260016020908152604080832054918390529091205473ffffffffffffffffffffffffffffffffffffffff168015620006f2576040517fbd85b0390000000000000000000000000000000000000000000000000000000081526004810184905273ffffffffffffffffffffffffffffffffffffffff82169063bd85b03990602401602060405180830381865afa158015620006bd573d6000803e3d6000fd5b505050506040513d601f19601f82011682018060405250810190620006e3919062001afe565b620006ef908362001b47565b91505b50919050565b6040517f6352211e000000000000000000000000000000000000000000000000000000008152600481018390527f000000000000000000000000000000000000000000000000000000000000000073ffffffffffffffffffffffffffffffffffffffff1690636352211e90602401602060405180830381865afa15801562000784573d6000803e3d6000fd5b505050506040513d601f19601f82011682018060405250810190620007aa919062001b5d565b826008620007ba8383836200162a565b73ffffffffffffffffffffffffffffffffffffffff841662000808576040517f24679e7b00000000000000000000000000000000000000000000000000000000815260040160405180910390fd5b60008581526020819052604090205473ffffffffffffffffffffffffffffffffffffffff161562000865576040517f97f9d95700000000000000000000000000000000000000000000000000000000815260040160405180910390fd5b8373ffffffffffffffffffffffffffffffffffffffff1663313ce5676040518163ffffffff1660e01b8152600401602060405180830381865afa158015620008b1573d6000803e3d6000fd5b505050506040513d601f19601f82011682018060405250810190620008d7919062001b84565b60ff1660121462000914576040517fadc38c9400000000000000000000000000000000000000000000000000000000815260040160405180910390fd5b6000858152602081815260409182902080547fffffffffffffffffffffffff00000000000000000000000000000000000000001673ffffffffffffffffffffffffffffffffffffffff8816908117909155915133815287917ff2b3bb02e24e3ecd8d6fbce63d308207ce06307b9f7ba575bef710e1e70ac60e910160405180910390a35050505050565b6040517f5dd8f6aa000000000000000000000000000000000000000000000000000000008152600481018490528390339073ffffffffffffffffffffffffffffffffffffffff7f00000000000000000000000000000000000000000000000000000000000000001690635dd8f6aa90602401602060405180830381865afa15801562000a2e573d6000803e3d6000fd5b505050506040513d601f19601f8201168201806040525081019062000a54919062001b5d565b73ffffffffffffffffffffffffffffffffffffffff161462000aa2576040517fab7f741400000000000000000000000000000000000000000000000000000000815260040160405180910390fd5b6000848152602081815260408083205473ffffffffffffffffffffffffffffffffffffffff89811685526002845282852089865290935290832054911691821562000b85576040517efdd58e00000000000000000000000000000000000000000000000000000000815273ffffffffffffffffffffffffffffffffffffffff89811660048301526024820189905284169062fdd58e90604401602060405180830381865afa15801562000b59573d6000803e3d6000fd5b505050506040513d601f19601f8201168201806040525081019062000b7f919062001afe565b62000b88565b60005b905062000b96828262001b47565b86111562000bd0576040517fe793143800000000000000000000000000000000000000000000000000000000815260040160405180910390fd5b6000811562000c1057851562000bf95786821062000bef578662000bf1565b815b905062000c10565b86831062000c0957600062000c0d565b8287035b90505b80870387821462000cb05773ffffffffffffffffffffffffffffffffffffffff8a1660009081526002602090815260408083208c845290915290205462000c5990829062001ba9565b73ffffffffffffffffffffffffffffffffffffffff8b1660009081526002602090815260408083208d845282528083209390935560019052205462000ca090829062001ba9565b60008a8152600160205260409020555b811562000d49576040517f9eea5f66000000000000000000000000000000000000000000000000000000008152600481018a905273ffffffffffffffffffffffffffffffffffffffff8b8116602483015260448201849052861690639eea5f6690606401600060405180830381600087803b15801562000d2f57600080fd5b505af115801562000d44573d6000803e3d6000fd5b505050505b60408051898152602081018690529081018490528715156060820152336080820152899073ffffffffffffffffffffffffffffffffffffffff8c16907fbe100da6adaa492f7ba1b0de916ae2606126ec7b044d7aa8ec74971a607ceecd9060a00160405180910390a350505050505050505050565b6040517f6352211e000000000000000000000000000000000000000000000000000000008152600481018690526000907f000000000000000000000000000000000000000000000000000000000000000073ffffffffffffffffffffffffffffffffffffffff1690636352211e90602401602060405180830381865afa15801562000e4d573d6000803e3d6000fd5b505050506040513d601f19601f8201168201806040525081019062000e73919062001b5d565b86600762000e838383836200162a565b600087900362000ebf576040517f92bf449d00000000000000000000000000000000000000000000000000000000815260040160405180910390fd5b600085900362000efb576040517f571431a700000000000000000000000000000000000000000000000000000000815260040160405180910390fd5b60008981526020819052604090205473ffffffffffffffffffffffffffffffffffffffff161562000f58576040517fa54630ac00000000000000000000000000000000000000000000000000000000815260040160405180910390fd5b878787878c60405162000f6b906200189e565b62000f7b95949392919062001c08565b604051809103906000f08015801562000f98573d6000803e3d6000fd5b5060008a8152602081905260409081902080547fffffffffffffffffffffffff00000000000000000000000000000000000000001673ffffffffffffffffffffffffffffffffffffffff84169081179091559051919550908a907f1b1705bef26552c8f314c5eb80e9c84f02876c2f7f30a7f9ad5cafd17d5fa6da9062001029908c908c908c908c90339062001c46565b60405180910390a350505095945050505050565b8383600c6200104e8383836200162a565b6040517f43a266c2000000000000000000000000000000000000000000000000000000008152600481018790526000907f000000000000000000000000000000000000000000000000000000000000000073ffffffffffffffffffffffffffffffffffffffff16906343a266c29060240161012060405180830381865afa158015620010de573d6000803e3d6000fd5b505050506040513d601f19601f8201168201806040525081019062001104919062001cfe565b9050620011118162001823565b60400151156200114d576040517f18cdaf9700000000000000000000000000000000000000000000000000000000815260040160405180910390fd5b73ffffffffffffffffffffffffffffffffffffffff86166200119b576040517fc6587bab00000000000000000000000000000000000000000000000000000000815260040160405180910390fd5b73ffffffffffffffffffffffffffffffffffffffff881660009081526002602090815260408083208a84529091529020548086111562001207576040517f83fc8b2d00000000000000000000000000000000000000000000000000000000815260040160405180910390fd5b73ffffffffffffffffffffffffffffffffffffffff808a1660009081526002602081815260408084208d855282528084208b87039055938b1683529081528282208b8352905220546200125c90879062001b47565b73ffffffffffffffffffffffffffffffffffffffff88811660008181526002602090815260408083208e84528252918290209490945580518a8152339481019490945290928b928d16917fae47e55abe3902569528abe4272b889079230a248aec0659a2939a90354982c6910160405180910390a4505050505050505050565b6040517f5dd8f6aa000000000000000000000000000000000000000000000000000000008152600481018490528390339073ffffffffffffffffffffffffffffffffffffffff7f00000000000000000000000000000000000000000000000000000000000000001690635dd8f6aa90602401602060405180830381865afa1580156200136c573d6000803e3d6000fd5b505050506040513d601f19601f8201168201806040525081019062001392919062001b5d565b73ffffffffffffffffffffffffffffffffffffffff1614620013e0576040517fab7f741400000000000000000000000000000000000000000000000000000000815260040160405180910390fd5b60008481526020819052604081205473ffffffffffffffffffffffffffffffffffffffff169083801562001429575073ffffffffffffffffffffffffffffffffffffffff821615155b90508015620014c9576040517f836a10400000000000000000000000000000000000000000000000000000000081526004810187905273ffffffffffffffffffffffffffffffffffffffff88811660248301526044820187905283169063836a104090606401600060405180830381600087803b158015620014aa57600080fd5b505af1158015620014bf573d6000803e3d6000fd5b505050506200155e565b73ffffffffffffffffffffffffffffffffffffffff871660009081526002602090815260408083208984529091529020546200150790869062001b47565b73ffffffffffffffffffffffffffffffffffffffff881660009081526002602090815260408083208a84528252808320939093556001905220546200154e90869062001b47565b6000878152600160205260409020555b7bffffffffffffffffffffffffffffffffffffffffffffffffffffffff62001586876200061a565b1115620015bf576040517f60c5e71200000000000000000000000000000000000000000000000000000000815260040160405180910390fd5b604080518681528215156020820152851515818301523360608201529051879173ffffffffffffffffffffffffffffffffffffffff8a16917f5dd3ead325af435e56bc762b40de54c96de6071938d18a26414245807591d86f9181900360800190a350505050505050565b3373ffffffffffffffffffffffffffffffffffffffff8416148015906200171557506040517fc161c93f00000000000000000000000000000000000000000000000000000000815233600482015273ffffffffffffffffffffffffffffffffffffffff848116602483015260448201849052606482018390527f0000000000000000000000000000000000000000000000000000000000000000169063c161c93f90608401602060405180830381865afa158015620016ed573d6000803e3d6000fd5b505050506040513d601f19601f8201168201806040525081019062001713919062001d83565b155b8015620017e657506040517fc161c93f00000000000000000000000000000000000000000000000000000000815233600482015273ffffffffffffffffffffffffffffffffffffffff848116602483015260006044830152606482018390527f0000000000000000000000000000000000000000000000000000000000000000169063c161c93f90608401602060405180830381865afa158015620017be573d6000803e3d6000fd5b505050506040513d601f19601f82011682018060405250810190620017e4919062001d83565b155b156200181e576040517f075fd2b100000000000000000000000000000000000000000000000000000000815260040160405180910390fd5b505050565b6040805160608101825260008082526020820181905291810191909152620018986008836101000151901c604080516060808201835260008083526020808401829052928401528251908101835260018481168114825284811c811681149282019290925260029390931c8116149082015290565b92915050565b612c918062001da483390190565b73ffffffffffffffffffffffffffffffffffffffff81168114620018cf57600080fd5b50565b60008060408385031215620018e657600080fd5b8235620018f381620018ac565b946020939093013593505050565b6000602082840312156200191457600080fd5b5035919050565b6000806000606084860312156200193157600080fd5b83356200193e81620018ac565b95602085013595506040909401359392505050565b600080604083850312156200196757600080fd5b8235915060208301356200197b81620018ac565b809150509250929050565b8015158114620018cf57600080fd5b60008060008060808587031215620019ac57600080fd5b8435620019b981620018ac565b935060208501359250604085013591506060850135620019d98162001986565b939692955090935050565b60008083601f840112620019f757600080fd5b50813567ffffffffffffffff81111562001a1057600080fd5b60208301915083602082850101111562001a2957600080fd5b9250929050565b60008060008060006060868803121562001a4957600080fd5b85359450602086013567ffffffffffffffff8082111562001a6957600080fd5b62001a7789838a01620019e4565b9096509450604088013591508082111562001a9157600080fd5b5062001aa088828901620019e4565b969995985093965092949392505050565b6000806000806080858703121562001ac857600080fd5b843562001ad581620018ac565b935060208501359250604085013562001aee81620018ac565b9396929550929360600135925050565b60006020828403121562001b1157600080fd5b5051919050565b7f4e487b7100000000000000000000000000000000000000000000000000000000600052601160045260246000fd5b8082018082111562001898576200189862001b18565b60006020828403121562001b7057600080fd5b815162001b7d81620018ac565b9392505050565b60006020828403121562001b9757600080fd5b815160ff8116811462001b7d57600080fd5b8181038181111562001898576200189862001b18565b8183528181602085013750600060208284010152600060207fffffffffffffffffffffffffffffffffffffffffffffffffffffffffffffffe0601f840116840101905092915050565b60608152600062001c1e60608301878962001bbf565b828103602084015262001c3381868862001bbf565b9150508260408301529695505050505050565b60608152600062001c5c60608301878962001bbf565b828103602084015262001c7181868862001bbf565b91505073ffffffffffffffffffffffffffffffffffffffff831660408301529695505050505050565b604051610120810167ffffffffffffffff8111828210171562001ce6577f4e487b7100000000000000000000000000000000000000000000000000000000600052604160045260246000fd5b60405290565b805162001cf981620018ac565b919050565b6000610120828403121562001d1257600080fd5b62001d1c62001c9a565b825181526020830151602082015260408301516040820152606083015160608201526080830151608082015260a083015160a082015260c083015160c082015262001d6a60e0840162001cec565b60e0820152610100928301519281019290925250919050565b60006020828403121562001d9657600080fd5b815162001b7d816200198656fe6101606040523480156200001257600080fd5b5060405162002c9138038062002c91833981016040819052620000359162000233565b6040805180820190915260018152603160f81b6020820152839081908185600362000061838262000335565b50600462000070828262000335565b5050825160209384012082519284019290922060e08390526101008190524660a0818152604080517f8b73c3c69bb8fe3d512ecc4cf759cc79239f7b179b0ffacaa9a75d522b39400f818901819052818301979097526060810194909452608080850193909352308483018190528151808603909301835260c09485019091528151919096012090529290925261012052506200010f9050336200011c565b6101405250620004019050565b600a80546001600160a01b038381166001600160a01b0319831681179093556040519116919082907f8be0079c531659141344cd1fd0a4f28419497f9722a3daafe3b4186f6b6457e090600090a35050565b634e487b7160e01b600052604160045260246000fd5b600082601f8301126200019657600080fd5b81516001600160401b0380821115620001b357620001b36200016e565b604051601f8301601f19908116603f01168101908282118183101715620001de57620001de6200016e565b81604052838152602092508683858801011115620001fb57600080fd5b600091505b838210156200021f578582018301518183018401529082019062000200565b600093810190920192909252949350505050565b6000806000606084860312156200024957600080fd5b83516001600160401b03808211156200026157600080fd5b6200026f8783880162000184565b945060208601519150808211156200028657600080fd5b50620002958682870162000184565b925050604084015190509250925092565b600181811c90821680620002bb57607f821691505b602082108103620002dc57634e487b7160e01b600052602260045260246000fd5b50919050565b601f8211156200033057600081815260208120601f850160051c810160208610156200030b5750805b601f850160051c820191505b818110156200032c5782815560010162000317565b5050505b505050565b81516001600160401b038111156200035157620003516200016e565b6200036981620003628454620002a6565b84620002e2565b602080601f831160018114620003a15760008415620003885750858301515b600019600386901b1c1916600185901b1785556200032c565b600085815260208120601f198616915b82811015620003d257888601518255948401946001909101908401620003b1565b5085821015620003f15787850151600019600388901b60f8161c191681555b5050505050600190811b01905550565b60805160a05160c05160e0516101005161012051610140516127ef620004a2600039600081816102df0152818161061b0152818161064501528181610806015281816108300152818161089b015281816108c501528181610a5501528181610a7f01528181610f680152610f9201526000611475015260006114c40152600061149f015260006113f8015260006114220152600061144c01526127ef6000f3fe608060405234801561001057600080fd5b506004361061020a5760003560e01c80637ecebe001161012a578063a457c2d7116100bd578063d505accf1161008c578063f1127ed811610071578063f1127ed8146104d4578063f2fde38b14610526578063f8548e361461053957600080fd5b8063d505accf14610488578063dd62ed3e1461049b57600080fd5b8063a457c2d71461043c578063a9059cbb1461044f578063bd85b03914610462578063c3cda5201461047557600080fd5b80638e539e8c116100f95780638e539e8c146103fb57806395d89b411461040e5780639ab24eb0146104165780639eea5f661461042957600080fd5b80637ecebe00146103b1578063836a1040146103c45780638cb0a511146103d75780638da5cb5b146103ea57600080fd5b806339509351116101a25780635c19a95c116101715780635c19a95c146103455780636fcfff451461035857806370a0823114610380578063715018a6146103a957600080fd5b806339509351146102b45780633a46b1a8146102c75780633fafa127146102da578063587cde1e1461030157600080fd5b80631c0f12b6116101de5780631c0f12b61461027557806323b872dd1461028a578063313ce5671461029d5780633644e515146102ac57600080fd5b8062fdd58e1461020f57806306fdde0314610235578063095ea7b31461024a57806318160ddd1461026d575b600080fd5b61022261021d36600461239a565b61054c565b6040519081526020015b60405180910390f35b61023d61056f565b60405161022c91906123c4565b61025d61025836600461239a565b610601565b604051901515815260200161022c565b600254610222565b610288610283366004612430565b610619565b005b61025d610298366004612474565b6106b1565b6040516012815260200161022c565b6102226106da565b61025d6102c236600461239a565b6106e4565b6102226102d536600461239a565b610723565b6102227f000000000000000000000000000000000000000000000000000000000000000081565b61032d61030f3660046124b0565b6001600160a01b039081166000908152600760205260409020541690565b6040516001600160a01b03909116815260200161022c565b6102886103533660046124b0565b61079b565b61036b6103663660046124b0565b6107a8565b60405163ffffffff909116815260200161022c565b61022261038e3660046124b0565b6001600160a01b031660009081526020819052604090205490565b6102886107ca565b6102226103bf3660046124b0565b6107de565b6102886103d23660046124cb565b6107fc565b6102886103e53660046124cb565b610899565b600a546001600160a01b031661032d565b6102226104093660046124f0565b61092f565b61023d61098b565b6102226104243660046124b0565b61099a565b6102886104373660046124cb565b610a4b565b61025d61044a36600461239a565b610ae3565b61025d61045d36600461239a565b610b8d565b6102226104703660046124f0565b610b9b565b61028861048336600461251a565b610ba6565b610288610496366004612572565b610cdc565b6102226104a93660046125dc565b6001600160a01b03918216600090815260016020908152604080832093909416825291909152205490565b6104e76104e236600461260f565b610e40565b60408051825163ffffffff1681526020928301517bffffffffffffffffffffffffffffffffffffffffffffffffffffffff16928101929092520161022c565b6102886105343660046124b0565b610ed9565b6102886105473660046124cb565b610f66565b6001600160a01b0382166000908152602081905260408120545b90505b92915050565b60606003805461057e9061264f565b80601f01602080910402602001604051908101604052809291908181526020018280546105aa9061264f565b80156105f75780601f106105cc576101008083540402835291602001916105f7565b820191906000526020600020905b8154815290600101906020018083116105da57829003601f168201915b5050505050905090565b60003361060f818585610ff6565b5060019392505050565b7f00000000000000000000000000000000000000000000000000000000000000001580159061066857507f00000000000000000000000000000000000000000000000000000000000000008414155b1561069f576040517fcdceed0000000000000000000000000000000000000000000000000000000000815260040160405180910390fd5b6106aa8383836106b1565b5050505050565b6000336106bf85828561114e565b6106ca8585856111f8565b506001949350505050565b905090565b60006106d56113eb565b3360008181526001602090815260408083206001600160a01b038716845290915281205490919061060f908290869061071e9087906126cb565b610ff6565b60004382106107795760405162461bcd60e51b815260206004820152601f60248201527f4552433230566f7465733a20626c6f636b206e6f7420796574206d696e65640060448201526064015b60405180910390fd5b6001600160a01b03831660009081526008602052604090206105669083611512565b6107a53382611633565b50565b6001600160a01b038116600090815260086020526040812054610569906116c4565b6107d2611744565b6107dc600061179e565b565b6001600160a01b038116600090815260056020526040812054610569565b610804611744565b7f00000000000000000000000000000000000000000000000000000000000000001580159061085357507f00000000000000000000000000000000000000000000000000000000000000008314155b1561088a576040517fcdceed0000000000000000000000000000000000000000000000000000000000815260040160405180910390fd5b6108948282611808565b505050565b7f0000000000000000000000000000000000000000000000000000000000000000158015906108e857507f00000000000000000000000000000000000000000000000000000000000000008314155b1561091f576040517fcdceed0000000000000000000000000000000000000000000000000000000000815260040160405180910390fd5b6109298282610601565b50505050565b60004382106109805760405162461bcd60e51b815260206004820152601f60248201527f4552433230566f7465733a20626c6f636b206e6f7420796574206d696e6564006044820152606401610770565b610569600983611512565b60606004805461057e9061264f565b6001600160a01b0381166000908152600860205260408120548015610a23576001600160a01b03831660009081526008602052604090206109dc6001836126de565b815481106109ec576109ec6126f1565b60009182526020909120015464010000000090047bffffffffffffffffffffffffffffffffffffffffffffffffffffffff16610a26565b60005b7bffffffffffffffffffffffffffffffffffffffffffffffffffffffff169392505050565b610a53611744565b7f000000000000000000000000000000000000000000000000000000000000000015801590610aa257507f00000000000000000000000000000000000000000000000000000000000000008314155b15610ad9576040517fcdceed0000000000000000000000000000000000000000000000000000000000815260040160405180910390fd5b61089482826118b4565b3360008181526001602090815260408083206001600160a01b038716845290915281205490919083811015610b805760405162461bcd60e51b815260206004820152602560248201527f45524332303a2064656372656173656420616c6c6f77616e63652062656c6f7760448201527f207a65726f0000000000000000000000000000000000000000000000000000006064820152608401610770565b6106ca8286868403610ff6565b60003361060f8185856111f8565b600061056960025490565b83421115610bf65760405162461bcd60e51b815260206004820152601d60248201527f4552433230566f7465733a207369676e617475726520657870697265640000006044820152606401610770565b604080517fe48329057bfd03d55e49b547132e39cffd9c1820ad7b9d4c5307691425d15adf60208201526001600160a01b038816918101919091526060810186905260808101859052600090610c7090610c689060a001604051602081830303815290604052805190602001206118cc565b858585611935565b9050610c7b8161195d565b8614610cc95760405162461bcd60e51b815260206004820152601960248201527f4552433230566f7465733a20696e76616c6964206e6f6e6365000000000000006044820152606401610770565b610cd38188611633565b50505050505050565b83421115610d2c5760405162461bcd60e51b815260206004820152601d60248201527f45524332305065726d69743a206578706972656420646561646c696e650000006044820152606401610770565b60007f6e71edae12b1b97f4d1f60370fef10105fa2faae0126114a169c64845d6126c9888888610d5b8c61195d565b6040805160208101969096526001600160a01b0394851690860152929091166060840152608083015260a082015260c0810186905260e0016040516020818303038152906040528051906020012090506000610db6826118cc565b90506000610dc682878787611935565b9050896001600160a01b0316816001600160a01b031614610e295760405162461bcd60e51b815260206004820152601e60248201527f45524332305065726d69743a20696e76616c6964207369676e617475726500006044820152606401610770565b610e348a8a8a610ff6565b50505050505050505050565b60408051808201909152600080825260208201526001600160a01b0383166000908152600860205260409020805463ffffffff8416908110610e8457610e846126f1565b60009182526020918290206040805180820190915291015463ffffffff8116825264010000000090047bffffffffffffffffffffffffffffffffffffffffffffffffffffffff16918101919091529392505050565b610ee1611744565b6001600160a01b038116610f5d5760405162461bcd60e51b815260206004820152602660248201527f4f776e61626c653a206e6577206f776e657220697320746865207a65726f206160448201527f64647265737300000000000000000000000000000000000000000000000000006064820152608401610770565b6107a58161179e565b7f000000000000000000000000000000000000000000000000000000000000000015801590610fb557507f00000000000000000000000000000000000000000000000000000000000000008314155b15610fec576040517fcdceed0000000000000000000000000000000000000000000000000000000000815260040160405180910390fd5b6109298282610b8d565b6001600160a01b0383166110715760405162461bcd60e51b8152602060048201526024808201527f45524332303a20617070726f76652066726f6d20746865207a65726f2061646460448201527f72657373000000000000000000000000000000000000000000000000000000006064820152608401610770565b6001600160a01b0382166110ed5760405162461bcd60e51b815260206004820152602260248201527f45524332303a20617070726f766520746f20746865207a65726f20616464726560448201527f73730000000000000000000000000000000000000000000000000000000000006064820152608401610770565b6001600160a01b0383811660008181526001602090815260408083209487168084529482529182902085905590518481527f8c5be1e5ebec7d5bd14f71427d1e84f3dd0314c0f7b2291e5b200ac8c7c3b925910160405180910390a3505050565b6001600160a01b038381166000908152600160209081526040808320938616835292905220547fffffffffffffffffffffffffffffffffffffffffffffffffffffffffffffffff811461092957818110156111eb5760405162461bcd60e51b815260206004820152601d60248201527f45524332303a20696e73756666696369656e7420616c6c6f77616e63650000006044820152606401610770565b6109298484848403610ff6565b6001600160a01b0383166112745760405162461bcd60e51b815260206004820152602560248201527f45524332303a207472616e736665722066726f6d20746865207a65726f20616460448201527f64726573730000000000000000000000000000000000000000000000000000006064820152608401610770565b6001600160a01b0382166112f05760405162461bcd60e51b815260206004820152602360248201527f45524332303a207472616e7366657220746f20746865207a65726f206164647260448201527f65737300000000000000000000000000000000000000000000000000000000006064820152608401610770565b6001600160a01b0383166000908152602081905260409020548181101561137f5760405162461bcd60e51b815260206004820152602660248201527f45524332303a207472616e7366657220616d6f756e742065786365656473206260448201527f616c616e636500000000000000000000000000000000000000000000000000006064820152608401610770565b6001600160a01b03848116600081815260208181526040808320878703905593871680835291849020805487019055925185815290927fddf252ad1be2c89b69c2b068fc378daa952ba7f163c4a11628f55a4df523b3ef910160405180910390a3610929848484611985565b6000306001600160a01b037f00000000000000000000000000000000000000000000000000000000000000001614801561144457507f000000000000000000000000000000000000000000000000000000000000000046145b1561146e57507f000000000000000000000000000000000000000000000000000000000000000090565b50604080517f00000000000000000000000000000000000000000000000000000000000000006020808301919091527f0000000000000000000000000000000000000000000000000000000000000000828401527f000000000000000000000000000000000000000000000000000000000000000060608301524660808301523060a0808401919091528351808403909101815260c0909201909252805191012090565b81546000908181600581111561156c57600061152d846119b7565b61153790856126de565b600088815260209020909150869082015463ffffffff16111561155c5780915061156a565b6115678160016126cb565b92505b505b808210156115b95760006115808383611aa6565b600088815260209020909150869082015463ffffffff1611156115a5578091506115b3565b6115b08160016126cb565b92505b5061156c565b8015611608576115dc866115ce6001846126de565b600091825260209091200190565b5464010000000090047bffffffffffffffffffffffffffffffffffffffffffffffffffffffff1661160b565b60005b7bffffffffffffffffffffffffffffffffffffffffffffffffffffffff169695505050505050565b6001600160a01b038281166000818152600760208181526040808420805485845282862054949093528787167fffffffffffffffffffffffff00000000000000000000000000000000000000008416811790915590519190951694919391928592917f3134e8a2e6d97e929a7e54011ea5485d7d196dd5f0ba4d4ef95803e8e3fc257f9190a4610929828483611ac1565b600063ffffffff8211156117405760405162461bcd60e51b815260206004820152602660248201527f53616665436173743a2076616c756520646f65736e27742066697420696e203360448201527f32206269747300000000000000000000000000000000000000000000000000006064820152608401610770565b5090565b600a546001600160a01b031633146107dc5760405162461bcd60e51b815260206004820181905260248201527f4f776e61626c653a2063616c6c6572206973206e6f7420746865206f776e65726044820152606401610770565b600a80546001600160a01b038381167fffffffffffffffffffffffff0000000000000000000000000000000000000000831681179093556040519116919082907f8be0079c531659141344cd1fd0a4f28419497f9722a3daafe3b4186f6b6457e090600090a35050565b6118128282611bfe565b6002547bffffffffffffffffffffffffffffffffffffffffffffffffffffffff10156118a65760405162461bcd60e51b815260206004820152603060248201527f4552433230566f7465733a20746f74616c20737570706c79207269736b73206f60448201527f766572666c6f77696e6720766f746573000000000000000000000000000000006064820152608401610770565b6109296009611cc983611cd5565b6118be8282611e7d565b6109296009611fed83611cd5565b60006105696118d96113eb565b836040517f19010000000000000000000000000000000000000000000000000000000000006020820152602281018390526042810182905260009060620160405160208183030381529060405280519060200120905092915050565b600080600061194687878787611ff9565b91509150611953816120db565b5095945050505050565b6001600160a01b03811660009081526005602052604090208054600181018255905b50919050565b6001600160a01b0383811660009081526007602052604080822054858416835291205461089492918216911683611ac1565b6000816000036119c957506000919050565b600060016119d684612240565b901c6001901b905060018184816119ef576119ef612720565b048201901c90506001818481611a0757611a07612720565b048201901c90506001818481611a1f57611a1f612720565b048201901c90506001818481611a3757611a37612720565b048201901c90506001818481611a4f57611a4f612720565b048201901c90506001818481611a6757611a67612720565b048201901c90506001818481611a7f57611a7f612720565b048201901c9050611a9f81828581611a9957611a99612720565b046122d4565b9392505050565b6000611ab5600284841861274f565b610566908484166126cb565b816001600160a01b0316836001600160a01b031614158015611ae35750600081115b15610894576001600160a01b03831615611b71576001600160a01b03831660009081526008602052604081208190611b1e90611fed85611cd5565b91509150846001600160a01b03167fdec2bacdd2f05b59de34da9b523dff8be42e5e38e818c82fdb0bae774387a7248383604051611b66929190918252602082015260400190565b60405180910390a250505b6001600160a01b03821615610894576001600160a01b03821660009081526008602052604081208190611ba790611cc985611cd5565b91509150836001600160a01b03167fdec2bacdd2f05b59de34da9b523dff8be42e5e38e818c82fdb0bae774387a7248383604051611bef929190918252602082015260400190565b60405180910390a25050505050565b6001600160a01b038216611c545760405162461bcd60e51b815260206004820152601f60248201527f45524332303a206d696e7420746f20746865207a65726f2061646472657373006044820152606401610770565b8060026000828254611c6691906126cb565b90915550506001600160a01b038216600081815260208181526040808320805486019055518481527fddf252ad1be2c89b69c2b068fc378daa952ba7f163c4a11628f55a4df523b3ef910160405180910390a3611cc560008383611985565b5050565b600061056682846126cb565b82546000908190818115611d3757611cf2876115ce6001856126de565b60408051808201909152905463ffffffff8116825264010000000090047bffffffffffffffffffffffffffffffffffffffffffffffffffffffff166020820152611d4c565b60408051808201909152600080825260208201525b905080602001517bffffffffffffffffffffffffffffffffffffffffffffffffffffffff169350611d8184868863ffffffff16565b9250600082118015611d995750805163ffffffff1643145b15611df357611da7836122ea565b611db6886115ce6001866126de565b80547bffffffffffffffffffffffffffffffffffffffffffffffffffffffff929092166401000000000263ffffffff909216919091179055611e73565b866040518060400160405280611e08436116c4565b63ffffffff168152602001611e1c866122ea565b7bffffffffffffffffffffffffffffffffffffffffffffffffffffffff90811690915282546001810184556000938452602093849020835194909301519091166401000000000263ffffffff909316929092179101555b5050935093915050565b6001600160a01b038216611ef95760405162461bcd60e51b815260206004820152602160248201527f45524332303a206275726e2066726f6d20746865207a65726f2061646472657360448201527f73000000000000000000000000000000000000000000000000000000000000006064820152608401610770565b6001600160a01b03821660009081526020819052604090205481811015611f885760405162461bcd60e51b815260206004820152602260248201527f45524332303a206275726e20616d6f756e7420657863656564732062616c616e60448201527f63650000000000000000000000000000000000000000000000000000000000006064820152608401610770565b6001600160a01b0383166000818152602081815260408083208686039055600280548790039055518581529192917fddf252ad1be2c89b69c2b068fc378daa952ba7f163c4a11628f55a4df523b3ef910160405180910390a361089483600084611985565b600061056682846126de565b6000807f7fffffffffffffffffffffffffffffff5d576e7357a4501ddfe92f46681b20a083111561203057506000905060036120d2565b6040805160008082526020820180845289905260ff881692820192909252606081018690526080810185905260019060a0016020604051602081039080840390855afa158015612084573d6000803e3d6000fd5b50506040517fffffffffffffffffffffffffffffffffffffffffffffffffffffffffffffffe001519150506001600160a01b0381166120cb576000600192509250506120d2565b9150600090505b94509492505050565b60008160048111156120ef576120ef61278a565b036120f75750565b600181600481111561210b5761210b61278a565b036121585760405162461bcd60e51b815260206004820152601860248201527f45434453413a20696e76616c6964207369676e617475726500000000000000006044820152606401610770565b600281600481111561216c5761216c61278a565b036121b95760405162461bcd60e51b815260206004820152601f60248201527f45434453413a20696e76616c6964207369676e6174757265206c656e677468006044820152606401610770565b60038160048111156121cd576121cd61278a565b036107a55760405162461bcd60e51b815260206004820152602260248201527f45434453413a20696e76616c6964207369676e6174757265202773272076616c60448201527f75650000000000000000000000000000000000000000000000000000000000006064820152608401610770565b600080608083901c1561225557608092831c92015b604083901c1561226757604092831c92015b602083901c1561227957602092831c92015b601083901c1561228b57601092831c92015b600883901c1561229d57600892831c92015b600483901c156122af57600492831c92015b600283901c156122c157600292831c92015b600183901c156105695760010192915050565b60008183106122e35781610566565b5090919050565b60007bffffffffffffffffffffffffffffffffffffffffffffffffffffffff8211156117405760405162461bcd60e51b815260206004820152602760248201527f53616665436173743a2076616c756520646f65736e27742066697420696e203260448201527f32342062697473000000000000000000000000000000000000000000000000006064820152608401610770565b80356001600160a01b038116811461239557600080fd5b919050565b600080604083850312156123ad57600080fd5b6123b68361237e565b946020939093013593505050565b600060208083528351808285015260005b818110156123f1578581018301518582016040015282016123d5565b5060006040828601015260407fffffffffffffffffffffffffffffffffffffffffffffffffffffffffffffffe0601f8301168501019250505092915050565b6000806000806080858703121561244657600080fd5b843593506124566020860161237e565b92506124646040860161237e565b9396929550929360600135925050565b60008060006060848603121561248957600080fd5b6124928461237e565b92506124a06020850161237e565b9150604084013590509250925092565b6000602082840312156124c257600080fd5b6105668261237e565b6000806000606084860312156124e057600080fd5b833592506124a06020850161237e565b60006020828403121561250257600080fd5b5035919050565b803560ff8116811461239557600080fd5b60008060008060008060c0878903121561253357600080fd5b61253c8761237e565b9550602087013594506040870135935061255860608801612509565b92506080870135915060a087013590509295509295509295565b600080600080600080600060e0888a03121561258d57600080fd5b6125968861237e565b96506125a46020890161237e565b955060408801359450606088013593506125c060808901612509565b925060a0880135915060c0880135905092959891949750929550565b600080604083850312156125ef57600080fd5b6125f88361237e565b91506126066020840161237e565b90509250929050565b6000806040838503121561262257600080fd5b61262b8361237e565b9150602083013563ffffffff8116811461264457600080fd5b809150509250929050565b600181811c9082168061266357607f821691505b60208210810361197f577f4e487b7100000000000000000000000000000000000000000000000000000000600052602260045260246000fd5b7f4e487b7100000000000000000000000000000000000000000000000000000000600052601160045260246000fd5b808201808211156105695761056961269c565b818103818111156105695761056961269c565b7f4e487b7100000000000000000000000000000000000000000000000000000000600052603260045260246000fd5b7f4e487b7100000000000000000000000000000000000000000000000000000000600052601260045260246000fd5b600082612785577f4e487b7100000000000000000000000000000000000000000000000000000000600052601260045260246000fd5b500490565b7f4e487b7100000000000000000000000000000000000000000000000000000000600052602160045260246000fdfea2646970667358221220676711a5faa984d1bdc95d068ff9541ba97b4f533b1921e761793712e1ba2a2c64736f6c63430008100033a26469706673582212201444d4254c122cdfd2bda2ea24297d7527e2a7bb0239b10843f9dd2c9ec00fce64736f6c63430008100033",
  "devdoc": {
    "details": "Token balances can be either represented internally or claimed as ERC-20s into wallets. This contract manages these two representations and allows claiming.The total supply of a project's tokens and the balance of each account are calculated in this contract.Each project can bring their own token if they prefer, and swap between tokens at any time.Adheres to - IJBTokenStore: General interface for the methods in this contract that interact with the blockchain's state according to the protocol's rules.Inherits from - JBControllerUtility: Includes convenience functionality for checking if the message sender is the current controller of the project whose data is being manipulated. JBOperatable: Includes convenience functionality for checking a message sender's permissions before executing certain transactions.",
    "kind": "dev",
    "methods": {
      "balanceOf(address,uint256)": {
        "params": {
          "_holder": "The token holder to get a balance for.",
          "_projectId": "The project to get the `_holder`s balance of."
        },
        "returns": {
          "balance": "The project token balance of the `_holder"
        }
      },
      "burnFrom(address,uint256,uint256,bool)": {
        "details": "Only a project's current controller can burn its tokens.",
        "params": {
          "_amount": "The amount of tokens to burn.",
          "_holder": "The address that owns the tokens being burned.",
          "_preferClaimedTokens": "A flag indicating whether there's a preference for tokens to burned from the `_holder`s wallet if the project currently has a token contract attached.",
          "_projectId": "The ID of the project to which the burned tokens belong."
        }
      },
      "claimFor(address,uint256,uint256)": {
        "details": "Only a token holder or an operator specified by the token holder can claim its unclaimed tokens.",
        "params": {
          "_amount": "The amount of tokens to claim.",
          "_holder": "The owner of the tokens being claimed.",
          "_projectId": "The ID of the project whose tokens are being claimed."
        }
      },
      "constructor": {
        "params": {
          "_directory": "A contract storing directories of terminals and controllers for each project.",
          "_fundingCycleStore": "A contract storing all funding cycle configurations.",
          "_operatorStore": "A contract storing operator assignments.",
          "_projects": "A contract which mints ERC-721's that represent project ownership and transfers."
        }
      },
      "issueFor(uint256,string,string)": {
        "details": "Deploys a project's ERC-20 token contract.Only a project's owner or operator can issue its token.",
        "params": {
          "_name": "The ERC-20's name.",
          "_projectId": "The ID of the project being issued tokens.",
          "_symbol": "The ERC-20's symbol."
        },
        "returns": {
          "token": "The token that was issued."
        }
      },
      "mintFor(address,uint256,uint256,bool)": {
        "details": "Only a project's current controller can mint its tokens.",
        "params": {
          "_amount": "The amount of tokens to mint.",
          "_holder": "The address receiving the new tokens.",
          "_preferClaimedTokens": "A flag indicating whether there's a preference for minted tokens to be claimed automatically into the `_holder`s wallet if the project currently has a token contract attached.",
          "_projectId": "The ID of the project to which the tokens belong."
        }
      },
      "setFor(uint256,address)": {
        "details": "Only a project's owner or operator can set its token.",
        "params": {
          "_projectId": "The ID of the project to which the set token belongs.",
          "_token": "The new token. "
        }
      },
      "totalSupplyOf(uint256)": {
        "params": {
          "_projectId": "The ID of the project to get the total token supply of."
        },
        "returns": {
          "totalSupply": "The total supply of the project's tokens."
        }
      },
      "transferFrom(address,uint256,address,uint256)": {
        "details": "Only a token holder or an operator can transfer its unclaimed tokens.",
        "params": {
          "_amount": "The amount of tokens to transfer.",
          "_holder": "The address to transfer tokens from.",
          "_projectId": "The ID of the project whose tokens are being transferred.",
          "_recipient": "The recipient of the tokens."
        }
      }
    },
    "version": 1
  },
  "userdoc": {
    "kind": "user",
    "methods": {
      "balanceOf(address,uint256)": {
        "notice": "The total balance of tokens a holder has for a specified project, including claimed and unclaimed tokens."
      },
      "burnFrom(address,uint256,uint256,bool)": {
        "notice": "Burns a project's tokens."
      },
      "claimFor(address,uint256,uint256)": {
        "notice": "Claims internally accounted for tokens into a holder's wallet."
      },
      "directory()": {
        "notice": " The directory of terminals and controllers for projects."
      },
      "fundingCycleStore()": {
        "notice": "The contract storing all funding cycle configurations."
      },
      "issueFor(uint256,string,string)": {
        "notice": "Issues a project's ERC-20 tokens that'll be used when claiming tokens."
      },
      "mintFor(address,uint256,uint256,bool)": {
        "notice": "Mint new project tokens."
      },
      "operatorStore()": {
        "notice": " A contract storing operator assignments."
      },
      "projects()": {
        "notice": "Mints ERC-721's that represent project ownership and transfers."
      },
      "setFor(uint256,address)": {
        "notice": "Set a project's token if not already set."
      },
      "tokenOf(uint256)": {
        "notice": "Each project's attached token contract. _projectId The ID of the project to which the token belongs."
      },
      "totalSupplyOf(uint256)": {
        "notice": "The total supply of tokens for each project, including claimed and unclaimed tokens."
      },
      "transferFrom(address,uint256,address,uint256)": {
        "notice": "Allows a holder to transfer unclaimed tokens to another account."
      },
      "unclaimedBalanceOf(address,uint256)": {
        "notice": "Each holder's balance of unclaimed tokens for each project. _holder The holder of balance. _projectId The ID of the project to which the token belongs."
      },
      "unclaimedTotalSupplyOf(uint256)": {
        "notice": "The total supply of unclaimed tokens for each project. _projectId The ID of the project to which the token belongs."
      }
    },
    "notice": "Manage token minting, burning, and account balances.",
    "version": 1
  },
  "storageLayout": {
    "storage": [
      {
        "astId": 23440,
        "contract": "contracts/JBTokenStore.sol:JBTokenStore",
        "label": "tokenOf",
        "offset": 0,
        "slot": "0",
        "type": "t_mapping(t_uint256,t_contract(IJBToken)32789)"
      },
      {
        "astId": 23446,
        "contract": "contracts/JBTokenStore.sol:JBTokenStore",
        "label": "unclaimedTotalSupplyOf",
        "offset": 0,
        "slot": "1",
        "type": "t_mapping(t_uint256,t_uint256)"
      },
      {
        "astId": 23454,
        "contract": "contracts/JBTokenStore.sol:JBTokenStore",
        "label": "unclaimedBalanceOf",
        "offset": 0,
        "slot": "2",
        "type": "t_mapping(t_address,t_mapping(t_uint256,t_uint256))"
      }
    ],
    "types": {
      "t_address": {
        "encoding": "inplace",
        "label": "address",
        "numberOfBytes": "20"
      },
      "t_contract(IJBToken)32789": {
        "encoding": "inplace",
        "label": "contract IJBToken",
        "numberOfBytes": "20"
      },
      "t_mapping(t_address,t_mapping(t_uint256,t_uint256))": {
        "encoding": "mapping",
        "key": "t_address",
        "label": "mapping(address => mapping(uint256 => uint256))",
        "numberOfBytes": "32",
        "value": "t_mapping(t_uint256,t_uint256)"
      },
      "t_mapping(t_uint256,t_contract(IJBToken)32789)": {
        "encoding": "mapping",
        "key": "t_uint256",
        "label": "mapping(uint256 => contract IJBToken)",
        "numberOfBytes": "32",
        "value": "t_contract(IJBToken)32789"
      },
      "t_mapping(t_uint256,t_uint256)": {
        "encoding": "mapping",
        "key": "t_uint256",
        "label": "mapping(uint256 => uint256)",
        "numberOfBytes": "32",
        "value": "t_uint256"
      },
      "t_uint256": {
        "encoding": "inplace",
        "label": "uint256",
        "numberOfBytes": "32"
      }
    }
  }
}