{
  "address": "0xa5ca9CEa71Df4b680484e5Ff753a1b1185ba5b43",
  "abi": [
    {
      "inputs": [
        {
          "internalType": "contract IJBDirectory",
          "name": "_directory",
          "type": "address"
        }
      ],
      "stateMutability": "nonpayable",
      "type": "constructor"
    },
    {
      "anonymous": false,
      "inputs": [
        {
          "indexed": true,
          "internalType": "contract IJBProjectPayer",
          "name": "projectPayer",
          "type": "address"
        },
        {
          "indexed": false,
          "internalType": "uint256",
          "name": "defaultProjectId",
          "type": "uint256"
        },
        {
          "indexed": false,
          "internalType": "address",
          "name": "defaultBeneficiary",
          "type": "address"
        },
        {
          "indexed": false,
          "internalType": "bool",
          "name": "defaultPreferClaimedTokens",
          "type": "bool"
        },
        {
          "indexed": false,
          "internalType": "string",
          "name": "defaultMemo",
          "type": "string"
        },
        {
          "indexed": false,
          "internalType": "bytes",
          "name": "defaultMetadata",
          "type": "bytes"
        },
        {
          "indexed": false,
          "internalType": "bool",
          "name": "preferAddToBalance",
          "type": "bool"
        },
        {
          "indexed": false,
          "internalType": "contract IJBDirectory",
          "name": "directory",
          "type": "address"
        },
        {
          "indexed": false,
          "internalType": "address",
          "name": "owner",
          "type": "address"
        },
        {
          "indexed": false,
          "internalType": "address",
          "name": "caller",
          "type": "address"
        }
      ],
      "name": "DeployProjectPayer",
      "type": "event"
    },
    {
      "inputs": [
        {
          "internalType": "uint256",
          "name": "_defaultProjectId",
          "type": "uint256"
        },
        {
          "internalType": "address payable",
          "name": "_defaultBeneficiary",
          "type": "address"
        },
        {
          "internalType": "bool",
          "name": "_defaultPreferClaimedTokens",
          "type": "bool"
        },
        {
          "internalType": "string",
          "name": "_defaultMemo",
          "type": "string"
        },
        {
          "internalType": "bytes",
          "name": "_defaultMetadata",
          "type": "bytes"
        },
        {
          "internalType": "bool",
          "name": "_defaultPreferAddToBalance",
          "type": "bool"
        },
        {
          "internalType": "address",
          "name": "_owner",
          "type": "address"
        }
      ],
      "name": "deployProjectPayer",
      "outputs": [
        {
          "internalType": "contract IJBProjectPayer",
          "name": "projectPayer",
          "type": "address"
        }
      ],
      "stateMutability": "nonpayable",
      "type": "function"
    }
  ],
  "transactionHash": "0x6e30757e5021dd2e49f03701d465e269cdcbaecea80647c0d7a78273efdbe78c",
  "args": [
    "0x65572FB928b46f9aDB7cfe5A4c41226F636161ea"
  ],
  "numDeployments": 1,
  "solcInputHash": "e87fd161fb98793b8dd4dcaee81afb88",
  "bytecode": "0x60c060405234801561001057600080fd5b50604051612c0f380380612c0f83398101604081905261002f9161008d565b8060405161003c90610080565b6001600160a01b039091168152602001604051809103906000f080158015610068573d6000803e3d6000fd5b506001600160a01b039081166080521660a0526100bd565b612549806106c683390190565b60006020828403121561009f57600080fd5b81516001600160a01b03811681146100b657600080fd5b9392505050565b60805160a0516105e56100e1600039600061016a01526000607301526105e56000f3fe608060405234801561001057600080fd5b506004361061002b5760003560e01c80635be94a6f14610030575b600080fd5b61004361003e3660046103a8565b61006c565b60405173ffffffffffffffffffffffffffffffffffffffff909116815260200160405180910390f35b60006100977f00000000000000000000000000000000000000000000000000000000000000006101b3565b6040517fc0048ca500000000000000000000000000000000000000000000000000000000815290915073ffffffffffffffffffffffffffffffffffffffff82169063c0048ca5906100f8908b908b908b908b908b908b908b906004016104c2565b600060405180830381600087803b15801561011257600080fd5b505af1158015610126573d6000803e3d6000fd5b505050508073ffffffffffffffffffffffffffffffffffffffff167f727d4d4c40bee220af4fdbae0c157cb7a5e5f2ce9c3e9676e8f615cd88bc85df8989898989897f00000000000000000000000000000000000000000000000000000000000000008a336040516101a09998979695949392919061052f565b60405180910390a2979650505050505050565b60006040517f3d602d80600a3d3981f3363d3d373d3d3d363d7300000000000000000000000081528260601b60148201527f5af43d82803e903d91602b57fd5bf3000000000000000000000000000000000060288201526037816000f091505073ffffffffffffffffffffffffffffffffffffffff8116610294576040517f08c379a000000000000000000000000000000000000000000000000000000000815260206004820152601660248201527f455243313136373a20637265617465206661696c656400000000000000000000604482015260640160405180910390fd5b919050565b73ffffffffffffffffffffffffffffffffffffffff811681146102bb57600080fd5b50565b8035801515811461029457600080fd5b7f4e487b7100000000000000000000000000000000000000000000000000000000600052604160045260246000fd5b600082601f83011261030e57600080fd5b813567ffffffffffffffff80821115610329576103296102ce565b604051601f83017fffffffffffffffffffffffffffffffffffffffffffffffffffffffffffffffe0908116603f0116810190828211818310171561036f5761036f6102ce565b8160405283815286602085880101111561038857600080fd5b836020870160208301376000602085830101528094505050505092915050565b600080600080600080600060e0888a0312156103c357600080fd5b8735965060208801356103d581610299565b95506103e3604089016102be565b9450606088013567ffffffffffffffff8082111561040057600080fd5b61040c8b838c016102fd565b955060808a013591508082111561042257600080fd5b5061042f8a828b016102fd565b93505061043e60a089016102be565b915060c088013561044e81610299565b8091505092959891949750929550565b6000815180845260005b8181101561048457602081850181015186830182015201610468565b5060006020828601015260207fffffffffffffffffffffffffffffffffffffffffffffffffffffffffffffffe0601f83011685010191505092915050565b878152600073ffffffffffffffffffffffffffffffffffffffff8089166020840152871515604084015260e0606084015261050060e084018861045e565b8381036080850152610512818861045e565b95151560a0850152509290921660c0909101525095945050505050565b60006101208b835273ffffffffffffffffffffffffffffffffffffffff808c1660208501528a1515604085015281606085015261056e8285018b61045e565b91508382036080850152610582828a61045e565b97151560a085015295861660c0840152505091831660e0830152909116610100909101529594505050505056fea2646970667358221220d9813aa7b2c826ebec43fdd21bc1f31e50caf91e73764e970cf07c573a4ea35f64736f6c6343000810003360c06040523480156200001157600080fd5b5060405162002549380380620025498339810160408190526200003491620000a5565b6200003f3362000055565b6001600160a01b03166080523360a052620000d7565b600080546001600160a01b038381166001600160a01b0319831681178455604051919092169283917f8be0079c531659141344cd1fd0a4f28419497f9722a3daafe3b4186f6b6457e09190a35050565b600060208284031215620000b857600080fd5b81516001600160a01b0381168114620000d057600080fd5b9392505050565b60805160a051612437620001126000396000818161046d015261133e01526000818161058a0152818161060e015261087201526124376000f3fe6080604052600436106100f75760003560e01c80638293fee61161008a578063b96053df11610059578063b96053df14610543578063c0048ca514610558578063c41c2f2414610578578063f2fde38b146105ac57600080fd5b80638293fee6146104c65780638da5cb5b146104d957806393b7f154146104f7578063a4919eb11461051157600080fd5b806354ab58af116100c657806354ab58af1461042357806364d3ed271461045b578063715018a61461048f5780637e646549146104a457600080fd5b806301ffc9a71461039757806309a6b7e5146103cc5780630e45f78e146103df5780633ce9830b146103ff57600080fd5b366103925760055460ff16156102305761022e60015461eeee4760126003805461012090611ae9565b80601f016020809104026020016040519081016040528092919081815260200182805461014c90611ae9565b80156101995780601f1061016e57610100808354040283529160200191610199565b820191906000526020600020905b81548152906001019060200180831161017c57829003601f168201915b5050505050600480546101ab90611ae9565b80601f01602080910402602001604051908101604052809291908181526020018280546101d790611ae9565b80156102245780601f106101f957610100808354040283529160200191610224565b820191906000526020600020905b81548152906001019060200180831161020757829003601f168201915b50505050506105cc565b005b60015460025461022e919061eeee9047906012906001600160a01b031615610263576002546001600160a01b0316610265565b325b6000600260149054906101000a900460ff166003805461028490611ae9565b80601f01602080910402602001604051908101604052809291908181526020018280546102b090611ae9565b80156102fd5780601f106102d2576101008083540402835291602001916102fd565b820191906000526020600020905b8154815290600101906020018083116102e057829003601f168201915b50505050506004805461030f90611ae9565b80601f016020809104026020016040519081016040528092919081815260200182805461033b90611ae9565b80156103885780601f1061035d57610100808354040283529160200191610388565b820191906000526020600020905b81548152906001019060200180831161036b57829003601f168201915b5050505050610830565b600080fd5b3480156103a357600080fd5b506103b76103b2366004611b3c565b610af1565b60405190151581526020015b60405180910390f35b61022e6103da366004611bdc565b610b8a565b3480156103eb57600080fd5b5061022e6103fa366004611d73565b610d8d565b34801561040b57600080fd5b5061041560015481565b6040519081526020016103c3565b34801561042f57600080fd5b50600254610443906001600160a01b031681565b6040516001600160a01b0390911681526020016103c3565b34801561046757600080fd5b506104437f000000000000000000000000000000000000000000000000000000000000000081565b34801561049b57600080fd5b5061022e61100f565b3480156104b057600080fd5b506104b961108f565b6040516103c39190611e87565b61022e6104d4366004611e9a565b61111d565b3480156104e557600080fd5b506000546001600160a01b0316610443565b34801561050357600080fd5b506005546103b79060ff1681565b34801561051d57600080fd5b506002546103b79074010000000000000000000000000000000000000000900460ff1681565b34801561054f57600080fd5b506104b9611326565b34801561056457600080fd5b5061022e610573366004611f76565b611333565b34801561058457600080fd5b506104437f000000000000000000000000000000000000000000000000000000000000000081565b3480156105b857600080fd5b5061022e6105c7366004612030565b611442565b6040517f86202650000000000000000000000000000000000000000000000000000000008152600481018790526001600160a01b0386811660248301526000917f000000000000000000000000000000000000000000000000000000000000000090911690638620265090604401602060405180830381865afa158015610657573d6000803e3d6000fd5b505050506040513d601f19601f8201168201806040525081019061067b919061204d565b90506001600160a01b0381166106bd576040517ffba10dd600000000000000000000000000000000000000000000000000000000815260040160405180910390fd5b6040517fb7bad1b10000000000000000000000000000000000000000000000000000000081526001600160a01b03878116600483015285919083169063b7bad1b190602401602060405180830381865afa15801561071f573d6000803e3d6000fd5b505050506040513d601f19601f82011682018060405250810190610743919061206a565b1461077a576040517fb972592400000000000000000000000000000000000000000000000000000000815260040160405180910390fd5b6001600160a01b03861661eeee146107a0576107a06001600160a01b0387168287611558565b60006001600160a01b03871661eeee146107bb5760006107bd565b855b9050816001600160a01b0316630cf8e858828a898b89896040518763ffffffff1660e01b81526004016107f4959493929190612083565b6000604051808303818588803b15801561080d57600080fd5b505af1158015610821573d6000803e3d6000fd5b50505050505050505050505050565b6040517f86202650000000000000000000000000000000000000000000000000000000008152600481018a90526001600160a01b0389811660248301526000917f000000000000000000000000000000000000000000000000000000000000000090911690638620265090604401602060405180830381865afa1580156108bb573d6000803e3d6000fd5b505050506040513d601f19601f820116820180604052508101906108df919061204d565b90506001600160a01b038116610921576040517ffba10dd600000000000000000000000000000000000000000000000000000000815260040160405180910390fd5b6040517fb7bad1b10000000000000000000000000000000000000000000000000000000081526001600160a01b038a8116600483015288919083169063b7bad1b190602401602060405180830381865afa158015610983573d6000803e3d6000fd5b505050506040513d601f19601f820116820180604052508101906109a7919061206a565b146109de576040517fb972592400000000000000000000000000000000000000000000000000000000815260040160405180910390fd5b6001600160a01b03891661eeee14610a0457610a046001600160a01b038a16828a611558565b60006001600160a01b038a1661eeee14610a1f576000610a21565b885b9050816001600160a01b0316631ebc263f828d8c8e60006001600160a01b03168d6001600160a01b031603610a77576002546001600160a01b0316610a665732610a79565b6002546001600160a01b0316610a79565b8c5b8c8c8c8c6040518a63ffffffff1660e01b8152600401610aa09897969594939291906120cf565b60206040518083038185885af1158015610abe573d6000803e3d6000fd5b50505050506040513d601f19601f82011682018060405250810190610ae3919061206a565b505050505050505050505050565b60007fffffffff0000000000000000000000000000000000000000000000000000000082167f7ddb72fc000000000000000000000000000000000000000000000000000000001480610b8457507f01ffc9a7000000000000000000000000000000000000000000000000000000007fffffffff000000000000000000000000000000000000000000000000000000008316145b92915050565b6001600160a01b03871661eeee14610d04573415610bd4576040517fbcfd35be00000000000000000000000000000000000000000000000000000000815260040160405180910390fd5b6040517f70a082310000000000000000000000000000000000000000000000000000000081523060048201526000906001600160a01b038916906370a0823190602401602060405180830381865afa158015610c34573d6000803e3d6000fd5b505050506040513d601f19601f82011682018060405250810190610c58919061206a565b9050610c6f6001600160a01b03891633308a611743565b6040517f70a0823100000000000000000000000000000000000000000000000000000000815230600482015281906001600160a01b038a16906370a0823190602401602060405180830381865afa158015610cce573d6000803e3d6000fd5b505050506040513d601f19601f82011682018060405250810190610cf2919061206a565b610cfc9190612139565b965050610d0c565b349550601294505b610d838888888888888080601f01602080910402602001604051908101604052809392919081815260200183838082843760009201919091525050604080516020601f8c018190048102820181019092528a815292508a91508990819084018382808284376000920191909152506105cc92505050565b5050505050505050565b6000546001600160a01b03163314610e06576040517f08c379a000000000000000000000000000000000000000000000000000000000815260206004820181905260248201527f4f776e61626c653a2063616c6c6572206973206e6f7420746865206f776e657260448201526064015b60405180910390fd5b6001548614610e155760018690555b6002546001600160a01b03868116911614610e5e57600280547fffffffffffffffffffffffff0000000000000000000000000000000000000000166001600160a01b0387161790555b600260149054906101000a900460ff16151584151514610ebc57600280547fffffffffffffffffffffff00ffffffffffffffffffffffffffffffffffffffff1674010000000000000000000000000000000000000000861515021790555b6003604051602001610ece9190612204565b6040516020818303038152906040528051906020012083604051602001610ef59190612210565b6040516020818303038152906040528051906020012014610f1e576003610f1c848261227a565b505b6004604051602001610f309190612204565b6040516020818303038152906040528051906020012082604051602001610f579190612210565b6040516020818303038152906040528051906020012014610f80576004610f7e838261227a565b505b60055460ff16151581151514610fbd57600580547fffffffffffffffffffffffffffffffffffffffffffffffffffffffffffffff00168215151790555b846001600160a01b0316867f36b1c5cef608e320317b9ee5155756634c65fe7055b424ce57e2f6c59eec79478686868633604051610fff959493929190612394565b60405180910390a3505050505050565b6000546001600160a01b03163314611083576040517f08c379a000000000000000000000000000000000000000000000000000000000815260206004820181905260248201527f4f776e61626c653a2063616c6c6572206973206e6f7420746865206f776e65726044820152606401610dfd565b61108d600061179a565b565b6004805461109c90611ae9565b80601f01602080910402602001604051908101604052809291908181526020018280546110c890611ae9565b80156111155780601f106110ea57610100808354040283529160200191611115565b820191906000526020600020905b8154815290600101906020018083116110f857829003601f168201915b505050505081565b6001600160a01b038a1661eeee14611297573415611167576040517fbcfd35be00000000000000000000000000000000000000000000000000000000815260040160405180910390fd5b6040517f70a082310000000000000000000000000000000000000000000000000000000081523060048201526000906001600160a01b038c16906370a0823190602401602060405180830381865afa1580156111c7573d6000803e3d6000fd5b505050506040513d601f19601f820116820180604052508101906111eb919061206a565b90506112026001600160a01b038c1633308d611743565b6040517f70a0823100000000000000000000000000000000000000000000000000000000815230600482015281906001600160a01b038d16906370a0823190602401602060405180830381865afa158015611261573d6000803e3d6000fd5b505050506040513d601f19601f82011682018060405250810190611285919061206a565b61128f9190612139565b99505061129f565b349850601297505b6113198b8b8b8b8b8b8b8b8b8080601f01602080910402602001604051908101604052809392919081815260200183838082843760009201919091525050604080516020601f8f018190048102820181019092528d815292508d91508c908190840183828082843760009201919091525061083092505050565b5050505050505050505050565b6003805461109c90611ae9565b336001600160a01b037f00000000000000000000000000000000000000000000000000000000000000001614611395576040517f439a74c900000000000000000000000000000000000000000000000000000000815260040160405180910390fd5b60018790556002805486151574010000000000000000000000000000000000000000027fffffffffffffffffffffff0000000000000000000000000000000000000000009091166001600160a01b0389161717905560036113f6858261227a565b506004611403848261227a565b50600580547fffffffffffffffffffffffffffffffffffffffffffffffffffffffffffffff00168315151790556114398161179a565b50505050505050565b6000546001600160a01b031633146114b6576040517f08c379a000000000000000000000000000000000000000000000000000000000815260206004820181905260248201527f4f776e61626c653a2063616c6c6572206973206e6f7420746865206f776e65726044820152606401610dfd565b6001600160a01b03811661154c576040517f08c379a000000000000000000000000000000000000000000000000000000000815260206004820152602660248201527f4f776e61626c653a206e6577206f776e657220697320746865207a65726f206160448201527f64647265737300000000000000000000000000000000000000000000000000006064820152608401610dfd565b6115558161179a565b50565b8015806115eb57506040517fdd62ed3e0000000000000000000000000000000000000000000000000000000081523060048201526001600160a01b03838116602483015284169063dd62ed3e90604401602060405180830381865afa1580156115c5573d6000803e3d6000fd5b505050506040513d601f19601f820116820180604052508101906115e9919061206a565b155b611677576040517f08c379a000000000000000000000000000000000000000000000000000000000815260206004820152603660248201527f5361666545524332303a20617070726f76652066726f6d206e6f6e2d7a65726f60448201527f20746f206e6f6e2d7a65726f20616c6c6f77616e6365000000000000000000006064820152608401610dfd565b6040516001600160a01b03831660248201526044810182905261173e9084907f095ea7b300000000000000000000000000000000000000000000000000000000906064015b604080517fffffffffffffffffffffffffffffffffffffffffffffffffffffffffffffffe08184030181529190526020810180517bffffffffffffffffffffffffffffffffffffffffffffffffffffffff167fffffffff0000000000000000000000000000000000000000000000000000000090931692909217909152611802565b505050565b6040516001600160a01b03808516602483015283166044820152606481018290526117949085907f23b872dd00000000000000000000000000000000000000000000000000000000906084016116bc565b50505050565b600080546001600160a01b038381167fffffffffffffffffffffffff0000000000000000000000000000000000000000831681178455604051919092169283917f8be0079c531659141344cd1fd0a4f28419497f9722a3daafe3b4186f6b6457e09190a35050565b6000611857826040518060400160405280602081526020017f5361666545524332303a206c6f772d6c6576656c2063616c6c206661696c6564815250856001600160a01b03166119019092919063ffffffff16565b80519091501561173e578080602001905181019061187591906123e4565b61173e576040517f08c379a000000000000000000000000000000000000000000000000000000000815260206004820152602a60248201527f5361666545524332303a204552433230206f7065726174696f6e20646964206e60448201527f6f742073756363656564000000000000000000000000000000000000000000006064820152608401610dfd565b6060611910848460008561191a565b90505b9392505050565b6060824710156119ac576040517f08c379a000000000000000000000000000000000000000000000000000000000815260206004820152602660248201527f416464726573733a20696e73756666696369656e742062616c616e636520666f60448201527f722063616c6c00000000000000000000000000000000000000000000000000006064820152608401610dfd565b6001600160a01b0385163b611a1d576040517f08c379a000000000000000000000000000000000000000000000000000000000815260206004820152601d60248201527f416464726573733a2063616c6c20746f206e6f6e2d636f6e74726163740000006044820152606401610dfd565b600080866001600160a01b03168587604051611a399190612210565b60006040518083038185875af1925050503d8060008114611a76576040519150601f19603f3d011682016040523d82523d6000602084013e611a7b565b606091505b5091509150611a8b828286611a96565b979650505050505050565b60608315611aa5575081611913565b825115611ab55782518084602001fd5b816040517f08c379a0000000000000000000000000000000000000000000000000000000008152600401610dfd9190611e87565b600181811c90821680611afd57607f821691505b602082108103611b36577f4e487b7100000000000000000000000000000000000000000000000000000000600052602260045260246000fd5b50919050565b600060208284031215611b4e57600080fd5b81357fffffffff000000000000000000000000000000000000000000000000000000008116811461191357600080fd5b6001600160a01b038116811461155557600080fd5b60008083601f840112611ba557600080fd5b50813567ffffffffffffffff811115611bbd57600080fd5b602083019150836020828501011115611bd557600080fd5b9250929050565b60008060008060008060008060c0898b031215611bf857600080fd5b883597506020890135611c0a81611b7e565b96506040890135955060608901359450608089013567ffffffffffffffff80821115611c3557600080fd5b611c418c838d01611b93565b909650945060a08b0135915080821115611c5a57600080fd5b50611c678b828c01611b93565b999c989b5096995094979396929594505050565b801515811461155557600080fd5b8035611c9481611c7b565b919050565b7f4e487b7100000000000000000000000000000000000000000000000000000000600052604160045260246000fd5b600082601f830112611cd957600080fd5b813567ffffffffffffffff80821115611cf457611cf4611c99565b604051601f83017fffffffffffffffffffffffffffffffffffffffffffffffffffffffffffffffe0908116603f01168101908282118183101715611d3a57611d3a611c99565b81604052838152866020858801011115611d5357600080fd5b836020870160208301376000602085830101528094505050505092915050565b60008060008060008060c08789031215611d8c57600080fd5b863595506020870135611d9e81611b7e565b94506040870135611dae81611c7b565b9350606087013567ffffffffffffffff80821115611dcb57600080fd5b611dd78a838b01611cc8565b94506080890135915080821115611ded57600080fd5b50611dfa89828a01611cc8565b92505060a0870135611e0b81611c7b565b809150509295509295509295565b60005b83811015611e34578181015183820152602001611e1c565b50506000910152565b60008151808452611e55816020860160208601611e19565b601f017fffffffffffffffffffffffffffffffffffffffffffffffffffffffffffffffe0169290920160200192915050565b6020815260006119136020830184611e3d565b60008060008060008060008060008060006101208c8e031215611ebc57600080fd5b8b359a50611ecd60208d0135611b7e565b60208c0135995060408c0135985060608c01359750611eef60808d0135611b7e565b60808c0135965060a08c01359550611f0960c08d01611c89565b945067ffffffffffffffff8060e08e01351115611f2557600080fd5b611f358e60e08f01358f01611b93565b90955093506101008d0135811015611f4c57600080fd5b50611f5e8d6101008e01358e01611b93565b81935080925050509295989b509295989b9093969950565b600080600080600080600060e0888a031215611f9157600080fd5b873596506020880135611fa381611b7e565b95506040880135611fb381611c7b565b9450606088013567ffffffffffffffff80821115611fd057600080fd5b611fdc8b838c01611cc8565b955060808a0135915080821115611ff257600080fd5b50611fff8a828b01611cc8565b93505060a088013561201081611c7b565b915060c088013561202081611b7e565b8091505092959891949750929550565b60006020828403121561204257600080fd5b813561191381611b7e565b60006020828403121561205f57600080fd5b815161191381611b7e565b60006020828403121561207c57600080fd5b5051919050565b8581528460208201526001600160a01b038416604082015260a0606082015260006120b160a0830185611e3d565b82810360808401526120c38185611e3d565b98975050505050505050565b60006101008a83528960208401526001600160a01b03808a16604085015280891660608501525086608084015285151560a08401528060c084015261211681840186611e3d565b905082810360e084015261212a8185611e3d565b9b9a5050505050505050505050565b81810381811115610b84577f4e487b7100000000000000000000000000000000000000000000000000000000600052601160045260246000fd5b6000815461218081611ae9565b6001828116801561219857600181146121cb576121fa565b7fffffffffffffffffffffffffffffffffffffffffffffffffffffffffffffff00841687528215158302870194506121fa565b8560005260208060002060005b858110156121f15781548a8201529084019082016121d8565b50505082870194505b5050505092915050565b60006119138284612173565b60008251612222818460208701611e19565b9190910192915050565b601f82111561173e57600081815260208120601f850160051c810160208610156122535750805b601f850160051c820191505b818110156122725782815560010161225f565b505050505050565b815167ffffffffffffffff81111561229457612294611c99565b6122a8816122a28454611ae9565b8461222c565b602080601f8311600181146122fb57600084156122c55750858301515b7fffffffffffffffffffffffffffffffffffffffffffffffffffffffffffffffff600386901b1c1916600185901b178555612272565b6000858152602081207fffffffffffffffffffffffffffffffffffffffffffffffffffffffffffffffe08616915b8281101561234857888601518255948401946001909101908401612329565b508582101561238457878501517fffffffffffffffffffffffffffffffffffffffffffffffffffffffffffffffff600388901b60f8161c191681555b5050505050600190811b01905550565b851515815260a0602082015260006123af60a0830187611e3d565b82810360408401526123c18187611e3d565b941515606084015250506001600160a01b03919091166080909101529392505050565b6000602082840312156123f657600080fd5b815161191381611c7b56fea2646970667358221220d8fef8595bb92757a75cfecd11a51f739d7c43b0f78c357375608404c1047b7064736f6c63430008100033",
  "devdoc": {
    "details": "Adheres to - IJBGasTokenERC20ProjectPayerDeployer:  General interface for the methods in this contract that interact with the blockchain's state according to the protocol's rules.",
    "kind": "dev",
    "methods": {
      "constructor": {
        "params": {
          "_directory": "A contract storing directories of terminals and controllers for each project."
        }
      },
      "deployProjectPayer(uint256,address,bool,string,bytes,bool,address)": {
        "params": {
          "_defaultBeneficiary": "The address that'll receive the project's tokens when the project payer receives payments. ",
          "_defaultMemo": "The memo that'll be forwarded with the project payer's received payments. ",
          "_defaultMetadata": "The metadata that'll be forwarded with the project payer's received payments. ",
          "_defaultPreferAddToBalance": "A flag indicating if received payments should call the `pay` function or the `addToBalance` function of a project.",
          "_defaultPreferClaimedTokens": "A flag indicating whether issued tokens from the project payer's received payments should be automatically claimed into the beneficiary's wallet. ",
          "_defaultProjectId": "The ID of the project whose treasury should be forwarded the project payer contract's received payments.",
          "_owner": "The address that will own the project payer."
        },
        "returns": {
          "projectPayer": "The project payer contract."
        }
      }
    },
    "version": 1
  },
  "userdoc": {
    "kind": "user",
    "methods": {
      "deployProjectPayer(uint256,address,bool,string,bytes,bool,address)": {
        "notice": " Allows anyone to deploy a new project payer contract."
      }
    },
    "notice": " Deploys project payer contracts.",
    "version": 1
  },
  "storageLayout": {
    "storage": [],
    "types": null
  }
}