{
  "address": "0x457cD63bee88ac01f3cD4a67D5DCc921D8C0D573",
  "abi": [
    {
      "inputs": [
        {
          "internalType": "uint256",
          "name": "_baseWeightCurrency",
          "type": "uint256"
        },
        {
          "internalType": "contract IJBOperatorStore",
          "name": "_operatorStore",
          "type": "address"
        },
        {
          "internalType": "contract IJBProjects",
          "name": "_projects",
          "type": "address"
        },
        {
          "internalType": "contract IJBDirectory",
          "name": "_directory",
          "type": "address"
        },
        {
          "internalType": "contract IJBSplitsStore",
          "name": "_splitsStore",
          "type": "address"
        },
        {
          "internalType": "contract IJBPrices",
          "name": "_prices",
          "type": "address"
        },
        {
          "internalType": "address",
          "name": "_store",
          "type": "address"
        },
        {
          "internalType": "address",
          "name": "_owner",
          "type": "address"
        }
      ],
      "stateMutability": "nonpayable",
      "type": "constructor"
    },
    {
      "inputs": [],
      "name": "FEE_TOO_HIGH",
      "type": "error"
    },
    {
      "inputs": [],
      "name": "INADEQUATE_DISTRIBUTION_AMOUNT",
      "type": "error"
    },
    {
      "inputs": [],
      "name": "INADEQUATE_RECLAIM_AMOUNT",
      "type": "error"
    },
    {
      "inputs": [],
      "name": "INADEQUATE_TOKEN_COUNT",
      "type": "error"
    },
    {
      "inputs": [],
      "name": "NO_MSG_VALUE_ALLOWED",
      "type": "error"
    },
    {
      "inputs": [],
      "name": "PAY_TO_ZERO_ADDRESS",
      "type": "error"
    },
    {
      "inputs": [
        {
          "internalType": "uint256",
          "name": "prod1",
          "type": "uint256"
        },
        {
          "internalType": "uint256",
          "name": "denominator",
          "type": "uint256"
        }
      ],
      "name": "PRBMath__MulDivOverflow",
      "type": "error"
    },
    {
      "inputs": [],
      "name": "PROJECT_TERMINAL_MISMATCH",
      "type": "error"
    },
    {
      "inputs": [],
      "name": "REDEEM_TO_ZERO_ADDRESS",
      "type": "error"
    },
    {
      "inputs": [],
      "name": "TERMINAL_TOKENS_INCOMPATIBLE",
      "type": "error"
    },
    {
      "inputs": [],
      "name": "UNAUTHORIZED",
      "type": "error"
    },
    {
      "anonymous": false,
      "inputs": [
        {
          "indexed": true,
          "internalType": "uint256",
          "name": "projectId",
          "type": "uint256"
        },
        {
          "indexed": false,
          "internalType": "uint256",
          "name": "amount",
          "type": "uint256"
        },
        {
          "indexed": false,
          "internalType": "uint256",
          "name": "refundedFees",
          "type": "uint256"
        },
        {
          "indexed": false,
          "internalType": "string",
          "name": "memo",
          "type": "string"
        },
        {
          "indexed": false,
          "internalType": "bytes",
          "name": "metadata",
          "type": "bytes"
        },
        {
          "indexed": false,
          "internalType": "address",
          "name": "caller",
          "type": "address"
        }
      ],
      "name": "AddToBalance",
      "type": "event"
    },
    {
      "anonymous": false,
      "inputs": [
        {
          "indexed": true,
          "internalType": "contract IJBPayDelegate3_1_1",
          "name": "delegate",
          "type": "address"
        },
        {
          "components": [
            {
              "internalType": "address",
              "name": "payer",
              "type": "address"
            },
            {
              "internalType": "uint256",
              "name": "projectId",
              "type": "uint256"
            },
            {
              "internalType": "uint256",
              "name": "currentFundingCycleConfiguration",
              "type": "uint256"
            },
            {
              "components": [
                {
                  "internalType": "address",
                  "name": "token",
                  "type": "address"
                },
                {
                  "internalType": "uint256",
                  "name": "value",
                  "type": "uint256"
                },
                {
                  "internalType": "uint256",
                  "name": "decimals",
                  "type": "uint256"
                },
                {
                  "internalType": "uint256",
                  "name": "currency",
                  "type": "uint256"
                }
              ],
              "internalType": "struct JBTokenAmount",
              "name": "amount",
              "type": "tuple"
            },
            {
              "components": [
                {
                  "internalType": "address",
                  "name": "token",
                  "type": "address"
                },
                {
                  "internalType": "uint256",
                  "name": "value",
                  "type": "uint256"
                },
                {
                  "internalType": "uint256",
                  "name": "decimals",
                  "type": "uint256"
                },
                {
                  "internalType": "uint256",
                  "name": "currency",
                  "type": "uint256"
                }
              ],
              "internalType": "struct JBTokenAmount",
              "name": "forwardedAmount",
              "type": "tuple"
            },
            {
              "internalType": "uint256",
              "name": "projectTokenCount",
              "type": "uint256"
            },
            {
              "internalType": "address",
              "name": "beneficiary",
              "type": "address"
            },
            {
              "internalType": "bool",
              "name": "preferClaimedTokens",
              "type": "bool"
            },
            {
              "internalType": "string",
              "name": "memo",
              "type": "string"
            },
            {
              "internalType": "bytes",
              "name": "dataSourceMetadata",
              "type": "bytes"
            },
            {
              "internalType": "bytes",
              "name": "payerMetadata",
              "type": "bytes"
            }
          ],
          "indexed": false,
          "internalType": "struct JBDidPayData3_1_1",
          "name": "data",
          "type": "tuple"
        },
        {
          "indexed": false,
          "internalType": "uint256",
          "name": "delegatedAmount",
          "type": "uint256"
        },
        {
          "indexed": false,
          "internalType": "address",
          "name": "caller",
          "type": "address"
        }
      ],
      "name": "DelegateDidPay",
      "type": "event"
    },
    {
      "anonymous": false,
      "inputs": [
        {
          "indexed": true,
          "internalType": "contract IJBPayDelegate",
          "name": "delegate",
          "type": "address"
        },
        {
          "components": [
            {
              "internalType": "address",
              "name": "payer",
              "type": "address"
            },
            {
              "internalType": "uint256",
              "name": "projectId",
              "type": "uint256"
            },
            {
              "internalType": "uint256",
              "name": "currentFundingCycleConfiguration",
              "type": "uint256"
            },
            {
              "components": [
                {
                  "internalType": "address",
                  "name": "token",
                  "type": "address"
                },
                {
                  "internalType": "uint256",
                  "name": "value",
                  "type": "uint256"
                },
                {
                  "internalType": "uint256",
                  "name": "decimals",
                  "type": "uint256"
                },
                {
                  "internalType": "uint256",
                  "name": "currency",
                  "type": "uint256"
                }
              ],
              "internalType": "struct JBTokenAmount",
              "name": "amount",
              "type": "tuple"
            },
            {
              "components": [
                {
                  "internalType": "address",
                  "name": "token",
                  "type": "address"
                },
                {
                  "internalType": "uint256",
                  "name": "value",
                  "type": "uint256"
                },
                {
                  "internalType": "uint256",
                  "name": "decimals",
                  "type": "uint256"
                },
                {
                  "internalType": "uint256",
                  "name": "currency",
                  "type": "uint256"
                }
              ],
              "internalType": "struct JBTokenAmount",
              "name": "forwardedAmount",
              "type": "tuple"
            },
            {
              "internalType": "uint256",
              "name": "projectTokenCount",
              "type": "uint256"
            },
            {
              "internalType": "address",
              "name": "beneficiary",
              "type": "address"
            },
            {
              "internalType": "bool",
              "name": "preferClaimedTokens",
              "type": "bool"
            },
            {
              "internalType": "string",
              "name": "memo",
              "type": "string"
            },
            {
              "internalType": "bytes",
              "name": "metadata",
              "type": "bytes"
            }
          ],
          "indexed": false,
          "internalType": "struct JBDidPayData",
          "name": "data",
          "type": "tuple"
        },
        {
          "indexed": false,
          "internalType": "uint256",
          "name": "delegatedAmount",
          "type": "uint256"
        },
        {
          "indexed": false,
          "internalType": "address",
          "name": "caller",
          "type": "address"
        }
      ],
      "name": "DelegateDidPay",
      "type": "event"
    },
    {
      "anonymous": false,
      "inputs": [
        {
          "indexed": true,
          "internalType": "contract IJBRedemptionDelegate3_1_1",
          "name": "delegate",
          "type": "address"
        },
        {
          "components": [
            {
              "internalType": "address",
              "name": "holder",
              "type": "address"
            },
            {
              "internalType": "uint256",
              "name": "projectId",
              "type": "uint256"
            },
            {
              "internalType": "uint256",
              "name": "currentFundingCycleConfiguration",
              "type": "uint256"
            },
            {
              "internalType": "uint256",
              "name": "projectTokenCount",
              "type": "uint256"
            },
            {
              "components": [
                {
                  "internalType": "address",
                  "name": "token",
                  "type": "address"
                },
                {
                  "internalType": "uint256",
                  "name": "value",
                  "type": "uint256"
                },
                {
                  "internalType": "uint256",
                  "name": "decimals",
                  "type": "uint256"
                },
                {
                  "internalType": "uint256",
                  "name": "currency",
                  "type": "uint256"
                }
              ],
              "internalType": "struct JBTokenAmount",
              "name": "reclaimedAmount",
              "type": "tuple"
            },
            {
              "components": [
                {
                  "internalType": "address",
                  "name": "token",
                  "type": "address"
                },
                {
                  "internalType": "uint256",
                  "name": "value",
                  "type": "uint256"
                },
                {
                  "internalType": "uint256",
                  "name": "decimals",
                  "type": "uint256"
                },
                {
                  "internalType": "uint256",
                  "name": "currency",
                  "type": "uint256"
                }
              ],
              "internalType": "struct JBTokenAmount",
              "name": "forwardedAmount",
              "type": "tuple"
            },
            {
              "internalType": "address payable",
              "name": "beneficiary",
              "type": "address"
            },
            {
              "internalType": "string",
              "name": "memo",
              "type": "string"
            },
            {
              "internalType": "bytes",
              "name": "dataSourceMetadata",
              "type": "bytes"
            },
            {
              "internalType": "bytes",
              "name": "redeemerMetadata",
              "type": "bytes"
            }
          ],
          "indexed": false,
          "internalType": "struct JBDidRedeemData3_1_1",
          "name": "data",
          "type": "tuple"
        },
        {
          "indexed": false,
          "internalType": "uint256",
          "name": "delegatedAmount",
          "type": "uint256"
        },
        {
          "indexed": false,
          "internalType": "uint256",
          "name": "fee",
          "type": "uint256"
        },
        {
          "indexed": false,
          "internalType": "address",
          "name": "caller",
          "type": "address"
        }
      ],
      "name": "DelegateDidRedeem",
      "type": "event"
    },
    {
      "anonymous": false,
      "inputs": [
        {
          "indexed": true,
          "internalType": "contract IJBRedemptionDelegate",
          "name": "delegate",
          "type": "address"
        },
        {
          "components": [
            {
              "internalType": "address",
              "name": "holder",
              "type": "address"
            },
            {
              "internalType": "uint256",
              "name": "projectId",
              "type": "uint256"
            },
            {
              "internalType": "uint256",
              "name": "currentFundingCycleConfiguration",
              "type": "uint256"
            },
            {
              "internalType": "uint256",
              "name": "projectTokenCount",
              "type": "uint256"
            },
            {
              "components": [
                {
                  "internalType": "address",
                  "name": "token",
                  "type": "address"
                },
                {
                  "internalType": "uint256",
                  "name": "value",
                  "type": "uint256"
                },
                {
                  "internalType": "uint256",
                  "name": "decimals",
                  "type": "uint256"
                },
                {
                  "internalType": "uint256",
                  "name": "currency",
                  "type": "uint256"
                }
              ],
              "internalType": "struct JBTokenAmount",
              "name": "reclaimedAmount",
              "type": "tuple"
            },
            {
              "components": [
                {
                  "internalType": "address",
                  "name": "token",
                  "type": "address"
                },
                {
                  "internalType": "uint256",
                  "name": "value",
                  "type": "uint256"
                },
                {
                  "internalType": "uint256",
                  "name": "decimals",
                  "type": "uint256"
                },
                {
                  "internalType": "uint256",
                  "name": "currency",
                  "type": "uint256"
                }
              ],
              "internalType": "struct JBTokenAmount",
              "name": "forwardedAmount",
              "type": "tuple"
            },
            {
              "internalType": "address payable",
              "name": "beneficiary",
              "type": "address"
            },
            {
              "internalType": "string",
              "name": "memo",
              "type": "string"
            },
            {
              "internalType": "bytes",
              "name": "metadata",
              "type": "bytes"
            }
          ],
          "indexed": false,
          "internalType": "struct JBDidRedeemData",
          "name": "data",
          "type": "tuple"
        },
        {
          "indexed": false,
          "internalType": "uint256",
          "name": "delegatedAmount",
          "type": "uint256"
        },
        {
          "indexed": false,
          "internalType": "address",
          "name": "caller",
          "type": "address"
        }
      ],
      "name": "DelegateDidRedeem",
      "type": "event"
    },
    {
      "anonymous": false,
      "inputs": [
        {
          "indexed": true,
          "internalType": "uint256",
          "name": "fundingCycleConfiguration",
          "type": "uint256"
        },
        {
          "indexed": true,
          "internalType": "uint256",
          "name": "fundingCycleNumber",
          "type": "uint256"
        },
        {
          "indexed": true,
          "internalType": "uint256",
          "name": "projectId",
          "type": "uint256"
        },
        {
          "indexed": false,
          "internalType": "address",
          "name": "beneficiary",
          "type": "address"
        },
        {
          "indexed": false,
          "internalType": "uint256",
          "name": "amount",
          "type": "uint256"
        },
        {
          "indexed": false,
          "internalType": "uint256",
          "name": "distributedAmount",
          "type": "uint256"
        },
        {
          "indexed": false,
          "internalType": "uint256",
          "name": "fee",
          "type": "uint256"
        },
        {
          "indexed": false,
          "internalType": "uint256",
          "name": "beneficiaryDistributionAmount",
          "type": "uint256"
        },
        {
          "indexed": false,
          "internalType": "bytes",
          "name": "metadata",
          "type": "bytes"
        },
        {
          "indexed": false,
          "internalType": "address",
          "name": "caller",
          "type": "address"
        }
      ],
      "name": "DistributePayouts",
      "type": "event"
    },
    {
      "anonymous": false,
      "inputs": [
        {
          "indexed": true,
          "internalType": "uint256",
          "name": "projectId",
          "type": "uint256"
        },
        {
          "indexed": true,
          "internalType": "uint256",
          "name": "domain",
          "type": "uint256"
        },
        {
          "indexed": true,
          "internalType": "uint256",
          "name": "group",
          "type": "uint256"
        },
        {
          "components": [
            {
              "internalType": "bool",
              "name": "preferClaimed",
              "type": "bool"
            },
            {
              "internalType": "bool",
              "name": "preferAddToBalance",
              "type": "bool"
            },
            {
              "internalType": "uint256",
              "name": "percent",
              "type": "uint256"
            },
            {
              "internalType": "uint256",
              "name": "projectId",
              "type": "uint256"
            },
            {
              "internalType": "address payable",
              "name": "beneficiary",
              "type": "address"
            },
            {
              "internalType": "uint256",
              "name": "lockedUntil",
              "type": "uint256"
            },
            {
              "internalType": "contract IJBSplitAllocator",
              "name": "allocator",
              "type": "address"
            }
          ],
          "indexed": false,
          "internalType": "struct JBSplit",
          "name": "split",
          "type": "tuple"
        },
        {
          "indexed": false,
          "internalType": "uint256",
          "name": "amount",
          "type": "uint256"
        },
        {
          "indexed": false,
          "internalType": "uint256",
          "name": "netAmount",
          "type": "uint256"
        },
        {
          "indexed": false,
          "internalType": "address",
          "name": "caller",
          "type": "address"
        }
      ],
      "name": "DistributeToPayoutSplit",
      "type": "event"
    },
    {
      "anonymous": false,
      "inputs": [
        {
          "indexed": true,
          "internalType": "uint256",
          "name": "projectId",
          "type": "uint256"
        },
        {
          "indexed": true,
          "internalType": "uint256",
          "name": "feeProjectId",
          "type": "uint256"
        },
        {
          "indexed": false,
          "internalType": "uint256",
          "name": "amount",
          "type": "uint256"
        },
        {
          "indexed": false,
          "internalType": "bytes",
          "name": "reason",
          "type": "bytes"
        },
        {
          "indexed": false,
          "internalType": "address",
          "name": "caller",
          "type": "address"
        }
      ],
      "name": "FeeReverted",
      "type": "event"
    },
    {
      "anonymous": false,
      "inputs": [
        {
          "indexed": true,
          "internalType": "uint256",
          "name": "projectId",
          "type": "uint256"
        },
        {
          "indexed": true,
          "internalType": "uint256",
          "name": "amount",
          "type": "uint256"
        },
        {
          "indexed": true,
          "internalType": "uint256",
          "name": "fee",
          "type": "uint256"
        },
        {
          "indexed": false,
          "internalType": "uint256",
          "name": "feeDiscount",
          "type": "uint256"
        },
        {
          "indexed": false,
          "internalType": "address",
          "name": "beneficiary",
          "type": "address"
        },
        {
          "indexed": false,
          "internalType": "address",
          "name": "caller",
          "type": "address"
        }
      ],
      "name": "HoldFee",
      "type": "event"
    },
    {
      "anonymous": false,
      "inputs": [
        {
          "indexed": true,
          "internalType": "uint256",
          "name": "projectId",
          "type": "uint256"
        },
        {
          "indexed": true,
          "internalType": "contract IJBPaymentTerminal",
          "name": "to",
          "type": "address"
        },
        {
          "indexed": false,
          "internalType": "uint256",
          "name": "amount",
          "type": "uint256"
        },
        {
          "indexed": false,
          "internalType": "address",
          "name": "caller",
          "type": "address"
        }
      ],
      "name": "Migrate",
      "type": "event"
    },
    {
      "anonymous": false,
      "inputs": [
        {
          "indexed": true,
          "internalType": "address",
          "name": "previousOwner",
          "type": "address"
        },
        {
          "indexed": true,
          "internalType": "address",
          "name": "newOwner",
          "type": "address"
        }
      ],
      "name": "OwnershipTransferred",
      "type": "event"
    },
    {
      "anonymous": false,
      "inputs": [
        {
          "indexed": true,
          "internalType": "uint256",
          "name": "fundingCycleConfiguration",
          "type": "uint256"
        },
        {
          "indexed": true,
          "internalType": "uint256",
          "name": "fundingCycleNumber",
          "type": "uint256"
        },
        {
          "indexed": true,
          "internalType": "uint256",
          "name": "projectId",
          "type": "uint256"
        },
        {
          "indexed": false,
          "internalType": "address",
          "name": "payer",
          "type": "address"
        },
        {
          "indexed": false,
          "internalType": "address",
          "name": "beneficiary",
          "type": "address"
        },
        {
          "indexed": false,
          "internalType": "uint256",
          "name": "amount",
          "type": "uint256"
        },
        {
          "indexed": false,
          "internalType": "uint256",
          "name": "beneficiaryTokenCount",
          "type": "uint256"
        },
        {
          "indexed": false,
          "internalType": "string",
          "name": "memo",
          "type": "string"
        },
        {
          "indexed": false,
          "internalType": "bytes",
          "name": "metadata",
          "type": "bytes"
        },
        {
          "indexed": false,
          "internalType": "address",
          "name": "caller",
          "type": "address"
        }
      ],
      "name": "Pay",
      "type": "event"
    },
    {
      "anonymous": false,
      "inputs": [
        {
          "indexed": true,
          "internalType": "uint256",
          "name": "projectId",
          "type": "uint256"
        },
        {
          "components": [
            {
              "internalType": "bool",
              "name": "preferClaimed",
              "type": "bool"
            },
            {
              "internalType": "bool",
              "name": "preferAddToBalance",
              "type": "bool"
            },
            {
              "internalType": "uint256",
              "name": "percent",
              "type": "uint256"
            },
            {
              "internalType": "uint256",
              "name": "projectId",
              "type": "uint256"
            },
            {
              "internalType": "address payable",
              "name": "beneficiary",
              "type": "address"
            },
            {
              "internalType": "uint256",
              "name": "lockedUntil",
              "type": "uint256"
            },
            {
              "internalType": "contract IJBSplitAllocator",
              "name": "allocator",
              "type": "address"
            }
          ],
          "indexed": false,
          "internalType": "struct JBSplit",
          "name": "split",
          "type": "tuple"
        },
        {
          "indexed": false,
          "internalType": "uint256",
          "name": "amount",
          "type": "uint256"
        },
        {
          "indexed": false,
          "internalType": "bytes",
          "name": "reason",
          "type": "bytes"
        },
        {
          "indexed": false,
          "internalType": "address",
          "name": "caller",
          "type": "address"
        }
      ],
      "name": "PayoutReverted",
      "type": "event"
    },
    {
      "anonymous": false,
      "inputs": [
        {
          "indexed": true,
          "internalType": "uint256",
          "name": "projectId",
          "type": "uint256"
        },
        {
          "indexed": true,
          "internalType": "uint256",
          "name": "amount",
          "type": "uint256"
        },
        {
          "indexed": true,
          "internalType": "bool",
          "name": "wasHeld",
          "type": "bool"
        },
        {
          "indexed": false,
          "internalType": "address",
          "name": "beneficiary",
          "type": "address"
        },
        {
          "indexed": false,
          "internalType": "address",
          "name": "caller",
          "type": "address"
        }
      ],
      "name": "ProcessFee",
      "type": "event"
    },
    {
      "anonymous": false,
      "inputs": [
        {
          "indexed": true,
          "internalType": "uint256",
          "name": "fundingCycleConfiguration",
          "type": "uint256"
        },
        {
          "indexed": true,
          "internalType": "uint256",
          "name": "fundingCycleNumber",
          "type": "uint256"
        },
        {
          "indexed": true,
          "internalType": "uint256",
          "name": "projectId",
          "type": "uint256"
        },
        {
          "indexed": false,
          "internalType": "address",
          "name": "holder",
          "type": "address"
        },
        {
          "indexed": false,
          "internalType": "address",
          "name": "beneficiary",
          "type": "address"
        },
        {
          "indexed": false,
          "internalType": "uint256",
          "name": "tokenCount",
          "type": "uint256"
        },
        {
          "indexed": false,
          "internalType": "uint256",
          "name": "reclaimedAmount",
          "type": "uint256"
        },
        {
          "indexed": false,
          "internalType": "string",
          "name": "memo",
          "type": "string"
        },
        {
          "indexed": false,
          "internalType": "bytes",
          "name": "metadata",
          "type": "bytes"
        },
        {
          "indexed": false,
          "internalType": "address",
          "name": "caller",
          "type": "address"
        }
      ],
      "name": "RedeemTokens",
      "type": "event"
    },
    {
      "anonymous": false,
      "inputs": [
        {
          "indexed": true,
          "internalType": "uint256",
          "name": "projectId",
          "type": "uint256"
        },
        {
          "indexed": true,
          "internalType": "uint256",
          "name": "amount",
          "type": "uint256"
        },
        {
          "indexed": true,
          "internalType": "uint256",
          "name": "refundedFees",
          "type": "uint256"
        },
        {
          "indexed": false,
          "internalType": "uint256",
          "name": "leftoverAmount",
          "type": "uint256"
        },
        {
          "indexed": false,
          "internalType": "address",
          "name": "caller",
          "type": "address"
        }
      ],
      "name": "RefundHeldFees",
      "type": "event"
    },
    {
      "anonymous": false,
      "inputs": [
        {
          "indexed": false,
          "internalType": "uint256",
          "name": "fee",
          "type": "uint256"
        },
        {
          "indexed": false,
          "internalType": "address",
          "name": "caller",
          "type": "address"
        }
      ],
      "name": "SetFee",
      "type": "event"
    },
    {
      "anonymous": false,
      "inputs": [
        {
          "indexed": true,
          "internalType": "address",
          "name": "feeGauge",
          "type": "address"
        },
        {
          "indexed": false,
          "internalType": "address",
          "name": "caller",
          "type": "address"
        }
      ],
      "name": "SetFeeGauge",
      "type": "event"
    },
    {
      "anonymous": false,
      "inputs": [
        {
          "indexed": true,
          "internalType": "address",
          "name": "addrs",
          "type": "address"
        },
        {
          "indexed": true,
          "internalType": "bool",
          "name": "flag",
          "type": "bool"
        },
        {
          "indexed": false,
          "internalType": "address",
          "name": "caller",
          "type": "address"
        }
      ],
      "name": "SetFeelessAddress",
      "type": "event"
    },
    {
      "anonymous": false,
      "inputs": [
        {
          "indexed": true,
          "internalType": "uint256",
          "name": "fundingCycleConfiguration",
          "type": "uint256"
        },
        {
          "indexed": true,
          "internalType": "uint256",
          "name": "fundingCycleNumber",
          "type": "uint256"
        },
        {
          "indexed": true,
          "internalType": "uint256",
          "name": "projectId",
          "type": "uint256"
        },
        {
          "indexed": false,
          "internalType": "address",
          "name": "beneficiary",
          "type": "address"
        },
        {
          "indexed": false,
          "internalType": "uint256",
          "name": "amount",
          "type": "uint256"
        },
        {
          "indexed": false,
          "internalType": "uint256",
          "name": "distributedAmount",
          "type": "uint256"
        },
        {
          "indexed": false,
          "internalType": "uint256",
          "name": "netDistributedamount",
          "type": "uint256"
        },
        {
          "indexed": false,
          "internalType": "string",
          "name": "memo",
          "type": "string"
        },
        {
          "indexed": false,
          "internalType": "bytes",
          "name": "metadata",
          "type": "bytes"
        },
        {
          "indexed": false,
          "internalType": "address",
          "name": "caller",
          "type": "address"
        }
      ],
      "name": "UseAllowance",
      "type": "event"
    },
    {
      "inputs": [
        {
          "internalType": "address",
          "name": "_token",
          "type": "address"
        },
        {
          "internalType": "uint256",
          "name": "_projectId",
          "type": "uint256"
        }
      ],
      "name": "acceptsToken",
      "outputs": [
        {
          "internalType": "bool",
          "name": "",
          "type": "bool"
        }
      ],
      "stateMutability": "view",
      "type": "function"
    },
    {
      "inputs": [
        {
          "internalType": "uint256",
          "name": "_projectId",
          "type": "uint256"
        },
        {
          "internalType": "uint256",
          "name": "_amount",
          "type": "uint256"
        },
        {
          "internalType": "address",
          "name": "_token",
          "type": "address"
        },
        {
          "internalType": "string",
          "name": "_memo",
          "type": "string"
        },
        {
          "internalType": "bytes",
          "name": "_metadata",
          "type": "bytes"
        }
      ],
      "name": "addToBalanceOf",
      "outputs": [],
      "stateMutability": "payable",
      "type": "function"
    },
    {
      "inputs": [
        {
          "internalType": "uint256",
          "name": "_projectId",
          "type": "uint256"
        },
        {
          "internalType": "uint256",
          "name": "_amount",
          "type": "uint256"
        },
        {
          "internalType": "address",
          "name": "_token",
          "type": "address"
        },
        {
          "internalType": "bool",
          "name": "_shouldRefundHeldFees",
          "type": "bool"
        },
        {
          "internalType": "string",
          "name": "_memo",
          "type": "string"
        },
        {
          "internalType": "bytes",
          "name": "_metadata",
          "type": "bytes"
        }
      ],
      "name": "addToBalanceOf",
      "outputs": [],
      "stateMutability": "payable",
      "type": "function"
    },
    {
      "inputs": [],
      "name": "baseWeightCurrency",
      "outputs": [
        {
          "internalType": "uint256",
          "name": "",
          "type": "uint256"
        }
      ],
      "stateMutability": "view",
      "type": "function"
    },
    {
      "inputs": [],
      "name": "currency",
      "outputs": [
        {
          "internalType": "uint256",
          "name": "",
          "type": "uint256"
        }
      ],
      "stateMutability": "view",
      "type": "function"
    },
    {
      "inputs": [
        {
          "internalType": "address",
          "name": "_token",
          "type": "address"
        }
      ],
      "name": "currencyForToken",
      "outputs": [
        {
          "internalType": "uint256",
          "name": "",
          "type": "uint256"
        }
      ],
      "stateMutability": "view",
      "type": "function"
    },
    {
      "inputs": [
        {
          "internalType": "uint256",
          "name": "_projectId",
          "type": "uint256"
        }
      ],
      "name": "currentEthOverflowOf",
      "outputs": [
        {
          "internalType": "uint256",
          "name": "",
          "type": "uint256"
        }
      ],
      "stateMutability": "view",
      "type": "function"
    },
    {
      "inputs": [],
      "name": "decimals",
      "outputs": [
        {
          "internalType": "uint256",
          "name": "",
          "type": "uint256"
        }
      ],
      "stateMutability": "view",
      "type": "function"
    },
    {
      "inputs": [
        {
          "internalType": "address",
          "name": "_token",
          "type": "address"
        }
      ],
      "name": "decimalsForToken",
      "outputs": [
        {
          "internalType": "uint256",
          "name": "",
          "type": "uint256"
        }
      ],
      "stateMutability": "view",
      "type": "function"
    },
    {
      "inputs": [],
      "name": "directory",
      "outputs": [
        {
          "internalType": "contract IJBDirectory",
          "name": "",
          "type": "address"
        }
      ],
      "stateMutability": "view",
      "type": "function"
    },
    {
      "inputs": [
        {
          "internalType": "uint256",
          "name": "_projectId",
          "type": "uint256"
        },
        {
          "internalType": "uint256",
          "name": "_amount",
          "type": "uint256"
        },
        {
          "internalType": "uint256",
          "name": "_currency",
          "type": "uint256"
        },
        {
          "internalType": "address",
          "name": "_token",
          "type": "address"
        },
        {
          "internalType": "uint256",
          "name": "_minReturnedTokens",
          "type": "uint256"
        },
        {
          "internalType": "bytes",
          "name": "_metadata",
          "type": "bytes"
        }
      ],
      "name": "distributePayoutsOf",
      "outputs": [
        {
          "internalType": "uint256",
          "name": "netLeftoverDistributionAmount",
          "type": "uint256"
        }
      ],
      "stateMutability": "nonpayable",
      "type": "function"
    },
    {
      "inputs": [],
      "name": "fee",
      "outputs": [
        {
          "internalType": "uint256",
          "name": "",
          "type": "uint256"
        }
      ],
      "stateMutability": "view",
      "type": "function"
    },
    {
      "inputs": [],
      "name": "feeGauge",
      "outputs": [
        {
          "internalType": "address",
          "name": "",
          "type": "address"
        }
      ],
      "stateMutability": "view",
      "type": "function"
    },
    {
      "inputs": [
        {
          "internalType": "uint256",
          "name": "_projectId",
          "type": "uint256"
        }
      ],
      "name": "heldFeesOf",
      "outputs": [
        {
          "components": [
            {
              "internalType": "uint256",
              "name": "amount",
              "type": "uint256"
            },
            {
              "internalType": "uint32",
              "name": "fee",
              "type": "uint32"
            },
            {
              "internalType": "uint32",
              "name": "feeDiscount",
              "type": "uint32"
            },
            {
              "internalType": "address",
              "name": "beneficiary",
              "type": "address"
            }
          ],
          "internalType": "struct JBFee[]",
          "name": "",
          "type": "tuple[]"
        }
      ],
      "stateMutability": "view",
      "type": "function"
    },
    {
      "inputs": [
        {
          "internalType": "address",
          "name": "",
          "type": "address"
        }
      ],
      "name": "isFeelessAddress",
      "outputs": [
        {
          "internalType": "bool",
          "name": "",
          "type": "bool"
        }
      ],
      "stateMutability": "view",
      "type": "function"
    },
    {
      "inputs": [
        {
          "internalType": "uint256",
          "name": "_projectId",
          "type": "uint256"
        },
        {
          "internalType": "contract IJBPaymentTerminal",
          "name": "_to",
          "type": "address"
        }
      ],
      "name": "migrate",
      "outputs": [
        {
          "internalType": "uint256",
          "name": "balance",
          "type": "uint256"
        }
      ],
      "stateMutability": "nonpayable",
      "type": "function"
    },
    {
      "inputs": [],
      "name": "operatorStore",
      "outputs": [
        {
          "internalType": "contract IJBOperatorStore",
          "name": "",
          "type": "address"
        }
      ],
      "stateMutability": "view",
      "type": "function"
    },
    {
      "inputs": [],
      "name": "owner",
      "outputs": [
        {
          "internalType": "address",
          "name": "",
          "type": "address"
        }
      ],
      "stateMutability": "view",
      "type": "function"
    },
    {
      "inputs": [
        {
          "internalType": "uint256",
          "name": "_projectId",
          "type": "uint256"
        },
        {
          "internalType": "uint256",
          "name": "_amount",
          "type": "uint256"
        },
        {
          "internalType": "address",
          "name": "_token",
          "type": "address"
        },
        {
          "internalType": "address",
          "name": "_beneficiary",
          "type": "address"
        },
        {
          "internalType": "uint256",
          "name": "_minReturnedTokens",
          "type": "uint256"
        },
        {
          "internalType": "bool",
          "name": "_preferClaimedTokens",
          "type": "bool"
        },
        {
          "internalType": "string",
          "name": "_memo",
          "type": "string"
        },
        {
          "internalType": "bytes",
          "name": "_metadata",
          "type": "bytes"
        }
      ],
      "name": "pay",
      "outputs": [
        {
          "internalType": "uint256",
          "name": "",
          "type": "uint256"
        }
      ],
      "stateMutability": "payable",
      "type": "function"
    },
    {
      "inputs": [],
      "name": "payoutSplitsGroup",
      "outputs": [
        {
          "internalType": "uint256",
          "name": "",
          "type": "uint256"
        }
      ],
      "stateMutability": "view",
      "type": "function"
    },
    {
      "inputs": [],
      "name": "prices",
      "outputs": [
        {
          "internalType": "contract IJBPrices",
          "name": "",
          "type": "address"
        }
      ],
      "stateMutability": "view",
      "type": "function"
    },
    {
      "inputs": [
        {
          "internalType": "uint256",
          "name": "_projectId",
          "type": "uint256"
        }
      ],
      "name": "processFees",
      "outputs": [],
      "stateMutability": "nonpayable",
      "type": "function"
    },
    {
      "inputs": [],
      "name": "projects",
      "outputs": [
        {
          "internalType": "contract IJBProjects",
          "name": "",
          "type": "address"
        }
      ],
      "stateMutability": "view",
      "type": "function"
    },
    {
      "inputs": [
        {
          "internalType": "address",
          "name": "_holder",
          "type": "address"
        },
        {
          "internalType": "uint256",
          "name": "_projectId",
          "type": "uint256"
        },
        {
          "internalType": "uint256",
          "name": "_tokenCount",
          "type": "uint256"
        },
        {
          "internalType": "address",
          "name": "_token",
          "type": "address"
        },
        {
          "internalType": "uint256",
          "name": "_minReturnedTokens",
          "type": "uint256"
        },
        {
          "internalType": "address payable",
          "name": "_beneficiary",
          "type": "address"
        },
        {
          "internalType": "string",
          "name": "_memo",
          "type": "string"
        },
        {
          "internalType": "bytes",
          "name": "_metadata",
          "type": "bytes"
        }
      ],
      "name": "redeemTokensOf",
      "outputs": [
        {
          "internalType": "uint256",
          "name": "reclaimAmount",
          "type": "uint256"
        }
      ],
      "stateMutability": "nonpayable",
      "type": "function"
    },
    {
      "inputs": [],
      "name": "renounceOwnership",
      "outputs": [],
      "stateMutability": "nonpayable",
      "type": "function"
    },
    {
      "inputs": [
        {
          "internalType": "uint256",
          "name": "_fee",
          "type": "uint256"
        }
      ],
      "name": "setFee",
      "outputs": [],
      "stateMutability": "nonpayable",
      "type": "function"
    },
    {
      "inputs": [
        {
          "internalType": "address",
          "name": "_feeGauge",
          "type": "address"
        }
      ],
      "name": "setFeeGauge",
      "outputs": [],
      "stateMutability": "nonpayable",
      "type": "function"
    },
    {
      "inputs": [
        {
          "internalType": "address",
          "name": "_address",
          "type": "address"
        },
        {
          "internalType": "bool",
          "name": "_flag",
          "type": "bool"
        }
      ],
      "name": "setFeelessAddress",
      "outputs": [],
      "stateMutability": "nonpayable",
      "type": "function"
    },
    {
      "inputs": [],
      "name": "splitsStore",
      "outputs": [
        {
          "internalType": "contract IJBSplitsStore",
          "name": "",
          "type": "address"
        }
      ],
      "stateMutability": "view",
      "type": "function"
    },
    {
      "inputs": [],
      "name": "store",
      "outputs": [
        {
          "internalType": "address",
          "name": "",
          "type": "address"
        }
      ],
      "stateMutability": "view",
      "type": "function"
    },
    {
      "inputs": [
        {
          "internalType": "bytes4",
          "name": "_interfaceId",
          "type": "bytes4"
        }
      ],
      "name": "supportsInterface",
      "outputs": [
        {
          "internalType": "bool",
          "name": "",
          "type": "bool"
        }
      ],
      "stateMutability": "view",
      "type": "function"
    },
    {
      "inputs": [],
      "name": "token",
      "outputs": [
        {
          "internalType": "address",
          "name": "",
          "type": "address"
        }
      ],
      "stateMutability": "view",
      "type": "function"
    },
    {
      "inputs": [
        {
          "internalType": "address",
          "name": "newOwner",
          "type": "address"
        }
      ],
      "name": "transferOwnership",
      "outputs": [],
      "stateMutability": "nonpayable",
      "type": "function"
    },
    {
      "inputs": [
        {
          "internalType": "uint256",
          "name": "_projectId",
          "type": "uint256"
        },
        {
          "internalType": "uint256",
          "name": "_amount",
          "type": "uint256"
        },
        {
          "internalType": "uint256",
          "name": "_currency",
          "type": "uint256"
        },
        {
          "internalType": "address",
          "name": "_token",
          "type": "address"
        },
        {
          "internalType": "uint256",
          "name": "_minReturnedTokens",
          "type": "uint256"
        },
        {
          "internalType": "address payable",
          "name": "_beneficiary",
          "type": "address"
        },
        {
          "internalType": "string",
          "name": "_memo",
          "type": "string"
        },
        {
          "internalType": "bytes",
          "name": "_metadata",
          "type": "bytes"
        }
      ],
      "name": "useAllowanceOf",
      "outputs": [
        {
          "internalType": "uint256",
          "name": "netDistributedAmount",
          "type": "uint256"
        }
      ],
      "stateMutability": "nonpayable",
      "type": "function"
    }
  ],
  "transactionHash": "0x08276d08bf49fbec31684c3714bffe3e31f0379cae61dcf4e070de21e7712050",
  "args": [
    "1",
    "0x6F3C5afCa0c9eDf3926eF2dDF17c8ae6391afEfb",
    "0xD8B4359143eda5B2d763E127Ed27c77addBc47d3",
    "0x65572FB928b46f9aDB7cfe5A4c41226F636161ea",
    "0x0D25194ABE95185Db8e4B0294F5669E21C534785",
    "0x63CF55ab55ABcaD4E84335B80bbE3D2DefA09410",
    "0x82129d4109625F94582bDdF6101a8Cd1a27919f5",
    "0xAF28bcB48C40dBC86f52D459A6562F658fc94B1e"
  ],
  "numDeployments": 1,
  "solcInputHash": "11cb1f66a0f8213d7bf83deb0ae9d2f7",
  "bytecode": "0x6101e060405263017d78406002553480156200001a57600080fd5b5060405162005f4a38038062005f4a8339810160408190526200003d916200020a565b61eeee6080819052601260a0819052600160c08190526001600160a01b038a1660e0528a818b8b8b8b8b8b8b6200007433620000cf565b6101a08990526101c08890526001600160a01b0380871661010052858116610120528481166101405283811661016052821661018052620000b5816200011f565b5050505050505050505050505050505050505050620002bf565b600080546001600160a01b038381166001600160a01b0319831681178455604051919092169283917f8be0079c531659141344cd1fd0a4f28419497f9722a3daafe3b4186f6b6457e09190a35050565b6000546001600160a01b031633146200017f5760405162461bcd60e51b815260206004820181905260248201527f4f776e61626c653a2063616c6c6572206973206e6f7420746865206f776e657260448201526064015b60405180910390fd5b6001600160a01b038116620001e65760405162461bcd60e51b815260206004820152602660248201527f4f776e61626c653a206e6577206f776e657220697320746865207a65726f206160448201526564647265737360d01b606482015260840162000176565b620001f181620000cf565b50565b6001600160a01b0381168114620001f157600080fd5b600080600080600080600080610100898b0312156200022857600080fd5b8851975060208901516200023c81620001f4565b60408a01519097506200024f81620001f4565b60608a01519096506200026281620001f4565b60808a01519095506200027581620001f4565b60a08a01519094506200028881620001f4565b60c08a01519093506200029b81620001f4565b60e08a0151909250620002ae81620001f4565b809150509295985092959890939650565b60805160a05160c05160e05161010051610120516101405161016051610180516101a0516101c051615a2f6200051b600039600081816103cf015261206e01526000818161030701526118d00152600081816104f701528181610ad5015281816112fc0152818161189e01528181611f19015281816126250152818161298701528181612a9401526136d101526000818161065601526114810152600081816102bb01526133a801526000818161060f0152818161173b01528181611981015281816123ce01528181612bdf0152818161324e0152613ea80152600081816104a50152818161099001528181610e7d0152818161123101528181611fc501526126df01526000818161056b01528181611dad01528181611e4901528181612200015261229c0152600081816102660152818161070e015281816113cc0152818161142e0152818161187801528181611b5401528181612d750152612e0501526000818161033b015281816105db0152818161136d01528181611399015281816113f90152818161145b0152818161185201528181611b2e01528181612d4f01528181612ddf0152613c5c0152600081816106cc015281816107620152818161087e01528181610a2801528181610b5601528181610bc9015281816115130152818161181d01528181611af801528181611c46015281816123a30152818161245a0152818161249501528181612d1a01528181612da901528181612f320152818161322101528181613c2701528181613ccf01528181613ed5015281816140300152818161406e015281816141a301526141e70152615a2f6000f3fe6080604052600436106101f95760003560e01c80638da5cb5b1161010d578063c715967a116100a0578063df21a7dd1161006f578063df21a7dd146106ae578063e5a6b10f146106fc578063f2fde38b14610730578063fc0c546a14610750578063fe663f0f1461078457600080fd5b8063c715967a14610631578063d3419bf314610644578063d6dacc5314610678578063ddca3f431461069857600080fd5b8063ad007d63116100dc578063ad007d6314610559578063b631b5001461058d578063b7bad1b1146105bd578063c41c2f24146105fd57600080fd5b80638da5cb5b146104c7578063975057e7146104e5578063a02f801c14610519578063a32e1e961461053957600080fd5b80634a4305c011610190578063715018a61161015f578063715018a6146104115780637258002c1461042657806389701db5146104465780638af56094146104665780638b79543c1461049357600080fd5b80634a4305c01461037d578063637913ac1461039d57806366248b86146103bd57806369fe0e2d146103f157600080fd5b80632bdfe004116101cc5780632bdfe004146102a95780632d1a5903146102f5578063313ce56714610329578063405b84fa1461035d57600080fd5b806301ffc9a7146101fe5780630cf8e858146102335780631982d679146102485780631ebc263f14610296575b600080fd5b34801561020a57600080fd5b5061021e6102193660046144ec565b6107a4565b60405190151581526020015b60405180910390f35b610246610241366004614573565b61084e565b005b34801561025457600080fd5b50610288610263366004614608565b507f000000000000000000000000000000000000000000000000000000000000000090565b60405190815260200161022a565b6102886102a4366004614633565b610871565b3480156102b557600080fd5b506102dd7f000000000000000000000000000000000000000000000000000000000000000081565b6040516001600160a01b03909116815260200161022a565b34801561030157600080fd5b506102887f000000000000000000000000000000000000000000000000000000000000000081565b34801561033557600080fd5b506102887f000000000000000000000000000000000000000000000000000000000000000081565b34801561036957600080fd5b506102886103783660046146fa565b610977565b34801561038957600080fd5b5061028861039836600461472a565b610c73565b3480156103a957600080fd5b506102466103b8366004614608565b610c8f565b3480156103c957600080fd5b506102887f000000000000000000000000000000000000000000000000000000000000000081565b3480156103fd57600080fd5b5061024661040c366004614793565b610d16565b34801561041d57600080fd5b50610246610da5565b34801561043257600080fd5b506102466104413660046147ac565b610ddb565b34801561045257600080fd5b50610246610461366004614793565b610e67565b34801561047257600080fd5b50610486610481366004614793565b61116b565b60405161022a91906147da565b34801561049f57600080fd5b506102dd7f000000000000000000000000000000000000000000000000000000000000000081565b3480156104d357600080fd5b506000546001600160a01b03166102dd565b3480156104f157600080fd5b506102dd7f000000000000000000000000000000000000000000000000000000000000000081565b34801561052557600080fd5b50610288610534366004614980565b611218565b34801561054557600080fd5b50610288610554366004614793565b6112d3565b34801561056557600080fd5b506102dd7f000000000000000000000000000000000000000000000000000000000000000081565b34801561059957600080fd5b5061021e6105a8366004614608565b60046020526000908152604090205460ff1681565b3480156105c957600080fd5b506102886105d8366004614608565b507f000000000000000000000000000000000000000000000000000000000000000090565b34801561060957600080fd5b506102dd7f000000000000000000000000000000000000000000000000000000000000000081565b61024661063f366004614a38565b611508565b34801561065057600080fd5b506102dd7f000000000000000000000000000000000000000000000000000000000000000081565b34801561068457600080fd5b506003546102dd906001600160a01b031681565b3480156106a457600080fd5b5061028860025481565b3480156106ba57600080fd5b5061021e6106c9366004614adf565b507f00000000000000000000000000000000000000000000000000000000000000006001600160a01b0390811691161490565b34801561070857600080fd5b506102887f000000000000000000000000000000000000000000000000000000000000000081565b34801561073c57600080fd5b5061024661074b366004614608565b611604565b34801561075c57600080fd5b506102dd7f000000000000000000000000000000000000000000000000000000000000000081565b34801561079057600080fd5b5061028861079f366004614b0b565b61169f565b60006001600160e01b0319821615806107cd57506001600160e01b0319821663edb527eb60e01b145b806107e857506001600160e01b031982166301290c1760e61b145b8061080357506001600160e01b0319821663280be00760e21b145b8061081e57506001600160e01b0319821663fe663f0f60e01b145b8061083957506001600160e01b0319821663ad007d6360e01b145b806108485750610848826116cf565b92915050565b6108578761171f565b610868878787600088888888611508565b50505050505050565b600061087c8b61171f565b7f00000000000000000000000000000000000000000000000000000000000000006001600160a01b031661eeee146108eb5734156108cd57604051635e7e9adf60e11b815260040160405180910390fd5b476108d933308d6117cb565b6108e38147614bd9565b9a50506108ef565b3499505b6109688a338d8b8b8b8b8b8080601f01602080910402602001604051908101604052809392919081815260200183838082843760009201919091525050604080516020601f8f018190048102820181019092528d815292508d91508c90819084018382808284376000920191909152506117da92505050565b9b9a5050505050505050505050565b6040516331a9108f60e11b8152600481018390526000907f00000000000000000000000000000000000000000000000000000000000000006001600160a01b031690636352211e90602401602060405180830381865afa1580156109df573d6000803e3d6000fd5b505050506040513d601f19601f82011682018060405250810190610a039190614bec565b836004610a11838383611d82565b60405163df21a7dd60e01b81526001600160a01b037f0000000000000000000000000000000000000000000000000000000000000000811660048301526024820188905286169063df21a7dd90604401602060405180830381865afa158015610a7e573d6000803e3d6000fd5b505050506040513d601f19601f82011682018060405250810190610aa29190614c09565b610abf5760405163581010ed60e01b815260040160405180910390fd5b604051636bb6a5ad60e01b8152600481018790527f00000000000000000000000000000000000000000000000000000000000000006001600160a01b031690636bb6a5ad906024016020604051808303816000875af1158015610b26573d6000803e3d6000fd5b505050506040513d601f19601f82011682018060405250810190610b4a9190614c26565b93508315610c255760007f00000000000000000000000000000000000000000000000000000000000000006001600160a01b031661eeee14610b8d576000610b8f565b845b6040805160208101825260008152905163019f1d0b60e31b81529192506001600160a01b03881691630cf8e858918491610bf1918c918b917f000000000000000000000000000000000000000000000000000000000000000091600401614c8f565b6000604051808303818588803b158015610c0a57600080fd5b505af1158015610c1e573d6000803e3d6000fd5b5050505050505b604080518581523360208201526001600160a01b0387169188917fa7519e5f94697b7f53e97c5eb46a0c730a296ab686ab8fd333835c5f735784eb910160405180910390a350505092915050565b6000610c83888888878787611ee6565b98975050505050505050565b6000546001600160a01b03163314610cc25760405162461bcd60e51b8152600401610cb990614cca565b60405180910390fd5b600380546001600160a01b0319166001600160a01b0383169081179091556040513381527f0a9a80fe9716605b3e52abb3d792d6a4e7816d6afc02a5a4ef023081feaf9f609060200160405180910390a250565b6000546001600160a01b03163314610d405760405162461bcd60e51b8152600401610cb990614cca565b6302faf080811115610d65576040516345fbd9c160e01b815260040160405180910390fd5b6002819055604080518281523360208201527fd7414e590e1cb532989ab2a34c8f4c2c17f7ab6f006efeeaef2e87cd5008c202910160405180910390a150565b6000546001600160a01b03163314610dcf5760405162461bcd60e51b8152600401610cb990614cca565b610dd9600061217b565b565b6000546001600160a01b03163314610e055760405162461bcd60e51b8152600401610cb990614cca565b6001600160a01b038216600081815260046020908152604091829020805460ff191685151590811790915591513381529192917fa2653e25a502c023a5830d0de847ef6f458387865b1f4f575d7594f9f2c0d71e910160405180910390a35050565b6040516331a9108f60e11b8152600481018290527f00000000000000000000000000000000000000000000000000000000000000006001600160a01b031690636352211e90602401602060405180830381865afa158015610ecc573d6000803e3d6000fd5b505050506040513d601f19601f82011682018060405250810190610ef09190614bec565b816005610f056000546001600160a01b031690565b6001600160a01b0316336001600160a01b031614610f25848484846121cb565b600085815260016020908152604080832080548251818502810185019093528083529192909190849084015b82821015610fbe57600084815260209081902060408051608081018252600286029092018054835260019081015463ffffffff8082168587015264010000000082041692840192909252600160401b9091046001600160a01b031660608301529083529092019101610f51565b5050506000888152600160205260408120929350610fdd92915061444b565b80516000805b8281101561116057838181518110610ffd57610ffd614cff565b60200260200101516020015163ffffffff16600014806110435750633b9aca0084828151811061102f5761102f614cff565b60200260200101516040015163ffffffff16145b6110ba576110b584828151811061105c5761105c614cff565b60200260200101516000015185838151811061107a5761107a614cff565b60200260200101516020015163ffffffff1686848151811061109e5761109e614cff565b60200260200101516040015163ffffffff1661233f565b6110bd565b60005b91506110e7828583815181106110d5576110d5614cff565b6020026020010151606001518b612385565b60011515828a7fcf0c92a2c6d7c42f488326b0cb900104b99984b6b218db81cd29371364a3525187858151811061112057611120614cff565b602002602001015160600151336040516111509291906001600160a01b0392831681529116602082015260400190565b60405180910390a4600101610fe3565b505050505050505050565b606060016000838152602001908152602001600020805480602002602001604051908101604052809291908181526020016000905b8282101561120d57600084815260209081902060408051608081018252600286029092018054835260019081015463ffffffff8082168587015264010000000082041692840192909252600160401b9091046001600160a01b0316606083015290835290920191016111a0565b505050509050919050565b6040516331a9108f60e11b8152600481018a90526000907f00000000000000000000000000000000000000000000000000000000000000006001600160a01b031690636352211e90602401602060405180830381865afa158015611280573d6000803e3d6000fd5b505050506040513d601f19601f820116820180604052508101906112a49190614bec565b8a60116112b2838383611d82565b6112c28d8d8d8c8c8c8c8c6125f2565b9d9c50505050505050505050505050565b60405163035240c760e61b81523060048201526024810182905260009081906001600160a01b037f0000000000000000000000000000000000000000000000000000000000000000169063d49031c090604401602060405180830381865afa158015611343573d6000803e3d6000fd5b505050506040513d601f19601f820116820180604052508101906113679190614c26565b905060007f00000000000000000000000000000000000000000000000000000000000000006012146113c4576113bf827f00000000000000000000000000000000000000000000000000000000000000006012612839565b6113c6565b815b905060017f0000000000000000000000000000000000000000000000000000000000000000146114fe576114f98161141f7f0000000000000000000000000000000000000000000000000000000000000000600a614df9565b604051635268657960e11b81527f00000000000000000000000000000000000000000000000000000000000000006004820152600160248201527f000000000000000000000000000000000000000000000000000000000000000060448201527f00000000000000000000000000000000000000000000000000000000000000006001600160a01b03169063a4d0caf290606401602060405180830381865afa1580156114d0573d6000803e3d6000fd5b505050506040513d601f19601f820116820180604052508101906114f49190614c26565b612896565b611500565b805b949350505050565b6115118861171f565b7f00000000000000000000000000000000000000000000000000000000000000006001600160a01b031661eeee1461158057341561156257604051635e7e9adf60e11b815260040160405180910390fd5b4761156e33308a6117cb565b6115788147614bd9565b975050611584565b3496505b6115fa88888787878080601f01602080910402602001604051908101604052809392919081815260200183838082843760009201919091525050604080516020601f8b01819004810282018101909252898152925089915088908190840183828082843760009201919091525061296392505050565b5050505050505050565b6000546001600160a01b0316331461162e5760405162461bcd60e51b8152600401610cb990614cca565b6001600160a01b0381166116935760405162461bcd60e51b815260206004820152602660248201527f4f776e61626c653a206e6577206f776e657220697320746865207a65726f206160448201526564647265737360d01b6064820152608401610cb9565b61169c8161217b565b50565b6000888860026116b0838383611d82565b6116bf8c8c8c8b8b8b8b612a55565b9c9b505050505050505050505050565b60006001600160e01b0319821663301cdc3960e21b148061170057506001600160e01b0319821663144b000160e11b145b8061084857506301ffc9a760e01b6001600160e01b0319831614610848565b604051636e49181f60e01b8152600481018290523060248201527f00000000000000000000000000000000000000000000000000000000000000006001600160a01b031690636e49181f90604401602060405180830381865afa15801561178a573d6000803e3d6000fd5b505050506040513d601f19601f820116820180604052508101906117ae9190614c09565b61169c57604051631b1d5a5960e31b815260040160405180910390fd5b6117d582826130ea565b505050565b60006001600160a01b0386166118035760405163a762251360e01b815260040160405180910390fd5b61180b61446c565b606060008060405180608001604052807f00000000000000000000000000000000000000000000000000000000000000006001600160a01b031681526020018e81526020017f000000000000000000000000000000000000000000000000000000000000000081526020017f000000000000000000000000000000000000000000000000000000000000000081525090507f00000000000000000000000000000000000000000000000000000000000000006001600160a01b0316632fa1b3918d838e7f00000000000000000000000000000000000000000000000000000000000000008f8d8d6040518863ffffffff1660e01b81526004016119149796959493929190614e31565b6000604051808303816000875af1158015611933573d6000803e3d6000fd5b505050506040513d6000823e601f3d908101601f1916820160405261195b9190810190614f95565b995091955090935091508115611a9057604051632eec7b5560e11b8152600481018c90527f00000000000000000000000000000000000000000000000000000000000000006001600160a01b031690635dd8f6aa90602401602060405180830381865afa1580156119d0573d6000803e3d6000fd5b505050506040513d601f19601f820116820180604052508101906119f49190614bec565b604051638ae9c07b60e01b8152600481018d9052602481018490526001600160a01b038c8116604483015260c06064830152600060c48301528a15156084830152600160a48301529190911690638ae9c07b9060e4016020604051808303816000875af1158015611a69573d6000803e3d6000fd5b505050506040513d601f19601f82011682018060405250810190611a8d9190614c26565b94505b88851015611ab157604051633dca309360e11b815260040160405180910390fd5b825115611d245760006040518061016001604052808e6001600160a01b031681526020018d81526020018660200151815260200183815260200160405180608001604052807f00000000000000000000000000000000000000000000000000000000000000006001600160a01b03168152602001600081526020017f000000000000000000000000000000000000000000000000000000000000000081526020017f000000000000000000000000000000000000000000000000000000000000000081525081526020018781526020018c6001600160a01b031681526020018a15158152602001898152602001604051806020016040528060008152508152602001888152509050600084519050611bec604051806060016040528060006001600160a01b0316815260200160008152602001606081525090565b60005b82811015611d1f57868181518110611c0957611c09614cff565b60209081029190910101519150602080830151608086015190910152604082015161012085015281516001600160a01b0390811690636b204943907f00000000000000000000000000000000000000000000000000000000000000001661eeee14611c75576000611c7b565b83602001515b866040518363ffffffff1660e01b8152600401611c9891906151b0565b6000604051808303818588803b158015611cb157600080fd5b505af1158015611cc5573d6000803e3d6000fd5b505050505081600001516001600160a01b03167f232bbbe420e7bac6f941dc82678daec2b4c712378d91e864b69aab6e26cdd42485846020015133604051611d0f939291906151c3565b60405180910390a2600101611bef565b505050505b50505087816000015182602001517f133161f1c9161488f777ab9a26aae91d47c0d9a3fafb398960f138db02c737978c8b8f888b8b33604051611d6d97969594939291906151f6565b60405180910390a45098975050505050505050565b336001600160a01b03841614801590611e2b575060405163c161c93f60e01b81526001600160a01b037f0000000000000000000000000000000000000000000000000000000000000000169063c161c93f90611de8903390879087908790600401615256565b602060405180830381865afa158015611e05573d6000803e3d6000fd5b505050506040513d601f19601f82011682018060405250810190611e299190614c09565b155b8015611ec8575060405163c161c93f60e01b81526001600160a01b037f0000000000000000000000000000000000000000000000000000000000000000169063c161c93f90611e8590339087906000908790600401615256565b602060405180830381865afa158015611ea2573d6000803e3d6000fd5b505050506040513d601f19601f82011682018060405250810190611ec69190614c09565b155b156117d55760405163075fd2b160e01b815260040160405180910390fd5b60405163c664459760e01b8152600481018790526024810186905260448101859052600090819081906001600160a01b037f0000000000000000000000000000000000000000000000000000000000000000169063c664459790606401610140604051808303816000875af1158015611f63573d6000803e3d6000fd5b505050506040513d601f19601f82011682018060405250810190611f87919061527f565b9150915085811015611fac5760405163b01493c160e01b815260040160405180910390fd5b6040516331a9108f60e11b8152600481018a90526000907f00000000000000000000000000000000000000000000000000000000000000006001600160a01b031690636352211e90602401602060405180830381865afa158015612014573d6000803e3d6000fd5b505050506040513d601f19601f820116820180604052508101906120389190614bec565b600254909150600090818115612058576120538d6000613203565b61205e565b633b9aca005b90506000806120958f89602001517f00000000000000000000000000000000000000000000000000000000000000008a8888613377565b92509050633b9aca0083146120a957908101905b816000036120b85760006120dc565b6120dc8f6120d38a61010001516001604f9190911c81161490565b84878a88613537565b9450801561211957633b9aca0083146120ff576120fa81858561233f565b612102565b60005b61210c9082614bd9565b985061211930878b6117cb565b505050508a846000015185602001517fc41a8d26c70cfcf1b9ea10f82482ac947b8be5bea2750bc729af844bbfde1e28858e88878c8f8f336040516121659897969594939291906152d7565b60405180910390a4505050509695505050505050565b600080546001600160a01b038381166001600160a01b0319831681178455604051919092169283917f8be0079c531659141344cd1fd0a4f28419497f9722a3daafe3b4186f6b6457e09190a35050565b801580156121e25750336001600160a01b03851614155b801561227e575060405163c161c93f60e01b81526001600160a01b037f0000000000000000000000000000000000000000000000000000000000000000169063c161c93f9061223b903390889088908890600401615256565b602060405180830381865afa158015612258573d6000803e3d6000fd5b505050506040513d601f19601f8201168201806040525081019061227c9190614c09565b155b801561231b575060405163c161c93f60e01b81526001600160a01b037f0000000000000000000000000000000000000000000000000000000000000000169063c161c93f906122d890339088906000908890600401615256565b602060405180830381865afa1580156122f5573d6000803e3d6000fd5b505050506040513d601f19601f820116820180604052508101906123199190614c09565b155b156123395760405163075fd2b160e01b815260040160405180910390fd5b50505050565b6000806123518484633b9aca00612896565b61235b9085614bd9565b905061237085633b9aca006114f4818561532a565b61237a9086614bd9565b9150505b9392505050565b604051630862026560e41b8152600160048201526001600160a01b037f0000000000000000000000000000000000000000000000000000000000000000811660248301526000917f000000000000000000000000000000000000000000000000000000000000000090911690638620265090604401602060405180830381865afa158015612417573d6000803e3d6000fd5b505050506040513d601f19601f8201168201806040525081019061243b9190614bec565b9050806001600160a01b0316631ebc263f61eeee6001600160a01b03167f00000000000000000000000000000000000000000000000000000000000000006001600160a01b03161461248e576000612490565b855b6001877f0000000000000000000000000000000000000000000000000000000000000000886000808a6040516020016124cb91815260200190565b6040516020818303038152906040526040518963ffffffff1660e01b81526004016124fc979695949392919061533d565b60206040518083038185885af193505050508015612537575060408051601f3d908101601f1916820190925261253491810190614c26565b60015b6125eb573d808015612565576040519150601f19603f3d011682016040523d82523d6000602084013e61256a565b606091505b506125a783306001600160a01b03851603612586576000612588565b835b306001600160a01b0386160361259f5760006125a1565b875b886136b4565b6001837f80a889d08f0d59eb962335b57fb1d5b29e86e3d23f15087b5541fddf15422bbe8784336040516125dd93929190615395565b60405180910390a350612339565b5050505050565b604051632538671560e01b8152600481018990526024810188905260448101879052600090819081906001600160a01b037f00000000000000000000000000000000000000000000000000000000000000001690632538671590606401610140604051808303816000875af115801561266f573d6000803e3d6000fd5b505050506040513d601f19601f82011682018060405250810190612693919061527f565b91509150878110156126b85760405163b01493c160e01b815260040160405180910390fd5b6002546040516331a9108f60e11b8152600481018d90526000919082906001600160a01b037f00000000000000000000000000000000000000000000000000000000000000001690636352211e90602401602060405180830381865afa158015612726573d6000803e3d6000fd5b505050506040513d601f19601f8201168201806040525081019061274a9190614bec565b9050600082158061276a57503360009081526004602052604090205460ff165b61277e576127798f6001613203565b612784565b633b9aca005b9050633b9aca0081146127ba576127b58f6127ac8861010001516001604f9190911c81161490565b87868686613537565b6127bd565b60005b93508385039650866000146127d7576127d7308c896117cb565b505050508a826000015183602001517f2eeee47c6d8d31c3523c3aa07b4c3e3795db36be4c04546ef3e30a5102f568e18a8e86898d8d8d336040516128239897969594939291906153c6565b60405180910390a4505098975050505050505050565b600082820361284957508261237e565b828211156128775761285b8383614bd9565b61286690600a614df9565b6128709085615426565b905061237e565b6128818284614bd9565b61288c90600a614df9565b612870908561545b565b60008080600019858709858702925082811083820303915050806000036128d0578382816128c6576128c6615445565b049250505061237e565b8381106128fa57604051631dcf306360e21b81526004810182905260248101859052604401610cb9565b60008486880960026001871981018816978890046003810283188082028403028082028403028082028403028082028403028082028403029081029092039091026000889003889004909101858311909403939093029303949094049190911702949350505050565b60008361297157600061297b565b61297b8686613731565b90506001600160a01b037f00000000000000000000000000000000000000000000000000000000000000001663e7c8e3e3876129b7848961532a565b6040516001600160e01b031960e085901b16815260048101929092526024820152604401600060405180830381600087803b1580156129f557600080fd5b505af1158015612a09573d6000803e3d6000fd5b50505050857f9ecaf7fc3dfffd6867c175d6e684b1f1e3aef019398ba8db2c1ffab4a09db2538683868633604051612a4595949392919061547d565b60405180910390a2505050505050565b60006001600160a01b038416612a7e57604051637ba50db360e11b815260040160405180910390fd5b612a8661446c565b6000806000600254905060607f00000000000000000000000000000000000000000000000000000000000000006001600160a01b031663a2df1f958e8e8e8c8c6040518663ffffffff1660e01b8152600401612ae69594939291906154c9565b6000604051808303816000875af1158015612b05573d6000803e3d6000fd5b505050506040513d6000823e601f3d908101601f19168201604052612b2d9190810190615508565b6001600160a01b038d16600090815260046020526040902054909b5091985091965090915060ff1680612b7d5750612710612b6786613b85565b148015612b7d5750612710612b7b86613ba2565b145b80612b86575081155b612b9a57612b958c6002613203565b612ba0565b633b9aca005b925089861015612bc35760405163f896960b60e01b815260040160405180910390fd5b8a15612cd357604051632eec7b5560e11b8152600481018d90527f00000000000000000000000000000000000000000000000000000000000000006001600160a01b031690635dd8f6aa90602401602060405180830381865afa158015612c2e573d6000803e3d6000fd5b505050506040513d601f19601f82011682018060405250810190612c529190614bec565b604051631665bc0f60e01b81526001600160a01b038f81166004830152602482018f9052604482018e905260a06064830152600060a4830181905260848301529190911690631665bc0f9060c401600060405180830381600087803b158015612cba57600080fd5b505af1158015612cce573d6000803e3d6000fd5b505050505b8051156130135760006040518061014001604052808f6001600160a01b031681526020018e8152602001876020015181526020018d815260200160405180608001604052807f00000000000000000000000000000000000000000000000000000000000000006001600160a01b031681526020018a81526020017f000000000000000000000000000000000000000000000000000000000000000081526020017f0000000000000000000000000000000000000000000000000000000000000000815250815260200160405180608001604052807f00000000000000000000000000000000000000000000000000000000000000006001600160a01b03168152602001600081526020017f000000000000000000000000000000000000000000000000000000000000000081526020017f000000000000000000000000000000000000000000000000000000000000000081525081526020018b6001600160a01b031681526020018a8152602001604051806020016040528060008152508152602001898152509050612e89604051806060016040528060006001600160a01b0316815260200160008152602001606081525090565b8251600090815b8181101561300d57858181518110612eaa57612eaa614cff565b6020026020010151935086600014612ed057612ecb8460200151888a61233f565b612ed3565b60005b92508215612f02576020840151612eea908a61532a565b98508284602001818151612efe9190614bd9565b9052505b60208085015160a087015190910152604084015161010086015283516001600160a01b0390811690630bf46e59907f00000000000000000000000000000000000000000000000000000000000000001661eeee14612f61576000612f67565b85602001515b876040518363ffffffff1660e01b8152600401612f8491906156da565b6000604051808303818588803b158015612f9d57600080fd5b505af1158015612fb1573d6000803e3d6000fd5b505050505083600001516001600160a01b03167f6596068545b2541b0aff5579d91f991d0fe5957df8e2082483ef361953e1f9978686602001518633604051612ffd94939291906156ed565b60405180910390a2600101612e90565b50505050505b50841561306e576000633b9aca0083146130375761303286838561233f565b61303a565b60005b9050801561305b5761304c868561532a565b93506130588187614bd9565b95505b851561306c5761306c308a886117cb565b505b8260000361307d57600061308c565b61308c8b600085848c87613537565b5050505087816000015182602001517f2be10f2a0203c77d0fcaa9fd6484a8a1d6904de31cd820587f60c1c8c338c8148c898c888b8b336040516130d697969594939291906151f6565b60405180910390a450979650505050505050565b8047101561313a5760405162461bcd60e51b815260206004820152601d60248201527f416464726573733a20696e73756666696369656e742062616c616e63650000006044820152606401610cb9565b6000826001600160a01b03168260405160006040518083038185875af1925050503d8060008114613187576040519150601f19603f3d011682016040523d82523d6000602084013e61318c565b606091505b50509050806117d55760405162461bcd60e51b815260206004820152603a60248201527f416464726573733a20756e61626c6520746f2073656e642076616c75652c207260448201527f6563697069656e74206d617920686176652072657665727465640000000000006064820152608401610cb9565b604051630862026560e41b8152600160048201526001600160a01b037f00000000000000000000000000000000000000000000000000000000000000008116602483015260009182917f00000000000000000000000000000000000000000000000000000000000000001690638620265090604401602060405180830381865afa158015613295573d6000803e3d6000fd5b505050506040513d601f19601f820116820180604052508101906132b99190614bec565b6001600160a01b0316036132d25750633b9aca00610848565b6003546001600160a01b03161561336e5760035460405163192dd60960e01b81526001600160a01b039091169063192dd609906133159086908690600401615725565b602060405180830381865afa92505050801561334e575060408051601f3d908101601f1916820190925261334b91810190614c26565b60015b61335a57506000610848565b633b9aca00811161336c579050610848565b505b50600092915050565b6040516369e11cc560e01b81526004810187905260248101869052604481018590526000908190633b9aca009082907f00000000000000000000000000000000000000000000000000000000000000006001600160a01b0316906369e11cc590606401600060405180830381865afa1580156133f7573d6000803e3d6000fd5b505050506040513d6000823e601f3d908101601f1916820160405261341f9190810190615757565b6040805160e081018252600080825260208201819052918101829052606081018290526080810182905260a0810182905260c081018290529192505b82518110156135255782818151811061347657613476614cff565b6020026020010151915060006134918a846040015187612896565b905060006134a3848f8e858e8e613bbf565b905080158015906134b45750818114155b156134c6576134c3828861532a565b96505b81156134d257818b039a505b8360400151860395508b8d8f7f0d31ab573f6daa4b1edba8d31973b4ba9f98fbfecc47010c1533eeefd2a1225a8786863360405161351394939291906158b4565b60405180910390a4505060010161345b565b50879450505050965096945050505050565b600061354485858461233f565b9050851561365657600087815260016020818152604080842081516080810183528a815263ffffffff808b168286019081528982168386019081526001600160a01b03808d16606086019081528654808b018855968b5297909920935160029095029093019384555192909501805491519451909616600160401b02600160401b600160e01b03199486166401000000000267ffffffffffffffff199092169290951691909117179190911691909117909155518490869089907f77813be0661650ddc1a5193ff2837df4162b251cb432651e2c060c3fc39756be90613649908790899033909283526001600160a01b03918216602084015216604082015260600190565b60405180910390a46136aa565b613661818489612385565b604080516001600160a01b038516815233602082015260009183918a917fcf0c92a2c6d7c42f488326b0cb900104b99984b6b218db81cd29371364a35251910160405180910390a45b9695505050505050565b60405163e7c8e3e360e01b815260048101859052602481018290527f00000000000000000000000000000000000000000000000000000000000000006001600160a01b03169063e7c8e3e390604401600060405180830381600087803b15801561371d57600080fd5b505af11580156115fa573d6000803e3d6000fd5b600082815260016020908152604080832080548251818502810185019093528083528493849084015b828210156137c757600084815260209081902060408051608081018252600286029092018054835260019081015463ffffffff8082168587015264010000000082041692840192909252600160401b9091046001600160a01b03166060830152908352909201910161375a565b50505060008681526001602052604081209293506137e692915061444b565b8051839060005b81811015613b3d57826000036138ac576000878152600160205260409020845185908390811061381f5761381f614cff565b60209081029190910181015182546001818101855560009485529383902082516002909202019081559181015191909201805460408401516060909401516001600160a01b0316600160401b02600160401b600160e01b031963ffffffff9586166401000000000267ffffffffffffffff1990931695909416949094171791909116919091179055613b35565b8381815181106138be576138be614cff565b6020026020010151600001518310613974578381815181106138e2576138e2614cff565b6020026020010151600001518303925083818151811061390457613904614cff565b60200260200101516020015163ffffffff166000148061394a5750633b9aca0084828151811061393657613936614cff565b60200260200101516040015163ffffffff16145b6139685761396384828151811061105c5761105c614cff565b61396b565b60005b85019450613b35565b600160008881526020019081526020016000206040518060800160405280858785815181106139a5576139a5614cff565b6020026020010151600001510381526020018684815181106139c9576139c9614cff565b60200260200101516020015163ffffffff1681526020018684815181106139f2576139f2614cff565b60200260200101516040015163ffffffff168152602001868481518110613a1b57613a1b614cff565b6020908102919091018101516060908101516001600160a01b0390811690935284546001818101875560009687529583902085516002909202019081559184015191909401805460408501519490950151909216600160401b02600160401b600160e01b031963ffffffff9485166401000000000267ffffffffffffffff19909616949092169390931793909317929092161790558351849082908110613ac457613ac4614cff565b60200260200101516020015163ffffffff1660001480613b0a5750633b9aca00848281518110613af657613af6614cff565b60200260200101516040015163ffffffff16145b613b2957613b248385838151811061107a5761107a614cff565b613b2c565b60005b85019450600092505b6001016137ed565b50604080518381523360208201528591879189917f59860d79d97c1fce2be7f987915c631471f4b08f671200463cc40a3380194ffb910160405180910390a450505092915050565b60006028826101000151901c61ffff166127106108489190614bd9565b60006038826101000151901c61ffff166127106108489190614bd9565b60c086015183906001600160a01b031615613e7f57633b9aca008214158015613c05575060c08701516001600160a01b031660009081526004602052604090205460ff16155b15613c1857613c1584848461233f565b90035b60006040518060c001604052807f00000000000000000000000000000000000000000000000000000000000000006001600160a01b031681526020018381526020017f000000000000000000000000000000000000000000000000000000000000000081526020018881526020018781526020018981525090506060613ca98960c00151634eba05fd60e11b61431d565b15613ddc578860c001516001600160a01b0316639d740bfa61eeee6001600160a01b03167f00000000000000000000000000000000000000000000000000000000000000006001600160a01b031614613d03576000613d05565b845b846040518363ffffffff1660e01b8152600401613d2291906158e9565b6000604051808303818588803b158015613d3b57600080fd5b505af193505050508015613d4d575060015b613dd7573d808015613d7b576040519150601f19603f3d011682016040523d82523d6000602084013e613d80565b606091505b50805115613d8e5780613dcf565b604051602001613dbf906020808252600d908201526c105b1b1bd8d85d194819985a5b609a1b604082015260600190565b6040516020818303038152906040525b915050613e1e565b613e1e565b604051602001613e0c906020808252600c908201526b12515490cc4d8d4819985a5b60a21b604082015260600190565b60405160208183030381529060405290505b805115613e7857613e35888a60c0015185896136b4565b60009250877f290b5df59e172593762964e4f8ed2b4a9192d3197bfd2be4bae123908f8007968a888433604051613e6f949392919061593d565b60405180910390a25b50506136aa565b6060870151156142da576060870151604051630862026560e41b81526000916001600160a01b037f00000000000000000000000000000000000000000000000000000000000000001691638620265091613f0f917f0000000000000000000000000000000000000000000000000000000000000000906004019182526001600160a01b0316602082015260400190565b602060405180830381865afa158015613f2c573d6000803e3d6000fd5b505050506040513d601f19601f82011682018060405250810190613f509190614bec565b90506001600160a01b038116613fb25760009150613f7187600080886136b4565b867f290b5df59e172593762964e4f8ed2b4a9192d3197bfd2be4bae123908f800796898733604051613fa593929190615980565b60405180910390a26142d4565b6001600160a01b0381163014801590613fcf5750633b9aca008314155b8015613ff457506001600160a01b03811660009081526004602052604090205460ff16155b156140095761400485858561233f565b820391505b87602001511561418657806001600160a01b0316630cf8e85861eeee6001600160a01b03167f00000000000000000000000000000000000000000000000000000000000000006001600160a01b031614614064576000614066565b835b8a60600151857f00000000000000000000000000000000000000000000000000000000000000008c6040516020016140a091815260200190565b6040516020818303038152906040526040518663ffffffff1660e01b81526004016140ce9493929190614c8f565b6000604051808303818588803b1580156140e757600080fd5b505af1935050505080156140f9575060015b614181573d808015614127576040519150601f19603f3d011682016040523d82523d6000602084013e61412c565b606091505b50614139888385896136b4565b60009250877f290b5df59e172593762964e4f8ed2b4a9192d3197bfd2be4bae123908f8007968a888433604051614173949392919061593d565b60405180910390a2506142d4565b6142d4565b806001600160a01b0316631ebc263f61eeee6001600160a01b03167f00000000000000000000000000000000000000000000000000000000000000006001600160a01b0316146141d75760006141d9565b835b60608b015160808c015186907f0000000000000000000000000000000000000000000000000000000000000000906001600160a01b031661421a5733614220565b8d608001515b60008f600001518f60405160200161423a91815260200190565b6040516020818303038152906040526040518963ffffffff1660e01b815260040161426b979695949392919061533d565b60206040518083038185885af1935050505080156142a6575060408051601f3d908101601f191682019092526142a391810190614c26565b60015b613e78573d808015614127576040519150601f19603f3d011682016040523d82523d6000602084013e61412c565b506136aa565b633b9aca0082146142f3576142f084848461233f565b90035b60808701516136aa9030906001600160a01b03166143115733614317565b88608001515b836117cb565b600061432883614339565b801561237e575061237e838361436c565b600061434c826301ffc9a760e01b61436c565b80156108485750614365826001600160e01b031961436c565b1592915050565b604080516001600160e01b0319831660248083019190915282518083039091018152604490910182526020810180516001600160e01b03166301ffc9a760e01b179052905160009190829081906001600160a01b03871690617530906143d39086906159dd565b6000604051808303818686fa925050503d806000811461440f576040519150601f19603f3d011682016040523d82523d6000602084013e614414565b606091505b509150915060208151101561442f5760009350505050610848565b8180156136aa5750808060200190518101906136aa9190614c09565b508054600082556002029060005260206000209081019061169c91906144c1565b6040518061012001604052806000815260200160008152602001600081526020016000815260200160008152602001600081526020016000815260200160006001600160a01b03168152602001600081525090565b5b808211156144e857600081556001810180546001600160e01b03191690556002016144c2565b5090565b6000602082840312156144fe57600080fd5b81356001600160e01b03198116811461237e57600080fd5b6001600160a01b038116811461169c57600080fd5b60008083601f84011261453d57600080fd5b5081356001600160401b0381111561455457600080fd5b60208301915083602082850101111561456c57600080fd5b9250929050565b600080600080600080600060a0888a03121561458e57600080fd5b873596506020880135955060408801356145a781614516565b945060608801356001600160401b03808211156145c357600080fd5b6145cf8b838c0161452b565b909650945060808a01359150808211156145e857600080fd5b506145f58a828b0161452b565b989b979a50959850939692959293505050565b60006020828403121561461a57600080fd5b813561237e81614516565b801515811461169c57600080fd5b6000806000806000806000806000806101008b8d03121561465357600080fd5b8a35995060208b0135985060408b013561466c81614516565b975060608b013561467c81614516565b965060808b0135955060a08b013561469381614625565b945060c08b01356001600160401b03808211156146af57600080fd5b6146bb8e838f0161452b565b909650945060e08d01359150808211156146d457600080fd5b506146e18d828e0161452b565b915080935050809150509295989b9194979a5092959850565b6000806040838503121561470d57600080fd5b82359150602083013561471f81614516565b809150509250929050565b600080600080600080600060c0888a03121561474557600080fd5b873596506020880135955060408801359450606088013561476581614516565b93506080880135925060a08801356001600160401b0381111561478757600080fd5b6145f58a828b0161452b565b6000602082840312156147a557600080fd5b5035919050565b600080604083850312156147bf57600080fd5b82356147ca81614516565b9150602083013561471f81614625565b602080825282518282018190526000919060409081850190868401855b82811015614843578151805185528681015163ffffffff908116888701528682015116868601526060908101516001600160a01b031690850152608090930192908501906001016147f7565b5091979650505050505050565b634e487b7160e01b600052604160045260246000fd5b60405161012081016001600160401b038111828210171561488957614889614850565b60405290565b604051606081016001600160401b038111828210171561488957614889614850565b60405160e081016001600160401b038111828210171561488957614889614850565b604051601f8201601f191681016001600160401b03811182821017156148fb576148fb614850565b604052919050565b60006001600160401b0382111561491c5761491c614850565b50601f01601f191660200190565b600082601f83011261493b57600080fd5b813561494e61494982614903565b6148d3565b81815284602083860101111561496357600080fd5b816020850160208301376000918101602001919091529392505050565b60008060008060008060008060006101008a8c03121561499f57600080fd5b8935985060208a0135975060408a0135965060608a01356149bf81614516565b955060808a0135945060a08a01356149d681614516565b935060c08a01356001600160401b03808211156149f257600080fd5b6149fe8d838e0161492a565b945060e08c0135915080821115614a1457600080fd5b50614a218c828d0161452b565b915080935050809150509295985092959850929598565b60008060008060008060008060c0898b031215614a5457600080fd5b88359750602089013596506040890135614a6d81614516565b95506060890135614a7d81614625565b945060808901356001600160401b0380821115614a9957600080fd5b614aa58c838d0161452b565b909650945060a08b0135915080821115614abe57600080fd5b50614acb8b828c0161452b565b999c989b5096995094979396929594505050565b60008060408385031215614af257600080fd5b8235614afd81614516565b946020939093013593505050565b600080600080600080600080610100898b031215614b2857600080fd5b8835614b3381614516565b975060208901359650604089013595506060890135614b5181614516565b94506080890135935060a0890135614b6881614516565b925060c08901356001600160401b0380821115614b8457600080fd5b614b908c838d0161492a565b935060e08b0135915080821115614ba657600080fd5b50614bb38b828c0161492a565b9150509295985092959890939650565b634e487b7160e01b600052601160045260246000fd5b8181038181111561084857610848614bc3565b600060208284031215614bfe57600080fd5b815161237e81614516565b600060208284031215614c1b57600080fd5b815161237e81614625565b600060208284031215614c3857600080fd5b5051919050565b60005b83811015614c5a578181015183820152602001614c42565b50506000910152565b60008151808452614c7b816020860160208601614c3f565b601f01601f19169290920160200192915050565b84815283602082015260018060a01b038316604082015260a06060820152600060a082015260c0608082015260006136aa60c0830184614c63565b6020808252818101527f4f776e61626c653a2063616c6c6572206973206e6f7420746865206f776e6572604082015260600190565b634e487b7160e01b600052603260045260246000fd5b600181815b80851115614d50578160001904821115614d3657614d36614bc3565b80851615614d4357918102915b93841c9390800290614d1a565b509250929050565b600082614d6757506001610848565b81614d7457506000610848565b8160018114614d8a5760028114614d9457614db0565b6001915050610848565b60ff841115614da557614da5614bc3565b50506001821b610848565b5060208310610133831016604e8410600b8410161715614dd3575081810a610848565b614ddd8383614d15565b8060001904821115614df157614df1614bc3565b029392505050565b600061237e8383614d58565b80516001600160a01b031682526020808201519083015260408082015190830152606090810151910152565b6001600160a01b03888116825260009061014090614e52602085018b614e05565b8860a08501528760c085015280871660e08501525080610100840152614e7a81840186614c63565b9050828103610120840152614e8f8185614c63565b9a9950505050505050505050565b8051614ea881614516565b919050565b60006101208284031215614ec057600080fd5b614ec8614866565b9050815181526020820151602082015260408201516040820152606082015160608201526080820151608082015260a082015160a082015260c082015160c0820152614f1660e08301614e9d565b60e082015261010080830151818301525092915050565b60006001600160401b03821115614f4657614f46614850565b5060051b60200190565b600082601f830112614f6157600080fd5b8151614f6f61494982614903565b818152846020838601011115614f8457600080fd5b611500826020830160208701614c3f565b6000806000806101808587031215614fac57600080fd5b614fb68686614ead565b935061012085015192506101408501516001600160401b0380821115614fdb57600080fd5b818701915087601f830112614fef57600080fd5b8151614ffd61494982614f2d565b8082825260208201915060208360051b86010192508a83111561501f57600080fd5b602085015b838110156150a95780518581111561503b57600080fd5b86016060818e03601f1901121561505157600080fd5b61505961488f565b602082015161506781614516565b81526040820151602082015260608201518781111561508557600080fd5b6150948f602083860101614f50565b60408301525084525060209283019201615024565b506101608a015190965093505050808211156150c457600080fd5b506150d187828801614f50565b91505092959194509250565b80516001600160a01b031682526000610220602083015160208501526040830151604085015260608301516151156060860182614e05565b50608083015161512860e0860182614e05565b5060a083015161016085015260c08301516001600160a01b031661018085015260e083015115156101a08501526101008301516101c0850182905261516f82860182614c63565b9150506101208301518482036101e086015261518b8282614c63565b9150506101408301518482036102008601526151a78282614c63565b95945050505050565b60208152600061237e60208301846150dd565b6060815260006151d660608301866150dd565b6020830194909452506001600160a01b0391909116604090910152919050565b600060018060a01b03808a168352808916602084015287604084015286606084015260e0608084015261522c60e0840187614c63565b83810360a085015261523e8187614c63565b92505080841660c08401525098975050505050505050565b6001600160a01b0394851681529290931660208301526040820152606081019190915260800190565b600080610140838503121561529357600080fd5b61529d8484614ead565b915061012083015190509250929050565b81835281816020850137506000828201602090810191909152601f909101601f19169091010190565b600060018060a01b03808b16835289602084015288604084015287606084015286608084015260e060a084015261531260e0840186886152ae565b915080841660c0840152509998505050505050505050565b8082018082111561084857610848614bc3565b878152602081018790526001600160a01b038681166040830152851660608201526080810184905282151560a082015261010060c08201819052600090820181905261012060e08301819052614e8f81840185614c63565b8381526060602082015260006153ae6060830185614c63565b905060018060a01b0383166040830152949350505050565b600060018060a01b03808b16835289602084015288604084015287606084015260e060808401526153fa60e0840188614c63565b83810360a085015261540d8187896152ae565b92505080841660c0840152509998505050505050505050565b600081600019048311821515161561544057615440614bc3565b500290565b634e487b7160e01b600052601260045260246000fd5b60008261547857634e487b7160e01b600052601260045260246000fd5b500490565b85815284602082015260a06040820152600061549c60a0830186614c63565b82810360608401526154ae8186614c63565b91505060018060a01b03831660808301529695505050505050565b60018060a01b038616815284602082015283604082015260a0606082015260006154f660a0830185614c63565b8281036080840152610c838185614c63565b600080600080610180858703121561551f57600080fd5b6155298686614ead565b935061012085015192506101408501516001600160401b038082111561554e57600080fd5b818701915087601f83011261556257600080fd5b815161557061494982614f2d565b8082825260208201915060208360051b86010192508a83111561559257600080fd5b602085015b838110156150a9578051858111156155ae57600080fd5b86016060818e03601f190112156155c457600080fd5b6155cc61488f565b60208201516155da81614516565b8152604082015160208201526060820151878111156155f857600080fd5b6156078f602083860101614f50565b60408301525084525060209283019201615597565b80516001600160a01b031682526000610200602083015160208501526040830151604085015260608301516060850152608083015161565e6080860182614e05565b5060a083015161010061567381870183614e05565b60c08501516001600160a01b031661018087015260e08501516101a0870184905291506156a283870183614c63565b9250808501519150508482036101c08601526156be8282614c63565b9150506101208301518482036101e08601526151a78282614c63565b60208152600061237e602083018461561c565b608081526000615700608083018761561c565b60208301959095525060408101929092526001600160a01b0316606090910152919050565b828152604081016003831061574a57634e487b7160e01b600052602160045260246000fd5b8260208301529392505050565b6000602080838503121561576a57600080fd5b82516001600160401b0381111561578057600080fd5b8301601f8101851361579157600080fd5b805161579f61494982614f2d565b81815260e091820283018401918482019190888411156157be57600080fd5b938501935b838510156158545780858a0312156157db5760008081fd5b6157e36148b1565b85516157ee81614625565b8152858701516157fd81614625565b81880152604086810151908201526060808701519082015260808087015161582481614516565b9082015260a0868101519082015260c08087015161584181614516565b90820152835293840193918501916157c3565b50979650505050505050565b80511515825260208082015115159083015260408082015190830152606080820151908301526080808201516001600160a01b039081169184019190915260a0808301519084015260c09182015116910152565b61014081016158c38287615860565b60e08201949094526101008101929092526001600160a01b031661012090910152919050565b81516001600160a01b031681526020808301519082015260408083015190820152606080830151908201526080808301519082015260a08281015161018083019161593690840182615860565b5092915050565b600061014061594c8388615860565b8560e08401528061010084015261596581840186614c63565b91505060018060a01b03831661012083015295945050505050565b600061014061598f8387615860565b60e08301949094525061010081018390526012928101929092527115195c9b5a5b985b081b9bdd08199bdd5b9960721b6101608301526001600160a01b031661012082015261018001919050565b600082516159ef818460208701614c3f565b919091019291505056fea2646970667358221220558248dbc04ea10c612e57468002e5730c490a4a5abc710d603914a962691a5464736f6c63430008100033",
  "devdoc": {
    "kind": "dev",
    "methods": {
      "acceptsToken(address,uint256)": {
        "params": {
          "_projectId": "The project ID to check for token acceptance.",
          "_token": "The token to check if this terminal accepts or not."
        },
        "returns": {
          "_0": "The flag."
        }
      },
      "addToBalanceOf(uint256,uint256,address,bool,string,bytes)": {
        "params": {
          "_amount": "The amount of tokens to add, as a fixed point number with the same number of decimals as this terminal. If this is an ETH terminal, this is ignored and msg.value is used instead.",
          "_memo": "A memo to pass along to the emitted event.",
          "_metadata": "Extra data to pass along to the emitted event.",
          "_projectId": "The ID of the project to which the funds received belong.",
          "_shouldRefundHeldFees": "A flag indicating if held fees should be refunded based on the amount being added.",
          "_token": "The token being paid. This terminal ignores this property since it only manages one currency."
        }
      },
      "addToBalanceOf(uint256,uint256,address,string,bytes)": {
        "params": {
          "_amount": "The amount of tokens to add, as a fixed point number with the same number of decimals as this terminal. If this is an ETH terminal, this is ignored and msg.value is used instead.",
          "_memo": "A memo to pass along to the emitted event.",
          "_metadata": "Extra data to pass along to the emitted event.",
          "_projectId": "The ID of the project to which the funds received belong.",
          "_token": "The token being paid. This terminal ignores this property since it only manages one currency."
        }
      },
      "constructor": {
        "params": {
          "_baseWeightCurrency": "The currency to base token issuance on.",
          "_directory": "A contract storing directories of terminals and controllers for each project.",
          "_operatorStore": "A contract storing operator assignments.",
          "_owner": "The address that will own this contract.",
          "_prices": "A contract that exposes price feeds.",
          "_projects": "A contract which mints ERC-721's that represent project ownership and transfers.",
          "_splitsStore": "A contract that stores splits for each project.",
          "_store": "A contract that stores the terminal's data."
        }
      },
      "currencyForToken(address)": {
        "params": {
          "_token": "The token to check for the currency of."
        },
        "returns": {
          "_0": "The currency index."
        }
      },
      "currentEthOverflowOf(uint256)": {
        "details": "The current overflow is represented as a fixed point number with 18 decimals.",
        "params": {
          "_projectId": "The ID of the project to get overflow for."
        },
        "returns": {
          "_0": "The current amount of ETH overflow that project has in this terminal, as a fixed point number with 18 decimals."
        }
      },
      "decimalsForToken(address)": {
        "params": {
          "_token": "The token to check for the decimals of."
        },
        "returns": {
          "_0": "The number of decimals for the token."
        }
      },
      "distributePayoutsOf(uint256,uint256,uint256,address,uint256,bytes)": {
        "details": "Payouts are sent to the preprogrammed splits. Any leftover is sent to the project's owner.Anyone can distribute payouts on a project's behalf. The project can preconfigure a wildcard split that is used to send funds to msg.sender. This can be used to incentivize calling this function.All funds distributed outside of this contract or any feeless terminals incure the protocol fee.",
        "params": {
          "_amount": "The amount of terminal tokens to distribute, as a fixed point number with same number of decimals as this terminal.",
          "_currency": "The expected currency of the amount being distributed. Must match the project's current funding cycle's distribution limit currency.",
          "_metadata": "Bytes to send along to the emitted event, if provided.",
          "_minReturnedTokens": "The minimum number of terminal tokens that the `_amount` should be valued at in terms of this terminal's currency, as a fixed point number with the same number of decimals as this terminal.",
          "_projectId": "The ID of the project having its payouts distributed.",
          "_token": "The token being distributed. This terminal ignores this property since it only manages one token."
        },
        "returns": {
          "netLeftoverDistributionAmount": "The amount that was sent to the project owner, as a fixed point number with the same amount of decimals as this terminal."
        }
      },
      "heldFeesOf(uint256)": {
        "params": {
          "_projectId": "The ID of the project for which fees are being held."
        },
        "returns": {
          "_0": "An array of fees that are being held."
        }
      },
      "migrate(uint256,address)": {
        "details": "Only a project's owner or a designated operator can migrate it.",
        "params": {
          "_projectId": "The ID of the project being migrated.",
          "_to": "The terminal contract that will gain the project's funds."
        },
        "returns": {
          "balance": "The amount of funds that were migrated, as a fixed point number with the same amount of decimals as this terminal."
        }
      },
      "owner()": {
        "details": "Returns the address of the current owner."
      },
      "pay(uint256,uint256,address,address,uint256,bool,string,bytes)": {
        "params": {
          "_amount": "The amount of terminal tokens being received, as a fixed point number with the same amount of decimals as this terminal. If this terminal's token is ETH, this is ignored and msg.value is used in its place.",
          "_beneficiary": "The address to mint tokens for and pass along to the funding cycle's data source and delegate.",
          "_memo": "A memo to pass along to the emitted event, and passed along the the funding cycle's data source and delegate.  A data source can alter the memo before emitting in the event and forwarding to the delegate.",
          "_metadata": "Bytes to send along to the data source, delegate, and emitted event, if provided.",
          "_minReturnedTokens": "The minimum number of project tokens expected in return, as a fixed point number with the same amount of decimals as this terminal.",
          "_preferClaimedTokens": "A flag indicating whether the request prefers to mint project tokens into the beneficiaries wallet rather than leaving them unclaimed. This is only possible if the project has an attached token contract. Leaving them unclaimed saves gas.",
          "_projectId": "The ID of the project being paid.",
          "_token": "The token being paid. This terminal ignores this property since it only manages one token."
        },
        "returns": {
          "_0": "The number of tokens minted for the beneficiary, as a fixed point number with 18 decimals."
        }
      },
      "processFees(uint256)": {
        "details": "Only a project owner, an operator, or the contract's owner can process held fees.",
        "params": {
          "_projectId": "The ID of the project whos held fees should be processed."
        }
      },
      "redeemTokensOf(address,uint256,uint256,address,uint256,address,string,bytes)": {
        "details": "Only a token holder or a designated operator can redeem its tokens.",
        "params": {
          "_beneficiary": "The address to send the terminal tokens to.",
          "_holder": "The account to redeem tokens for.",
          "_memo": "A memo to pass along to the emitted event.",
          "_metadata": "Bytes to send along to the data source, delegate, and emitted event, if provided.",
          "_minReturnedTokens": "The minimum amount of terminal tokens expected in return, as a fixed point number with the same amount of decimals as the terminal.",
          "_projectId": "The ID of the project to which the tokens being redeemed belong.",
          "_token": "The token being reclaimed. This terminal ignores this property since it only manages one token.",
          "_tokenCount": "The number of project tokens to redeem, as a fixed point number with 18 decimals."
        },
        "returns": {
          "reclaimAmount": "The amount of terminal tokens that the project tokens were redeemed for, as a fixed point number with 18 decimals."
        }
      },
      "renounceOwnership()": {
        "details": "Leaves the contract without owner. It will not be possible to call `onlyOwner` functions anymore. Can only be called by the current owner. NOTE: Renouncing ownership will leave the contract without an owner, thereby removing any functionality that is only available to the owner."
      },
      "setFee(uint256)": {
        "details": "Only the owner of this contract can change the fee.",
        "params": {
          "_fee": "The new fee, out of MAX_FEE."
        }
      },
      "setFeeGauge(address)": {
        "details": "Only the owner of this contract can change the fee gauge.",
        "params": {
          "_feeGauge": "The new fee gauge."
        }
      },
      "setFeelessAddress(address,bool)": {
        "details": "Only the owner of this contract can set addresses as feeless.",
        "params": {
          "_address": "The address that can be paid towards while still bypassing fees.",
          "_flag": "A flag indicating whether the terminal should be feeless or not."
        }
      },
      "supportsInterface(bytes4)": {
        "details": "See {IERC165-supportsInterface}.",
        "params": {
          "_interfaceId": "The ID of the interface to check for adherance to."
        },
        "returns": {
          "_0": "A flag indicating if the provided interface ID is supported."
        }
      },
      "transferOwnership(address)": {
        "details": "Transfers ownership of the contract to a new account (`newOwner`). Can only be called by the current owner."
      },
      "useAllowanceOf(uint256,uint256,uint256,address,uint256,address,string,bytes)": {
        "details": "Only a project's owner or a designated operator can use its allowance.Incurs the protocol fee.",
        "params": {
          "_amount": "The amount of terminal tokens to use from this project's current allowance, as a fixed point number with the same amount of decimals as this terminal.",
          "_beneficiary": "The address to send the funds to.",
          "_currency": "The expected currency of the amount being distributed. Must match the project's current funding cycle's overflow allowance currency.",
          "_memo": "A memo to pass along to the emitted event.",
          "_metadata": "Bytes to send along to the emitted event, if provided.",
          "_minReturnedTokens": "The minimum number of tokens that the `_amount` should be valued at in terms of this terminal's currency, as a fixed point number with 18 decimals.",
          "_projectId": "The ID of the project to use the allowance of.",
          "_token": "The token being distributed. This terminal ignores this property since it only manages one token."
        },
        "returns": {
          "netDistributedAmount": "The amount of tokens that was distributed to the beneficiary, as a fixed point number with the same amount of decimals as the terminal."
        }
      }
    },
    "version": 1
  },
  "userdoc": {
    "errors": {
      "PRBMath__MulDivOverflow(uint256,uint256)": [
        {
          "notice": "Emitted when the result overflows uint256."
        }
      ]
    },
    "kind": "user",
    "methods": {
      "acceptsToken(address,uint256)": {
        "notice": "A flag indicating if this terminal accepts the specified token."
      },
      "addToBalanceOf(uint256,uint256,address,bool,string,bytes)": {
        "notice": "Receives funds belonging to the specified project."
      },
      "addToBalanceOf(uint256,uint256,address,string,bytes)": {
        "notice": "Receives funds belonging to the specified project."
      },
      "baseWeightCurrency()": {
        "notice": "The currency to base token issuance on."
      },
      "currency()": {
        "notice": "The currency to use when resolving price feeds for this terminal."
      },
      "currencyForToken(address)": {
        "notice": "The currency that should be used for the specified token."
      },
      "currentEthOverflowOf(uint256)": {
        "notice": "Gets the current overflowed amount in this terminal for a specified project, in terms of ETH."
      },
      "decimals()": {
        "notice": "The number of decimals the token fixed point amounts are expected to have."
      },
      "decimalsForToken(address)": {
        "notice": "The decimals that should be used in fixed number accounting for the specified token."
      },
      "directory()": {
        "notice": "The directory of terminals and controllers for projects."
      },
      "distributePayoutsOf(uint256,uint256,uint256,address,uint256,bytes)": {
        "notice": "Distributes payouts for a project with the distribution limit of its current funding cycle."
      },
      "fee()": {
        "notice": "The platform fee percent."
      },
      "feeGauge()": {
        "notice": "The data source that returns a discount to apply to a project's fee."
      },
      "heldFeesOf(uint256)": {
        "notice": "The fees that are currently being held to be processed later for each project."
      },
      "isFeelessAddress(address)": {
        "notice": "Addresses that can be paid towards from this terminal without incurring a fee."
      },
      "migrate(uint256,address)": {
        "notice": "Allows a project owner to migrate its funds and operations to a new terminal that accepts the same token type."
      },
      "operatorStore()": {
        "notice": "A contract storing operator assignments."
      },
      "pay(uint256,uint256,address,address,uint256,bool,string,bytes)": {
        "notice": "Contribute tokens to a project."
      },
      "payoutSplitsGroup()": {
        "notice": "The group that payout splits coming from this terminal are identified by."
      },
      "prices()": {
        "notice": "The contract that exposes price feeds."
      },
      "processFees(uint256)": {
        "notice": "Process any fees that are being held for the project."
      },
      "projects()": {
        "notice": "Mints ERC-721's that represent project ownership and transfers."
      },
      "redeemTokensOf(address,uint256,uint256,address,uint256,address,string,bytes)": {
        "notice": "Holders can redeem their tokens to claim the project's overflowed tokens, or to trigger rules determined by the project's current funding cycle's data source."
      },
      "setFee(uint256)": {
        "notice": "Allows the fee to be updated."
      },
      "setFeeGauge(address)": {
        "notice": "Allows the fee gauge to be updated."
      },
      "setFeelessAddress(address,bool)": {
        "notice": "Sets whether projects operating on this terminal can pay towards the specified address without incurring a fee."
      },
      "splitsStore()": {
        "notice": "The contract that stores splits for each project."
      },
      "store()": {
        "notice": "The contract that stores and manages the terminal's data."
      },
      "supportsInterface(bytes4)": {
        "notice": "Indicates if this contract adheres to the specified interface."
      },
      "token()": {
        "notice": "The token that this terminal accepts."
      },
      "useAllowanceOf(uint256,uint256,uint256,address,uint256,address,string,bytes)": {
        "notice": "Allows a project to send funds from its overflow up to the preconfigured allowance."
      }
    },
    "notice": "Manages all inflows and outflows of ETH funds into the protocol ecosystem.",
    "version": 1
  },
  "storageLayout": {
    "storage": [
      {
        "astId": 53,
        "contract": "contracts/JBETHPaymentTerminal3_1_1.sol:JBETHPaymentTerminal3_1_1",
        "label": "_owner",
        "offset": 0,
        "slot": "0",
        "type": "t_address"
      },
      {
        "astId": 28823,
        "contract": "contracts/JBETHPaymentTerminal3_1_1.sol:JBETHPaymentTerminal3_1_1",
        "label": "_heldFeesOf",
        "offset": 0,
        "slot": "1",
        "type": "t_mapping(t_uint256,t_array(t_struct(JBFee)36640_storage)dyn_storage)"
      },
      {
        "astId": 28860,
        "contract": "contracts/JBETHPaymentTerminal3_1_1.sol:JBETHPaymentTerminal3_1_1",
        "label": "fee",
        "offset": 0,
        "slot": "2",
        "type": "t_uint256"
      },
      {
        "astId": 28864,
        "contract": "contracts/JBETHPaymentTerminal3_1_1.sol:JBETHPaymentTerminal3_1_1",
        "label": "feeGauge",
        "offset": 0,
        "slot": "3",
        "type": "t_address"
      },
      {
        "astId": 28870,
        "contract": "contracts/JBETHPaymentTerminal3_1_1.sol:JBETHPaymentTerminal3_1_1",
        "label": "isFeelessAddress",
        "offset": 0,
        "slot": "4",
        "type": "t_mapping(t_address,t_bool)"
      }
    ],
    "types": {
      "t_address": {
        "encoding": "inplace",
        "label": "address",
        "numberOfBytes": "20"
      },
      "t_array(t_struct(JBFee)36640_storage)dyn_storage": {
        "base": "t_struct(JBFee)36640_storage",
        "encoding": "dynamic_array",
        "label": "struct JBFee[]",
        "numberOfBytes": "32"
      },
      "t_bool": {
        "encoding": "inplace",
        "label": "bool",
        "numberOfBytes": "1"
      },
      "t_mapping(t_address,t_bool)": {
        "encoding": "mapping",
        "key": "t_address",
        "label": "mapping(address => bool)",
        "numberOfBytes": "32",
        "value": "t_bool"
      },
      "t_mapping(t_uint256,t_array(t_struct(JBFee)36640_storage)dyn_storage)": {
        "encoding": "mapping",
        "key": "t_uint256",
        "label": "mapping(uint256 => struct JBFee[])",
        "numberOfBytes": "32",
        "value": "t_array(t_struct(JBFee)36640_storage)dyn_storage"
      },
      "t_struct(JBFee)36640_storage": {
        "encoding": "inplace",
        "label": "struct JBFee",
        "members": [
          {
            "astId": 36633,
            "contract": "contracts/JBETHPaymentTerminal3_1_1.sol:JBETHPaymentTerminal3_1_1",
            "label": "amount",
            "offset": 0,
            "slot": "0",
            "type": "t_uint256"
          },
          {
            "astId": 36635,
            "contract": "contracts/JBETHPaymentTerminal3_1_1.sol:JBETHPaymentTerminal3_1_1",
            "label": "fee",
            "offset": 0,
            "slot": "1",
            "type": "t_uint32"
          },
          {
            "astId": 36637,
            "contract": "contracts/JBETHPaymentTerminal3_1_1.sol:JBETHPaymentTerminal3_1_1",
            "label": "feeDiscount",
            "offset": 4,
            "slot": "1",
            "type": "t_uint32"
          },
          {
            "astId": 36639,
            "contract": "contracts/JBETHPaymentTerminal3_1_1.sol:JBETHPaymentTerminal3_1_1",
            "label": "beneficiary",
            "offset": 8,
            "slot": "1",
            "type": "t_address"
          }
        ],
        "numberOfBytes": "64"
      },
      "t_uint256": {
        "encoding": "inplace",
        "label": "uint256",
        "numberOfBytes": "32"
      },
      "t_uint32": {
        "encoding": "inplace",
        "label": "uint32",
        "numberOfBytes": "4"
      }
    }
  }
}