{
  "address": "0xA4425A1E5b7B28Cb689719B1428e3088C1F89E30",
  "abi": [
    {
      "inputs": [
        {
          "internalType": "contract IJBDirectory",
          "name": "_directory",
          "type": "address"
        }
      ],
      "stateMutability": "nonpayable",
      "type": "constructor"
    },
    {
      "inputs": [],
      "name": "CONTROLLER_UNAUTHORIZED",
      "type": "error"
    },
    {
      "inputs": [],
      "name": "INVALID_DISTRIBUTION_LIMIT",
      "type": "error"
    },
    {
      "inputs": [],
      "name": "INVALID_DISTRIBUTION_LIMIT_CURRENCY",
      "type": "error"
    },
    {
      "inputs": [],
      "name": "INVALID_OVERFLOW_ALLOWANCE",
      "type": "error"
    },
    {
      "inputs": [],
      "name": "INVALID_OVERFLOW_ALLOWANCE_CURRENCY",
      "type": "error"
    },
    {
      "anonymous": false,
      "inputs": [
        {
          "indexed": true,
          "internalType": "uint256",
          "name": "fundingCycleConfiguration",
          "type": "uint256"
        },
        {
          "indexed": true,
          "internalType": "uint256",
          "name": "projectId",
          "type": "uint256"
        },
        {
          "components": [
            {
              "internalType": "contract IJBPaymentTerminal",
              "name": "terminal",
              "type": "address"
            },
            {
              "internalType": "address",
              "name": "token",
              "type": "address"
            },
            {
              "internalType": "uint256",
              "name": "distributionLimit",
              "type": "uint256"
            },
            {
              "internalType": "uint256",
              "name": "distributionLimitCurrency",
              "type": "uint256"
            },
            {
              "internalType": "uint256",
              "name": "overflowAllowance",
              "type": "uint256"
            },
            {
              "internalType": "uint256",
              "name": "overflowAllowanceCurrency",
              "type": "uint256"
            }
          ],
          "indexed": false,
          "internalType": "struct JBFundAccessConstraints",
          "name": "constraints",
          "type": "tuple"
        },
        {
          "indexed": false,
          "internalType": "address",
          "name": "caller",
          "type": "address"
        }
      ],
      "name": "SetFundAccessConstraints",
      "type": "event"
    },
    {
      "inputs": [],
      "name": "directory",
      "outputs": [
        {
          "internalType": "contract IJBDirectory",
          "name": "",
          "type": "address"
        }
      ],
      "stateMutability": "view",
      "type": "function"
    },
    {
      "inputs": [
        {
          "internalType": "uint256",
          "name": "_projectId",
          "type": "uint256"
        },
        {
          "internalType": "uint256",
          "name": "_configuration",
          "type": "uint256"
        },
        {
          "internalType": "contract IJBPaymentTerminal",
          "name": "_terminal",
          "type": "address"
        },
        {
          "internalType": "address",
          "name": "_token",
          "type": "address"
        }
      ],
      "name": "distributionLimitOf",
      "outputs": [
        {
          "internalType": "uint256",
          "name": "",
          "type": "uint256"
        },
        {
          "internalType": "uint256",
          "name": "",
          "type": "uint256"
        }
      ],
      "stateMutability": "view",
      "type": "function"
    },
    {
      "inputs": [
        {
          "internalType": "uint256",
          "name": "_projectId",
          "type": "uint256"
        },
        {
          "internalType": "uint256",
          "name": "_configuration",
          "type": "uint256"
        },
        {
          "internalType": "contract IJBPaymentTerminal",
          "name": "_terminal",
          "type": "address"
        },
        {
          "internalType": "address",
          "name": "_token",
          "type": "address"
        }
      ],
      "name": "overflowAllowanceOf",
      "outputs": [
        {
          "internalType": "uint256",
          "name": "",
          "type": "uint256"
        },
        {
          "internalType": "uint256",
          "name": "",
          "type": "uint256"
        }
      ],
      "stateMutability": "view",
      "type": "function"
    },
    {
      "inputs": [
        {
          "internalType": "uint256",
          "name": "_projectId",
          "type": "uint256"
        },
        {
          "internalType": "uint256",
          "name": "_configuration",
          "type": "uint256"
        },
        {
          "components": [
            {
              "internalType": "contract IJBPaymentTerminal",
              "name": "terminal",
              "type": "address"
            },
            {
              "internalType": "address",
              "name": "token",
              "type": "address"
            },
            {
              "internalType": "uint256",
              "name": "distributionLimit",
              "type": "uint256"
            },
            {
              "internalType": "uint256",
              "name": "distributionLimitCurrency",
              "type": "uint256"
            },
            {
              "internalType": "uint256",
              "name": "overflowAllowance",
              "type": "uint256"
            },
            {
              "internalType": "uint256",
              "name": "overflowAllowanceCurrency",
              "type": "uint256"
            }
          ],
          "internalType": "struct JBFundAccessConstraints[]",
          "name": "_fundAccessConstraints",
          "type": "tuple[]"
        }
      ],
      "name": "setFor",
      "outputs": [],
      "stateMutability": "nonpayable",
      "type": "function"
    },
    {
      "inputs": [
        {
          "internalType": "bytes4",
          "name": "interfaceId",
          "type": "bytes4"
        }
      ],
      "name": "supportsInterface",
      "outputs": [
        {
          "internalType": "bool",
          "name": "",
          "type": "bool"
        }
      ],
      "stateMutability": "view",
      "type": "function"
    }
  ],
  "transactionHash": "0xe467487107cade88fa98e478ea8a7f4f7d46f9064945a6114f7b4d9b9cf5b364",
  "args": [
    "0x65572FB928b46f9aDB7cfe5A4c41226F636161ea"
  ],
  "numDeployments": 1,
  "solcInputHash": "60cd95dca5edde649565e9f7f43720b6",
  "bytecode": "0x60a060405234801561001057600080fd5b5060405161089a38038061089a83398101604081905261002f91610040565b6001600160a01b0316608052610070565b60006020828403121561005257600080fd5b81516001600160a01b038116811461006957600080fd5b9392505050565b6080516108086100926000396000818161011d01526101d001526108086000f3fe608060405234801561001057600080fd5b50600436106100575760003560e01c806301ffc9a71461005c57806334002f31146100955780637a81b562146100aa578063c41c2f2414610118578063e8db213014610157575b600080fd5b61008061006a366004610600565b6001600160e01b0319166301ffc9a760e01b1490565b60405190151581526020015b60405180910390f35b6100a86100a3366004610631565b6101ae565b005b6101036100b83660046106cc565b60009384526001602090815260408086209486529381528385206001600160a01b039384168652815283852091909216845290529020546001600160e81b0381169160e89190911c90565b6040805192835260208301919091520161008c565b61013f7f000000000000000000000000000000000000000000000000000000000000000081565b6040516001600160a01b03909116815260200161008c565b6101036101653660046106cc565b6000938452602084815260408086209486529381528385206001600160a01b039384168652815283852091909216845290529020546001600160e81b0381169160e89190911c90565b604051632eec7b5560e11b815260048101859052849033906001600160a01b037f00000000000000000000000000000000000000000000000000000000000000001690635dd8f6aa90602401602060405180830381865afa158015610217573d6000803e3d6000fd5b505050506040513d601f19601f8201168201806040525081019061023b9190610716565b6001600160a01b03161461026257604051632adfdd0560e21b815260040160405180910390fd5b8160005b818110156105f7576001600160e81b0385858381811061028857610288610733565b905060c002016040013511156102b15760405163a9b8fbcf60e01b815260040160405180910390fd5b62ffffff8585838181106102c7576102c7610733565b905060c002016060013511156102f057604051639583faed60e01b815260040160405180910390fd5b6001600160e81b0385858381811061030a5761030a610733565b905060c0020160800135111561033357604051635730278360e01b815260040160405180910390fd5b62ffffff85858381811061034957610349610733565b905060c0020160a0013511156103725760405163d9b93c2560e01b815260040160405180910390fd5b600085858381811061038657610386610733565b905060c002016040013511156104875760e88585838181106103aa576103aa610733565b905060c0020160600135901b8585838181106103c8576103c8610733565b905060c0020160400135176000808981526020019081526020016000206000888152602001908152602001600020600087878581811061040a5761040a610733565b61042092602060c0909202019081019150610749565b6001600160a01b03166001600160a01b03168152602001908152602001600020600087878581811061045457610454610733565b905060c00201602001602081019061046c9190610749565b6001600160a01b031681526020810191909152604001600020555b600085858381811061049b5761049b610733565b905060c0020160800135111561059d5760e88585838181106104bf576104bf610733565b905060c0020160a00135901b8585838181106104dd576104dd610733565b905060c002016080013517600160008981526020019081526020016000206000888152602001908152602001600020600087878581811061052057610520610733565b61053692602060c0909202019081019150610749565b6001600160a01b03166001600160a01b03168152602001908152602001600020600087878581811061056a5761056a610733565b905060c0020160200160208101906105829190610749565b6001600160a01b031681526020810191909152604001600020555b86867f26f78d7903ac64ef9b38a2bf94b365f364f28efa245a6b67bcc27350f141c5f78787858181106105d2576105d2610733565b905060c00201336040516105e7929190610766565b60405180910390a3600101610266565b50505050505050565b60006020828403121561061257600080fd5b81356001600160e01b03198116811461062a57600080fd5b9392505050565b6000806000806060858703121561064757600080fd5b8435935060208501359250604085013567ffffffffffffffff8082111561066d57600080fd5b818701915087601f83011261068157600080fd5b81358181111561069057600080fd5b88602060c0830285010111156106a557600080fd5b95989497505060200194505050565b6001600160a01b03811681146106c957600080fd5b50565b600080600080608085870312156106e257600080fd5b843593506020850135925060408501356106fb816106b4565b9150606085013561070b816106b4565b939692955090935050565b60006020828403121561072857600080fd5b815161062a816106b4565b634e487b7160e01b600052603260045260246000fd5b60006020828403121561075b57600080fd5b813561062a816106b4565b60e081018335610775816106b4565b6001600160a01b039081168352602085013590610791826106b4565b808216602085015260408601356040850152606086013560608501526080860135608085015260a086013560a085015280851660c08501525050939250505056fea2646970667358221220d48b3bfe3a0a848bde3709f11e8e1247e5476771e0a8516e58199e6c432757f364736f6c63430008100033",
  "devdoc": {
    "details": "Adheres to - IJBFundAccessConstraintsStore: General interface for the generic controller methods in this contract that interacts with funding cycles and tokens according to the protocol's rules.Inherits from - JBControllerUtility: Several functions in this contract can only be accessed by a project owner, or an address that has been preconfifigured to be an operator of the project. ERC165: Introspection on interface adherance. ",
    "kind": "dev",
    "methods": {
      "constructor": {
        "params": {
          "_directory": "A contract storing directories of terminals and controllers for each project."
        }
      },
      "distributionLimitOf(uint256,uint256,address,address)": {
        "details": "The number of decimals in the returned fixed point amount is the same as that of the specified terminal. ",
        "params": {
          "_configuration": "The configuration during which the distribution limit applies.",
          "_projectId": "The ID of the project to get the distribution limit of.",
          "_terminal": "The terminal from which distributions are being limited.",
          "_token": "The token for which the distribution limit applies."
        },
        "returns": {
          "_0": "The distribution limit, as a fixed point number with the same number of decimals as the provided terminal.",
          "_1": "The currency of the distribution limit."
        }
      },
      "overflowAllowanceOf(uint256,uint256,address,address)": {
        "details": "The number of decimals in the returned fixed point amount is the same as that of the specified terminal. ",
        "params": {
          "_configuration": "The configuration of the during which the allowance applies.",
          "_projectId": "The ID of the project to get the overflow allowance of.",
          "_terminal": "The terminal managing the overflow.",
          "_token": "The token for which the overflow allowance applies."
        },
        "returns": {
          "_0": "The overflow allowance, as a fixed point number with the same number of decimals as the provided terminal.",
          "_1": "The currency of the overflow allowance."
        }
      },
      "setFor(uint256,uint256,(address,address,uint256,uint256,uint256,uint256)[])": {
        "details": "Only a project's current controller can set its fund access constraints.",
        "params": {
          "_configuration": "The funding cycle configuration the constraints apply within.",
          "_fundAccessConstraints": "An array containing amounts that a project can use from its treasury for each payment terminal. Amounts are fixed point numbers using the same number of decimals as the accompanying terminal. The `_distributionLimit` and `_overflowAllowance` parameters must fit in a `uint232`.",
          "_projectId": "The ID of the project whose fund access constraints are being set."
        }
      },
      "supportsInterface(bytes4)": {
        "details": "See {IERC165-supportsInterface}."
      }
    },
    "stateVariables": {
      "_packedDistributionLimitDataOf": {
        "details": "bits 0-231: The amount of token that a project can distribute per funding cycle.bits 232-255: The currency of amount that a project can distribute. _projectId The ID of the project to get the packed distribution limit data of. _configuration The configuration during which the packed distribution limit data applies. _terminal The terminal from which distributions are being limited. _token The token for which distributions are being limited."
      },
      "_packedOverflowAllowanceDataOf": {
        "details": "bits 0-231: The amount of overflow that a project is allowed to tap into on-demand throughout the configuration.bits 232-255: The currency of the amount of overflow that a project is allowed to tap. _projectId The ID of the project to get the packed overflow allowance data of. _configuration The configuration during which the packed overflow allowance data applies. _terminal The terminal managing the overflow. _token The token for which overflow is being allowed."
      }
    },
    "version": 1
  },
  "userdoc": {
    "kind": "user",
    "methods": {
      "directory()": {
        "notice": " The directory of terminals and controllers for projects."
      },
      "distributionLimitOf(uint256,uint256,address,address)": {
        "notice": "The amount of token that a project can distribute per funding cycle, and the currency it's in terms of."
      },
      "overflowAllowanceOf(uint256,uint256,address,address)": {
        "notice": "The amount of overflow that a project is allowed to tap into on-demand throughout a configuration, and the currency it's in terms of."
      },
      "setFor(uint256,uint256,(address,address,uint256,uint256,uint256,uint256)[])": {
        "notice": "Sets a project's constraints for accessing treasury funds."
      }
    },
    "notice": "Information pertaining to how much funds can be accessed by a project from each payment terminal.",
    "version": 1
  },
  "storageLayout": {
    "storage": [
      {
        "astId": 13256,
        "contract": "contracts/JBFundAccessConstraintsStore.sol:JBFundAccessConstraintsStore",
        "label": "_packedDistributionLimitDataOf",
        "offset": 0,
        "slot": "0",
        "type": "t_mapping(t_uint256,t_mapping(t_uint256,t_mapping(t_contract(IJBPaymentTerminal)27676,t_mapping(t_address,t_uint256))))"
      },
      {
        "astId": 13268,
        "contract": "contracts/JBFundAccessConstraintsStore.sol:JBFundAccessConstraintsStore",
        "label": "_packedOverflowAllowanceDataOf",
        "offset": 0,
        "slot": "1",
        "type": "t_mapping(t_uint256,t_mapping(t_uint256,t_mapping(t_contract(IJBPaymentTerminal)27676,t_mapping(t_address,t_uint256))))"
      }
    ],
    "types": {
      "t_address": {
        "encoding": "inplace",
        "label": "address",
        "numberOfBytes": "20"
      },
      "t_contract(IJBPaymentTerminal)27676": {
        "encoding": "inplace",
        "label": "contract IJBPaymentTerminal",
        "numberOfBytes": "20"
      },
      "t_mapping(t_address,t_uint256)": {
        "encoding": "mapping",
        "key": "t_address",
        "label": "mapping(address => uint256)",
        "numberOfBytes": "32",
        "value": "t_uint256"
      },
      "t_mapping(t_contract(IJBPaymentTerminal)27676,t_mapping(t_address,t_uint256))": {
        "encoding": "mapping",
        "key": "t_contract(IJBPaymentTerminal)27676",
        "label": "mapping(contract IJBPaymentTerminal => mapping(address => uint256))",
        "numberOfBytes": "32",
        "value": "t_mapping(t_address,t_uint256)"
      },
      "t_mapping(t_uint256,t_mapping(t_contract(IJBPaymentTerminal)27676,t_mapping(t_address,t_uint256)))": {
        "encoding": "mapping",
        "key": "t_uint256",
        "label": "mapping(uint256 => mapping(contract IJBPaymentTerminal => mapping(address => uint256)))",
        "numberOfBytes": "32",
        "value": "t_mapping(t_contract(IJBPaymentTerminal)27676,t_mapping(t_address,t_uint256))"
      },
      "t_mapping(t_uint256,t_mapping(t_uint256,t_mapping(t_contract(IJBPaymentTerminal)27676,t_mapping(t_address,t_uint256))))": {
        "encoding": "mapping",
        "key": "t_uint256",
        "label": "mapping(uint256 => mapping(uint256 => mapping(contract IJBPaymentTerminal => mapping(address => uint256))))",
        "numberOfBytes": "32",
        "value": "t_mapping(t_uint256,t_mapping(t_contract(IJBPaymentTerminal)27676,t_mapping(t_address,t_uint256)))"
      },
      "t_uint256": {
        "encoding": "inplace",
        "label": "uint256",
        "numberOfBytes": "32"
      }
    }
  }
}