{
  "address": "0x82129d4109625F94582bDdF6101a8Cd1a27919f5",
  "abi": [
    {
      "inputs": [
        {
          "internalType": "contract IJBDirectory",
          "name": "_directory",
          "type": "address"
        },
        {
          "internalType": "contract IJBFundingCycleStore",
          "name": "_fundingCycleStore",
          "type": "address"
        },
        {
          "internalType": "contract IJBPrices",
          "name": "_prices",
          "type": "address"
        }
      ],
      "stateMutability": "nonpayable",
      "type": "constructor"
    },
    {
      "inputs": [],
      "name": "CURRENCY_MISMATCH",
      "type": "error"
    },
    {
      "inputs": [],
      "name": "DISTRIBUTION_AMOUNT_LIMIT_REACHED",
      "type": "error"
    },
    {
      "inputs": [],
      "name": "FUNDING_CYCLE_DISTRIBUTION_PAUSED",
      "type": "error"
    },
    {
      "inputs": [],
      "name": "FUNDING_CYCLE_PAYMENT_PAUSED",
      "type": "error"
    },
    {
      "inputs": [],
      "name": "FUNDING_CYCLE_REDEEM_PAUSED",
      "type": "error"
    },
    {
      "inputs": [],
      "name": "INADEQUATE_CONTROLLER_ALLOWANCE",
      "type": "error"
    },
    {
      "inputs": [],
      "name": "INADEQUATE_PAYMENT_TERMINAL_STORE_BALANCE",
      "type": "error"
    },
    {
      "inputs": [],
      "name": "INSUFFICIENT_TOKENS",
      "type": "error"
    },
    {
      "inputs": [],
      "name": "INVALID_AMOUNT_TO_SEND_DELEGATE",
      "type": "error"
    },
    {
      "inputs": [],
      "name": "INVALID_FUNDING_CYCLE",
      "type": "error"
    },
    {
      "inputs": [],
      "name": "PAYMENT_TERMINAL_MIGRATION_NOT_ALLOWED",
      "type": "error"
    },
    {
      "inputs": [
        {
          "internalType": "uint256",
          "name": "prod1",
          "type": "uint256"
        },
        {
          "internalType": "uint256",
          "name": "denominator",
          "type": "uint256"
        }
      ],
      "name": "PRBMath__MulDivOverflow",
      "type": "error"
    },
    {
      "inputs": [
        {
          "internalType": "contract IJBSingleTokenPaymentTerminal",
          "name": "",
          "type": "address"
        },
        {
          "internalType": "uint256",
          "name": "",
          "type": "uint256"
        }
      ],
      "name": "balanceOf",
      "outputs": [
        {
          "internalType": "uint256",
          "name": "",
          "type": "uint256"
        }
      ],
      "stateMutability": "view",
      "type": "function"
    },
    {
      "inputs": [
        {
          "internalType": "contract IJBSingleTokenPaymentTerminal",
          "name": "_terminal",
          "type": "address"
        },
        {
          "internalType": "uint256",
          "name": "_projectId",
          "type": "uint256"
        }
      ],
      "name": "currentOverflowOf",
      "outputs": [
        {
          "internalType": "uint256",
          "name": "",
          "type": "uint256"
        }
      ],
      "stateMutability": "view",
      "type": "function"
    },
    {
      "inputs": [
        {
          "internalType": "uint256",
          "name": "_projectId",
          "type": "uint256"
        },
        {
          "internalType": "uint256",
          "name": "_tokenCount",
          "type": "uint256"
        },
        {
          "internalType": "uint256",
          "name": "_totalSupply",
          "type": "uint256"
        },
        {
          "internalType": "uint256",
          "name": "_overflow",
          "type": "uint256"
        }
      ],
      "name": "currentReclaimableOverflowOf",
      "outputs": [
        {
          "internalType": "uint256",
          "name": "",
          "type": "uint256"
        }
      ],
      "stateMutability": "view",
      "type": "function"
    },
    {
      "inputs": [
        {
          "internalType": "contract IJBSingleTokenPaymentTerminal",
          "name": "_terminal",
          "type": "address"
        },
        {
          "internalType": "uint256",
          "name": "_projectId",
          "type": "uint256"
        },
        {
          "internalType": "uint256",
          "name": "_tokenCount",
          "type": "uint256"
        },
        {
          "internalType": "bool",
          "name": "_useTotalOverflow",
          "type": "bool"
        }
      ],
      "name": "currentReclaimableOverflowOf",
      "outputs": [
        {
          "internalType": "uint256",
          "name": "",
          "type": "uint256"
        }
      ],
      "stateMutability": "view",
      "type": "function"
    },
    {
      "inputs": [
        {
          "internalType": "uint256",
          "name": "_projectId",
          "type": "uint256"
        },
        {
          "internalType": "uint256",
          "name": "_decimals",
          "type": "uint256"
        },
        {
          "internalType": "uint256",
          "name": "_currency",
          "type": "uint256"
        }
      ],
      "name": "currentTotalOverflowOf",
      "outputs": [
        {
          "internalType": "uint256",
          "name": "",
          "type": "uint256"
        }
      ],
      "stateMutability": "view",
      "type": "function"
    },
    {
      "inputs": [],
      "name": "directory",
      "outputs": [
        {
          "internalType": "contract IJBDirectory",
          "name": "",
          "type": "address"
        }
      ],
      "stateMutability": "view",
      "type": "function"
    },
    {
      "inputs": [],
      "name": "fundingCycleStore",
      "outputs": [
        {
          "internalType": "contract IJBFundingCycleStore",
          "name": "",
          "type": "address"
        }
      ],
      "stateMutability": "view",
      "type": "function"
    },
    {
      "inputs": [],
      "name": "prices",
      "outputs": [
        {
          "internalType": "contract IJBPrices",
          "name": "",
          "type": "address"
        }
      ],
      "stateMutability": "view",
      "type": "function"
    },
    {
      "inputs": [
        {
          "internalType": "uint256",
          "name": "_projectId",
          "type": "uint256"
        },
        {
          "internalType": "uint256",
          "name": "_amount",
          "type": "uint256"
        }
      ],
      "name": "recordAddedBalanceFor",
      "outputs": [],
      "stateMutability": "nonpayable",
      "type": "function"
    },
    {
      "inputs": [
        {
          "internalType": "uint256",
          "name": "_projectId",
          "type": "uint256"
        },
        {
          "internalType": "uint256",
          "name": "_amount",
          "type": "uint256"
        },
        {
          "internalType": "uint256",
          "name": "_currency",
          "type": "uint256"
        }
      ],
      "name": "recordDistributionFor",
      "outputs": [
        {
          "components": [
            {
              "internalType": "uint256",
              "name": "number",
              "type": "uint256"
            },
            {
              "internalType": "uint256",
              "name": "configuration",
              "type": "uint256"
            },
            {
              "internalType": "uint256",
              "name": "basedOn",
              "type": "uint256"
            },
            {
              "internalType": "uint256",
              "name": "start",
              "type": "uint256"
            },
            {
              "internalType": "uint256",
              "name": "duration",
              "type": "uint256"
            },
            {
              "internalType": "uint256",
              "name": "weight",
              "type": "uint256"
            },
            {
              "internalType": "uint256",
              "name": "discountRate",
              "type": "uint256"
            },
            {
              "internalType": "contract IJBFundingCycleBallot",
              "name": "ballot",
              "type": "address"
            },
            {
              "internalType": "uint256",
              "name": "metadata",
              "type": "uint256"
            }
          ],
          "internalType": "struct JBFundingCycle",
          "name": "fundingCycle",
          "type": "tuple"
        },
        {
          "internalType": "uint256",
          "name": "distributedAmount",
          "type": "uint256"
        }
      ],
      "stateMutability": "nonpayable",
      "type": "function"
    },
    {
      "inputs": [
        {
          "internalType": "uint256",
          "name": "_projectId",
          "type": "uint256"
        }
      ],
      "name": "recordMigration",
      "outputs": [
        {
          "internalType": "uint256",
          "name": "balance",
          "type": "uint256"
        }
      ],
      "stateMutability": "nonpayable",
      "type": "function"
    },
    {
      "inputs": [
        {
          "internalType": "address",
          "name": "_payer",
          "type": "address"
        },
        {
          "components": [
            {
              "internalType": "address",
              "name": "token",
              "type": "address"
            },
            {
              "internalType": "uint256",
              "name": "value",
              "type": "uint256"
            },
            {
              "internalType": "uint256",
              "name": "decimals",
              "type": "uint256"
            },
            {
              "internalType": "uint256",
              "name": "currency",
              "type": "uint256"
            }
          ],
          "internalType": "struct JBTokenAmount",
          "name": "_amount",
          "type": "tuple"
        },
        {
          "internalType": "uint256",
          "name": "_projectId",
          "type": "uint256"
        },
        {
          "internalType": "uint256",
          "name": "_baseWeightCurrency",
          "type": "uint256"
        },
        {
          "internalType": "address",
          "name": "_beneficiary",
          "type": "address"
        },
        {
          "internalType": "string",
          "name": "_memo",
          "type": "string"
        },
        {
          "internalType": "bytes",
          "name": "_metadata",
          "type": "bytes"
        }
      ],
      "name": "recordPaymentFrom",
      "outputs": [
        {
          "components": [
            {
              "internalType": "uint256",
              "name": "number",
              "type": "uint256"
            },
            {
              "internalType": "uint256",
              "name": "configuration",
              "type": "uint256"
            },
            {
              "internalType": "uint256",
              "name": "basedOn",
              "type": "uint256"
            },
            {
              "internalType": "uint256",
              "name": "start",
              "type": "uint256"
            },
            {
              "internalType": "uint256",
              "name": "duration",
              "type": "uint256"
            },
            {
              "internalType": "uint256",
              "name": "weight",
              "type": "uint256"
            },
            {
              "internalType": "uint256",
              "name": "discountRate",
              "type": "uint256"
            },
            {
              "internalType": "contract IJBFundingCycleBallot",
              "name": "ballot",
              "type": "address"
            },
            {
              "internalType": "uint256",
              "name": "metadata",
              "type": "uint256"
            }
          ],
          "internalType": "struct JBFundingCycle",
          "name": "fundingCycle",
          "type": "tuple"
        },
        {
          "internalType": "uint256",
          "name": "tokenCount",
          "type": "uint256"
        },
        {
          "components": [
            {
              "internalType": "contract IJBPayDelegate3_1_1",
              "name": "delegate",
              "type": "address"
            },
            {
              "internalType": "uint256",
              "name": "amount",
              "type": "uint256"
            },
            {
              "internalType": "bytes",
              "name": "metadata",
              "type": "bytes"
            }
          ],
          "internalType": "struct JBPayDelegateAllocation3_1_1[]",
          "name": "delegateAllocations",
          "type": "tuple[]"
        },
        {
          "internalType": "string",
          "name": "memo",
          "type": "string"
        }
      ],
      "stateMutability": "nonpayable",
      "type": "function"
    },
    {
      "inputs": [
        {
          "internalType": "address",
          "name": "_holder",
          "type": "address"
        },
        {
          "internalType": "uint256",
          "name": "_projectId",
          "type": "uint256"
        },
        {
          "internalType": "uint256",
          "name": "_tokenCount",
          "type": "uint256"
        },
        {
          "internalType": "string",
          "name": "_memo",
          "type": "string"
        },
        {
          "internalType": "bytes",
          "name": "_metadata",
          "type": "bytes"
        }
      ],
      "name": "recordRedemptionFor",
      "outputs": [
        {
          "components": [
            {
              "internalType": "uint256",
              "name": "number",
              "type": "uint256"
            },
            {
              "internalType": "uint256",
              "name": "configuration",
              "type": "uint256"
            },
            {
              "internalType": "uint256",
              "name": "basedOn",
              "type": "uint256"
            },
            {
              "internalType": "uint256",
              "name": "start",
              "type": "uint256"
            },
            {
              "internalType": "uint256",
              "name": "duration",
              "type": "uint256"
            },
            {
              "internalType": "uint256",
              "name": "weight",
              "type": "uint256"
            },
            {
              "internalType": "uint256",
              "name": "discountRate",
              "type": "uint256"
            },
            {
              "internalType": "contract IJBFundingCycleBallot",
              "name": "ballot",
              "type": "address"
            },
            {
              "internalType": "uint256",
              "name": "metadata",
              "type": "uint256"
            }
          ],
          "internalType": "struct JBFundingCycle",
          "name": "fundingCycle",
          "type": "tuple"
        },
        {
          "internalType": "uint256",
          "name": "reclaimAmount",
          "type": "uint256"
        },
        {
          "components": [
            {
              "internalType": "contract IJBRedemptionDelegate3_1_1",
              "name": "delegate",
              "type": "address"
            },
            {
              "internalType": "uint256",
              "name": "amount",
              "type": "uint256"
            },
            {
              "internalType": "bytes",
              "name": "metadata",
              "type": "bytes"
            }
          ],
          "internalType": "struct JBRedemptionDelegateAllocation3_1_1[]",
          "name": "delegateAllocations",
          "type": "tuple[]"
        },
        {
          "internalType": "string",
          "name": "memo",
          "type": "string"
        }
      ],
      "stateMutability": "nonpayable",
      "type": "function"
    },
    {
      "inputs": [
        {
          "internalType": "uint256",
          "name": "_projectId",
          "type": "uint256"
        },
        {
          "internalType": "uint256",
          "name": "_amount",
          "type": "uint256"
        },
        {
          "internalType": "uint256",
          "name": "_currency",
          "type": "uint256"
        }
      ],
      "name": "recordUsedAllowanceOf",
      "outputs": [
        {
          "components": [
            {
              "internalType": "uint256",
              "name": "number",
              "type": "uint256"
            },
            {
              "internalType": "uint256",
              "name": "configuration",
              "type": "uint256"
            },
            {
              "internalType": "uint256",
              "name": "basedOn",
              "type": "uint256"
            },
            {
              "internalType": "uint256",
              "name": "start",
              "type": "uint256"
            },
            {
              "internalType": "uint256",
              "name": "duration",
              "type": "uint256"
            },
            {
              "internalType": "uint256",
              "name": "weight",
              "type": "uint256"
            },
            {
              "internalType": "uint256",
              "name": "discountRate",
              "type": "uint256"
            },
            {
              "internalType": "contract IJBFundingCycleBallot",
              "name": "ballot",
              "type": "address"
            },
            {
              "internalType": "uint256",
              "name": "metadata",
              "type": "uint256"
            }
          ],
          "internalType": "struct JBFundingCycle",
          "name": "fundingCycle",
          "type": "tuple"
        },
        {
          "internalType": "uint256",
          "name": "usedAmount",
          "type": "uint256"
        }
      ],
      "stateMutability": "nonpayable",
      "type": "function"
    },
    {
      "inputs": [
        {
          "internalType": "contract IJBSingleTokenPaymentTerminal",
          "name": "",
          "type": "address"
        },
        {
          "internalType": "uint256",
          "name": "",
          "type": "uint256"
        },
        {
          "internalType": "uint256",
          "name": "",
          "type": "uint256"
        }
      ],
      "name": "usedDistributionLimitOf",
      "outputs": [
        {
          "internalType": "uint256",
          "name": "",
          "type": "uint256"
        }
      ],
      "stateMutability": "view",
      "type": "function"
    },
    {
      "inputs": [
        {
          "internalType": "contract IJBSingleTokenPaymentTerminal",
          "name": "",
          "type": "address"
        },
        {
          "internalType": "uint256",
          "name": "",
          "type": "uint256"
        },
        {
          "internalType": "uint256",
          "name": "",
          "type": "uint256"
        }
      ],
      "name": "usedOverflowAllowanceOf",
      "outputs": [
        {
          "internalType": "uint256",
          "name": "",
          "type": "uint256"
        }
      ],
      "stateMutability": "view",
      "type": "function"
    }
  ],
  "transactionHash": "0x705eb5b7ac1f28f06a10d2b2913d1a75fc9008d3ba37f0631556b8ffffc8a225",
  "args": [
    "0x65572FB928b46f9aDB7cfe5A4c41226F636161ea",
    "0x6f18cF9173136c0B5A6eBF45f19D58d3ff2E17e6",
    "0x63CF55ab55ABcaD4E84335B80bbE3D2DefA09410"
  ],
  "numDeployments": 1,
  "solcInputHash": "11cb1f66a0f8213d7bf83deb0ae9d2f7",
  "bytecode": "0x60e06040523480156200001157600080fd5b506040516200366a3803806200366a833981016040819052620000349162000070565b60016000556001600160a01b0392831660805290821660a0521660c052620000c4565b6001600160a01b03811681146200006d57600080fd5b50565b6000806000606084860312156200008657600080fd5b8351620000938162000057565b6020850151909350620000a68162000057565b6040850151909250620000b98162000057565b809150509250925092565b60805160a05160c0516134ea6200018060003960008181610273015281816106d201528181610c1c0152818161214c015261232901526000818161018b0152818161036f0152818161083f01528181610d0601528181610e1c0152818161120d015281816114d7015281816115a0015281816118d901528181611cdf01526123b00152600081816102390152818161041f0152818161105c01528181611782015281816119b201528181611f2201526121c801526134ea6000f3fe608060405234801561001057600080fd5b50600436106100ff5760003560e01c8063c294b2f411610097578063d49031c011610066578063d49031c014610295578063d4c3a8d2146102a8578063e7c8e3e3146102d9578063e8ba563a146102ee57600080fd5b8063c294b2f414610221578063c41c2f2414610234578063c66445971461025b578063d3419bf31461026e57600080fd5b80636bb6a5ad116100d35780636bb6a5ad146101c5578063a2df1f95146101d8578063a57c7f59146101fb578063b753d7e91461020e57600080fd5b8062fdd58e1461010457806325386715146101425780632fa1b39114610163578063557e715514610186575b600080fd5b61012f6101123660046125c3565b600160209081526000928352604080842090915290825290205481565b6040519081526020015b60405180910390f35b6101556101503660046125ef565b61031f565b60405161013992919061267a565b6101766101713660046127fa565b6107f5565b604051610139949392919061290b565b6101ad7f000000000000000000000000000000000000000000000000000000000000000081565b6040516001600160a01b039091168152602001610139565b61012f6101d33660046129bd565b610cc5565b6101eb6101e63660046129d6565b610dd2565b6040516101399493929190612a77565b61012f610209366004612b12565b61149c565b61012f61021c3660046125ef565b611566565b61012f61022f366004612b44565b61157d565b6101ad7f000000000000000000000000000000000000000000000000000000000000000081565b6101556102693660046125ef565b611892565b6101ad7f000000000000000000000000000000000000000000000000000000000000000081565b61012f6102a33660046125c3565b611cd6565b61012f6102b6366004612b93565b600360209081526000938452604080852082529284528284209052825290205481565b6102ec6102e7366004612bc8565b611db4565b005b61012f6102fc366004612b93565b600260209081526000938452604080852082529284528284209052825290205481565b610327612556565b60006002600054036103545760405162461bcd60e51b815260040161034b90612bea565b60405180910390fd5b60026000556040516321d1336160e11b8152600481018690527f00000000000000000000000000000000000000000000000000000000000000006001600160a01b0316906343a266c29060240161012060405180830381865afa1580156103bf573d6000803e3d6000fd5b505050506040513d601f19601f820116820180604052508101906103e39190612c31565b336000908152600360209081526040808320898452825280832082850151845290915281205491935090610418908690612cc7565b90506000807f00000000000000000000000000000000000000000000000000000000000000006001600160a01b0316635dd8f6aa896040518263ffffffff1660e01b815260040161046b91815260200190565b602060405180830381865afa158015610488573d6000803e3d6000fd5b505050506040513d601f19601f820116820180604052508101906104ac9190612cda565b6001600160a01b031663a29a68146040518163ffffffff1660e01b8152600401602060405180830381865afa1580156104e9573d6000803e3d6000fd5b505050506040513d601f19601f8201168201806040525081019061050d9190612cda565b6001600160a01b0316637a81b56289876020015133336001600160a01b031663fc0c546a6040518163ffffffff1660e01b8152600401602060405180830381865afa158015610560573d6000803e3d6000fd5b505050506040513d601f19601f820116820180604052508101906105849190612cda565b6040518563ffffffff1660e01b81526004016105a39493929190612cf7565b6040805180830381865afa1580156105bf573d6000803e3d6000fd5b505050506040513d601f19601f820116820180604052508101906105e39190612d1e565b91509150818311806105f3575081155b1561061157604051635b76558960e11b815260040160405180910390fd5b8086146106315760405163e56ea4e760e01b815260040160405180910390fd5b6000336001600160a01b031663e5a6b10f6040518163ffffffff1660e01b8152600401602060405180830381865afa158015610671573d6000803e3d6000fd5b505050506040513d601f19601f820116820180604052508101906106959190612d42565b90508087146107505761074b886106ae6012600a612e3f565b604051635268657960e11b8152600481018b905260248101859052601260448201527f00000000000000000000000000000000000000000000000000000000000000006001600160a01b03169063a4d0caf2906064015b602060405180830381865afa158015610722573d6000803e3d6000fd5b505050506040513d601f19601f820116820180604052508101906107469190612d42565b611dfd565b610752565b875b9450610760338a8884611eca565b851115610780576040516317e53f6760e11b815260040160405180910390fd5b3360008181526003602090815260408083208d845282528083208a83015184528252808320889055928252600181528282208c8352905220546107c4908690612e4b565b3360009081526001602081815260408084209d84529c90529a81209190915598909855509296919550909350505050565b6107fd612556565b60006060806002600054036108245760405162461bcd60e51b815260040161034b90612bea565b60026000556040516321d1336160e11b8152600481018b90527f00000000000000000000000000000000000000000000000000000000000000006001600160a01b0316906343a266c29060240161012060405180830381865afa15801561088f573d6000803e3d6000fd5b505050506040513d601f19601f820116820180604052508101906108b39190612c31565b80519094506000036108d85760405163174b338d60e11b815260040160405180910390fd5b61010084015160481c6001908116036109045760405163a3bb913360e01b815260040160405180910390fd5b61010084015160009060521c600190811614801561093a5750600061092e86610100015160541c90565b6001600160a01b031614155b15610a8c576000604051806101400160405280336001600160a01b031681526020018f6001600160a01b031681526020018e80360381019061097c9190612e5e565b815260208082018f905288015160408201526001600160a01b038c16606082015260a080890151608083015261010089015191019060181c61ffff1681526020018a8a8080601f0160208091040260200160405190810160405280939291908181526020018383808284376000920191909152505050908252506020018890529050610a0d86610100015160541c90565b6001600160a01b031663d46cf171826040518263ffffffff1660e01b8152600401610a389190612ecd565b6000604051808303816000875af1158015610a57573d6000803e3d6000fd5b505050506040513d6000823e601f3d908101601f19168201604052610a7f9190810190613038565b955093509150610acd9050565b8460a00151905087878080601f0160208091040260200160405190810160405280939291908181526020018383808284376000920191909152509294505050505b825160208d01359015610b495760005b8451811015610b47576000858281518110610afa57610afa613169565b602002602001015160200151905080600014610b3e5782811115610b31576040516336a8da9360e11b815260040160405180910390fd5b610b3b8184612e4b565b92505b50600101610add565b505b8c60200135600003610b61575060009350610cae9050565b8015610bc8573360009081526001602090815260408083208f8452909152902054610b8d908290612cc7565b60016000336001600160a01b03166001600160a01b0316815260200190815260200160002060008e8152602001908152602001600020819055505b5080600003610bdb575060009250610cae565b60408c0135600060608e01358c14610c8c57604051635268657960e11b815260608f01356004820152602481018d9052604481018390526001600160a01b037f0000000000000000000000000000000000000000000000000000000000000000169063a4d0caf290606401602060405180830381865afa158015610c63573d6000803e3d6000fd5b505050506040513d601f19601f82011682018060405250810190610c879190612d42565b610c97565b610c9782600a612e3f565b9050610ca88e602001358483611dfd565b95505050505b600160008190555098509850985098945050505050565b6000600260005403610ce95760405162461bcd60e51b815260040161034b90612bea565b600260009081556040516321d1336160e11b8152600481018490527f00000000000000000000000000000000000000000000000000000000000000006001600160a01b0316906343a266c29060240161012060405180830381865afa158015610d56573d6000803e3d6000fd5b505050506040513d601f19601f82011682018060405250810190610d7a9190612c31565b610100810151909150604d1c600190811614610da9576040516373e4f05f60e11b815260040160405180910390fd5b505033600090815260016020818152604080842094845293905291812080549082905591905590565b610dda612556565b6000606080600260005403610e015760405162461bcd60e51b815260040161034b90612bea565b60026000556040516321d1336160e11b8152600481018990527f00000000000000000000000000000000000000000000000000000000000000006001600160a01b0316906343a266c29060240161012060405180830381865afa158015610e6c573d6000803e3d6000fd5b505050506040513d601f19601f82011682018060405250810190610e909190612c31565b610100810151909450604a1c600190811603610ebf5760405163a97cf58f60e01b815260040160405180910390fd5b610ef3604051806080016040528060006001600160a01b031681526020016000815260200160008152602001600081525090565b6000806000336001600160a01b031663fc0c546a6040518163ffffffff1660e01b8152600401602060405180830381865afa158015610f36573d6000803e3d6000fd5b505050506040513d601f19601f82011682018060405250810190610f5a9190612cda565b90506000336001600160a01b031663313ce5676040518163ffffffff1660e01b8152600401602060405180830381865afa158015610f9c573d6000803e3d6000fd5b505050506040513d601f19601f82011682018060405250810190610fc09190612d42565b90506000336001600160a01b031663e5a6b10f6040518163ffffffff1660e01b8152600401602060405180830381865afa158015611002573d6000803e3d6000fd5b505050506040513d601f19601f820116820180604052508101906110269190612d42565b6101008b015190915060511c60019081161461104d57611048338f8c84611eca565b611058565b6110588e83836121a5565b94507f00000000000000000000000000000000000000000000000000000000000000006001600160a01b0316635dd8f6aa8f6040518263ffffffff1660e01b81526004016110a891815260200190565b602060405180830381865afa1580156110c5573d6000803e3d6000fd5b505050506040513d601f19601f820116820180604052508101906110e99190612cda565b6001600160a01b031663c18f2d318f6040518263ffffffff1660e01b815260040161111691815260200190565b602060405180830381865afa158015611133573d6000803e3d6000fd5b505050506040513d601f19601f820116820180604052508101906111579190612d42565b9350838d111561117957604051625c579160e91b815260040160405180910390fd5b841561118f5761118c8e8b8f8789612387565b98505b604080516080810182526001600160a01b03949094168452602084018a9052830191909152606082015261010088015190935060531c60019081161480156111ef575060006111e388610100015160541c90565b6001600160a01b031614155b156113c657604051633157d5c760e21b8152600481018c90526000907f00000000000000000000000000000000000000000000000000000000000000006001600160a01b03169063c55f571c90602401602060405180830381865afa15801561125c573d6000803e3d6000fd5b505050506040513d601f19601f82011682018060405250810190611280919061317f565b90506000604051806101800160405280336001600160a01b031681526020018f6001600160a01b031681526020018e81526020018a6020015181526020018d81526020018481526020018581526020018681526020016112ed8b6101000151600160519190911c81161490565b151581526020016000846002811115611308576113086131a0565b1461131b576113168b6124bf565b611324565b6113248b6124dc565b81526020018c81526020018b815250905061134489610100015160541c90565b6001600160a01b031663a51cfd18826040518263ffffffff1660e01b815260040161136f91906131b6565b6000604051808303816000875af115801561138e573d6000803e3d6000fd5b505050506040513d6000823e601f3d908101601f191682016040526113b691908101906132ae565b91995090975095506113ca915050565b8893505b50508251849150156114245760005b83518110156114225760008482815181106113f6576113f6613169565b602002602001015160200151905080600014611419576114168184612cc7565b92505b506001016113d9565b505b3360009081526001602090815260408083208c845290915290205481111561145f576040516317e53f6760e11b815260040160405180910390fd5b8015611487573360009081526001602090815260408083208c84529091529020805482900390555b50600160008190555095509550955095915050565b6000816000036114ae5750600061155e565b828411156114be5750600061155e565b6040516321d1336160e11b8152600481018690526000907f00000000000000000000000000000000000000000000000000000000000000006001600160a01b0316906343a266c29060240161012060405180830381865afa158015611527573d6000803e3d6000fd5b505050506040513d601f19601f8201168201806040525081019061154b9190612c31565b905061155a8682878787612387565b9150505b949350505050565b60006115738484846121a5565b90505b9392505050565b6040516321d1336160e11b81526004810184905260009081906001600160a01b037f000000000000000000000000000000000000000000000000000000000000000016906343a266c29060240161012060405180830381865afa1580156115e8573d6000803e3d6000fd5b505050506040513d601f19601f8201168201806040525081019061160c9190612c31565b9050600083611687576116828787848a6001600160a01b031663e5a6b10f6040518163ffffffff1660e01b8152600401602060405180830381865afa158015611659573d6000803e3d6000fd5b505050506040513d601f19601f8201168201806040525081019061167d9190612d42565b611eca565b611754565b61175486886001600160a01b031663313ce5676040518163ffffffff1660e01b8152600401602060405180830381865afa1580156116c9573d6000803e3d6000fd5b505050506040513d601f19601f820116820180604052508101906116ed9190612d42565b896001600160a01b031663e5a6b10f6040518163ffffffff1660e01b8152600401602060405180830381865afa15801561172b573d6000803e3d6000fd5b505050506040513d601f19601f8201168201806040525081019061174f9190612d42565b6121a5565b9050806000036117695760009250505061155e565b604051632eec7b5560e11b8152600481018790526000907f00000000000000000000000000000000000000000000000000000000000000006001600160a01b031690635dd8f6aa90602401602060405180830381865afa1580156117d1573d6000803e3d6000fd5b505050506040513d601f19601f820116820180604052508101906117f59190612cda565b6001600160a01b031663c18f2d31886040518263ffffffff1660e01b815260040161182291815260200190565b602060405180830381865afa15801561183f573d6000803e3d6000fd5b505050506040513d601f19601f820116820180604052508101906118639190612d42565b905080861115611879576000935050505061155e565b6118868784888486612387565b98975050505050505050565b61189a612556565b60006002600054036118be5760405162461bcd60e51b815260040161034b90612bea565b60026000556040516321d1336160e11b8152600481018690527f00000000000000000000000000000000000000000000000000000000000000006001600160a01b0316906343a266c29060240161012060405180830381865afa158015611929573d6000803e3d6000fd5b505050506040513d601f19601f8201168201806040525081019061194d9190612c31565b61010081015190925060491c60019081160361197c5760405163861e9dcd60e01b815260040160405180910390fd5b3360009081526002602090815260408083208884528252808320855184529091528120546119ab908690612cc7565b90506000807f00000000000000000000000000000000000000000000000000000000000000006001600160a01b0316635dd8f6aa896040518263ffffffff1660e01b81526004016119fe91815260200190565b602060405180830381865afa158015611a1b573d6000803e3d6000fd5b505050506040513d601f19601f82011682018060405250810190611a3f9190612cda565b6001600160a01b031663a29a68146040518163ffffffff1660e01b8152600401602060405180830381865afa158015611a7c573d6000803e3d6000fd5b505050506040513d601f19601f82011682018060405250810190611aa09190612cda565b6001600160a01b031663e8db213089876020015133336001600160a01b031663fc0c546a6040518163ffffffff1660e01b8152600401602060405180830381865afa158015611af3573d6000803e3d6000fd5b505050506040513d601f19601f82011682018060405250810190611b179190612cda565b6040518563ffffffff1660e01b8152600401611b369493929190612cf7565b6040805180830381865afa158015611b52573d6000803e3d6000fd5b505050506040513d601f19601f82011682018060405250810190611b769190612d1e565b9150915081831180611b86575081155b15611ba457604051630236b92b60e21b815260040160405180910390fd5b808614611bc45760405163e56ea4e760e01b815260040160405180910390fd5b6000336001600160a01b031663e5a6b10f6040518163ffffffff1660e01b8152600401602060405180830381865afa158015611c04573d6000803e3d6000fd5b505050506040513d601f19601f82011682018060405250810190611c289190612d42565b9050808714611c4657611c41886106ae6012600a612e3f565b611c48565b875b3360009081526001602090815260408083208d8452909152902054909550851115611c86576040516317e53f6760e11b815260040160405180910390fd5b50503360008181526002602090815260408083208b845282528083208851845282528083209590955591815260018083528482209982529890915291822080548490039055509490945593915050565b6000611dab83837f00000000000000000000000000000000000000000000000000000000000000006001600160a01b03166343a266c2866040518263ffffffff1660e01b8152600401611d2b91815260200190565b61012060405180830381865afa158015611d49573d6000803e3d6000fd5b505050506040513d601f19601f82011682018060405250810190611d6d9190612c31565b866001600160a01b031663e5a6b10f6040518163ffffffff1660e01b8152600401602060405180830381865afa158015611659573d6000803e3d6000fd5b90505b92915050565b336000908152600160209081526040808320858452909152902054611dda908290612cc7565b336000908152600160209081526040808320958352949052929092209190915550565b6000808060001985870985870292508281108382030391505080600003611e3757838281611e2d57611e2d6133ce565b0492505050611576565b838110611e6157604051631dcf306360e21b8152600481018290526024810185905260440161034b565b60008486880960026001871981018816978890046003810283188082028403028082028403028082028403028082028403028082028403029081029092039091026000889003889004909101858311909403939093029303949094049190911702949350505050565b6001600160a01b0384166000908152600160209081526040808320868452909152812054808203611eff57600091505061155e565b604051632eec7b5560e11b81526004810186905260009081906001600160a01b037f00000000000000000000000000000000000000000000000000000000000000001690635dd8f6aa90602401602060405180830381865afa158015611f69573d6000803e3d6000fd5b505050506040513d601f19601f82011682018060405250810190611f8d9190612cda565b6001600160a01b031663a29a68146040518163ffffffff1660e01b8152600401602060405180830381865afa158015611fca573d6000803e3d6000fd5b505050506040513d601f19601f82011682018060405250810190611fee9190612cda565b6001600160a01b031663e8db21308888602001518b8c6001600160a01b031663fc0c546a6040518163ffffffff1660e01b8152600401602060405180830381865afa158015612041573d6000803e3d6000fd5b505050506040513d601f19601f820116820180604052508101906120659190612cda565b6040518563ffffffff1660e01b81526004016120849493929190612cf7565b6040805180830381865afa1580156120a0573d6000803e3d6000fd5b505050506040513d601f19601f820116820180604052508101906120c49190612d1e565b6001600160a01b038a1660009081526002602090815260408083208c845282528083208b518452909152812054929450909250906121029084612e4b565b905080158015906121135750858214155b1561218657612183816121286012600a612e3f565b604051635268657960e11b815260048101869052602481018a9052601260448201527f00000000000000000000000000000000000000000000000000000000000000006001600160a01b03169063a4d0caf290606401610705565b90505b808411612194576000612198565b8084035b9998505050505050505050565b60405163d175415360e01b81526004810184905260009081906001600160a01b037f0000000000000000000000000000000000000000000000000000000000000000169063d175415390602401600060405180830381865afa15801561220f573d6000803e3d6000fd5b505050506040513d6000823e601f3d908101601f1916820160405261223791908101906133e4565b90506000805b82518110156122e25782818151811061225857612258613169565b60200260200101516001600160a01b031663a32e1e96886040518263ffffffff1660e01b815260040161228d91815260200190565b602060405180830381865afa1580156122aa573d6000803e3d6000fd5b505050506040513d601f19601f820116820180604052508101906122ce9190612d42565b6122d89083612cc7565b915060010161223d565b5060006001851461235d57604051635268657960e11b8152600160048201526024810186905260126044820152612358908390670de0b6b3a7640000906001600160a01b037f0000000000000000000000000000000000000000000000000000000000000000169063a4d0caf290606401610705565b61235f565b815b90508560121461237a57612375816012886124f9565b61237c565b805b979650505050505050565b60008284036123975750806124b6565b600080604051633157d5c760e21b8152600481018990527f00000000000000000000000000000000000000000000000000000000000000006001600160a01b03169063c55f571c90602401602060405180830381865afa1580156123ff573d6000803e3d6000fd5b505050506040513d601f19601f82011682018060405250810190612423919061317f565b6002811115612434576124346131a0565b1461244757612442866124bf565b612450565b612450866124dc565b9050806000036124645760009150506124b6565b6000612471848787611dfd565b905061271082036124855791506124b69050565b6124b18161249f8861249986612710612e4b565b89611dfd565b6124a99085612cc7565b612710611dfd565b925050505b95945050505050565b60006028826101000151901c61ffff16612710611dae9190612e4b565b60006038826101000151901c61ffff16612710611dae9190612e4b565b6000828203612509575082611576565b828211156125375761251b8383612e4b565b61252690600a612e3f565b6125309085613473565b9050611576565b6125418284612e4b565b61254c90600a612e3f565b6125309085613492565b6040518061012001604052806000815260200160008152602001600081526020016000815260200160008152602001600081526020016000815260200160006001600160a01b03168152602001600081525090565b6001600160a01b03811681146125c057600080fd5b50565b600080604083850312156125d657600080fd5b82356125e1816125ab565b946020939093013593505050565b60008060006060848603121561260457600080fd5b505081359360208301359350604090920135919050565b805182526020808201519083015260408082015190830152606080820151908301526080808201519083015260a0808201519083015260c0808201519083015260e0808201516001600160a01b03169083015261010090810151910152565b6101408101612689828561261b565b826101208301529392505050565b60008083601f8401126126a957600080fd5b50813567ffffffffffffffff8111156126c157600080fd5b6020830191508360208285010111156126d957600080fd5b9250929050565b634e487b7160e01b600052604160045260246000fd5b604051610120810167ffffffffffffffff8111828210171561271a5761271a6126e0565b60405290565b6040516060810167ffffffffffffffff8111828210171561271a5761271a6126e0565b604051601f8201601f1916810167ffffffffffffffff8111828210171561276c5761276c6126e0565b604052919050565b600067ffffffffffffffff82111561278e5761278e6126e0565b50601f01601f191660200190565b60006127af6127aa84612774565b612743565b90508281528383830111156127c357600080fd5b828260208301376000602084830101529392505050565b600082601f8301126127eb57600080fd5b611dab8383356020850161279c565b600080600080600080600080888a0361014081121561281857600080fd5b8935612823816125ab565b98506080601f198201121561283757600080fd5b5060208901965060a0890135955060c0890135945060e089013561285a816125ab565b935061010089013567ffffffffffffffff8082111561287857600080fd5b6128848c838d01612697565b90955093506101208b013591508082111561289e57600080fd5b506128ab8b828c016127da565b9150509295985092959890939650565b60005b838110156128d65781810151838201526020016128be565b50506000910152565b600081518084526128f78160208601602086016128bb565b601f01601f19169290920160200192915050565b600061018080830161291d848961261b565b61012084018790526101408401919091528451908190526101a080840191600581901b850190910190602080880160005b838110156129a65787850361019f19018652815180516001600160a01b031686528381015184870152604090810151606091870182905290612992818801836128df565b97850197965050509082019060010161294e565b505050508381036101608501526124b181866128df565b6000602082840312156129cf57600080fd5b5035919050565b600080600080600060a086880312156129ee57600080fd5b85356129f9816125ab565b94506020860135935060408601359250606086013567ffffffffffffffff80821115612a2457600080fd5b818801915088601f830112612a3857600080fd5b612a478983356020850161279c565b93506080880135915080821115612a5d57600080fd5b50612a6a888289016127da565b9150509295509295909350565b6000610180808301612a89848961261b565b61012084018790526101408401919091528451908190526101a080840191600581901b850190910190602080880160005b838110156129a65787850361019f19018652815180516001600160a01b031686528381015184870152604090810151606091870182905290612afe818801836128df565b978501979650505090820190600101612aba565b60008060008060808587031215612b2857600080fd5b5050823594602084013594506040840135936060013592509050565b60008060008060808587031215612b5a57600080fd5b8435612b65816125ab565b9350602085013592506040850135915060608501358015158114612b8857600080fd5b939692955090935050565b600080600060608486031215612ba857600080fd5b8335612bb3816125ab565b95602085013595506040909401359392505050565b60008060408385031215612bdb57600080fd5b50508035926020909101359150565b6020808252601f908201527f5265656e7472616e637947756172643a207265656e7472616e742063616c6c00604082015260600190565b8051612c2c816125ab565b919050565b60006101208284031215612c4457600080fd5b612c4c6126f6565b825181526020830151602082015260408301516040820152606083015160608201526080830151608082015260a083015160a082015260c083015160c0820152612c9860e08401612c21565b60e0820152610100928301519281019290925250919050565b634e487b7160e01b600052601160045260246000fd5b80820180821115611dae57611dae612cb1565b600060208284031215612cec57600080fd5b8151611576816125ab565b93845260208401929092526001600160a01b03908116604084015216606082015260800190565b60008060408385031215612d3157600080fd5b505080516020909101519092909150565b600060208284031215612d5457600080fd5b5051919050565b600181815b80851115612d96578160001904821115612d7c57612d7c612cb1565b80851615612d8957918102915b93841c9390800290612d60565b509250929050565b600082612dad57506001611dae565b81612dba57506000611dae565b8160018114612dd05760028114612dda57612df6565b6001915050611dae565b60ff841115612deb57612deb612cb1565b50506001821b611dae565b5060208310610133831016604e8410600b8410161715612e19575081810a611dae565b612e238383612d5b565b8060001904821115612e3757612e37612cb1565b029392505050565b6000611dab8383612d9e565b81810381811115611dae57611dae612cb1565b600060808284031215612e7057600080fd5b6040516080810181811067ffffffffffffffff82111715612e9357612e936126e0565b6040528235612ea1816125ab565b808252506020830135602082015260408301356040820152606083013560608201528091505092915050565b60208152612ee76020820183516001600160a01b03169052565b60006020830151612f0360408401826001600160a01b03169052565b506040830151612f3d606084018280516001600160a01b031682526020808201519083015260408082015190830152606090810151910152565b50606083015160e08301526080830151610100818185015260a08501519150610120612f73818601846001600160a01b03169052565b60c086015161014086015260e08601516101608601528186015192506101a0915081610180860152612fa96101c08601846128df565b90860151858203601f190183870152909250612fc583826128df565b9695505050505050565b600082601f830112612fe057600080fd5b8151612fee6127aa82612774565b81815284602083860101111561300357600080fd5b61155e8260208301602087016128bb565b600067ffffffffffffffff82111561302e5761302e6126e0565b5060051b60200190565b60008060006060848603121561304d57600080fd5b8351925060208085015167ffffffffffffffff8082111561306d57600080fd5b61307988838901612fcf565b9450604087015191508082111561308f57600080fd5b818701915087601f8301126130a357600080fd5b81516130b16127aa82613014565b81815260059190911b8301840190848101908a8311156130d057600080fd5b8585015b83811015613158578051858111156130ec5760008081fd5b86016060818e03601f190112156131035760008081fd5b61310b612720565b88820151613118816125ab565b81526040820151898201526060820151878111156131365760008081fd5b6131448f8b83860101612fcf565b6040830152508452509186019186016130d4565b508096505050505050509250925092565b634e487b7160e01b600052603260045260246000fd5b60006020828403121561319157600080fd5b81516003811061157657600080fd5b634e487b7160e01b600052602160045260246000fd5b602081526131d06020820183516001600160a01b03169052565b600060208301516131ec60408401826001600160a01b03169052565b506040830151606083015260608301516080830152608083015160a083015260a083015160c083015260c083015160e083015260e083015161010061325a8185018380516001600160a01b031682526020808201519083015260408082015190830152606090810151910152565b8401511515610180840152506101208301516101a08301526101408301516101e06101c084018190526132916102008501836128df565b9150610160850151601f198584030182860152612fc583826128df565b6000806000606084860312156132c357600080fd5b8351925060208085015167ffffffffffffffff808211156132e357600080fd5b6132ef88838901612fcf565b9450604087015191508082111561330557600080fd5b818701915087601f83011261331957600080fd5b81516133276127aa82613014565b81815260059190911b8301840190848101908a83111561334657600080fd5b8585015b83811015613158578051858111156133625760008081fd5b86016060818e03601f190112156133795760008081fd5b613381612720565b8882015161338e816125ab565b81526040820151898201526060820151878111156133ac5760008081fd5b6133ba8f8b83860101612fcf565b60408301525084525091860191860161334a565b634e487b7160e01b600052601260045260246000fd5b600060208083850312156133f757600080fd5b825167ffffffffffffffff81111561340e57600080fd5b8301601f8101851361341f57600080fd5b805161342d6127aa82613014565b81815260059190911b8201830190838101908783111561344c57600080fd5b928401925b8284101561237c578351613464816125ab565b82529284019290840190613451565b600081600019048311821515161561348d5761348d612cb1565b500290565b6000826134af57634e487b7160e01b600052601260045260246000fd5b50049056fea26469706673582212207c0b0d6ef21a30936e47f919249183a609014eddc061713ac513cccd6177f36164736f6c63430008100033",
  "devdoc": {
    "details": "This Store expects a project's controller to be an IJBController3_1.",
    "kind": "dev",
    "methods": {
      "constructor": {
        "params": {
          "_directory": "A contract storing directories of terminals and controllers for each project.",
          "_fundingCycleStore": "A contract storing all funding cycle configurations.",
          "_prices": "A contract that exposes price feeds."
        }
      },
      "currentOverflowOf(address,uint256)": {
        "details": "The current overflow is represented as a fixed point number with the same amount of decimals as the specified terminal.",
        "params": {
          "_projectId": "The ID of the project to get overflow for.",
          "_terminal": "The terminal for which the overflow is being calculated."
        },
        "returns": {
          "_0": "The current amount of overflow that project has in the specified terminal."
        }
      },
      "currentReclaimableOverflowOf(address,uint256,uint256,bool)": {
        "details": "If the project has an active funding cycle reconfiguration ballot, the project's ballot redemption rate is used.The current reclaimable overflow is returned in terms of the specified terminal's currency.The reclaimable overflow is represented as a fixed point number with the same amount of decimals as the specified terminal.",
        "params": {
          "_projectId": "The ID of the project to get the reclaimable overflow amount for.",
          "_terminal": "The terminal from which the reclaimable amount would come.",
          "_tokenCount": "The number of tokens to make the calculation with, as a fixed point number with 18 decimals.",
          "_useTotalOverflow": "A flag indicating whether the overflow used in the calculation should be summed from all of the project's terminals. If false, overflow should be limited to the amount in the specified `_terminal`."
        },
        "returns": {
          "_0": "The amount of overflowed tokens that can be reclaimed, as a fixed point number with the same number of decimals as the provided `_terminal`."
        }
      },
      "currentReclaimableOverflowOf(uint256,uint256,uint256,uint256)": {
        "details": "If the project has an active funding cycle reconfiguration ballot, the project's ballot redemption rate is used.",
        "params": {
          "_overflow": "The amount of overflow to make the calculation with, as a fixed point number.",
          "_projectId": "The ID of the project to get the reclaimable overflow amount for.",
          "_tokenCount": "The number of tokens to make the calculation with, as a fixed point number with 18 decimals.",
          "_totalSupply": "The total number of tokens to make the calculation with, as a fixed point number with 18 decimals."
        },
        "returns": {
          "_0": "The amount of overflowed tokens that can be reclaimed, as a fixed point number with the same number of decimals as the provided `_overflow`."
        }
      },
      "currentTotalOverflowOf(uint256,uint256,uint256)": {
        "params": {
          "_currency": "The currency that the total overflow should be in terms of.",
          "_decimals": "The number of decimals that the fixed point overflow should include.",
          "_projectId": "The ID of the project to get total overflow for."
        },
        "returns": {
          "_0": "The current total amount of overflow that project has across all terminals."
        }
      },
      "recordAddedBalanceFor(uint256,uint256)": {
        "details": "The msg.sender must be an IJBSingleTokenPaymentTerminal.",
        "params": {
          "_amount": "The amount of terminal tokens added, as a fixed point number with the same amount of decimals as its relative terminal.",
          "_projectId": "The ID of the project to which the funds being added belong."
        }
      },
      "recordDistributionFor(uint256,uint256,uint256)": {
        "details": "The msg.sender must be an IJBSingleTokenPaymentTerminal.",
        "params": {
          "_amount": "The amount to use from the distribution limit, as a fixed point number.",
          "_currency": "The currency of the `_amount`. This must match the project's current funding cycle's currency.",
          "_projectId": "The ID of the project that is having funds distributed."
        },
        "returns": {
          "distributedAmount": "The amount of terminal tokens distributed, as a fixed point number with the same amount of decimals as its relative terminal.",
          "fundingCycle": "The funding cycle during which the distribution was made."
        }
      },
      "recordMigration(uint256)": {
        "details": "The msg.sender must be an IJBSingleTokenPaymentTerminal. The amount returned is in terms of the msg.senders tokens.",
        "params": {
          "_projectId": "The ID of the project being migrated."
        },
        "returns": {
          "balance": "The project's migrated balance, as a fixed point number with the same amount of decimals as its relative terminal."
        }
      },
      "recordPaymentFrom(address,(address,uint256,uint256,uint256),uint256,uint256,address,string,bytes)": {
        "details": "Mints the project's tokens according to values provided by a configured data source. If no data source is configured, mints tokens proportional to the amount of the contribution.The msg.sender must be an IJBSingleTokenPaymentTerminal. The amount specified in the params is in terms of the msg.sender's tokens.",
        "params": {
          "_amount": "The amount of tokens being paid. Includes the token being paid, the value, the number of decimals included, and the currency of the amount.",
          "_baseWeightCurrency": "The currency to base token issuance on.",
          "_beneficiary": "The specified address that should be the beneficiary of anything that results from the payment.",
          "_memo": "A memo to pass along to the emitted event, and passed along to the funding cycle's data source.",
          "_metadata": "Bytes to send along to the data source, if one is provided.",
          "_payer": "The original address that sent the payment to the terminal.",
          "_projectId": "The ID of the project being paid."
        },
        "returns": {
          "delegateAllocations": "The amount to send to delegates instead of adding to the local balance.",
          "fundingCycle": "The project's funding cycle during which payment was made.",
          "memo": "A memo that should be passed along to the emitted event.",
          "tokenCount": "The number of project tokens that were minted, as a fixed point number with 18 decimals."
        }
      },
      "recordRedemptionFor(address,uint256,uint256,string,bytes)": {
        "details": "Redeems the project's tokens according to values provided by a configured data source. If no data source is configured, redeems tokens along a redemption bonding curve that is a function of the number of tokens being burned.The msg.sender must be an IJBSingleTokenPaymentTerminal. The amount specified in the params is in terms of the msg.senders tokens.",
        "params": {
          "_holder": "The account that is having its tokens redeemed.",
          "_memo": "A memo to pass along to the emitted event.",
          "_metadata": "Bytes to send along to the data source, if one is provided.",
          "_projectId": "The ID of the project to which the tokens being redeemed belong.",
          "_tokenCount": "The number of project tokens to redeem, as a fixed point number with 18 decimals."
        },
        "returns": {
          "delegateAllocations": "The amount to send to delegates instead of sending to the beneficiary.",
          "fundingCycle": "The funding cycle during which the redemption was made.",
          "memo": "A memo that should be passed along to the emitted event.",
          "reclaimAmount": "The amount of terminal tokens reclaimed, as a fixed point number with 18 decimals."
        }
      },
      "recordUsedAllowanceOf(uint256,uint256,uint256)": {
        "details": "The msg.sender must be an IJBSingleTokenPaymentTerminal.",
        "params": {
          "_amount": "The amount to use from the allowance, as a fixed point number.",
          "_currency": "The currency of the `_amount`. Must match the currency of the overflow allowance.",
          "_projectId": "The ID of the project to use the allowance of."
        },
        "returns": {
          "fundingCycle": "The funding cycle during which the overflow allowance is being used.",
          "usedAmount": "The amount of terminal tokens used, as a fixed point number with the same amount of decimals as its relative terminal."
        }
      }
    },
    "stateVariables": {
      "balanceOf": {
        "custom:param": "_terminal The terminal to which the balance applies._projectId The ID of the project to get the balance of.",
        "details": "The balance is represented as a fixed point number with the same amount of decimals as its relative terminal."
      },
      "usedDistributionLimitOf": {
        "custom:param": "_terminal The terminal to which the used distribution limit applies._projectId The ID of the project to get the used distribution limit of._fundingCycleNumber The number of the funding cycle during which the distribution limit was used.",
        "details": "Increases as projects use their preconfigured distribution limits.The used distribution limit is represented as a fixed point number with the same amount of decimals as its relative terminal."
      },
      "usedOverflowAllowanceOf": {
        "custom:param": "_terminal The terminal to which the overflow allowance applies._projectId The ID of the project to get the used overflow allowance of._configuration The configuration of the during which the allowance was used.",
        "details": "Increases as projects use their allowance.The used allowance is represented as a fixed point number with the same amount of decimals as its relative terminal."
      }
    },
    "version": 1
  },
  "userdoc": {
    "errors": {
      "PRBMath__MulDivOverflow(uint256,uint256)": [
        {
          "notice": "Emitted when the result overflows uint256."
        }
      ]
    },
    "kind": "user",
    "methods": {
      "balanceOf(address,uint256)": {
        "notice": "The amount of tokens that each project has for each terminal, in terms of the terminal's token."
      },
      "currentOverflowOf(address,uint256)": {
        "notice": "Gets the current overflowed amount in a terminal for a specified project."
      },
      "currentReclaimableOverflowOf(address,uint256,uint256,bool)": {
        "notice": "The current amount of overflowed tokens from a terminal that can be reclaimed by the specified number of tokens, using the total token supply and overflow in the ecosystem."
      },
      "currentReclaimableOverflowOf(uint256,uint256,uint256,uint256)": {
        "notice": "The current amount of overflowed tokens from a terminal that can be reclaimed by the specified number of tokens, using the specified total token supply and overflow amounts."
      },
      "currentTotalOverflowOf(uint256,uint256,uint256)": {
        "notice": "Gets the current overflowed amount for a specified project across all terminals."
      },
      "directory()": {
        "notice": "The directory of terminals and controllers for projects."
      },
      "fundingCycleStore()": {
        "notice": "The contract storing all funding cycle configurations."
      },
      "prices()": {
        "notice": "The contract that exposes price feeds."
      },
      "recordAddedBalanceFor(uint256,uint256)": {
        "notice": "Records newly added funds for the project."
      },
      "recordDistributionFor(uint256,uint256,uint256)": {
        "notice": "Records newly distributed funds for a project."
      },
      "recordMigration(uint256)": {
        "notice": "Records the migration of funds from this store."
      },
      "recordPaymentFrom(address,(address,uint256,uint256,uint256),uint256,uint256,address,string,bytes)": {
        "notice": "Records newly contributed tokens to a project."
      },
      "recordRedemptionFor(address,uint256,uint256,string,bytes)": {
        "notice": "Records newly redeemed tokens of a project."
      },
      "recordUsedAllowanceOf(uint256,uint256,uint256)": {
        "notice": "Records newly used allowance funds of a project."
      },
      "usedDistributionLimitOf(address,uint256,uint256)": {
        "notice": "The amount of funds that a project has distributed from its limit during the current funding cycle for each terminal, in terms of the distribution limit's currency."
      },
      "usedOverflowAllowanceOf(address,uint256,uint256)": {
        "notice": "The amount of funds that a project has used from its allowance during the current funding cycle configuration for each terminal, in terms of the overflow allowance's currency."
      }
    },
    "notice": "Manages all bookkeeping for inflows and outflows of funds from any ISingleTokenPaymentTerminal.",
    "version": 1
  },
  "storageLayout": {
    "storage": [
      {
        "astId": 773,
        "contract": "contracts/JBSingleTokenPaymentTerminalStore3_1_1.sol:JBSingleTokenPaymentTerminalStore3_1_1",
        "label": "_status",
        "offset": 0,
        "slot": "0",
        "type": "t_uint256"
      },
      {
        "astId": 19905,
        "contract": "contracts/JBSingleTokenPaymentTerminalStore3_1_1.sol:JBSingleTokenPaymentTerminalStore3_1_1",
        "label": "balanceOf",
        "offset": 0,
        "slot": "1",
        "type": "t_mapping(t_contract(IJBSingleTokenPaymentTerminal)34671,t_mapping(t_uint256,t_uint256))"
      },
      {
        "astId": 19916,
        "contract": "contracts/JBSingleTokenPaymentTerminalStore3_1_1.sol:JBSingleTokenPaymentTerminalStore3_1_1",
        "label": "usedDistributionLimitOf",
        "offset": 0,
        "slot": "2",
        "type": "t_mapping(t_contract(IJBSingleTokenPaymentTerminal)34671,t_mapping(t_uint256,t_mapping(t_uint256,t_uint256)))"
      },
      {
        "astId": 19927,
        "contract": "contracts/JBSingleTokenPaymentTerminalStore3_1_1.sol:JBSingleTokenPaymentTerminalStore3_1_1",
        "label": "usedOverflowAllowanceOf",
        "offset": 0,
        "slot": "3",
        "type": "t_mapping(t_contract(IJBSingleTokenPaymentTerminal)34671,t_mapping(t_uint256,t_mapping(t_uint256,t_uint256)))"
      }
    ],
    "types": {
      "t_contract(IJBSingleTokenPaymentTerminal)34671": {
        "encoding": "inplace",
        "label": "contract IJBSingleTokenPaymentTerminal",
        "numberOfBytes": "20"
      },
      "t_mapping(t_contract(IJBSingleTokenPaymentTerminal)34671,t_mapping(t_uint256,t_mapping(t_uint256,t_uint256)))": {
        "encoding": "mapping",
        "key": "t_contract(IJBSingleTokenPaymentTerminal)34671",
        "label": "mapping(contract IJBSingleTokenPaymentTerminal => mapping(uint256 => mapping(uint256 => uint256)))",
        "numberOfBytes": "32",
        "value": "t_mapping(t_uint256,t_mapping(t_uint256,t_uint256))"
      },
      "t_mapping(t_contract(IJBSingleTokenPaymentTerminal)34671,t_mapping(t_uint256,t_uint256))": {
        "encoding": "mapping",
        "key": "t_contract(IJBSingleTokenPaymentTerminal)34671",
        "label": "mapping(contract IJBSingleTokenPaymentTerminal => mapping(uint256 => uint256))",
        "numberOfBytes": "32",
        "value": "t_mapping(t_uint256,t_uint256)"
      },
      "t_mapping(t_uint256,t_mapping(t_uint256,t_uint256))": {
        "encoding": "mapping",
        "key": "t_uint256",
        "label": "mapping(uint256 => mapping(uint256 => uint256))",
        "numberOfBytes": "32",
        "value": "t_mapping(t_uint256,t_uint256)"
      },
      "t_mapping(t_uint256,t_uint256)": {
        "encoding": "mapping",
        "key": "t_uint256",
        "label": "mapping(uint256 => uint256)",
        "numberOfBytes": "32",
        "value": "t_uint256"
      },
      "t_uint256": {
        "encoding": "inplace",
        "label": "uint256",
        "numberOfBytes": "32"
      }
    }
  }
}