{
  "address": "0x696f8175E114C5C89248Fb254185Df3Df4cD03f3",
  "abi": [
    {
      "inputs": [
        {
          "internalType": "contract IJBOperatorStore",
          "name": "_operatorStore",
          "type": "address"
        },
        {
          "internalType": "contract IJBProjects",
          "name": "_projects",
          "type": "address"
        },
        {
          "internalType": "contract IJBDirectory",
          "name": "_directory",
          "type": "address"
        },
        {
          "internalType": "contract IJBFundingCycleStore",
          "name": "_fundingCycleStore",
          "type": "address"
        },
        {
          "internalType": "contract IJBTokenStore",
          "name": "_tokenStore",
          "type": "address"
        },
        {
          "internalType": "contract IJBSplitsStore",
          "name": "_splitsStore",
          "type": "address"
        }
      ],
      "stateMutability": "nonpayable",
      "type": "constructor"
    },
    {
      "inputs": [],
      "name": "BURN_PAUSED_AND_SENDER_NOT_VALID_TERMINAL_DELEGATE",
      "type": "error"
    },
    {
      "inputs": [],
      "name": "CANT_MIGRATE_TO_CURRENT_CONTROLLER",
      "type": "error"
    },
    {
      "inputs": [],
      "name": "FUNDING_CYCLE_ALREADY_LAUNCHED",
      "type": "error"
    },
    {
      "inputs": [],
      "name": "INVALID_BALLOT_REDEMPTION_RATE",
      "type": "error"
    },
    {
      "inputs": [],
      "name": "INVALID_DISTRIBUTION_LIMIT",
      "type": "error"
    },
    {
      "inputs": [],
      "name": "INVALID_DISTRIBUTION_LIMIT_CURRENCY",
      "type": "error"
    },
    {
      "inputs": [],
      "name": "INVALID_OVERFLOW_ALLOWANCE",
      "type": "error"
    },
    {
      "inputs": [],
      "name": "INVALID_OVERFLOW_ALLOWANCE_CURRENCY",
      "type": "error"
    },
    {
      "inputs": [],
      "name": "INVALID_REDEMPTION_RATE",
      "type": "error"
    },
    {
      "inputs": [],
      "name": "INVALID_RESERVED_RATE",
      "type": "error"
    },
    {
      "inputs": [],
      "name": "MIGRATION_NOT_ALLOWED",
      "type": "error"
    },
    {
      "inputs": [],
      "name": "MINT_NOT_ALLOWED_AND_NOT_TERMINAL_DELEGATE",
      "type": "error"
    },
    {
      "inputs": [],
      "name": "NOT_CURRENT_CONTROLLER",
      "type": "error"
    },
    {
      "inputs": [],
      "name": "NO_BURNABLE_TOKENS",
      "type": "error"
    },
    {
      "inputs": [],
      "name": "OVERFLOW_ALERT",
      "type": "error"
    },
    {
      "inputs": [
        {
          "internalType": "uint256",
          "name": "prod1",
          "type": "uint256"
        },
        {
          "internalType": "uint256",
          "name": "denominator",
          "type": "uint256"
        }
      ],
      "name": "PRBMath__MulDivOverflow",
      "type": "error"
    },
    {
      "inputs": [],
      "name": "UNAUTHORIZED",
      "type": "error"
    },
    {
      "inputs": [],
      "name": "ZERO_TOKENS_TO_MINT",
      "type": "error"
    },
    {
      "anonymous": false,
      "inputs": [
        {
          "indexed": true,
          "internalType": "address",
          "name": "holder",
          "type": "address"
        },
        {
          "indexed": true,
          "internalType": "uint256",
          "name": "projectId",
          "type": "uint256"
        },
        {
          "indexed": false,
          "internalType": "uint256",
          "name": "tokenCount",
          "type": "uint256"
        },
        {
          "indexed": false,
          "internalType": "string",
          "name": "memo",
          "type": "string"
        },
        {
          "indexed": false,
          "internalType": "address",
          "name": "caller",
          "type": "address"
        }
      ],
      "name": "BurnTokens",
      "type": "event"
    },
    {
      "anonymous": false,
      "inputs": [
        {
          "indexed": true,
          "internalType": "uint256",
          "name": "fundingCycleConfiguration",
          "type": "uint256"
        },
        {
          "indexed": true,
          "internalType": "uint256",
          "name": "fundingCycleNumber",
          "type": "uint256"
        },
        {
          "indexed": true,
          "internalType": "uint256",
          "name": "projectId",
          "type": "uint256"
        },
        {
          "indexed": false,
          "internalType": "address",
          "name": "beneficiary",
          "type": "address"
        },
        {
          "indexed": false,
          "internalType": "uint256",
          "name": "tokenCount",
          "type": "uint256"
        },
        {
          "indexed": false,
          "internalType": "uint256",
          "name": "beneficiaryTokenCount",
          "type": "uint256"
        },
        {
          "indexed": false,
          "internalType": "string",
          "name": "memo",
          "type": "string"
        },
        {
          "indexed": false,
          "internalType": "address",
          "name": "caller",
          "type": "address"
        }
      ],
      "name": "DistributeReservedTokens",
      "type": "event"
    },
    {
      "anonymous": false,
      "inputs": [
        {
          "indexed": true,
          "internalType": "uint256",
          "name": "projectId",
          "type": "uint256"
        },
        {
          "indexed": true,
          "internalType": "uint256",
          "name": "domain",
          "type": "uint256"
        },
        {
          "indexed": true,
          "internalType": "uint256",
          "name": "group",
          "type": "uint256"
        },
        {
          "components": [
            {
              "internalType": "bool",
              "name": "preferClaimed",
              "type": "bool"
            },
            {
              "internalType": "bool",
              "name": "preferAddToBalance",
              "type": "bool"
            },
            {
              "internalType": "uint256",
              "name": "percent",
              "type": "uint256"
            },
            {
              "internalType": "uint256",
              "name": "projectId",
              "type": "uint256"
            },
            {
              "internalType": "address payable",
              "name": "beneficiary",
              "type": "address"
            },
            {
              "internalType": "uint256",
              "name": "lockedUntil",
              "type": "uint256"
            },
            {
              "internalType": "contract IJBSplitAllocator",
              "name": "allocator",
              "type": "address"
            }
          ],
          "indexed": false,
          "internalType": "struct JBSplit",
          "name": "split",
          "type": "tuple"
        },
        {
          "indexed": false,
          "internalType": "uint256",
          "name": "tokenCount",
          "type": "uint256"
        },
        {
          "indexed": false,
          "internalType": "address",
          "name": "caller",
          "type": "address"
        }
      ],
      "name": "DistributeToReservedTokenSplit",
      "type": "event"
    },
    {
      "anonymous": false,
      "inputs": [
        {
          "indexed": false,
          "internalType": "uint256",
          "name": "configuration",
          "type": "uint256"
        },
        {
          "indexed": false,
          "internalType": "uint256",
          "name": "projectId",
          "type": "uint256"
        },
        {
          "indexed": false,
          "internalType": "string",
          "name": "memo",
          "type": "string"
        },
        {
          "indexed": false,
          "internalType": "address",
          "name": "caller",
          "type": "address"
        }
      ],
      "name": "LaunchFundingCycles",
      "type": "event"
    },
    {
      "anonymous": false,
      "inputs": [
        {
          "indexed": false,
          "internalType": "uint256",
          "name": "configuration",
          "type": "uint256"
        },
        {
          "indexed": false,
          "internalType": "uint256",
          "name": "projectId",
          "type": "uint256"
        },
        {
          "indexed": false,
          "internalType": "string",
          "name": "memo",
          "type": "string"
        },
        {
          "indexed": false,
          "internalType": "address",
          "name": "caller",
          "type": "address"
        }
      ],
      "name": "LaunchProject",
      "type": "event"
    },
    {
      "anonymous": false,
      "inputs": [
        {
          "indexed": true,
          "internalType": "uint256",
          "name": "projectId",
          "type": "uint256"
        },
        {
          "indexed": false,
          "internalType": "contract IJBMigratable",
          "name": "to",
          "type": "address"
        },
        {
          "indexed": false,
          "internalType": "address",
          "name": "caller",
          "type": "address"
        }
      ],
      "name": "Migrate",
      "type": "event"
    },
    {
      "anonymous": false,
      "inputs": [
        {
          "indexed": true,
          "internalType": "address",
          "name": "beneficiary",
          "type": "address"
        },
        {
          "indexed": true,
          "internalType": "uint256",
          "name": "projectId",
          "type": "uint256"
        },
        {
          "indexed": false,
          "internalType": "uint256",
          "name": "tokenCount",
          "type": "uint256"
        },
        {
          "indexed": false,
          "internalType": "uint256",
          "name": "beneficiaryTokenCount",
          "type": "uint256"
        },
        {
          "indexed": false,
          "internalType": "string",
          "name": "memo",
          "type": "string"
        },
        {
          "indexed": false,
          "internalType": "uint256",
          "name": "reservedRate",
          "type": "uint256"
        },
        {
          "indexed": false,
          "internalType": "address",
          "name": "caller",
          "type": "address"
        }
      ],
      "name": "MintTokens",
      "type": "event"
    },
    {
      "anonymous": false,
      "inputs": [
        {
          "indexed": true,
          "internalType": "uint256",
          "name": "projectId",
          "type": "uint256"
        },
        {
          "indexed": false,
          "internalType": "address",
          "name": "from",
          "type": "address"
        },
        {
          "indexed": false,
          "internalType": "address",
          "name": "caller",
          "type": "address"
        }
      ],
      "name": "PrepMigration",
      "type": "event"
    },
    {
      "anonymous": false,
      "inputs": [
        {
          "indexed": false,
          "internalType": "uint256",
          "name": "configuration",
          "type": "uint256"
        },
        {
          "indexed": false,
          "internalType": "uint256",
          "name": "projectId",
          "type": "uint256"
        },
        {
          "indexed": false,
          "internalType": "string",
          "name": "memo",
          "type": "string"
        },
        {
          "indexed": false,
          "internalType": "address",
          "name": "caller",
          "type": "address"
        }
      ],
      "name": "ReconfigureFundingCycles",
      "type": "event"
    },
    {
      "anonymous": false,
      "inputs": [
        {
          "indexed": true,
          "internalType": "uint256",
          "name": "fundingCycleConfiguration",
          "type": "uint256"
        },
        {
          "indexed": true,
          "internalType": "uint256",
          "name": "fundingCycleNumber",
          "type": "uint256"
        },
        {
          "indexed": true,
          "internalType": "uint256",
          "name": "projectId",
          "type": "uint256"
        },
        {
          "components": [
            {
              "internalType": "contract IJBPaymentTerminal",
              "name": "terminal",
              "type": "address"
            },
            {
              "internalType": "address",
              "name": "token",
              "type": "address"
            },
            {
              "internalType": "uint256",
              "name": "distributionLimit",
              "type": "uint256"
            },
            {
              "internalType": "uint256",
              "name": "distributionLimitCurrency",
              "type": "uint256"
            },
            {
              "internalType": "uint256",
              "name": "overflowAllowance",
              "type": "uint256"
            },
            {
              "internalType": "uint256",
              "name": "overflowAllowanceCurrency",
              "type": "uint256"
            }
          ],
          "indexed": false,
          "internalType": "struct JBFundAccessConstraints",
          "name": "constraints",
          "type": "tuple"
        },
        {
          "indexed": false,
          "internalType": "address",
          "name": "caller",
          "type": "address"
        }
      ],
      "name": "SetFundAccessConstraints",
      "type": "event"
    },
    {
      "inputs": [
        {
          "internalType": "address",
          "name": "_holder",
          "type": "address"
        },
        {
          "internalType": "uint256",
          "name": "_projectId",
          "type": "uint256"
        },
        {
          "internalType": "uint256",
          "name": "_tokenCount",
          "type": "uint256"
        },
        {
          "internalType": "string",
          "name": "_memo",
          "type": "string"
        },
        {
          "internalType": "bool",
          "name": "_preferClaimedTokens",
          "type": "bool"
        }
      ],
      "name": "burnTokensOf",
      "outputs": [],
      "stateMutability": "nonpayable",
      "type": "function"
    },
    {
      "inputs": [
        {
          "internalType": "uint256",
          "name": "_projectId",
          "type": "uint256"
        }
      ],
      "name": "currentFundingCycleOf",
      "outputs": [
        {
          "components": [
            {
              "internalType": "uint256",
              "name": "number",
              "type": "uint256"
            },
            {
              "internalType": "uint256",
              "name": "configuration",
              "type": "uint256"
            },
            {
              "internalType": "uint256",
              "name": "basedOn",
              "type": "uint256"
            },
            {
              "internalType": "uint256",
              "name": "start",
              "type": "uint256"
            },
            {
              "internalType": "uint256",
              "name": "duration",
              "type": "uint256"
            },
            {
              "internalType": "uint256",
              "name": "weight",
              "type": "uint256"
            },
            {
              "internalType": "uint256",
              "name": "discountRate",
              "type": "uint256"
            },
            {
              "internalType": "contract IJBFundingCycleBallot",
              "name": "ballot",
              "type": "address"
            },
            {
              "internalType": "uint256",
              "name": "metadata",
              "type": "uint256"
            }
          ],
          "internalType": "struct JBFundingCycle",
          "name": "fundingCycle",
          "type": "tuple"
        },
        {
          "components": [
            {
              "components": [
                {
                  "internalType": "bool",
                  "name": "allowSetTerminals",
                  "type": "bool"
                },
                {
                  "internalType": "bool",
                  "name": "allowSetController",
                  "type": "bool"
                },
                {
                  "internalType": "bool",
                  "name": "pauseTransfers",
                  "type": "bool"
                }
              ],
              "internalType": "struct JBGlobalFundingCycleMetadata",
              "name": "global",
              "type": "tuple"
            },
            {
              "internalType": "uint256",
              "name": "reservedRate",
              "type": "uint256"
            },
            {
              "internalType": "uint256",
              "name": "redemptionRate",
              "type": "uint256"
            },
            {
              "internalType": "uint256",
              "name": "ballotRedemptionRate",
              "type": "uint256"
            },
            {
              "internalType": "bool",
              "name": "pausePay",
              "type": "bool"
            },
            {
              "internalType": "bool",
              "name": "pauseDistributions",
              "type": "bool"
            },
            {
              "internalType": "bool",
              "name": "pauseRedeem",
              "type": "bool"
            },
            {
              "internalType": "bool",
              "name": "pauseBurn",
              "type": "bool"
            },
            {
              "internalType": "bool",
              "name": "allowMinting",
              "type": "bool"
            },
            {
              "internalType": "bool",
              "name": "allowTerminalMigration",
              "type": "bool"
            },
            {
              "internalType": "bool",
              "name": "allowControllerMigration",
              "type": "bool"
            },
            {
              "internalType": "bool",
              "name": "holdFees",
              "type": "bool"
            },
            {
              "internalType": "bool",
              "name": "preferClaimedTokenOverride",
              "type": "bool"
            },
            {
              "internalType": "bool",
              "name": "useTotalOverflowForRedemptions",
              "type": "bool"
            },
            {
              "internalType": "bool",
              "name": "useDataSourceForPay",
              "type": "bool"
            },
            {
              "internalType": "bool",
              "name": "useDataSourceForRedeem",
              "type": "bool"
            },
            {
              "internalType": "address",
              "name": "dataSource",
              "type": "address"
            },
            {
              "internalType": "uint256",
              "name": "metadata",
              "type": "uint256"
            }
          ],
          "internalType": "struct JBFundingCycleMetadata",
          "name": "metadata",
          "type": "tuple"
        }
      ],
      "stateMutability": "view",
      "type": "function"
    },
    {
      "inputs": [],
      "name": "directory",
      "outputs": [
        {
          "internalType": "contract IJBDirectory",
          "name": "",
          "type": "address"
        }
      ],
      "stateMutability": "view",
      "type": "function"
    },
    {
      "inputs": [
        {
          "internalType": "uint256",
          "name": "_projectId",
          "type": "uint256"
        },
        {
          "internalType": "string",
          "name": "_memo",
          "type": "string"
        }
      ],
      "name": "distributeReservedTokensOf",
      "outputs": [
        {
          "internalType": "uint256",
          "name": "",
          "type": "uint256"
        }
      ],
      "stateMutability": "nonpayable",
      "type": "function"
    },
    {
      "inputs": [
        {
          "internalType": "uint256",
          "name": "_projectId",
          "type": "uint256"
        },
        {
          "internalType": "uint256",
          "name": "_configuration",
          "type": "uint256"
        },
        {
          "internalType": "contract IJBPaymentTerminal",
          "name": "_terminal",
          "type": "address"
        },
        {
          "internalType": "address",
          "name": "_token",
          "type": "address"
        }
      ],
      "name": "distributionLimitOf",
      "outputs": [
        {
          "internalType": "uint256",
          "name": "",
          "type": "uint256"
        },
        {
          "internalType": "uint256",
          "name": "",
          "type": "uint256"
        }
      ],
      "stateMutability": "view",
      "type": "function"
    },
    {
      "inputs": [],
      "name": "fundingCycleStore",
      "outputs": [
        {
          "internalType": "contract IJBFundingCycleStore",
          "name": "",
          "type": "address"
        }
      ],
      "stateMutability": "view",
      "type": "function"
    },
    {
      "inputs": [
        {
          "internalType": "uint256",
          "name": "_projectId",
          "type": "uint256"
        },
        {
          "internalType": "uint256",
          "name": "_configuration",
          "type": "uint256"
        }
      ],
      "name": "getFundingCycleOf",
      "outputs": [
        {
          "components": [
            {
              "internalType": "uint256",
              "name": "number",
              "type": "uint256"
            },
            {
              "internalType": "uint256",
              "name": "configuration",
              "type": "uint256"
            },
            {
              "internalType": "uint256",
              "name": "basedOn",
              "type": "uint256"
            },
            {
              "internalType": "uint256",
              "name": "start",
              "type": "uint256"
            },
            {
              "internalType": "uint256",
              "name": "duration",
              "type": "uint256"
            },
            {
              "internalType": "uint256",
              "name": "weight",
              "type": "uint256"
            },
            {
              "internalType": "uint256",
              "name": "discountRate",
              "type": "uint256"
            },
            {
              "internalType": "contract IJBFundingCycleBallot",
              "name": "ballot",
              "type": "address"
            },
            {
              "internalType": "uint256",
              "name": "metadata",
              "type": "uint256"
            }
          ],
          "internalType": "struct JBFundingCycle",
          "name": "fundingCycle",
          "type": "tuple"
        },
        {
          "components": [
            {
              "components": [
                {
                  "internalType": "bool",
                  "name": "allowSetTerminals",
                  "type": "bool"
                },
                {
                  "internalType": "bool",
                  "name": "allowSetController",
                  "type": "bool"
                },
                {
                  "internalType": "bool",
                  "name": "pauseTransfers",
                  "type": "bool"
                }
              ],
              "internalType": "struct JBGlobalFundingCycleMetadata",
              "name": "global",
              "type": "tuple"
            },
            {
              "internalType": "uint256",
              "name": "reservedRate",
              "type": "uint256"
            },
            {
              "internalType": "uint256",
              "name": "redemptionRate",
              "type": "uint256"
            },
            {
              "internalType": "uint256",
              "name": "ballotRedemptionRate",
              "type": "uint256"
            },
            {
              "internalType": "bool",
              "name": "pausePay",
              "type": "bool"
            },
            {
              "internalType": "bool",
              "name": "pauseDistributions",
              "type": "bool"
            },
            {
              "internalType": "bool",
              "name": "pauseRedeem",
              "type": "bool"
            },
            {
              "internalType": "bool",
              "name": "pauseBurn",
              "type": "bool"
            },
            {
              "internalType": "bool",
              "name": "allowMinting",
              "type": "bool"
            },
            {
              "internalType": "bool",
              "name": "allowTerminalMigration",
              "type": "bool"
            },
            {
              "internalType": "bool",
              "name": "allowControllerMigration",
              "type": "bool"
            },
            {
              "internalType": "bool",
              "name": "holdFees",
              "type": "bool"
            },
            {
              "internalType": "bool",
              "name": "preferClaimedTokenOverride",
              "type": "bool"
            },
            {
              "internalType": "bool",
              "name": "useTotalOverflowForRedemptions",
              "type": "bool"
            },
            {
              "internalType": "bool",
              "name": "useDataSourceForPay",
              "type": "bool"
            },
            {
              "internalType": "bool",
              "name": "useDataSourceForRedeem",
              "type": "bool"
            },
            {
              "internalType": "address",
              "name": "dataSource",
              "type": "address"
            },
            {
              "internalType": "uint256",
              "name": "metadata",
              "type": "uint256"
            }
          ],
          "internalType": "struct JBFundingCycleMetadata",
          "name": "metadata",
          "type": "tuple"
        }
      ],
      "stateMutability": "view",
      "type": "function"
    },
    {
      "inputs": [
        {
          "internalType": "uint256",
          "name": "_projectId",
          "type": "uint256"
        }
      ],
      "name": "latestConfiguredFundingCycleOf",
      "outputs": [
        {
          "components": [
            {
              "internalType": "uint256",
              "name": "number",
              "type": "uint256"
            },
            {
              "internalType": "uint256",
              "name": "configuration",
              "type": "uint256"
            },
            {
              "internalType": "uint256",
              "name": "basedOn",
              "type": "uint256"
            },
            {
              "internalType": "uint256",
              "name": "start",
              "type": "uint256"
            },
            {
              "internalType": "uint256",
              "name": "duration",
              "type": "uint256"
            },
            {
              "internalType": "uint256",
              "name": "weight",
              "type": "uint256"
            },
            {
              "internalType": "uint256",
              "name": "discountRate",
              "type": "uint256"
            },
            {
              "internalType": "contract IJBFundingCycleBallot",
              "name": "ballot",
              "type": "address"
            },
            {
              "internalType": "uint256",
              "name": "metadata",
              "type": "uint256"
            }
          ],
          "internalType": "struct JBFundingCycle",
          "name": "fundingCycle",
          "type": "tuple"
        },
        {
          "components": [
            {
              "components": [
                {
                  "internalType": "bool",
                  "name": "allowSetTerminals",
                  "type": "bool"
                },
                {
                  "internalType": "bool",
                  "name": "allowSetController",
                  "type": "bool"
                },
                {
                  "internalType": "bool",
                  "name": "pauseTransfers",
                  "type": "bool"
                }
              ],
              "internalType": "struct JBGlobalFundingCycleMetadata",
              "name": "global",
              "type": "tuple"
            },
            {
              "internalType": "uint256",
              "name": "reservedRate",
              "type": "uint256"
            },
            {
              "internalType": "uint256",
              "name": "redemptionRate",
              "type": "uint256"
            },
            {
              "internalType": "uint256",
              "name": "ballotRedemptionRate",
              "type": "uint256"
            },
            {
              "internalType": "bool",
              "name": "pausePay",
              "type": "bool"
            },
            {
              "internalType": "bool",
              "name": "pauseDistributions",
              "type": "bool"
            },
            {
              "internalType": "bool",
              "name": "pauseRedeem",
              "type": "bool"
            },
            {
              "internalType": "bool",
              "name": "pauseBurn",
              "type": "bool"
            },
            {
              "internalType": "bool",
              "name": "allowMinting",
              "type": "bool"
            },
            {
              "internalType": "bool",
              "name": "allowTerminalMigration",
              "type": "bool"
            },
            {
              "internalType": "bool",
              "name": "allowControllerMigration",
              "type": "bool"
            },
            {
              "internalType": "bool",
              "name": "holdFees",
              "type": "bool"
            },
            {
              "internalType": "bool",
              "name": "preferClaimedTokenOverride",
              "type": "bool"
            },
            {
              "internalType": "bool",
              "name": "useTotalOverflowForRedemptions",
              "type": "bool"
            },
            {
              "internalType": "bool",
              "name": "useDataSourceForPay",
              "type": "bool"
            },
            {
              "internalType": "bool",
              "name": "useDataSourceForRedeem",
              "type": "bool"
            },
            {
              "internalType": "address",
              "name": "dataSource",
              "type": "address"
            },
            {
              "internalType": "uint256",
              "name": "metadata",
              "type": "uint256"
            }
          ],
          "internalType": "struct JBFundingCycleMetadata",
          "name": "metadata",
          "type": "tuple"
        },
        {
          "internalType": "enum JBBallotState",
          "name": "ballotState",
          "type": "uint8"
        }
      ],
      "stateMutability": "view",
      "type": "function"
    },
    {
      "inputs": [
        {
          "internalType": "uint256",
          "name": "_projectId",
          "type": "uint256"
        },
        {
          "components": [
            {
              "internalType": "uint256",
              "name": "duration",
              "type": "uint256"
            },
            {
              "internalType": "uint256",
              "name": "weight",
              "type": "uint256"
            },
            {
              "internalType": "uint256",
              "name": "discountRate",
              "type": "uint256"
            },
            {
              "internalType": "contract IJBFundingCycleBallot",
              "name": "ballot",
              "type": "address"
            }
          ],
          "internalType": "struct JBFundingCycleData",
          "name": "_data",
          "type": "tuple"
        },
        {
          "components": [
            {
              "components": [
                {
                  "internalType": "bool",
                  "name": "allowSetTerminals",
                  "type": "bool"
                },
                {
                  "internalType": "bool",
                  "name": "allowSetController",
                  "type": "bool"
                },
                {
                  "internalType": "bool",
                  "name": "pauseTransfers",
                  "type": "bool"
                }
              ],
              "internalType": "struct JBGlobalFundingCycleMetadata",
              "name": "global",
              "type": "tuple"
            },
            {
              "internalType": "uint256",
              "name": "reservedRate",
              "type": "uint256"
            },
            {
              "internalType": "uint256",
              "name": "redemptionRate",
              "type": "uint256"
            },
            {
              "internalType": "uint256",
              "name": "ballotRedemptionRate",
              "type": "uint256"
            },
            {
              "internalType": "bool",
              "name": "pausePay",
              "type": "bool"
            },
            {
              "internalType": "bool",
              "name": "pauseDistributions",
              "type": "bool"
            },
            {
              "internalType": "bool",
              "name": "pauseRedeem",
              "type": "bool"
            },
            {
              "internalType": "bool",
              "name": "pauseBurn",
              "type": "bool"
            },
            {
              "internalType": "bool",
              "name": "allowMinting",
              "type": "bool"
            },
            {
              "internalType": "bool",
              "name": "allowTerminalMigration",
              "type": "bool"
            },
            {
              "internalType": "bool",
              "name": "allowControllerMigration",
              "type": "bool"
            },
            {
              "internalType": "bool",
              "name": "holdFees",
              "type": "bool"
            },
            {
              "internalType": "bool",
              "name": "preferClaimedTokenOverride",
              "type": "bool"
            },
            {
              "internalType": "bool",
              "name": "useTotalOverflowForRedemptions",
              "type": "bool"
            },
            {
              "internalType": "bool",
              "name": "useDataSourceForPay",
              "type": "bool"
            },
            {
              "internalType": "bool",
              "name": "useDataSourceForRedeem",
              "type": "bool"
            },
            {
              "internalType": "address",
              "name": "dataSource",
              "type": "address"
            },
            {
              "internalType": "uint256",
              "name": "metadata",
              "type": "uint256"
            }
          ],
          "internalType": "struct JBFundingCycleMetadata",
          "name": "_metadata",
          "type": "tuple"
        },
        {
          "internalType": "uint256",
          "name": "_mustStartAtOrAfter",
          "type": "uint256"
        },
        {
          "components": [
            {
              "internalType": "uint256",
              "name": "group",
              "type": "uint256"
            },
            {
              "components": [
                {
                  "internalType": "bool",
                  "name": "preferClaimed",
                  "type": "bool"
                },
                {
                  "internalType": "bool",
                  "name": "preferAddToBalance",
                  "type": "bool"
                },
                {
                  "internalType": "uint256",
                  "name": "percent",
                  "type": "uint256"
                },
                {
                  "internalType": "uint256",
                  "name": "projectId",
                  "type": "uint256"
                },
                {
                  "internalType": "address payable",
                  "name": "beneficiary",
                  "type": "address"
                },
                {
                  "internalType": "uint256",
                  "name": "lockedUntil",
                  "type": "uint256"
                },
                {
                  "internalType": "contract IJBSplitAllocator",
                  "name": "allocator",
                  "type": "address"
                }
              ],
              "internalType": "struct JBSplit[]",
              "name": "splits",
              "type": "tuple[]"
            }
          ],
          "internalType": "struct JBGroupedSplits[]",
          "name": "_groupedSplits",
          "type": "tuple[]"
        },
        {
          "components": [
            {
              "internalType": "contract IJBPaymentTerminal",
              "name": "terminal",
              "type": "address"
            },
            {
              "internalType": "address",
              "name": "token",
              "type": "address"
            },
            {
              "internalType": "uint256",
              "name": "distributionLimit",
              "type": "uint256"
            },
            {
              "internalType": "uint256",
              "name": "distributionLimitCurrency",
              "type": "uint256"
            },
            {
              "internalType": "uint256",
              "name": "overflowAllowance",
              "type": "uint256"
            },
            {
              "internalType": "uint256",
              "name": "overflowAllowanceCurrency",
              "type": "uint256"
            }
          ],
          "internalType": "struct JBFundAccessConstraints[]",
          "name": "_fundAccessConstraints",
          "type": "tuple[]"
        },
        {
          "internalType": "contract IJBPaymentTerminal[]",
          "name": "_terminals",
          "type": "address[]"
        },
        {
          "internalType": "string",
          "name": "_memo",
          "type": "string"
        }
      ],
      "name": "launchFundingCyclesFor",
      "outputs": [
        {
          "internalType": "uint256",
          "name": "configuration",
          "type": "uint256"
        }
      ],
      "stateMutability": "nonpayable",
      "type": "function"
    },
    {
      "inputs": [
        {
          "internalType": "address",
          "name": "_owner",
          "type": "address"
        },
        {
          "components": [
            {
              "internalType": "string",
              "name": "content",
              "type": "string"
            },
            {
              "internalType": "uint256",
              "name": "domain",
              "type": "uint256"
            }
          ],
          "internalType": "struct JBProjectMetadata",
          "name": "_projectMetadata",
          "type": "tuple"
        },
        {
          "components": [
            {
              "internalType": "uint256",
              "name": "duration",
              "type": "uint256"
            },
            {
              "internalType": "uint256",
              "name": "weight",
              "type": "uint256"
            },
            {
              "internalType": "uint256",
              "name": "discountRate",
              "type": "uint256"
            },
            {
              "internalType": "contract IJBFundingCycleBallot",
              "name": "ballot",
              "type": "address"
            }
          ],
          "internalType": "struct JBFundingCycleData",
          "name": "_data",
          "type": "tuple"
        },
        {
          "components": [
            {
              "components": [
                {
                  "internalType": "bool",
                  "name": "allowSetTerminals",
                  "type": "bool"
                },
                {
                  "internalType": "bool",
                  "name": "allowSetController",
                  "type": "bool"
                },
                {
                  "internalType": "bool",
                  "name": "pauseTransfers",
                  "type": "bool"
                }
              ],
              "internalType": "struct JBGlobalFundingCycleMetadata",
              "name": "global",
              "type": "tuple"
            },
            {
              "internalType": "uint256",
              "name": "reservedRate",
              "type": "uint256"
            },
            {
              "internalType": "uint256",
              "name": "redemptionRate",
              "type": "uint256"
            },
            {
              "internalType": "uint256",
              "name": "ballotRedemptionRate",
              "type": "uint256"
            },
            {
              "internalType": "bool",
              "name": "pausePay",
              "type": "bool"
            },
            {
              "internalType": "bool",
              "name": "pauseDistributions",
              "type": "bool"
            },
            {
              "internalType": "bool",
              "name": "pauseRedeem",
              "type": "bool"
            },
            {
              "internalType": "bool",
              "name": "pauseBurn",
              "type": "bool"
            },
            {
              "internalType": "bool",
              "name": "allowMinting",
              "type": "bool"
            },
            {
              "internalType": "bool",
              "name": "allowTerminalMigration",
              "type": "bool"
            },
            {
              "internalType": "bool",
              "name": "allowControllerMigration",
              "type": "bool"
            },
            {
              "internalType": "bool",
              "name": "holdFees",
              "type": "bool"
            },
            {
              "internalType": "bool",
              "name": "preferClaimedTokenOverride",
              "type": "bool"
            },
            {
              "internalType": "bool",
              "name": "useTotalOverflowForRedemptions",
              "type": "bool"
            },
            {
              "internalType": "bool",
              "name": "useDataSourceForPay",
              "type": "bool"
            },
            {
              "internalType": "bool",
              "name": "useDataSourceForRedeem",
              "type": "bool"
            },
            {
              "internalType": "address",
              "name": "dataSource",
              "type": "address"
            },
            {
              "internalType": "uint256",
              "name": "metadata",
              "type": "uint256"
            }
          ],
          "internalType": "struct JBFundingCycleMetadata",
          "name": "_metadata",
          "type": "tuple"
        },
        {
          "internalType": "uint256",
          "name": "_mustStartAtOrAfter",
          "type": "uint256"
        },
        {
          "components": [
            {
              "internalType": "uint256",
              "name": "group",
              "type": "uint256"
            },
            {
              "components": [
                {
                  "internalType": "bool",
                  "name": "preferClaimed",
                  "type": "bool"
                },
                {
                  "internalType": "bool",
                  "name": "preferAddToBalance",
                  "type": "bool"
                },
                {
                  "internalType": "uint256",
                  "name": "percent",
                  "type": "uint256"
                },
                {
                  "internalType": "uint256",
                  "name": "projectId",
                  "type": "uint256"
                },
                {
                  "internalType": "address payable",
                  "name": "beneficiary",
                  "type": "address"
                },
                {
                  "internalType": "uint256",
                  "name": "lockedUntil",
                  "type": "uint256"
                },
                {
                  "internalType": "contract IJBSplitAllocator",
                  "name": "allocator",
                  "type": "address"
                }
              ],
              "internalType": "struct JBSplit[]",
              "name": "splits",
              "type": "tuple[]"
            }
          ],
          "internalType": "struct JBGroupedSplits[]",
          "name": "_groupedSplits",
          "type": "tuple[]"
        },
        {
          "components": [
            {
              "internalType": "contract IJBPaymentTerminal",
              "name": "terminal",
              "type": "address"
            },
            {
              "internalType": "address",
              "name": "token",
              "type": "address"
            },
            {
              "internalType": "uint256",
              "name": "distributionLimit",
              "type": "uint256"
            },
            {
              "internalType": "uint256",
              "name": "distributionLimitCurrency",
              "type": "uint256"
            },
            {
              "internalType": "uint256",
              "name": "overflowAllowance",
              "type": "uint256"
            },
            {
              "internalType": "uint256",
              "name": "overflowAllowanceCurrency",
              "type": "uint256"
            }
          ],
          "internalType": "struct JBFundAccessConstraints[]",
          "name": "_fundAccessConstraints",
          "type": "tuple[]"
        },
        {
          "internalType": "contract IJBPaymentTerminal[]",
          "name": "_terminals",
          "type": "address[]"
        },
        {
          "internalType": "string",
          "name": "_memo",
          "type": "string"
        }
      ],
      "name": "launchProjectFor",
      "outputs": [
        {
          "internalType": "uint256",
          "name": "projectId",
          "type": "uint256"
        }
      ],
      "stateMutability": "nonpayable",
      "type": "function"
    },
    {
      "inputs": [
        {
          "internalType": "uint256",
          "name": "_projectId",
          "type": "uint256"
        },
        {
          "internalType": "contract IJBMigratable",
          "name": "_to",
          "type": "address"
        }
      ],
      "name": "migrate",
      "outputs": [],
      "stateMutability": "nonpayable",
      "type": "function"
    },
    {
      "inputs": [
        {
          "internalType": "uint256",
          "name": "_projectId",
          "type": "uint256"
        },
        {
          "internalType": "uint256",
          "name": "_tokenCount",
          "type": "uint256"
        },
        {
          "internalType": "address",
          "name": "_beneficiary",
          "type": "address"
        },
        {
          "internalType": "string",
          "name": "_memo",
          "type": "string"
        },
        {
          "internalType": "bool",
          "name": "_preferClaimedTokens",
          "type": "bool"
        },
        {
          "internalType": "bool",
          "name": "_useReservedRate",
          "type": "bool"
        }
      ],
      "name": "mintTokensOf",
      "outputs": [
        {
          "internalType": "uint256",
          "name": "beneficiaryTokenCount",
          "type": "uint256"
        }
      ],
      "stateMutability": "nonpayable",
      "type": "function"
    },
    {
      "inputs": [],
      "name": "operatorStore",
      "outputs": [
        {
          "internalType": "contract IJBOperatorStore",
          "name": "",
          "type": "address"
        }
      ],
      "stateMutability": "view",
      "type": "function"
    },
    {
      "inputs": [
        {
          "internalType": "uint256",
          "name": "_projectId",
          "type": "uint256"
        },
        {
          "internalType": "uint256",
          "name": "_configuration",
          "type": "uint256"
        },
        {
          "internalType": "contract IJBPaymentTerminal",
          "name": "_terminal",
          "type": "address"
        },
        {
          "internalType": "address",
          "name": "_token",
          "type": "address"
        }
      ],
      "name": "overflowAllowanceOf",
      "outputs": [
        {
          "internalType": "uint256",
          "name": "",
          "type": "uint256"
        },
        {
          "internalType": "uint256",
          "name": "",
          "type": "uint256"
        }
      ],
      "stateMutability": "view",
      "type": "function"
    },
    {
      "inputs": [
        {
          "internalType": "uint256",
          "name": "_projectId",
          "type": "uint256"
        },
        {
          "internalType": "address",
          "name": "_from",
          "type": "address"
        }
      ],
      "name": "prepForMigrationOf",
      "outputs": [],
      "stateMutability": "nonpayable",
      "type": "function"
    },
    {
      "inputs": [],
      "name": "projects",
      "outputs": [
        {
          "internalType": "contract IJBProjects",
          "name": "",
          "type": "address"
        }
      ],
      "stateMutability": "view",
      "type": "function"
    },
    {
      "inputs": [
        {
          "internalType": "uint256",
          "name": "_projectId",
          "type": "uint256"
        }
      ],
      "name": "queuedFundingCycleOf",
      "outputs": [
        {
          "components": [
            {
              "internalType": "uint256",
              "name": "number",
              "type": "uint256"
            },
            {
              "internalType": "uint256",
              "name": "configuration",
              "type": "uint256"
            },
            {
              "internalType": "uint256",
              "name": "basedOn",
              "type": "uint256"
            },
            {
              "internalType": "uint256",
              "name": "start",
              "type": "uint256"
            },
            {
              "internalType": "uint256",
              "name": "duration",
              "type": "uint256"
            },
            {
              "internalType": "uint256",
              "name": "weight",
              "type": "uint256"
            },
            {
              "internalType": "uint256",
              "name": "discountRate",
              "type": "uint256"
            },
            {
              "internalType": "contract IJBFundingCycleBallot",
              "name": "ballot",
              "type": "address"
            },
            {
              "internalType": "uint256",
              "name": "metadata",
              "type": "uint256"
            }
          ],
          "internalType": "struct JBFundingCycle",
          "name": "fundingCycle",
          "type": "tuple"
        },
        {
          "components": [
            {
              "components": [
                {
                  "internalType": "bool",
                  "name": "allowSetTerminals",
                  "type": "bool"
                },
                {
                  "internalType": "bool",
                  "name": "allowSetController",
                  "type": "bool"
                },
                {
                  "internalType": "bool",
                  "name": "pauseTransfers",
                  "type": "bool"
                }
              ],
              "internalType": "struct JBGlobalFundingCycleMetadata",
              "name": "global",
              "type": "tuple"
            },
            {
              "internalType": "uint256",
              "name": "reservedRate",
              "type": "uint256"
            },
            {
              "internalType": "uint256",
              "name": "redemptionRate",
              "type": "uint256"
            },
            {
              "internalType": "uint256",
              "name": "ballotRedemptionRate",
              "type": "uint256"
            },
            {
              "internalType": "bool",
              "name": "pausePay",
              "type": "bool"
            },
            {
              "internalType": "bool",
              "name": "pauseDistributions",
              "type": "bool"
            },
            {
              "internalType": "bool",
              "name": "pauseRedeem",
              "type": "bool"
            },
            {
              "internalType": "bool",
              "name": "pauseBurn",
              "type": "bool"
            },
            {
              "internalType": "bool",
              "name": "allowMinting",
              "type": "bool"
            },
            {
              "internalType": "bool",
              "name": "allowTerminalMigration",
              "type": "bool"
            },
            {
              "internalType": "bool",
              "name": "allowControllerMigration",
              "type": "bool"
            },
            {
              "internalType": "bool",
              "name": "holdFees",
              "type": "bool"
            },
            {
              "internalType": "bool",
              "name": "preferClaimedTokenOverride",
              "type": "bool"
            },
            {
              "internalType": "bool",
              "name": "useTotalOverflowForRedemptions",
              "type": "bool"
            },
            {
              "internalType": "bool",
              "name": "useDataSourceForPay",
              "type": "bool"
            },
            {
              "internalType": "bool",
              "name": "useDataSourceForRedeem",
              "type": "bool"
            },
            {
              "internalType": "address",
              "name": "dataSource",
              "type": "address"
            },
            {
              "internalType": "uint256",
              "name": "metadata",
              "type": "uint256"
            }
          ],
          "internalType": "struct JBFundingCycleMetadata",
          "name": "metadata",
          "type": "tuple"
        }
      ],
      "stateMutability": "view",
      "type": "function"
    },
    {
      "inputs": [
        {
          "internalType": "uint256",
          "name": "_projectId",
          "type": "uint256"
        },
        {
          "components": [
            {
              "internalType": "uint256",
              "name": "duration",
              "type": "uint256"
            },
            {
              "internalType": "uint256",
              "name": "weight",
              "type": "uint256"
            },
            {
              "internalType": "uint256",
              "name": "discountRate",
              "type": "uint256"
            },
            {
              "internalType": "contract IJBFundingCycleBallot",
              "name": "ballot",
              "type": "address"
            }
          ],
          "internalType": "struct JBFundingCycleData",
          "name": "_data",
          "type": "tuple"
        },
        {
          "components": [
            {
              "components": [
                {
                  "internalType": "bool",
                  "name": "allowSetTerminals",
                  "type": "bool"
                },
                {
                  "internalType": "bool",
                  "name": "allowSetController",
                  "type": "bool"
                },
                {
                  "internalType": "bool",
                  "name": "pauseTransfers",
                  "type": "bool"
                }
              ],
              "internalType": "struct JBGlobalFundingCycleMetadata",
              "name": "global",
              "type": "tuple"
            },
            {
              "internalType": "uint256",
              "name": "reservedRate",
              "type": "uint256"
            },
            {
              "internalType": "uint256",
              "name": "redemptionRate",
              "type": "uint256"
            },
            {
              "internalType": "uint256",
              "name": "ballotRedemptionRate",
              "type": "uint256"
            },
            {
              "internalType": "bool",
              "name": "pausePay",
              "type": "bool"
            },
            {
              "internalType": "bool",
              "name": "pauseDistributions",
              "type": "bool"
            },
            {
              "internalType": "bool",
              "name": "pauseRedeem",
              "type": "bool"
            },
            {
              "internalType": "bool",
              "name": "pauseBurn",
              "type": "bool"
            },
            {
              "internalType": "bool",
              "name": "allowMinting",
              "type": "bool"
            },
            {
              "internalType": "bool",
              "name": "allowTerminalMigration",
              "type": "bool"
            },
            {
              "internalType": "bool",
              "name": "allowControllerMigration",
              "type": "bool"
            },
            {
              "internalType": "bool",
              "name": "holdFees",
              "type": "bool"
            },
            {
              "internalType": "bool",
              "name": "preferClaimedTokenOverride",
              "type": "bool"
            },
            {
              "internalType": "bool",
              "name": "useTotalOverflowForRedemptions",
              "type": "bool"
            },
            {
              "internalType": "bool",
              "name": "useDataSourceForPay",
              "type": "bool"
            },
            {
              "internalType": "bool",
              "name": "useDataSourceForRedeem",
              "type": "bool"
            },
            {
              "internalType": "address",
              "name": "dataSource",
              "type": "address"
            },
            {
              "internalType": "uint256",
              "name": "metadata",
              "type": "uint256"
            }
          ],
          "internalType": "struct JBFundingCycleMetadata",
          "name": "_metadata",
          "type": "tuple"
        },
        {
          "internalType": "uint256",
          "name": "_mustStartAtOrAfter",
          "type": "uint256"
        },
        {
          "components": [
            {
              "internalType": "uint256",
              "name": "group",
              "type": "uint256"
            },
            {
              "components": [
                {
                  "internalType": "bool",
                  "name": "preferClaimed",
                  "type": "bool"
                },
                {
                  "internalType": "bool",
                  "name": "preferAddToBalance",
                  "type": "bool"
                },
                {
                  "internalType": "uint256",
                  "name": "percent",
                  "type": "uint256"
                },
                {
                  "internalType": "uint256",
                  "name": "projectId",
                  "type": "uint256"
                },
                {
                  "internalType": "address payable",
                  "name": "beneficiary",
                  "type": "address"
                },
                {
                  "internalType": "uint256",
                  "name": "lockedUntil",
                  "type": "uint256"
                },
                {
                  "internalType": "contract IJBSplitAllocator",
                  "name": "allocator",
                  "type": "address"
                }
              ],
              "internalType": "struct JBSplit[]",
              "name": "splits",
              "type": "tuple[]"
            }
          ],
          "internalType": "struct JBGroupedSplits[]",
          "name": "_groupedSplits",
          "type": "tuple[]"
        },
        {
          "components": [
            {
              "internalType": "contract IJBPaymentTerminal",
              "name": "terminal",
              "type": "address"
            },
            {
              "internalType": "address",
              "name": "token",
              "type": "address"
            },
            {
              "internalType": "uint256",
              "name": "distributionLimit",
              "type": "uint256"
            },
            {
              "internalType": "uint256",
              "name": "distributionLimitCurrency",
              "type": "uint256"
            },
            {
              "internalType": "uint256",
              "name": "overflowAllowance",
              "type": "uint256"
            },
            {
              "internalType": "uint256",
              "name": "overflowAllowanceCurrency",
              "type": "uint256"
            }
          ],
          "internalType": "struct JBFundAccessConstraints[]",
          "name": "_fundAccessConstraints",
          "type": "tuple[]"
        },
        {
          "internalType": "string",
          "name": "_memo",
          "type": "string"
        }
      ],
      "name": "reconfigureFundingCyclesOf",
      "outputs": [
        {
          "internalType": "uint256",
          "name": "configuration",
          "type": "uint256"
        }
      ],
      "stateMutability": "nonpayable",
      "type": "function"
    },
    {
      "inputs": [
        {
          "internalType": "uint256",
          "name": "_projectId",
          "type": "uint256"
        }
      ],
      "name": "reservedTokenBalanceOf",
      "outputs": [
        {
          "internalType": "uint256",
          "name": "",
          "type": "uint256"
        }
      ],
      "stateMutability": "view",
      "type": "function"
    },
    {
      "inputs": [
        {
          "internalType": "uint256",
          "name": "_projectId",
          "type": "uint256"
        },
        {
          "internalType": "uint256",
          "name": "_reservedRate",
          "type": "uint256"
        }
      ],
      "name": "reservedTokenBalanceOf",
      "outputs": [
        {
          "internalType": "uint256",
          "name": "",
          "type": "uint256"
        }
      ],
      "stateMutability": "view",
      "type": "function"
    },
    {
      "inputs": [],
      "name": "splitsStore",
      "outputs": [
        {
          "internalType": "contract IJBSplitsStore",
          "name": "",
          "type": "address"
        }
      ],
      "stateMutability": "view",
      "type": "function"
    },
    {
      "inputs": [
        {
          "internalType": "bytes4",
          "name": "_interfaceId",
          "type": "bytes4"
        }
      ],
      "name": "supportsInterface",
      "outputs": [
        {
          "internalType": "bool",
          "name": "",
          "type": "bool"
        }
      ],
      "stateMutability": "view",
      "type": "function"
    },
    {
      "inputs": [],
      "name": "tokenStore",
      "outputs": [
        {
          "internalType": "contract IJBTokenStore",
          "name": "",
          "type": "address"
        }
      ],
      "stateMutability": "view",
      "type": "function"
    },
    {
      "inputs": [
        {
          "internalType": "uint256",
          "name": "_projectId",
          "type": "uint256"
        },
        {
          "internalType": "uint256",
          "name": "_reservedRate",
          "type": "uint256"
        }
      ],
      "name": "totalOutstandingTokensOf",
      "outputs": [
        {
          "internalType": "uint256",
          "name": "",
          "type": "uint256"
        }
      ],
      "stateMutability": "view",
      "type": "function"
    },
    {
      "inputs": [
        {
          "internalType": "uint256",
          "name": "_projectId",
          "type": "uint256"
        }
      ],
      "name": "totalOutstandingTokensOf",
      "outputs": [
        {
          "internalType": "uint256",
          "name": "",
          "type": "uint256"
        }
      ],
      "stateMutability": "view",
      "type": "function"
    }
  ],
  "transactionHash": "0x3e10bd17b8bc5225c0cd82444220dd8f169942862237bb32c7dec64ace358ff8",
  "args": [
    "0x99dB6b517683237dE9C494bbd17861f3608F3585",
    "0x21263a042aFE4bAE34F08Bb318056C181bD96D3b",
    "0x8E05bcD2812E1449f0EC3aE24E2C395F533d9A99",
    "0xB9Ee9d8203467f6EC0eAC81163d210bd1a7d3b55",
    "0x1246a50e3aDaF684Ac566f0c40816fF738F309B3",
    "0xce2Ce2F37fE5B2C2Dd047908B2F61c9c3f707272"
  ],
  "numDeployments": 1,
  "solcInputHash": "19ef118e5e31c265bd6f0d48278aa6e7",
  "bytecode": "0x6101406040523480156200001257600080fd5b50604051620051993803806200519983398101604081905262000035916200007e565b6001600160a01b0395861660805293851660a05291841661012052831660c052821660e052166101005262000112565b6001600160a01b03811681146200007b57600080fd5b50565b60008060008060008060c087890312156200009857600080fd5b8651620000a58162000065565b6020880151909650620000b88162000065565b6040880151909550620000cb8162000065565b6060880151909450620000de8162000065565b6080880151909350620000f18162000065565b60a0880151909250620001048162000065565b809150509295509295509295565b60805160a05160c05160e0516101005161012051614f3b6200025e6000396000818161047701528181610838015281816108ba01528181610b7c01528181610d2101528181611168015281816117ad0152818161188d0152611cbe01526000818161024e0152818161251b01526133010152600081816102d901528181610e1b01528181611a10015281816120e301528181612cd201526132dc0152600081816102b20152818161075801528181610ab901528181610c5f01528181610ffe01528181611251015281816115af0152818161165601528181611c31015281816124410152612cf60152600081816103aa0152818161069d015281816110b80152818161170001528181611ce101528181611f7001528181612db4015261345e0152600081816103e40152818161220a015281816122ca01528181612b360152612bf60152614f3b6000f3fe608060405234801561001057600080fd5b50600436106101a35760003560e01c80638ae9c07b116100ee578063badbdf2811610097578063c41c2f2411610071578063c41c2f2414610472578063e867c59c14610499578063e8db2130146104ac578063f033b3b41461051957600080fd5b8063badbdf281461042c578063bdd504d71461043f578063c18f2d311461045f57600080fd5b8063ad007d63116100c8578063ad007d63146103df578063b3c5267314610406578063b5f1e34d1461041957600080fd5b80638ae9c07b146103925780638b79543c146103a5578063a40bb9c7146103cc57600080fd5b80633e8c615b11610150578063619306301161012a57806361930630146102d45780637a81b562146102fb5780638776c4991461037f57600080fd5b80633e8c615b14610288578063405b84fa1461029a578063557e7155146102ad57600080fd5b80631665bc0f116101815780631665bc0f146102125780631f510453146102275780632bdfe0041461024957600080fd5b806301ffc9a7146101a8578063111d861b146101d057806312b37b14146101f1575b600080fd5b6101bb6101b6366004613799565b61053a565b60405190151581526020015b60405180910390f35b6101e36101de366004613ba9565b61066b565b6040519081526020016101c7565b6102046101ff366004613c97565b610986565b6040516101c7929190613e15565b610225610220366004613eeb565b610b38565b005b61023a610235366004613c97565b610ecc565b6040516101c793929190613f67565b6102707f000000000000000000000000000000000000000000000000000000000000000081565b6040516001600160a01b0390911681526020016101c7565b610225610296366004614028565b5050565b6102256102a8366004614028565b611089565b6102707f000000000000000000000000000000000000000000000000000000000000000081565b6102707f000000000000000000000000000000000000000000000000000000000000000081565b61036a610309366004614058565b60009384526001602090815260408086209486529381528385206001600160a01b039384168652815283852091909216845290529020547cffffffffffffffffffffffffffffffffffffffffffffffffffffffffff81169160e89190911c90565b604080519283526020830191909152016101c7565b61020461038d366004613c97565b61147c565b6101e36103a03660046140a2565b6115de565b6102707f000000000000000000000000000000000000000000000000000000000000000081565b6102046103da366004614132565b611afb565b6102707f000000000000000000000000000000000000000000000000000000000000000081565b6101e36104143660046141ab565b611cb9565b6101e3610427366004614132565b611f2c565b6101e361043a3660046142d5565b611f3e565b6101e361044d366004613c97565b60009081526002602052604090205490565b6101e361046d366004613c97565b6120a5565b6102707f000000000000000000000000000000000000000000000000000000000000000081565b6101e36104a73660046143ad565b612160565b61036a6104ba366004614058565b6000938452602084815260408086209486529381528385206001600160a01b039384168652815283852091909216845290529020547cffffffffffffffffffffffffffffffffffffffffffffffffffffffffff81169160e89190911c90565b6101e3610527366004614132565b5060009081526002602052604090205490565b60007fffffffff0000000000000000000000000000000000000000000000000000000082167f7c5a29e60000000000000000000000000000000000000000000000000000000014806105cd57507fffffffff0000000000000000000000000000000000000000000000000000000082167f3e8c615b00000000000000000000000000000000000000000000000000000000145b8061061957507fffffffff0000000000000000000000000000000000000000000000000000000082167fad007d6300000000000000000000000000000000000000000000000000000000145b8061066557507f01ffc9a7000000000000000000000000000000000000000000000000000000007fffffffff000000000000000000000000000000000000000000000000000000008316145b92915050565b6040517f6352211e000000000000000000000000000000000000000000000000000000008152600481018a90526000907f00000000000000000000000000000000000000000000000000000000000000006001600160a01b031690636352211e90602401602060405180830381865afa1580156106ec573d6000803e3d6000fd5b505050506040513d601f19601f8201168201806040525081019061071091906143f9565b8a600161071e8383836121aa565b6040517f2cee6deb000000000000000000000000000000000000000000000000000000008152600481018e90526000906001600160a01b037f00000000000000000000000000000000000000000000000000000000000000001690632cee6deb90602401602060405180830381865afa15801561079f573d6000803e3d6000fd5b505050506040513d601f19601f820116820180604052508101906107c39190614416565b11156107fb576040517fffd0bc1200000000000000000000000000000000000000000000000000000000815260040160405180910390fd5b6040517f714e7f32000000000000000000000000000000000000000000000000000000008152600481018e90523060248201526001600160a01b037f0000000000000000000000000000000000000000000000000000000000000000169063714e7f3290604401600060405180830381600087803b15801561087c57600080fd5b505af1158015610890573d6000803e3d6000fd5b505050506108ae8d8d8d8d8d8d906108a8919061442f565b8c612373565b865190945015610939577f00000000000000000000000000000000000000000000000000000000000000006001600160a01b031663821b9fd88e886040518363ffffffff1660e01b81526004016109069291906145b0565b600060405180830381600087803b15801561092057600080fd5b505af1158015610934573d6000803e3d6000fd5b505050505b7f8621c3692c18d8ddd4cd26457d6a3e1d916e7001c4243a6c8dfa862a7e10a823848e873360405161096e949392919061465e565b60405180910390a15050509998505050505050505050565b6109de6040518061012001604052806000815260200160008152602001600081526020016000815260200160008152602001600081526020016000815260200160006001600160a01b03168152602001600081525090565b604080516102a0810182526000610240820181815261026083018290526102808301829052825260208201819052818301819052606082018190526080820181905260a0820181905260c0820181905260e08201819052610100820181905261012082018190526101408201819052610160820181905261018082018190526101a082018190526101c082018190526101e08201819052610200820181905261022082015290517f5c550078000000000000000000000000000000000000000000000000000000008152600481018490526001600160a01b037f00000000000000000000000000000000000000000000000000000000000000001690635c550078906024015b61012060405180830381865afa158015610b02573d6000803e3d6000fd5b505050506040513d601f19601f82011682018060405250810190610b269190614722565b9150610b318261283d565b9050915091565b6040517f6e49181f0000000000000000000000000000000000000000000000000000000081526004810186905233602482015286908690600a906001600160a01b037f00000000000000000000000000000000000000000000000000000000000000001690636e49181f90604401602060405180830381865afa158015610bc3573d6000803e3d6000fd5b505050506040513d601f19601f82011682018060405250810190610be7919061473f565b610bf384848484612acc565b87600003610c2d576040517f7b38547b00000000000000000000000000000000000000000000000000000000815260040160405180910390fd5b6040517f43a266c2000000000000000000000000000000000000000000000000000000008152600481018a90526000907f00000000000000000000000000000000000000000000000000000000000000006001600160a01b0316906343a266c29060240161012060405180830381865afa158015610caf573d6000803e3d6000fd5b505050506040513d601f19601f82011682018060405250810190610cd39190614722565b610100810151909150604b1c6001908116148015610d9657506040517f6e49181f000000000000000000000000000000000000000000000000000000008152600481018b90523360248201527f00000000000000000000000000000000000000000000000000000000000000006001600160a01b031690636e49181f90604401602060405180830381865afa158015610d70573d6000803e3d6000fd5b505050506040513d601f19601f82011682018060405250810190610d94919061473f565b155b15610dcd576040517f78a4871800000000000000000000000000000000000000000000000000000000815260040160405180910390fd5b6040517f906ebd0f0000000000000000000000000000000000000000000000000000000081526001600160a01b038c81166004830152602482018c9052604482018b905287151560648301527f0000000000000000000000000000000000000000000000000000000000000000169063906ebd0f90608401600060405180830381600087803b158015610e5f57600080fd5b505af1158015610e73573d6000803e3d6000fd5b50505050898b6001600160a01b03167fdf04e13ee4fcd48a81ab2fd114757093740a3efa9b6475d86e05878b4c59d0798b8b8b33604051610eb794939291906147a5565b60405180910390a35050505050505050505050565b610f246040518061012001604052806000815260200160008152602001600081526020016000815260200160008152602001600081526020016000815260200160006001600160a01b03168152602001600081525090565b604080516102a0810182526000610240820181815261026083018290526102808301829052825260208201819052918101829052606081018290526080810182905260a0810182905260c0810182905260e08101829052610100810182905261012081018290526101408101829052610160810182905261018081018290526101a081018290526101c081018290526101e0810182905261020081018290526102208101919091526040517febc8ca1f000000000000000000000000000000000000000000000000000000008152600481018490526000907f00000000000000000000000000000000000000000000000000000000000000006001600160a01b03169063ebc8ca1f9060240161014060405180830381865afa15801561104e573d6000803e3d6000fd5b505050506040513d601f19601f8201168201806040525081019061107291906147d9565b90935090506110808361283d565b91509193909250565b6040517f6352211e000000000000000000000000000000000000000000000000000000008152600481018390527f00000000000000000000000000000000000000000000000000000000000000006001600160a01b031690636352211e90602401602060405180830381865afa158015611107573d6000803e3d6000fd5b505050506040513d601f19601f8201168201806040525081019061112b91906143f9565b8260036111398383836121aa565b6040517f5dd8f6aa000000000000000000000000000000000000000000000000000000008152600481018690527f00000000000000000000000000000000000000000000000000000000000000009030906001600160a01b03831690635dd8f6aa90602401602060405180830381865afa1580156111bb573d6000803e3d6000fd5b505050506040513d601f19601f820116820180604052508101906111df91906143f9565b6001600160a01b03161461121f576040517fe0a0a87d00000000000000000000000000000000000000000000000000000000815260040160405180910390fd5b6040517f43a266c2000000000000000000000000000000000000000000000000000000008152600481018790526000907f00000000000000000000000000000000000000000000000000000000000000006001600160a01b0316906343a266c29060240161012060405180830381865afa1580156112a1573d6000803e3d6000fd5b505050506040513d601f19601f820116820180604052508101906112c59190614722565b610100810151909150604e1c60019081161461130d576040517f46ace3f900000000000000000000000000000000000000000000000000000000815260040160405180910390fd5b6000878152600260205260409020541561133c5761133a8760405180602001604052806000815250612ca0565b505b6040517f3e8c615b000000000000000000000000000000000000000000000000000000008152600481018890523060248201526001600160a01b03871690633e8c615b90604401600060405180830381600087803b15801561139d57600080fd5b505af11580156113b1573d6000803e3d6000fd5b50506040517f714e7f32000000000000000000000000000000000000000000000000000000008152600481018a90526001600160a01b0389811660248301528516925063714e7f329150604401600060405180830381600087803b15801561141857600080fd5b505af115801561142c573d6000803e3d6000fd5b5050604080516001600160a01b038a1681523360208201528a93507f01f954abace731a88ab86e71186040cc2be49fe517ea06bc0d24f25b82b8345692500160405180910390a250505050505050565b6114d46040518061012001604052806000815260200160008152602001600081526020016000815260200160008152602001600081526020016000815260200160006001600160a01b03168152602001600081525090565b604080516102a0810182526000610240820181815261026083018290526102808301829052825260208201819052818301819052606082018190526080820181905260a0820181905260c0820181905260e08201819052610100820181905261012082018190526101408201819052610160820181905261018082018190526101a082018190526101c082018190526101e08201819052610200820181905261022082015290517f43a266c2000000000000000000000000000000000000000000000000000000008152600481018490526001600160a01b037f000000000000000000000000000000000000000000000000000000000000000016906343a266c290602401610ae4565b60008660000361161a576040517f9fd13e5400000000000000000000000000000000000000000000000000000000815260040160405180910390fd5b6040517f43a266c20000000000000000000000000000000000000000000000000000000081526004810189905260009081906001600160a01b037f000000000000000000000000000000000000000000000000000000000000000016906343a266c29060240161012060405180830381865afa15801561169e573d6000803e3d6000fd5b505050506040513d601f19601f820116820180604052508101906116c29190614722565b6040517f6352211e000000000000000000000000000000000000000000000000000000008152600481018c9052909150611841906001600160a01b037f00000000000000000000000000000000000000000000000000000000000000001690636352211e90602401602060405180830381865afa158015611747573d6000803e3d6000fd5b505050506040513d601f19601f8201168201806040525081019061176b91906143f9565b6040517f6e49181f000000000000000000000000000000000000000000000000000000008152600481018d90523360248201528c906009906001600160a01b037f00000000000000000000000000000000000000000000000000000000000000001690636e49181f90604401602060405180830381865afa1580156117f4573d6000803e3d6000fd5b505050506040513d601f19601f82011682018060405250810190611818919061473f565b8061183c575061010085015160541c6001600160a01b0316336001600160a01b0316145b612acc565b610100810151604c1c60019081161415801561190257506040517f6e49181f000000000000000000000000000000000000000000000000000000008152600481018b90523360248201527f00000000000000000000000000000000000000000000000000000000000000006001600160a01b031690636e49181f90604401602060405180830381865afa1580156118dc573d6000803e3d6000fd5b505050506040513d601f19601f82011682018060405250810190611900919061473f565b155b8015611928575061010081015160541c6001600160a01b0316336001600160a01b031614155b1561195f576040517f9d0ca8fd00000000000000000000000000000000000000000000000000000000815260040160405180910390fd5b8361196b576000611979565b61010081015160181c61ffff165b91506001851515146119995761010081015160501c60019081161461199b565b845b9450506127108114611a6f576119bf886119b78361271061483b565b612710612f30565b6040517fceddd3e40000000000000000000000000000000000000000000000000000000081526001600160a01b038981166004830152602482018c90526044820183905286151560648301529193507f00000000000000000000000000000000000000000000000000000000000000009091169063ceddd3e490608401600060405180830381600087803b158015611a5657600080fd5b505af1158015611a6a573d6000803e3d6000fd5b505050505b8015611aa357611a7f828961483b565b60008a81526002602052604081208054909190611a9d90849061484e565b90915550505b88876001600160a01b03167fe6fee9c572244c0c2238c3112ac12d411750a7ee00eeebd32521c3e5a666c14b8a858a8a8733604051611ae796959493929190614861565b60405180910390a350979650505050505050565b611b536040518061012001604052806000815260200160008152602001600081526020016000815260200160008152602001600081526020016000815260200160006001600160a01b03168152602001600081525090565b604080516102a0810182526000610240820181815261026083018290526102808301829052825260208201819052918101829052606081018290526080810182905260a0810182905260c0810182905260e08101829052610100810182905261012081018290526101408101829052610160810182905261018081018290526101a081018290526101c081018290526101e0810182905261020081018290526102208101919091526040517f669e48aa00000000000000000000000000000000000000000000000000000000815260048101859052602481018490527f00000000000000000000000000000000000000000000000000000000000000006001600160a01b03169063669e48aa9060440161012060405180830381865afa158015611c81573d6000803e3d6000fd5b505050506040513d601f19601f82011682018060405250810190611ca59190614722565b9150611cb08261283d565b90509250929050565b6000807f000000000000000000000000000000000000000000000000000000000000000090507f00000000000000000000000000000000000000000000000000000000000000006001600160a01b031663666d87a08e8e6040518363ffffffff1660e01b8152600401611d2d9291906148a3565b6020604051808303816000875af1158015611d4c573d6000803e3d6000fd5b505050506040513d601f19601f82011682018060405250810190611d709190614416565b6040517f714e7f32000000000000000000000000000000000000000000000000000000008152600481018290523060248201529092506001600160a01b0382169063714e7f3290604401600060405180830381600087803b158015611dd457600080fd5b505af1158015611de8573d6000803e3d6000fd5b505050506000611e5a838d8d8d8d8d90611e02919061442f565b8c8c808060200260200160405190810160405280939291908181526020016000905b82821015611e5057611e4160c08302860136819003810190614942565b81526020019060010190611e24565b5050505050612373565b855190915015611ede576040517f821b9fd80000000000000000000000000000000000000000000000000000000081526001600160a01b0383169063821b9fd890611eab90869089906004016145b0565b600060405180830381600087803b158015611ec557600080fd5b505af1158015611ed9573d6000803e3d6000fd5b505050505b7ff3e6948ba8b32d557363ea08470121c47c0127659aed09320812174d373afef281848633604051611f13949392919061465e565b60405180910390a150509b9a5050505050505050505050565b6000611f37836120a5565b9392505050565b6040517f6352211e000000000000000000000000000000000000000000000000000000008152600481018b90526000907f00000000000000000000000000000000000000000000000000000000000000006001600160a01b031690636352211e90602401602060405180830381865afa158015611fbf573d6000803e3d6000fd5b505050506040513d601f19601f82011682018060405250810190611fe391906143f9565b8b6001611ff18383836121aa565b6120538e8e8e8e8e8e90612005919061442f565b8d8d808060200260200160405190810160405280939291908181526020016000905b82821015611e505761204460c08302860136819003810190614942565b81526020019060010190612027565b93507f1a08ad37c93969a586fd0605d240c17113b20a9c9ac3847595d0ab425225f6af848f88883360405161208c95949392919061495e565b60405180910390a15050509a9950505050505050505050565b6000818152600260205260408082205490517f75b0d9cd000000000000000000000000000000000000000000000000000000008152600481018490527f00000000000000000000000000000000000000000000000000000000000000006001600160a01b0316906375b0d9cd90602401602060405180830381865afa158015612132573d6000803e3d6000fd5b505050506040513d601f19601f820116820180604052508101906121569190614416565b610665919061484e565b60006121a28484848080601f016020809104026020016040519081016040528093929190818152602001838380828437600092019190915250612ca092505050565b949350505050565b336001600160a01b0384161480159061227757506040517fc161c93f0000000000000000000000000000000000000000000000000000000081523360048201526001600160a01b03848116602483015260448201849052606482018390527f0000000000000000000000000000000000000000000000000000000000000000169063c161c93f90608401602060405180830381865afa158015612251573d6000803e3d6000fd5b505050506040513d601f19601f82011682018060405250810190612275919061473f565b155b801561233757506040517fc161c93f0000000000000000000000000000000000000000000000000000000081523360048201526001600160a01b03848116602483015260006044830152606482018390527f0000000000000000000000000000000000000000000000000000000000000000169063c161c93f90608401602060405180830381865afa158015612311573d6000803e3d6000fd5b505050506040513d601f19601f82011682018060405250810190612335919061473f565b155b1561236e576040517f075fd2b100000000000000000000000000000000000000000000000000000000815260040160405180910390fd5b505050565b6000612710856060013511156123b5576040517f5623289500000000000000000000000000000000000000000000000000000000815260040160405180910390fd5b612710856080013511156123f5576040517f9db9ee9300000000000000000000000000000000000000000000000000000000815260040160405180910390fd5b6127108560a001351115612435576040517fddbf1bc600000000000000000000000000000000000000000000000000000000815260040160405180910390fd5b60006001600160a01b037f00000000000000000000000000000000000000000000000000000000000000001663a249d425898961247f61247a368c90038c018c614a0f565b613038565b896040518563ffffffff1660e01b815260040161249f9493929190614b5d565b610120604051808303816000875af11580156124bf573d6000803e3d6000fd5b505050506040513d601f19601f820116820180604052508101906124e39190614722565b60208101516040517ff2da44b60000000000000000000000000000000000000000000000000000000081529192506001600160a01b037f0000000000000000000000000000000000000000000000000000000000000000169163f2da44b691612553918c91908990600401614bb1565b600060405180830381600087803b15801561256d57600080fd5b505af1158015612581573d6000803e3d6000fd5b5050505060005b835181101561282d5760008482815181106125a5576125a5614cda565b602002602001015190507cffffffffffffffffffffffffffffffffffffffffffffffffffffffffff80168160400151111561260c576040517fa9b8fbcf00000000000000000000000000000000000000000000000000000000815260040160405180910390fd5b606081015162ffffff101561264d576040517f9583faed00000000000000000000000000000000000000000000000000000000815260040160405180910390fd5b60808101517cffffffffffffffffffffffffffffffffffffffffffffffffffffffffff10156126a8576040517f5730278300000000000000000000000000000000000000000000000000000000815260040160405180910390fd5b60a081015162ffffff10156126e9576040517fd9b93c2500000000000000000000000000000000000000000000000000000000815260040160405180910390fd5b60408101511561274457606081015160408083015160008d81526020818152838220888201518352815283822086516001600160a01b03908116845290825284832082880151909116835290529190912060e89290921b1790555b6080810151156127a15760a0810151608082015160008c8152600160209081526040808320888301518452825280832086516001600160a01b039081168552908352818420838801519091168452909152902060e89290921b1790555b82516020808501516040805185516001600160a01b0390811682528685015116938101939093528085015190830152606080850151908301526080808501519083015260a080850151908301523360c08301528c92917f8a1c80ab9ab05d6bf02096dd94aa2fa05a9de212e793835a50dd5ffe8d8cbab89060e00160405180910390a450600101612588565b5060200151979650505050505050565b604080516102a0810182526000610240820181815261026083018290526102808301829052825260208201819052918101829052606081018290526080810182905260a0810182905260c0810182905260e08101829052610100810182905261012081018290526101408101829052610160810182905261018081018290526101a081018290526101c081018290526101e0810182905261020081018290526102208101919091526040518061024001604052806128fa846131ef565b815261010084015160209091019060181c61ffff16815260200161291d84613263565b815260200161292b84613280565b8152602001612947846101000151600160489190911c81161490565b15158152602001612965846101000151600160499190911c81161490565b151581526020016129838461010001516001604a9190911c81161490565b151581526020016129a18461010001516001604b9190911c81161490565b151581526020016129bf8461010001516001604c9190911c81161490565b151581526020016129dd8461010001516001604d9190911c81161490565b151581526020016129fb8461010001516001604e9190911c81161490565b15158152602001612a198461010001516001604f9190911c81161490565b15158152602001612a37846101000151600160509190911c81161490565b15158152602001612a55846101000151600160519190911c81161490565b15158152602001612a73846101000151600160529190911c81161490565b15158152602001612a91846101000151600160539190911c81161490565b15158152602001612aa784610100015160541c90565b6001600160a01b0316815261010084015160209091019060f41c60ff16905292915050565b80158015612ae35750336001600160a01b03851614155b8015612ba357506040517fc161c93f0000000000000000000000000000000000000000000000000000000081523360048201526001600160a01b03858116602483015260448201859052606482018490527f0000000000000000000000000000000000000000000000000000000000000000169063c161c93f90608401602060405180830381865afa158015612b7d573d6000803e3d6000fd5b505050506040513d601f19601f82011682018060405250810190612ba1919061473f565b155b8015612c6357506040517fc161c93f0000000000000000000000000000000000000000000000000000000081523360048201526001600160a01b03858116602483015260006044830152606482018490527f0000000000000000000000000000000000000000000000000000000000000000169063c161c93f90608401602060405180830381865afa158015612c3d573d6000803e3d6000fd5b505050506040513d601f19601f82011682018060405250810190612c61919061473f565b155b15612c9a576040517f075fd2b100000000000000000000000000000000000000000000000000000000815260040160405180910390fd5b50505050565b6040517f43a266c2000000000000000000000000000000000000000000000000000000008152600481018390526000907f00000000000000000000000000000000000000000000000000000000000000009082907f00000000000000000000000000000000000000000000000000000000000000006001600160a01b0316906343a266c29060240161012060405180830381865afa158015612d46573d6000803e3d6000fd5b505050506040513d601f19601f82011682018060405250810190612d6a9190614722565b60008681526002602052604080822080549083905590517f6352211e00000000000000000000000000000000000000000000000000000000815260048101899052909550919250907f00000000000000000000000000000000000000000000000000000000000000006001600160a01b031690636352211e90602401602060405180830381865afa158015612e03573d6000803e3d6000fd5b505050506040513d601f19601f82011682018060405250810190612e2791906143f9565b905060008415612e4757612e4287846020015160028861329d565b612e4a565b60005b90508015612edc576040517fceddd3e40000000000000000000000000000000000000000000000000000000081526001600160a01b03838116600483015260248201899052604482018390526000606483015285169063ceddd3e490608401600060405180830381600087803b158015612ec357600080fd5b505af1158015612ed7573d6000803e3d6000fd5b505050505b86836000015184602001517fb12d7a78048433f69fe6d30145bf08aad8e82985b96e4db6d5c6a7e94d57086e8589868c33604051612f1e959493929190614d09565b60405180910390a45050505092915050565b600080807fffffffffffffffffffffffffffffffffffffffffffffffffffffffffffffffff85870985870292508281108382030391505080600003612f8857838281612f7e57612f7e614d4d565b0492505050611f37565b838110612fcf576040517f773cc18c000000000000000000000000000000000000000000000000000000008152600481018290526024810185905260440160405180910390fd5b60008486880960026001871981018816978890046003810283188082028403028082028403028082028403028082028403028082028403029081029092039091026000889003889004909101858311909403939093029303949094049190911702949350505050565b80516001906008906130499061376a565b901b8117905060188260200151901b8117905060288260400151612710613070919061483b565b901b811790506038826060015161271061308a919061483b565b901b811790508160800151156130a7576901000000000000000000175b8160a00151156130be576902000000000000000000175b8160c00151156130d5576904000000000000000000175b8160e00151156130ec576908000000000000000000175b81610100015115613104576910000000000000000000175b8161012001511561311c576920000000000000000000175b81610140015115613134576940000000000000000000175b8161016001511561314c576980000000000000000000175b81610180015115613165576a0100000000000000000000175b816101a001511561317e576a0200000000000000000000175b816101c0015115613197576a0400000000000000000000175b816101e00151156131b0576a0800000000000000000000175b6102008201516102209092015160f41b7e0ffffffffffffffffffffffffffffffffffffffff00000000000000000000060549390931b92909216171790565b60408051606081018252600080825260208201819052918101919091526106656008836101000151901c604080516060808201835260008083526020808401829052928401528251908101835260018481168114825284811c811681149282019290925260029390931c8116149082015290565b60006028826101000151901c61ffff16612710610665919061483b565b60006038826101000151901c61ffff16612710610665919061483b565b6040517f69e11cc500000000000000000000000000000000000000000000000000000000815260048101859052602481018490526044810183905281907f0000000000000000000000000000000000000000000000000000000000000000906000907f00000000000000000000000000000000000000000000000000000000000000006001600160a01b0316906369e11cc590606401600060405180830381865afa158015613350573d6000803e3d6000fd5b505050506040513d6000823e601f3d9081017fffffffffffffffffffffffffffffffffffffffffffffffffffffffffffffffe01682016040526133969190810190614d7c565b905060005b815181101561375f5760008282815181106133b8576133b8614cda565b6020026020010151905060006133d7878360400151633b9aca00612f30565b905080156137175760c08201516001600160a01b038087169163ceddd3e491166134d65783606001516000036134295760808401516001600160a01b031661341f57336134dc565b83608001516134dc565b60608401516040517f6352211e00000000000000000000000000000000000000000000000000000000815260048101919091527f00000000000000000000000000000000000000000000000000000000000000006001600160a01b031690636352211e90602401602060405180830381865afa1580156134ad573d6000803e3d6000fd5b505050506040513d601f19601f820116820180604052508101906134d191906143f9565b6134dc565b8360c001515b845160405160e084901b7fffffffff000000000000000000000000000000000000000000000000000000001681526001600160a01b039092166004830152602482018e90526044820185905215156064820152608401600060405180830381600087803b15801561354c57600080fd5b505af1158015613560573d6000803e3d6000fd5b5050505060c08201516001600160a01b03161561370a578160c001516001600160a01b0316639d740bfa6040518060c00160405280886001600160a01b031663ea78803f8f6040518263ffffffff1660e01b81526004016135c391815260200190565b602060405180830381865afa1580156135e0573d6000803e3d6000fd5b505050506040513d601f19601f8201168201806040525081019061360491906143f9565b6001600160a01b03168152602001848152602001601281526020018d81526020018b8152602001858152506040518263ffffffff1660e01b81526004016136d7919081516001600160a01b0390811682526020808401518184015260408085015181850152606080860151818601526080808701518187015260a096870151805115158888015293840151151560c0808801919091529284015160e08701529083015161010086015282015183166101208501529381015161014084015292909201519091166101608201526101800190565b600060405180830381600087803b1580156136f157600080fd5b505af1158015613705573d6000803e3d6000fd5b505050505b613714818761483b565b95505b87898b7f990c1da5d280602f972ae3c429b6dc66a66569875205cc6e67f14e0b3fc4d2ac85853360405161374d93929190614e86565b60405180910390a4505060010161339b565b505050949350505050565b805160009015613778576001175b816020015115613786576002175b816040015115613794576004175b919050565b6000602082840312156137ab57600080fd5b81357fffffffff0000000000000000000000000000000000000000000000000000000081168114611f3757600080fd5b6000608082840312156137ed57600080fd5b50919050565b600061028082840312156137ed57600080fd5b60008083601f84011261381857600080fd5b50813567ffffffffffffffff81111561383057600080fd5b6020830191508360208260051b850101111561384b57600080fd5b9250929050565b7f4e487b7100000000000000000000000000000000000000000000000000000000600052604160045260246000fd5b6040805190810167ffffffffffffffff811182821017156138a4576138a4613852565b60405290565b60405160e0810167ffffffffffffffff811182821017156138a4576138a4613852565b604051610120810167ffffffffffffffff811182821017156138a4576138a4613852565b604051610240810167ffffffffffffffff811182821017156138a4576138a4613852565b604051601f82017fffffffffffffffffffffffffffffffffffffffffffffffffffffffffffffffe016810167ffffffffffffffff8111828210171561395c5761395c613852565b604052919050565b600067ffffffffffffffff82111561397e5761397e613852565b5060051b60200190565b6001600160a01b038116811461399d57600080fd5b50565b803561379481613988565b600060c082840312156139bd57600080fd5b60405160c0810181811067ffffffffffffffff821117156139e0576139e0613852565b60405290508082356139f181613988565b81526020830135613a0181613988565b8060208301525060408301356040820152606083013560608201526080830135608082015260a083013560a08201525092915050565b600082601f830112613a4857600080fd5b81356020613a5d613a5883613964565b613915565b82815260c09283028501820192828201919087851115613a7c57600080fd5b8387015b85811015613a9f57613a9289826139ab565b8452928401928101613a80565b5090979650505050505050565b600082601f830112613abd57600080fd5b81356020613acd613a5883613964565b82815260059290921b84018101918181019086841115613aec57600080fd5b8286015b84811015613b10578035613b0381613988565b8352918301918301613af0565b509695505050505050565b600082601f830112613b2c57600080fd5b813567ffffffffffffffff811115613b4657613b46613852565b613b7760207fffffffffffffffffffffffffffffffffffffffffffffffffffffffffffffffe0601f84011601613915565b818152846020838601011115613b8c57600080fd5b816020850160208301376000918101602001919091529392505050565b60008060008060008060008060006103c08a8c031215613bc857600080fd5b89359850613bd98b60208c016137db565b9750613be88b60a08c016137f3565b96506103208a013595506103408a013567ffffffffffffffff80821115613c0e57600080fd5b613c1a8d838e01613806565b90975095506103608c0135915080821115613c3457600080fd5b613c408d838e01613a37565b94506103808c0135915080821115613c5757600080fd5b613c638d838e01613aac565b93506103a08c0135915080821115613c7a57600080fd5b50613c878c828d01613b1b565b9150509295985092959850929598565b600060208284031215613ca957600080fd5b5035919050565b613cd58282518051151582526020808201511515908301526040908101511515910152565b6020810151606083015260408101516080830152606081015160a08301526080810151613d0660c084018215159052565b5060a081015180151560e08401525060c0810151610100613d2a8185018315159052565b60e08301519150610120613d418186018415159052565b90830151915061014090613d588583018415159052565b8301519150610160613d6d8582018415159052565b90830151915061018090613d848583018415159052565b83015191506101a0613d998582018415159052565b9083015191506101c090613db08583018415159052565b83015191506101e0613dc58582018415159052565b90830151915061020090613ddc8583018415159052565b8301519150610220613df18582018415159052565b908301516001600160a01b0316610240850152909101516102609092019190915250565b6103a08101613e828285805182526020810151602083015260408101516040830152606081015160608301526080810151608083015260a081015160a083015260c081015160c08301526001600160a01b0360e08201511660e08301526101008082015181840152505050565b611f37610120830184613cb0565b60008083601f840112613ea257600080fd5b50813567ffffffffffffffff811115613eba57600080fd5b60208301915083602082850101111561384b57600080fd5b801515811461399d57600080fd5b803561379481613ed2565b60008060008060008060a08789031215613f0457600080fd5b8635613f0f81613988565b95506020870135945060408701359350606087013567ffffffffffffffff811115613f3957600080fd5b613f4589828a01613e90565b9094509250506080870135613f5981613ed2565b809150509295509295509295565b6103c08101613fd48286805182526020810151602083015260408101516040830152606081015160608301526080810151608083015260a081015160a083015260c081015160c08301526001600160a01b0360e08201511660e08301526101008082015181840152505050565b613fe2610120830185613cb0565b60038310614019577f4e487b7100000000000000000000000000000000000000000000000000000000600052602160045260246000fd5b826103a0830152949350505050565b6000806040838503121561403b57600080fd5b82359150602083013561404d81613988565b809150509250929050565b6000806000806080858703121561406e57600080fd5b8435935060208501359250604085013561408781613988565b9150606085013561409781613988565b939692955090935050565b600080600080600080600060c0888a0312156140bd57600080fd5b873596506020880135955060408801356140d681613988565b9450606088013567ffffffffffffffff8111156140f257600080fd5b6140fe8a828b01613e90565b909550935050608088013561411281613ed2565b915060a088013561412281613ed2565b8091505092959891949750929550565b6000806040838503121561414557600080fd5b50508035926020909101359150565b6000604082840312156137ed57600080fd5b60008083601f84011261417857600080fd5b50813567ffffffffffffffff81111561419057600080fd5b60208301915083602060c08302850101111561384b57600080fd5b60008060008060008060008060008060006103e08c8e0312156141cd57600080fd5b6141d68c6139a0565b9a5067ffffffffffffffff8060208e013511156141f257600080fd5b6142028e60208f01358f01614154565b9a506142118e60408f016137db565b99506142208e60c08f016137f3565b98506103408d01359750806103608e0135111561423c57600080fd5b61424d8e6103608f01358f01613806565b90975095506103808d013581101561426457600080fd5b6142758e6103808f01358f01614166565b90955093506103a08d013581101561428c57600080fd5b61429d8e6103a08f01358f01613aac565b9250806103c08e013511156142b157600080fd5b506142c38d6103c08e01358e01613b1b565b90509295989b509295989b9093969950565b6000806000806000806000806000806103a08b8d0312156142f557600080fd5b8a3599506143068c60208d016137db565b98506143158c60a08d016137f3565b97506103208b013596506103408b013567ffffffffffffffff8082111561433b57600080fd5b6143478e838f01613806565b90985096506103608d013591508082111561436157600080fd5b61436d8e838f01614166565b90965094506103808d013591508082111561438757600080fd5b506143948d828e01613e90565b915080935050809150509295989b9194979a5092959850565b6000806000604084860312156143c257600080fd5b83359250602084013567ffffffffffffffff8111156143e057600080fd5b6143ec86828701613e90565b9497909650939450505050565b60006020828403121561440b57600080fd5b8151611f3781613988565b60006020828403121561442857600080fd5b5051919050565b600061443d613a5884613964565b80848252602080830192508560051b85013681111561445b57600080fd5b855b818110156145a457803567ffffffffffffffff8082111561447e5760008081fd5b818901915060408083360312156144955760008081fd5b61449d613881565b8335815286840135838111156144b35760008081fd5b939093019236601f8501126144ca57600092508283fd5b833592506144da613a5884613964565b83815260e093840285018801938882019190368611156144fa5760008081fd5b958901955b8587101561458e578087360312156145175760008081fd5b61451f6138aa565b873561452a81613ed2565b8152878b013561453981613ed2565b818c015287860135868201526060808901359082015260808089013561455e81613988565b9082015260a0888101359082015260c08089013561457b81613988565b90820152835295860195918901916144ff565b508289015250885250505093820193820161445d565b50919695505050505050565b6000604082018483526020604081850152818551808452606086019150828701935060005b81811015613a9f5784516001600160a01b0316835293830193918301916001016145d5565b6000815180845260005b8181101561462057602081850181015186830182015201614604565b5060006020828601015260207fffffffffffffffffffffffffffffffffffffffffffffffffffffffffffffffe0601f83011685010191505092915050565b84815283602082015260806040820152600061467d60808301856145fa565b90506001600160a01b038316606083015295945050505050565b805161379481613988565b600061012082840312156146b557600080fd5b6146bd6138cd565b9050815181526020820151602082015260408201516040820152606082015160608201526080820151608082015260a082015160a082015260c082015160c082015261470b60e08301614697565b60e082015261010080830151818301525092915050565b6000610120828403121561473557600080fd5b611f3783836146a2565b60006020828403121561475157600080fd5b8151611f3781613ed2565b8183528181602085013750600060208284010152600060207fffffffffffffffffffffffffffffffffffffffffffffffffffffffffffffffe0601f840116840101905092915050565b8481526060602082015260006147bf60608301858761475c565b90506001600160a01b038316604083015295945050505050565b60008061014083850312156147ed57600080fd5b6147f784846146a2565b91506101208301516003811061404d57600080fd5b7f4e487b7100000000000000000000000000000000000000000000000000000000600052601160045260246000fd5b818103818111156106655761066561480c565b808201808211156106655761066561480c565b86815285602082015260a06040820152600061488160a08301868861475c565b90508360608301526001600160a01b0383166080830152979650505050505050565b6001600160a01b038316815260406020820152600082357fffffffffffffffffffffffffffffffffffffffffffffffffffffffffffffffe18436030181126148ea57600080fd5b830160208101903567ffffffffffffffff81111561490757600080fd5b80360382131561491657600080fd5b60408085015261492a60808501828461475c565b91505060208401356060840152809150509392505050565b600060c0828403121561495457600080fd5b611f3783836139ab565b85815284602082015260806040820152600061497e60808301858761475c565b90506001600160a01b03831660608301529695505050505050565b6000606082840312156149ab57600080fd5b6040516060810181811067ffffffffffffffff821117156149ce576149ce613852565b60405290508082356149df81613ed2565b815260208301356149ef81613ed2565b60208201526040830135614a0281613ed2565b6040919091015292915050565b60006102808284031215614a2257600080fd5b614a2a6138f1565b614a348484614999565b8152606083013560208201526080830135604082015260a08301356060820152614a6060c08401613ee0565b6080820152614a7160e08401613ee0565b60a0820152610100614a84818501613ee0565b60c0830152610120614a97818601613ee0565b60e0840152610140614aaa818701613ee0565b838501526101609250614abe838701613ee0565b828501526101809150614ad2828701613ee0565b908401526101a0614ae4868201613ee0565b838501526101c09250614af8838701613ee0565b828501526101e09150614b0c828701613ee0565b90840152610200614b1e868201613ee0565b838501526102209250614b32838701613ee0565b82850152614b4361024087016139a0565b908401525061026093909301359281019290925250919050565b600060e0820190508582528435602083015260208501356040830152604085013560608301526060850135614b9181613988565b6001600160a01b0316608083015260a082019390935260c0015292915050565b60006060808301868452602086818601526040838187015282875180855260808801915060808160051b89010194508389016000805b83811015614cc8578a88037fffffffffffffffffffffffffffffffffffffffffffffffffffffffffffffff800185528251805189528701518789018790528051878a018190529088019083908b8b01905b80831015614cb357614c9d828551805115158252602081015115156020830152604081015160408301526060810151606083015260808101516001600160a01b03808216608085015260a083015160a08501528060c08401511660c085015250505050565b60e0820191508a84019350600183019250614c38565b50995050509386019391860191600101614be7565b50959c9b505050505050505050505050565b7f4e487b7100000000000000000000000000000000000000000000000000000000600052603260045260246000fd5b60006001600160a01b03808816835286602084015285604084015260a06060840152614d3860a08401866145fa565b91508084166080840152509695505050505050565b7f4e487b7100000000000000000000000000000000000000000000000000000000600052601260045260246000fd5b60006020808385031215614d8f57600080fd5b825167ffffffffffffffff811115614da657600080fd5b8301601f81018513614db757600080fd5b8051614dc5613a5882613964565b81815260e09182028301840191848201919088841115614de457600080fd5b938501935b83851015614e7a5780858a031215614e015760008081fd5b614e096138aa565b8551614e1481613ed2565b815285870151614e2381613ed2565b818801526040868101519082015260608087015190820152608080870151614e4a81613988565b9082015260a0868101519082015260c080870151614e6781613988565b9082015283529384019391850191614de9565b50979650505050505050565b6101208101614ee78286805115158252602081015115156020830152604081015160408301526060810151606083015260808101516001600160a01b03808216608085015260a083015160a08501528060c08401511660c085015250505050565b8360e08301526001600160a01b03831661010083015294935050505056fea2646970667358221220406a7256b42df4a59480e6ac3c6acd6f09cd8b418d12efb2fd96f051836faf0464736f6c63430008100033",
  "devdoc": {
    "details": "Adheres to - IJBController3_1: General interface for the generic controller methods in this contract that interacts with funding cycles and tokens according to the protocol's rules. IJBMigratable: Allows migrating to this contract, with a hook called to prepare for the migration.Inherits from - JBOperatable: Several functions in this contract can only be accessed by a project owner, or an address that has been preconfifigured to be an operator of the project. ERC165: Introspection on interface adherance. This Controller manages a project's reserved tokens explicitly instead of through a passive tracker property.  It is backwards compatible with the original IJBController, and exposes convenience view methods as part of IJBController3_1 for clearer queries.",
    "kind": "dev",
    "methods": {
      "burnTokensOf(address,uint256,uint256,string,bool)": {
        "details": "Only a token's holder, a designated operator, or a project's terminal can burn it.",
        "params": {
          "_holder": "The account that is having its tokens burned.",
          "_memo": "A memo to pass along to the emitted event.",
          "_preferClaimedTokens": "A flag indicating whether a project's attached token contract should be burned first if they have been issued.",
          "_projectId": "The ID of the project to which the tokens being burned belong.",
          "_tokenCount": "The number of tokens to burn."
        }
      },
      "constructor": {
        "params": {
          "_directory": "A contract storing directories of terminals and controllers for each project.",
          "_fundingCycleStore": "A contract storing all funding cycle configurations.",
          "_operatorStore": "A contract storing operator assignments.",
          "_projects": "A contract which mints ERC-721's that represent project ownership and transfers.",
          "_splitsStore": "A contract that stores splits for each project.",
          "_tokenStore": "A contract that manages token minting and burning."
        }
      },
      "currentFundingCycleOf(uint256)": {
        "params": {
          "_projectId": "The ID of the project to which the funding cycle belongs."
        },
        "returns": {
          "fundingCycle": "The current funding cycle.",
          "metadata": "The current funding cycle's metadata."
        }
      },
      "distributeReservedTokensOf(uint256,string)": {
        "params": {
          "_memo": "A memo to pass along to the emitted event.",
          "_projectId": "The ID of the project to which the reserved tokens belong."
        },
        "returns": {
          "_0": "The amount of minted reserved tokens."
        }
      },
      "distributionLimitOf(uint256,uint256,address,address)": {
        "details": "The number of decimals in the returned fixed point amount is the same as that of the specified terminal. ",
        "params": {
          "_configuration": "The configuration during which the distribution limit applies.",
          "_projectId": "The ID of the project to get the distribution limit of.",
          "_terminal": "The terminal from which distributions are being limited.",
          "_token": "The token for which the distribution limit applies."
        },
        "returns": {
          "_0": "The distribution limit, as a fixed point number with the same number of decimals as the provided terminal.",
          "_1": "The currency of the distribution limit."
        }
      },
      "getFundingCycleOf(uint256,uint256)": {
        "params": {
          "_projectId": "The ID of the project to which the funding cycle belongs."
        },
        "returns": {
          "fundingCycle": "The funding cycle.",
          "metadata": "The funding cycle's metadata."
        }
      },
      "latestConfiguredFundingCycleOf(uint256)": {
        "params": {
          "_projectId": "The ID of the project to which the funding cycle belongs."
        },
        "returns": {
          "ballotState": "The state of the configuration.",
          "fundingCycle": "The latest configured funding cycle.",
          "metadata": "The latest configured funding cycle's metadata."
        }
      },
      "launchFundingCyclesFor(uint256,(uint256,uint256,uint256,address),((bool,bool,bool),uint256,uint256,uint256,bool,bool,bool,bool,bool,bool,bool,bool,bool,bool,bool,bool,address,uint256),uint256,(uint256,(bool,bool,uint256,uint256,address,uint256,address)[])[],(address,address,uint256,uint256,uint256,uint256)[],address[],string)": {
        "details": "Each operation within this transaction can be done in sequence separately.Only a project owner or operator can launch its funding cycles.",
        "params": {
          "_data": "Data that defines the project's first funding cycle. These properties will remain fixed for the duration of the funding cycle.",
          "_fundAccessConstraints": "An array containing amounts that a project can use from its treasury for each payment terminal. Amounts are fixed point numbers using the same number of decimals as the accompanying terminal. The `_distributionLimit` and `_overflowAllowance` parameters must fit in a `uint232`.",
          "_groupedSplits": "An array of splits to set for any number of groups. ",
          "_memo": "A memo to pass along to the emitted event.",
          "_metadata": "Metadata specifying the controller specific params that a funding cycle can have. These properties will remain fixed for the duration of the funding cycle.",
          "_mustStartAtOrAfter": "The time before which the configured funding cycle cannot start.",
          "_projectId": "The ID of the project to launch funding cycles for.",
          "_terminals": "Payment terminals to add for the project."
        },
        "returns": {
          "configuration": "The configuration of the funding cycle that was successfully created."
        }
      },
      "launchProjectFor(address,(string,uint256),(uint256,uint256,uint256,address),((bool,bool,bool),uint256,uint256,uint256,bool,bool,bool,bool,bool,bool,bool,bool,bool,bool,bool,bool,address,uint256),uint256,(uint256,(bool,bool,uint256,uint256,address,uint256,address)[])[],(address,address,uint256,uint256,uint256,uint256)[],address[],string)": {
        "details": "Each operation within this transaction can be done in sequence separately.Anyone can deploy a project on an owner's behalf.",
        "params": {
          "_data": "Data that defines the project's first funding cycle. These properties will remain fixed for the duration of the funding cycle.",
          "_fundAccessConstraints": "An array containing amounts that a project can use from its treasury for each payment terminal. Amounts are fixed point numbers using the same number of decimals as the accompanying terminal. The `_distributionLimit` and `_overflowAllowance` parameters must fit in a `uint232`.",
          "_groupedSplits": "An array of splits to set for any number of groups. ",
          "_memo": "A memo to pass along to the emitted event.",
          "_metadata": "Metadata specifying the controller specific params that a funding cycle can have. These properties will remain fixed for the duration of the funding cycle.",
          "_mustStartAtOrAfter": "The time before which the configured funding cycle cannot start.",
          "_owner": "The address to set as the owner of the project. The project ERC-721 will be owned by this address.",
          "_projectMetadata": "Metadata to associate with the project within a particular domain. This can be updated any time by the owner of the project.",
          "_terminals": "Payment terminals to add for the project."
        },
        "returns": {
          "projectId": "The ID of the project."
        }
      },
      "migrate(uint256,address)": {
        "details": "Only a project's owner or a designated operator can migrate it.",
        "params": {
          "_projectId": "The ID of the project that will be migrated from this controller.",
          "_to": "The controller to which the project is migrating."
        }
      },
      "mintTokensOf(uint256,uint256,address,string,bool,bool)": {
        "details": "Only a project's owner, a designated operator, one of its terminals, or the current data source can mint its tokens.",
        "params": {
          "_beneficiary": "The account that the tokens are being minted for.",
          "_memo": "A memo to pass along to the emitted event.",
          "_preferClaimedTokens": "A flag indicating whether a project's attached token contract should be minted if they have been issued.",
          "_projectId": "The ID of the project to which the tokens being minted belong.",
          "_tokenCount": "The amount of tokens to mint in total, counting however many should be reserved.",
          "_useReservedRate": "Whether to use the current funding cycle's reserved rate in the mint calculation."
        },
        "returns": {
          "beneficiaryTokenCount": "The amount of tokens minted for the beneficiary."
        }
      },
      "overflowAllowanceOf(uint256,uint256,address,address)": {
        "details": "The number of decimals in the returned fixed point amount is the same as that of the specified terminal. ",
        "params": {
          "_configuration": "The configuration of the during which the allowance applies.",
          "_projectId": "The ID of the project to get the overflow allowance of.",
          "_terminal": "The terminal managing the overflow.",
          "_token": "The token for which the overflow allowance applies."
        },
        "returns": {
          "_0": "The overflow allowance, as a fixed point number with the same number of decimals as the provided terminal.",
          "_1": "The currency of the overflow allowance."
        }
      },
      "prepForMigrationOf(uint256,address)": {
        "details": "This controller should not yet be the project's controller.",
        "params": {
          "_from": "The controller being migrated from.",
          "_projectId": "The ID of the project that will be migrated to this controller."
        }
      },
      "queuedFundingCycleOf(uint256)": {
        "params": {
          "_projectId": "The ID of the project to which the funding cycle belongs."
        },
        "returns": {
          "fundingCycle": "The queued funding cycle.",
          "metadata": "The queued funding cycle's metadata."
        }
      },
      "reconfigureFundingCyclesOf(uint256,(uint256,uint256,uint256,address),((bool,bool,bool),uint256,uint256,uint256,bool,bool,bool,bool,bool,bool,bool,bool,bool,bool,bool,bool,address,uint256),uint256,(uint256,(bool,bool,uint256,uint256,address,uint256,address)[])[],(address,address,uint256,uint256,uint256,uint256)[],string)": {
        "details": "Only a project's owner or a designated operator can configure its funding cycles.",
        "params": {
          "_data": "Data that defines the funding cycle. These properties will remain fixed for the duration of the funding cycle.",
          "_fundAccessConstraints": "An array containing amounts that a project can use from its treasury for each payment terminal. Amounts are fixed point numbers using the same number of decimals as the accompanying terminal. The `_distributionLimit` and `_overflowAllowance` parameters must fit in a `uint232`.",
          "_groupedSplits": "An array of splits to set for any number of groups. ",
          "_memo": "A memo to pass along to the emitted event.",
          "_metadata": "Metadata specifying the controller specific params that a funding cycle can have. These properties will remain fixed for the duration of the funding cycle.",
          "_mustStartAtOrAfter": "The time before which the configured funding cycle cannot start.",
          "_projectId": "The ID of the project whose funding cycles are being reconfigured."
        },
        "returns": {
          "configuration": "The configuration of the funding cycle that was successfully reconfigured."
        }
      },
      "reservedTokenBalanceOf(uint256)": {
        "params": {
          "_projectId": "The ID of the project to get a reserved token balance of.\t"
        },
        "returns": {
          "_0": "The current amount of reserved tokens.\t"
        }
      },
      "reservedTokenBalanceOf(uint256,uint256)": {
        "details": "This is just for IJBController backwards compatibility.",
        "params": {
          "_projectId": "The ID of the project to get a reserved token balance of.\t",
          "_reservedRate": "The reserved rate to use when making the calculation.\t"
        },
        "returns": {
          "_0": "The current amount of reserved tokens.\t"
        }
      },
      "supportsInterface(bytes4)": {
        "details": " See {IERC165-supportsInterface}.",
        "params": {
          "_interfaceId": "The ID of the interface to check for adherance to."
        }
      },
      "totalOutstandingTokensOf(uint256)": {
        "params": {
          "_projectId": "The ID of the project to get total outstanding tokens of."
        },
        "returns": {
          "_0": "The current total amount of outstanding tokens for the project."
        }
      },
      "totalOutstandingTokensOf(uint256,uint256)": {
        "details": "This is just for IJBController backwards compatibility.",
        "params": {
          "_projectId": "The ID of the project to get total outstanding tokens of.\t",
          "_reservedRate": "The reserved rate to use when making the calculation.\t"
        },
        "returns": {
          "_0": "The current total amount of outstanding tokens for the project.\t"
        }
      }
    },
    "stateVariables": {
      "_packedDistributionLimitDataOf": {
        "details": "bits 0-231: The amount of token that a project can distribute per funding cycle.bits 232-255: The currency of amount that a project can distribute. _projectId The ID of the project to get the packed distribution limit data of. _configuration The configuration during which the packed distribution limit data applies. _terminal The terminal from which distributions are being limited. _token The token for which distributions are being limited."
      },
      "_packedOverflowAllowanceDataOf": {
        "details": "bits 0-231: The amount of overflow that a project is allowed to tap into on-demand throughout the configuration.bits 232-255: The currency of the amount of overflow that a project is allowed to tap. _projectId The ID of the project to get the packed overflow allowance data of. _configuration The configuration during which the packed overflow allowance data applies. _terminal The terminal managing the overflow. _token The token for which overflow is being allowed."
      }
    },
    "version": 1
  },
  "userdoc": {
    "errors": {
      "PRBMath__MulDivOverflow(uint256,uint256)": [
        {
          "notice": "Emitted when the result overflows uint256."
        }
      ]
    },
    "kind": "user",
    "methods": {
      "burnTokensOf(address,uint256,uint256,string,bool)": {
        "notice": "Burns a token holder's supply."
      },
      "currentFundingCycleOf(uint256)": {
        "notice": "A project's current funding cycle along with its metadata."
      },
      "directory()": {
        "notice": "The directory of terminals and controllers for projects."
      },
      "distributeReservedTokensOf(uint256,string)": {
        "notice": "Distributes all outstanding reserved tokens for a project."
      },
      "distributionLimitOf(uint256,uint256,address,address)": {
        "notice": "The amount of token that a project can distribute per funding cycle, and the currency it's in terms of."
      },
      "fundingCycleStore()": {
        "notice": "The contract storing all funding cycle configurations."
      },
      "getFundingCycleOf(uint256,uint256)": {
        "notice": "A project's funding cycle for the specified configuration along with its metadata."
      },
      "latestConfiguredFundingCycleOf(uint256)": {
        "notice": "A project's latest configured funding cycle along with its metadata and the ballot state of the configuration."
      },
      "launchFundingCyclesFor(uint256,(uint256,uint256,uint256,address),((bool,bool,bool),uint256,uint256,uint256,bool,bool,bool,bool,bool,bool,bool,bool,bool,bool,bool,bool,address,uint256),uint256,(uint256,(bool,bool,uint256,uint256,address,uint256,address)[])[],(address,address,uint256,uint256,uint256,uint256)[],address[],string)": {
        "notice": "Creates a funding cycle for an already existing project ERC-721."
      },
      "launchProjectFor(address,(string,uint256),(uint256,uint256,uint256,address),((bool,bool,bool),uint256,uint256,uint256,bool,bool,bool,bool,bool,bool,bool,bool,bool,bool,bool,bool,address,uint256),uint256,(uint256,(bool,bool,uint256,uint256,address,uint256,address)[])[],(address,address,uint256,uint256,uint256,uint256)[],address[],string)": {
        "notice": "Creates a project. This will mint an ERC-721 into the specified owner's account, configure a first funding cycle, and set up any splits."
      },
      "migrate(uint256,address)": {
        "notice": "Allows a project to migrate from this controller to another."
      },
      "mintTokensOf(uint256,uint256,address,string,bool,bool)": {
        "notice": "Mint new token supply into an account, and optionally reserve a supply to be distributed according to the project's current funding cycle configuration."
      },
      "operatorStore()": {
        "notice": " A contract storing operator assignments."
      },
      "overflowAllowanceOf(uint256,uint256,address,address)": {
        "notice": "The amount of overflow that a project is allowed to tap into on-demand throughout a configuration, and the currency it's in terms of."
      },
      "prepForMigrationOf(uint256,address)": {
        "notice": "Allows other controllers to signal to this one that a migration is expected for the specified project."
      },
      "projects()": {
        "notice": "Mints ERC-721's that represent project ownership."
      },
      "queuedFundingCycleOf(uint256)": {
        "notice": "A project's queued funding cycle along with its metadata."
      },
      "reconfigureFundingCyclesOf(uint256,(uint256,uint256,uint256,address),((bool,bool,bool),uint256,uint256,uint256,bool,bool,bool,bool,bool,bool,bool,bool,bool,bool,bool,bool,address,uint256),uint256,(uint256,(bool,bool,uint256,uint256,address,uint256,address)[])[],(address,address,uint256,uint256,uint256,uint256)[],string)": {
        "notice": "Proposes a configuration of a subsequent funding cycle that will take effect once the current one expires if it is approved by the current funding cycle's ballot."
      },
      "reservedTokenBalanceOf(uint256)": {
        "notice": " Gets the amount of reserved tokens that a project has available to distribute.\t"
      },
      "reservedTokenBalanceOf(uint256,uint256)": {
        "notice": " Gets the amount of reserved tokens that a project has available to distribute.\t"
      },
      "splitsStore()": {
        "notice": "The contract that stores splits for each project."
      },
      "supportsInterface(bytes4)": {
        "notice": "Indicates if this contract adheres to the specified interface."
      },
      "tokenStore()": {
        "notice": "The contract that manages token minting and burning."
      },
      "totalOutstandingTokensOf(uint256)": {
        "notice": "Gets the current total amount of outstanding tokens for a project."
      },
      "totalOutstandingTokensOf(uint256,uint256)": {
        "notice": " Gets the current total amount of outstanding tokens for a project, given a reserved rate.\t"
      }
    },
    "notice": "Stitches together funding cycles and project tokens, making sure all activity is accounted for and correct.",
    "version": 1
  },
  "storageLayout": {
    "storage": [
      {
        "astId": 7293,
        "contract": "contracts/JBController3_0_1.sol:JBController3_0_1",
        "label": "_packedDistributionLimitDataOf",
        "offset": 0,
        "slot": "0",
        "type": "t_mapping(t_uint256,t_mapping(t_uint256,t_mapping(t_contract(IJBPaymentTerminal)24349,t_mapping(t_address,t_uint256))))"
      },
      {
        "astId": 7305,
        "contract": "contracts/JBController3_0_1.sol:JBController3_0_1",
        "label": "_packedOverflowAllowanceDataOf",
        "offset": 0,
        "slot": "1",
        "type": "t_mapping(t_uint256,t_mapping(t_uint256,t_mapping(t_contract(IJBPaymentTerminal)24349,t_mapping(t_address,t_uint256))))"
      },
      {
        "astId": 7310,
        "contract": "contracts/JBController3_0_1.sol:JBController3_0_1",
        "label": "_reservedTokenBalanceOf",
        "offset": 0,
        "slot": "2",
        "type": "t_mapping(t_uint256,t_uint256)"
      }
    ],
    "types": {
      "t_address": {
        "encoding": "inplace",
        "label": "address",
        "numberOfBytes": "20"
      },
      "t_contract(IJBPaymentTerminal)24349": {
        "encoding": "inplace",
        "label": "contract IJBPaymentTerminal",
        "numberOfBytes": "20"
      },
      "t_mapping(t_address,t_uint256)": {
        "encoding": "mapping",
        "key": "t_address",
        "label": "mapping(address => uint256)",
        "numberOfBytes": "32",
        "value": "t_uint256"
      },
      "t_mapping(t_contract(IJBPaymentTerminal)24349,t_mapping(t_address,t_uint256))": {
        "encoding": "mapping",
        "key": "t_contract(IJBPaymentTerminal)24349",
        "label": "mapping(contract IJBPaymentTerminal => mapping(address => uint256))",
        "numberOfBytes": "32",
        "value": "t_mapping(t_address,t_uint256)"
      },
      "t_mapping(t_uint256,t_mapping(t_contract(IJBPaymentTerminal)24349,t_mapping(t_address,t_uint256)))": {
        "encoding": "mapping",
        "key": "t_uint256",
        "label": "mapping(uint256 => mapping(contract IJBPaymentTerminal => mapping(address => uint256)))",
        "numberOfBytes": "32",
        "value": "t_mapping(t_contract(IJBPaymentTerminal)24349,t_mapping(t_address,t_uint256))"
      },
      "t_mapping(t_uint256,t_mapping(t_uint256,t_mapping(t_contract(IJBPaymentTerminal)24349,t_mapping(t_address,t_uint256))))": {
        "encoding": "mapping",
        "key": "t_uint256",
        "label": "mapping(uint256 => mapping(uint256 => mapping(contract IJBPaymentTerminal => mapping(address => uint256))))",
        "numberOfBytes": "32",
        "value": "t_mapping(t_uint256,t_mapping(t_contract(IJBPaymentTerminal)24349,t_mapping(t_address,t_uint256)))"
      },
      "t_mapping(t_uint256,t_uint256)": {
        "encoding": "mapping",
        "key": "t_uint256",
        "label": "mapping(uint256 => uint256)",
        "numberOfBytes": "32",
        "value": "t_uint256"
      },
      "t_uint256": {
        "encoding": "inplace",
        "label": "uint256",
        "numberOfBytes": "32"
      }
    }
  }
}