{
  "address": "0x0baCb87Cf7DbDdde2299D92673A938E067a9eb29",
  "abi": [
    {
      "inputs": [
        {
          "internalType": "uint256",
          "name": "_baseWeightCurrency",
          "type": "uint256"
        },
        {
          "internalType": "contract IJBOperatorStore",
          "name": "_operatorStore",
          "type": "address"
        },
        {
          "internalType": "contract IJBProjects",
          "name": "_projects",
          "type": "address"
        },
        {
          "internalType": "contract IJBDirectory",
          "name": "_directory",
          "type": "address"
        },
        {
          "internalType": "contract IJBSplitsStore",
          "name": "_splitsStore",
          "type": "address"
        },
        {
          "internalType": "contract IJBPrices",
          "name": "_prices",
          "type": "address"
        },
        {
          "internalType": "contract IJBSingleTokenPaymentTerminalStore",
          "name": "_store",
          "type": "address"
        },
        {
          "internalType": "address",
          "name": "_owner",
          "type": "address"
        }
      ],
      "stateMutability": "nonpayable",
      "type": "constructor"
    },
    {
      "inputs": [],
      "name": "FEE_TOO_HIGH",
      "type": "error"
    },
    {
      "inputs": [],
      "name": "INADEQUATE_DISTRIBUTION_AMOUNT",
      "type": "error"
    },
    {
      "inputs": [],
      "name": "INADEQUATE_RECLAIM_AMOUNT",
      "type": "error"
    },
    {
      "inputs": [],
      "name": "INADEQUATE_TOKEN_COUNT",
      "type": "error"
    },
    {
      "inputs": [],
      "name": "NO_MSG_VALUE_ALLOWED",
      "type": "error"
    },
    {
      "inputs": [],
      "name": "PAY_TO_ZERO_ADDRESS",
      "type": "error"
    },
    {
      "inputs": [
        {
          "internalType": "uint256",
          "name": "prod1",
          "type": "uint256"
        },
        {
          "internalType": "uint256",
          "name": "denominator",
          "type": "uint256"
        }
      ],
      "name": "PRBMath__MulDivOverflow",
      "type": "error"
    },
    {
      "inputs": [],
      "name": "PROJECT_TERMINAL_MISMATCH",
      "type": "error"
    },
    {
      "inputs": [],
      "name": "REDEEM_TO_ZERO_ADDRESS",
      "type": "error"
    },
    {
      "inputs": [],
      "name": "TERMINAL_IN_SPLIT_ZERO_ADDRESS",
      "type": "error"
    },
    {
      "inputs": [],
      "name": "TERMINAL_TOKENS_INCOMPATIBLE",
      "type": "error"
    },
    {
      "inputs": [],
      "name": "UNAUTHORIZED",
      "type": "error"
    },
    {
      "anonymous": false,
      "inputs": [
        {
          "indexed": true,
          "internalType": "uint256",
          "name": "projectId",
          "type": "uint256"
        },
        {
          "indexed": false,
          "internalType": "uint256",
          "name": "amount",
          "type": "uint256"
        },
        {
          "indexed": false,
          "internalType": "uint256",
          "name": "refundedFees",
          "type": "uint256"
        },
        {
          "indexed": false,
          "internalType": "string",
          "name": "memo",
          "type": "string"
        },
        {
          "indexed": false,
          "internalType": "bytes",
          "name": "metadata",
          "type": "bytes"
        },
        {
          "indexed": false,
          "internalType": "address",
          "name": "caller",
          "type": "address"
        }
      ],
      "name": "AddToBalance",
      "type": "event"
    },
    {
      "anonymous": false,
      "inputs": [
        {
          "indexed": true,
          "internalType": "contract IJBPayDelegate",
          "name": "delegate",
          "type": "address"
        },
        {
          "components": [
            {
              "internalType": "address",
              "name": "payer",
              "type": "address"
            },
            {
              "internalType": "uint256",
              "name": "projectId",
              "type": "uint256"
            },
            {
              "internalType": "uint256",
              "name": "currentFundingCycleConfiguration",
              "type": "uint256"
            },
            {
              "components": [
                {
                  "internalType": "address",
                  "name": "token",
                  "type": "address"
                },
                {
                  "internalType": "uint256",
                  "name": "value",
                  "type": "uint256"
                },
                {
                  "internalType": "uint256",
                  "name": "decimals",
                  "type": "uint256"
                },
                {
                  "internalType": "uint256",
                  "name": "currency",
                  "type": "uint256"
                }
              ],
              "internalType": "struct JBTokenAmount",
              "name": "amount",
              "type": "tuple"
            },
            {
              "components": [
                {
                  "internalType": "address",
                  "name": "token",
                  "type": "address"
                },
                {
                  "internalType": "uint256",
                  "name": "value",
                  "type": "uint256"
                },
                {
                  "internalType": "uint256",
                  "name": "decimals",
                  "type": "uint256"
                },
                {
                  "internalType": "uint256",
                  "name": "currency",
                  "type": "uint256"
                }
              ],
              "internalType": "struct JBTokenAmount",
              "name": "forwardedAmount",
              "type": "tuple"
            },
            {
              "internalType": "uint256",
              "name": "projectTokenCount",
              "type": "uint256"
            },
            {
              "internalType": "address",
              "name": "beneficiary",
              "type": "address"
            },
            {
              "internalType": "bool",
              "name": "preferClaimedTokens",
              "type": "bool"
            },
            {
              "internalType": "string",
              "name": "memo",
              "type": "string"
            },
            {
              "internalType": "bytes",
              "name": "metadata",
              "type": "bytes"
            }
          ],
          "indexed": false,
          "internalType": "struct JBDidPayData",
          "name": "data",
          "type": "tuple"
        },
        {
          "indexed": false,
          "internalType": "uint256",
          "name": "delegatedAmount",
          "type": "uint256"
        },
        {
          "indexed": false,
          "internalType": "address",
          "name": "caller",
          "type": "address"
        }
      ],
      "name": "DelegateDidPay",
      "type": "event"
    },
    {
      "anonymous": false,
      "inputs": [
        {
          "indexed": true,
          "internalType": "contract IJBRedemptionDelegate",
          "name": "delegate",
          "type": "address"
        },
        {
          "components": [
            {
              "internalType": "address",
              "name": "holder",
              "type": "address"
            },
            {
              "internalType": "uint256",
              "name": "projectId",
              "type": "uint256"
            },
            {
              "internalType": "uint256",
              "name": "currentFundingCycleConfiguration",
              "type": "uint256"
            },
            {
              "internalType": "uint256",
              "name": "projectTokenCount",
              "type": "uint256"
            },
            {
              "components": [
                {
                  "internalType": "address",
                  "name": "token",
                  "type": "address"
                },
                {
                  "internalType": "uint256",
                  "name": "value",
                  "type": "uint256"
                },
                {
                  "internalType": "uint256",
                  "name": "decimals",
                  "type": "uint256"
                },
                {
                  "internalType": "uint256",
                  "name": "currency",
                  "type": "uint256"
                }
              ],
              "internalType": "struct JBTokenAmount",
              "name": "reclaimedAmount",
              "type": "tuple"
            },
            {
              "components": [
                {
                  "internalType": "address",
                  "name": "token",
                  "type": "address"
                },
                {
                  "internalType": "uint256",
                  "name": "value",
                  "type": "uint256"
                },
                {
                  "internalType": "uint256",
                  "name": "decimals",
                  "type": "uint256"
                },
                {
                  "internalType": "uint256",
                  "name": "currency",
                  "type": "uint256"
                }
              ],
              "internalType": "struct JBTokenAmount",
              "name": "forwardedAmount",
              "type": "tuple"
            },
            {
              "internalType": "address payable",
              "name": "beneficiary",
              "type": "address"
            },
            {
              "internalType": "string",
              "name": "memo",
              "type": "string"
            },
            {
              "internalType": "bytes",
              "name": "metadata",
              "type": "bytes"
            }
          ],
          "indexed": false,
          "internalType": "struct JBDidRedeemData",
          "name": "data",
          "type": "tuple"
        },
        {
          "indexed": false,
          "internalType": "uint256",
          "name": "delegatedAmount",
          "type": "uint256"
        },
        {
          "indexed": false,
          "internalType": "address",
          "name": "caller",
          "type": "address"
        }
      ],
      "name": "DelegateDidRedeem",
      "type": "event"
    },
    {
      "anonymous": false,
      "inputs": [
        {
          "indexed": true,
          "internalType": "uint256",
          "name": "fundingCycleConfiguration",
          "type": "uint256"
        },
        {
          "indexed": true,
          "internalType": "uint256",
          "name": "fundingCycleNumber",
          "type": "uint256"
        },
        {
          "indexed": true,
          "internalType": "uint256",
          "name": "projectId",
          "type": "uint256"
        },
        {
          "indexed": false,
          "internalType": "address",
          "name": "beneficiary",
          "type": "address"
        },
        {
          "indexed": false,
          "internalType": "uint256",
          "name": "amount",
          "type": "uint256"
        },
        {
          "indexed": false,
          "internalType": "uint256",
          "name": "distributedAmount",
          "type": "uint256"
        },
        {
          "indexed": false,
          "internalType": "uint256",
          "name": "fee",
          "type": "uint256"
        },
        {
          "indexed": false,
          "internalType": "uint256",
          "name": "beneficiaryDistributionAmount",
          "type": "uint256"
        },
        {
          "indexed": false,
          "internalType": "bytes",
          "name": "metadata",
          "type": "bytes"
        },
        {
          "indexed": false,
          "internalType": "address",
          "name": "caller",
          "type": "address"
        }
      ],
      "name": "DistributePayouts",
      "type": "event"
    },
    {
      "anonymous": false,
      "inputs": [
        {
          "indexed": true,
          "internalType": "uint256",
          "name": "projectId",
          "type": "uint256"
        },
        {
          "indexed": true,
          "internalType": "uint256",
          "name": "domain",
          "type": "uint256"
        },
        {
          "indexed": true,
          "internalType": "uint256",
          "name": "group",
          "type": "uint256"
        },
        {
          "components": [
            {
              "internalType": "bool",
              "name": "preferClaimed",
              "type": "bool"
            },
            {
              "internalType": "bool",
              "name": "preferAddToBalance",
              "type": "bool"
            },
            {
              "internalType": "uint256",
              "name": "percent",
              "type": "uint256"
            },
            {
              "internalType": "uint256",
              "name": "projectId",
              "type": "uint256"
            },
            {
              "internalType": "address payable",
              "name": "beneficiary",
              "type": "address"
            },
            {
              "internalType": "uint256",
              "name": "lockedUntil",
              "type": "uint256"
            },
            {
              "internalType": "contract IJBSplitAllocator",
              "name": "allocator",
              "type": "address"
            }
          ],
          "indexed": false,
          "internalType": "struct JBSplit",
          "name": "split",
          "type": "tuple"
        },
        {
          "indexed": false,
          "internalType": "uint256",
          "name": "amount",
          "type": "uint256"
        },
        {
          "indexed": false,
          "internalType": "uint256",
          "name": "netAmount",
          "type": "uint256"
        },
        {
          "indexed": false,
          "internalType": "address",
          "name": "caller",
          "type": "address"
        }
      ],
      "name": "DistributeToPayoutSplit",
      "type": "event"
    },
    {
      "anonymous": false,
      "inputs": [
        {
          "indexed": true,
          "internalType": "uint256",
          "name": "projectId",
          "type": "uint256"
        },
        {
          "indexed": true,
          "internalType": "uint256",
          "name": "feeProjectId",
          "type": "uint256"
        },
        {
          "indexed": false,
          "internalType": "uint256",
          "name": "amount",
          "type": "uint256"
        },
        {
          "indexed": false,
          "internalType": "bytes",
          "name": "reason",
          "type": "bytes"
        },
        {
          "indexed": false,
          "internalType": "address",
          "name": "caller",
          "type": "address"
        }
      ],
      "name": "FeeReverted",
      "type": "event"
    },
    {
      "anonymous": false,
      "inputs": [
        {
          "indexed": true,
          "internalType": "uint256",
          "name": "projectId",
          "type": "uint256"
        },
        {
          "indexed": true,
          "internalType": "uint256",
          "name": "amount",
          "type": "uint256"
        },
        {
          "indexed": true,
          "internalType": "uint256",
          "name": "fee",
          "type": "uint256"
        },
        {
          "indexed": false,
          "internalType": "uint256",
          "name": "feeDiscount",
          "type": "uint256"
        },
        {
          "indexed": false,
          "internalType": "address",
          "name": "beneficiary",
          "type": "address"
        },
        {
          "indexed": false,
          "internalType": "address",
          "name": "caller",
          "type": "address"
        }
      ],
      "name": "HoldFee",
      "type": "event"
    },
    {
      "anonymous": false,
      "inputs": [
        {
          "indexed": true,
          "internalType": "uint256",
          "name": "projectId",
          "type": "uint256"
        },
        {
          "indexed": true,
          "internalType": "contract IJBPaymentTerminal",
          "name": "to",
          "type": "address"
        },
        {
          "indexed": false,
          "internalType": "uint256",
          "name": "amount",
          "type": "uint256"
        },
        {
          "indexed": false,
          "internalType": "address",
          "name": "caller",
          "type": "address"
        }
      ],
      "name": "Migrate",
      "type": "event"
    },
    {
      "anonymous": false,
      "inputs": [
        {
          "indexed": true,
          "internalType": "address",
          "name": "previousOwner",
          "type": "address"
        },
        {
          "indexed": true,
          "internalType": "address",
          "name": "newOwner",
          "type": "address"
        }
      ],
      "name": "OwnershipTransferred",
      "type": "event"
    },
    {
      "anonymous": false,
      "inputs": [
        {
          "indexed": true,
          "internalType": "uint256",
          "name": "fundingCycleConfiguration",
          "type": "uint256"
        },
        {
          "indexed": true,
          "internalType": "uint256",
          "name": "fundingCycleNumber",
          "type": "uint256"
        },
        {
          "indexed": true,
          "internalType": "uint256",
          "name": "projectId",
          "type": "uint256"
        },
        {
          "indexed": false,
          "internalType": "address",
          "name": "payer",
          "type": "address"
        },
        {
          "indexed": false,
          "internalType": "address",
          "name": "beneficiary",
          "type": "address"
        },
        {
          "indexed": false,
          "internalType": "uint256",
          "name": "amount",
          "type": "uint256"
        },
        {
          "indexed": false,
          "internalType": "uint256",
          "name": "beneficiaryTokenCount",
          "type": "uint256"
        },
        {
          "indexed": false,
          "internalType": "string",
          "name": "memo",
          "type": "string"
        },
        {
          "indexed": false,
          "internalType": "bytes",
          "name": "metadata",
          "type": "bytes"
        },
        {
          "indexed": false,
          "internalType": "address",
          "name": "caller",
          "type": "address"
        }
      ],
      "name": "Pay",
      "type": "event"
    },
    {
      "anonymous": false,
      "inputs": [
        {
          "indexed": true,
          "internalType": "uint256",
          "name": "projectId",
          "type": "uint256"
        },
        {
          "components": [
            {
              "internalType": "bool",
              "name": "preferClaimed",
              "type": "bool"
            },
            {
              "internalType": "bool",
              "name": "preferAddToBalance",
              "type": "bool"
            },
            {
              "internalType": "uint256",
              "name": "percent",
              "type": "uint256"
            },
            {
              "internalType": "uint256",
              "name": "projectId",
              "type": "uint256"
            },
            {
              "internalType": "address payable",
              "name": "beneficiary",
              "type": "address"
            },
            {
              "internalType": "uint256",
              "name": "lockedUntil",
              "type": "uint256"
            },
            {
              "internalType": "contract IJBSplitAllocator",
              "name": "allocator",
              "type": "address"
            }
          ],
          "indexed": false,
          "internalType": "struct JBSplit",
          "name": "split",
          "type": "tuple"
        },
        {
          "indexed": false,
          "internalType": "uint256",
          "name": "amount",
          "type": "uint256"
        },
        {
          "indexed": false,
          "internalType": "bytes",
          "name": "reason",
          "type": "bytes"
        },
        {
          "indexed": false,
          "internalType": "address",
          "name": "caller",
          "type": "address"
        }
      ],
      "name": "PayoutReverted",
      "type": "event"
    },
    {
      "anonymous": false,
      "inputs": [
        {
          "indexed": true,
          "internalType": "uint256",
          "name": "projectId",
          "type": "uint256"
        },
        {
          "indexed": true,
          "internalType": "uint256",
          "name": "amount",
          "type": "uint256"
        },
        {
          "indexed": true,
          "internalType": "bool",
          "name": "wasHeld",
          "type": "bool"
        },
        {
          "indexed": false,
          "internalType": "address",
          "name": "beneficiary",
          "type": "address"
        },
        {
          "indexed": false,
          "internalType": "address",
          "name": "caller",
          "type": "address"
        }
      ],
      "name": "ProcessFee",
      "type": "event"
    },
    {
      "anonymous": false,
      "inputs": [
        {
          "indexed": true,
          "internalType": "uint256",
          "name": "fundingCycleConfiguration",
          "type": "uint256"
        },
        {
          "indexed": true,
          "internalType": "uint256",
          "name": "fundingCycleNumber",
          "type": "uint256"
        },
        {
          "indexed": true,
          "internalType": "uint256",
          "name": "projectId",
          "type": "uint256"
        },
        {
          "indexed": false,
          "internalType": "address",
          "name": "holder",
          "type": "address"
        },
        {
          "indexed": false,
          "internalType": "address",
          "name": "beneficiary",
          "type": "address"
        },
        {
          "indexed": false,
          "internalType": "uint256",
          "name": "tokenCount",
          "type": "uint256"
        },
        {
          "indexed": false,
          "internalType": "uint256",
          "name": "reclaimedAmount",
          "type": "uint256"
        },
        {
          "indexed": false,
          "internalType": "string",
          "name": "memo",
          "type": "string"
        },
        {
          "indexed": false,
          "internalType": "bytes",
          "name": "metadata",
          "type": "bytes"
        },
        {
          "indexed": false,
          "internalType": "address",
          "name": "caller",
          "type": "address"
        }
      ],
      "name": "RedeemTokens",
      "type": "event"
    },
    {
      "anonymous": false,
      "inputs": [
        {
          "indexed": true,
          "internalType": "uint256",
          "name": "projectId",
          "type": "uint256"
        },
        {
          "indexed": true,
          "internalType": "uint256",
          "name": "amount",
          "type": "uint256"
        },
        {
          "indexed": true,
          "internalType": "uint256",
          "name": "refundedFees",
          "type": "uint256"
        },
        {
          "indexed": false,
          "internalType": "uint256",
          "name": "leftoverAmount",
          "type": "uint256"
        },
        {
          "indexed": false,
          "internalType": "address",
          "name": "caller",
          "type": "address"
        }
      ],
      "name": "RefundHeldFees",
      "type": "event"
    },
    {
      "anonymous": false,
      "inputs": [
        {
          "indexed": false,
          "internalType": "uint256",
          "name": "fee",
          "type": "uint256"
        },
        {
          "indexed": false,
          "internalType": "address",
          "name": "caller",
          "type": "address"
        }
      ],
      "name": "SetFee",
      "type": "event"
    },
    {
      "anonymous": false,
      "inputs": [
        {
          "indexed": true,
          "internalType": "contract IJBFeeGauge",
          "name": "feeGauge",
          "type": "address"
        },
        {
          "indexed": false,
          "internalType": "address",
          "name": "caller",
          "type": "address"
        }
      ],
      "name": "SetFeeGauge",
      "type": "event"
    },
    {
      "anonymous": false,
      "inputs": [
        {
          "indexed": true,
          "internalType": "address",
          "name": "addrs",
          "type": "address"
        },
        {
          "indexed": true,
          "internalType": "bool",
          "name": "flag",
          "type": "bool"
        },
        {
          "indexed": false,
          "internalType": "address",
          "name": "caller",
          "type": "address"
        }
      ],
      "name": "SetFeelessAddress",
      "type": "event"
    },
    {
      "anonymous": false,
      "inputs": [
        {
          "indexed": true,
          "internalType": "uint256",
          "name": "fundingCycleConfiguration",
          "type": "uint256"
        },
        {
          "indexed": true,
          "internalType": "uint256",
          "name": "fundingCycleNumber",
          "type": "uint256"
        },
        {
          "indexed": true,
          "internalType": "uint256",
          "name": "projectId",
          "type": "uint256"
        },
        {
          "indexed": false,
          "internalType": "address",
          "name": "beneficiary",
          "type": "address"
        },
        {
          "indexed": false,
          "internalType": "uint256",
          "name": "amount",
          "type": "uint256"
        },
        {
          "indexed": false,
          "internalType": "uint256",
          "name": "distributedAmount",
          "type": "uint256"
        },
        {
          "indexed": false,
          "internalType": "uint256",
          "name": "netDistributedamount",
          "type": "uint256"
        },
        {
          "indexed": false,
          "internalType": "string",
          "name": "memo",
          "type": "string"
        },
        {
          "indexed": false,
          "internalType": "bytes",
          "name": "metadata",
          "type": "bytes"
        },
        {
          "indexed": false,
          "internalType": "address",
          "name": "caller",
          "type": "address"
        }
      ],
      "name": "UseAllowance",
      "type": "event"
    },
    {
      "inputs": [
        {
          "internalType": "address",
          "name": "_token",
          "type": "address"
        },
        {
          "internalType": "uint256",
          "name": "_projectId",
          "type": "uint256"
        }
      ],
      "name": "acceptsToken",
      "outputs": [
        {
          "internalType": "bool",
          "name": "",
          "type": "bool"
        }
      ],
      "stateMutability": "view",
      "type": "function"
    },
    {
      "inputs": [
        {
          "internalType": "uint256",
          "name": "_projectId",
          "type": "uint256"
        },
        {
          "internalType": "uint256",
          "name": "_amount",
          "type": "uint256"
        },
        {
          "internalType": "address",
          "name": "_token",
          "type": "address"
        },
        {
          "internalType": "string",
          "name": "_memo",
          "type": "string"
        },
        {
          "internalType": "bytes",
          "name": "_metadata",
          "type": "bytes"
        }
      ],
      "name": "addToBalanceOf",
      "outputs": [],
      "stateMutability": "payable",
      "type": "function"
    },
    {
      "inputs": [
        {
          "internalType": "uint256",
          "name": "_projectId",
          "type": "uint256"
        },
        {
          "internalType": "uint256",
          "name": "_amount",
          "type": "uint256"
        },
        {
          "internalType": "address",
          "name": "_token",
          "type": "address"
        },
        {
          "internalType": "bool",
          "name": "_shouldRefundHeldFees",
          "type": "bool"
        },
        {
          "internalType": "string",
          "name": "_memo",
          "type": "string"
        },
        {
          "internalType": "bytes",
          "name": "_metadata",
          "type": "bytes"
        }
      ],
      "name": "addToBalanceOf",
      "outputs": [],
      "stateMutability": "payable",
      "type": "function"
    },
    {
      "inputs": [],
      "name": "baseWeightCurrency",
      "outputs": [
        {
          "internalType": "uint256",
          "name": "",
          "type": "uint256"
        }
      ],
      "stateMutability": "view",
      "type": "function"
    },
    {
      "inputs": [],
      "name": "currency",
      "outputs": [
        {
          "internalType": "uint256",
          "name": "",
          "type": "uint256"
        }
      ],
      "stateMutability": "view",
      "type": "function"
    },
    {
      "inputs": [
        {
          "internalType": "address",
          "name": "_token",
          "type": "address"
        }
      ],
      "name": "currencyForToken",
      "outputs": [
        {
          "internalType": "uint256",
          "name": "",
          "type": "uint256"
        }
      ],
      "stateMutability": "view",
      "type": "function"
    },
    {
      "inputs": [
        {
          "internalType": "uint256",
          "name": "_projectId",
          "type": "uint256"
        }
      ],
      "name": "currentEthOverflowOf",
      "outputs": [
        {
          "internalType": "uint256",
          "name": "",
          "type": "uint256"
        }
      ],
      "stateMutability": "view",
      "type": "function"
    },
    {
      "inputs": [],
      "name": "decimals",
      "outputs": [
        {
          "internalType": "uint256",
          "name": "",
          "type": "uint256"
        }
      ],
      "stateMutability": "view",
      "type": "function"
    },
    {
      "inputs": [
        {
          "internalType": "address",
          "name": "_token",
          "type": "address"
        }
      ],
      "name": "decimalsForToken",
      "outputs": [
        {
          "internalType": "uint256",
          "name": "",
          "type": "uint256"
        }
      ],
      "stateMutability": "view",
      "type": "function"
    },
    {
      "inputs": [],
      "name": "directory",
      "outputs": [
        {
          "internalType": "contract IJBDirectory",
          "name": "",
          "type": "address"
        }
      ],
      "stateMutability": "view",
      "type": "function"
    },
    {
      "inputs": [
        {
          "internalType": "uint256",
          "name": "_projectId",
          "type": "uint256"
        },
        {
          "internalType": "uint256",
          "name": "_amount",
          "type": "uint256"
        },
        {
          "internalType": "uint256",
          "name": "_currency",
          "type": "uint256"
        },
        {
          "internalType": "address",
          "name": "_token",
          "type": "address"
        },
        {
          "internalType": "uint256",
          "name": "_minReturnedTokens",
          "type": "uint256"
        },
        {
          "internalType": "bytes",
          "name": "_metadata",
          "type": "bytes"
        }
      ],
      "name": "distributePayoutsOf",
      "outputs": [
        {
          "internalType": "uint256",
          "name": "netLeftoverDistributionAmount",
          "type": "uint256"
        }
      ],
      "stateMutability": "nonpayable",
      "type": "function"
    },
    {
      "inputs": [],
      "name": "fee",
      "outputs": [
        {
          "internalType": "uint256",
          "name": "",
          "type": "uint256"
        }
      ],
      "stateMutability": "view",
      "type": "function"
    },
    {
      "inputs": [],
      "name": "feeGauge",
      "outputs": [
        {
          "internalType": "contract IJBFeeGauge",
          "name": "",
          "type": "address"
        }
      ],
      "stateMutability": "view",
      "type": "function"
    },
    {
      "inputs": [
        {
          "internalType": "uint256",
          "name": "_projectId",
          "type": "uint256"
        }
      ],
      "name": "heldFeesOf",
      "outputs": [
        {
          "components": [
            {
              "internalType": "uint256",
              "name": "amount",
              "type": "uint256"
            },
            {
              "internalType": "uint32",
              "name": "fee",
              "type": "uint32"
            },
            {
              "internalType": "uint32",
              "name": "feeDiscount",
              "type": "uint32"
            },
            {
              "internalType": "address",
              "name": "beneficiary",
              "type": "address"
            }
          ],
          "internalType": "struct JBFee[]",
          "name": "",
          "type": "tuple[]"
        }
      ],
      "stateMutability": "view",
      "type": "function"
    },
    {
      "inputs": [
        {
          "internalType": "address",
          "name": "",
          "type": "address"
        }
      ],
      "name": "isFeelessAddress",
      "outputs": [
        {
          "internalType": "bool",
          "name": "",
          "type": "bool"
        }
      ],
      "stateMutability": "view",
      "type": "function"
    },
    {
      "inputs": [
        {
          "internalType": "uint256",
          "name": "_projectId",
          "type": "uint256"
        },
        {
          "internalType": "contract IJBPaymentTerminal",
          "name": "_to",
          "type": "address"
        }
      ],
      "name": "migrate",
      "outputs": [
        {
          "internalType": "uint256",
          "name": "balance",
          "type": "uint256"
        }
      ],
      "stateMutability": "nonpayable",
      "type": "function"
    },
    {
      "inputs": [],
      "name": "operatorStore",
      "outputs": [
        {
          "internalType": "contract IJBOperatorStore",
          "name": "",
          "type": "address"
        }
      ],
      "stateMutability": "view",
      "type": "function"
    },
    {
      "inputs": [],
      "name": "owner",
      "outputs": [
        {
          "internalType": "address",
          "name": "",
          "type": "address"
        }
      ],
      "stateMutability": "view",
      "type": "function"
    },
    {
      "inputs": [
        {
          "internalType": "uint256",
          "name": "_projectId",
          "type": "uint256"
        },
        {
          "internalType": "uint256",
          "name": "_amount",
          "type": "uint256"
        },
        {
          "internalType": "address",
          "name": "_token",
          "type": "address"
        },
        {
          "internalType": "address",
          "name": "_beneficiary",
          "type": "address"
        },
        {
          "internalType": "uint256",
          "name": "_minReturnedTokens",
          "type": "uint256"
        },
        {
          "internalType": "bool",
          "name": "_preferClaimedTokens",
          "type": "bool"
        },
        {
          "internalType": "string",
          "name": "_memo",
          "type": "string"
        },
        {
          "internalType": "bytes",
          "name": "_metadata",
          "type": "bytes"
        }
      ],
      "name": "pay",
      "outputs": [
        {
          "internalType": "uint256",
          "name": "",
          "type": "uint256"
        }
      ],
      "stateMutability": "payable",
      "type": "function"
    },
    {
      "inputs": [],
      "name": "payoutSplitsGroup",
      "outputs": [
        {
          "internalType": "uint256",
          "name": "",
          "type": "uint256"
        }
      ],
      "stateMutability": "view",
      "type": "function"
    },
    {
      "inputs": [],
      "name": "prices",
      "outputs": [
        {
          "internalType": "contract IJBPrices",
          "name": "",
          "type": "address"
        }
      ],
      "stateMutability": "view",
      "type": "function"
    },
    {
      "inputs": [
        {
          "internalType": "uint256",
          "name": "_projectId",
          "type": "uint256"
        }
      ],
      "name": "processFees",
      "outputs": [],
      "stateMutability": "nonpayable",
      "type": "function"
    },
    {
      "inputs": [],
      "name": "projects",
      "outputs": [
        {
          "internalType": "contract IJBProjects",
          "name": "",
          "type": "address"
        }
      ],
      "stateMutability": "view",
      "type": "function"
    },
    {
      "inputs": [
        {
          "internalType": "address",
          "name": "_holder",
          "type": "address"
        },
        {
          "internalType": "uint256",
          "name": "_projectId",
          "type": "uint256"
        },
        {
          "internalType": "uint256",
          "name": "_tokenCount",
          "type": "uint256"
        },
        {
          "internalType": "address",
          "name": "_token",
          "type": "address"
        },
        {
          "internalType": "uint256",
          "name": "_minReturnedTokens",
          "type": "uint256"
        },
        {
          "internalType": "address payable",
          "name": "_beneficiary",
          "type": "address"
        },
        {
          "internalType": "string",
          "name": "_memo",
          "type": "string"
        },
        {
          "internalType": "bytes",
          "name": "_metadata",
          "type": "bytes"
        }
      ],
      "name": "redeemTokensOf",
      "outputs": [
        {
          "internalType": "uint256",
          "name": "reclaimAmount",
          "type": "uint256"
        }
      ],
      "stateMutability": "nonpayable",
      "type": "function"
    },
    {
      "inputs": [],
      "name": "renounceOwnership",
      "outputs": [],
      "stateMutability": "nonpayable",
      "type": "function"
    },
    {
      "inputs": [
        {
          "internalType": "uint256",
          "name": "_fee",
          "type": "uint256"
        }
      ],
      "name": "setFee",
      "outputs": [],
      "stateMutability": "nonpayable",
      "type": "function"
    },
    {
      "inputs": [
        {
          "internalType": "contract IJBFeeGauge",
          "name": "_feeGauge",
          "type": "address"
        }
      ],
      "name": "setFeeGauge",
      "outputs": [],
      "stateMutability": "nonpayable",
      "type": "function"
    },
    {
      "inputs": [
        {
          "internalType": "address",
          "name": "_address",
          "type": "address"
        },
        {
          "internalType": "bool",
          "name": "_flag",
          "type": "bool"
        }
      ],
      "name": "setFeelessAddress",
      "outputs": [],
      "stateMutability": "nonpayable",
      "type": "function"
    },
    {
      "inputs": [],
      "name": "splitsStore",
      "outputs": [
        {
          "internalType": "contract IJBSplitsStore",
          "name": "",
          "type": "address"
        }
      ],
      "stateMutability": "view",
      "type": "function"
    },
    {
      "inputs": [],
      "name": "store",
      "outputs": [
        {
          "internalType": "contract IJBSingleTokenPaymentTerminalStore",
          "name": "",
          "type": "address"
        }
      ],
      "stateMutability": "view",
      "type": "function"
    },
    {
      "inputs": [
        {
          "internalType": "bytes4",
          "name": "_interfaceId",
          "type": "bytes4"
        }
      ],
      "name": "supportsInterface",
      "outputs": [
        {
          "internalType": "bool",
          "name": "",
          "type": "bool"
        }
      ],
      "stateMutability": "view",
      "type": "function"
    },
    {
      "inputs": [],
      "name": "token",
      "outputs": [
        {
          "internalType": "address",
          "name": "",
          "type": "address"
        }
      ],
      "stateMutability": "view",
      "type": "function"
    },
    {
      "inputs": [
        {
          "internalType": "address",
          "name": "newOwner",
          "type": "address"
        }
      ],
      "name": "transferOwnership",
      "outputs": [],
      "stateMutability": "nonpayable",
      "type": "function"
    },
    {
      "inputs": [
        {
          "internalType": "uint256",
          "name": "_projectId",
          "type": "uint256"
        },
        {
          "internalType": "uint256",
          "name": "_amount",
          "type": "uint256"
        },
        {
          "internalType": "uint256",
          "name": "_currency",
          "type": "uint256"
        },
        {
          "internalType": "address",
          "name": "_token",
          "type": "address"
        },
        {
          "internalType": "uint256",
          "name": "_minReturnedTokens",
          "type": "uint256"
        },
        {
          "internalType": "address payable",
          "name": "_beneficiary",
          "type": "address"
        },
        {
          "internalType": "string",
          "name": "_memo",
          "type": "string"
        },
        {
          "internalType": "bytes",
          "name": "_metadata",
          "type": "bytes"
        }
      ],
      "name": "useAllowanceOf",
      "outputs": [
        {
          "internalType": "uint256",
          "name": "netDistributedAmount",
          "type": "uint256"
        }
      ],
      "stateMutability": "nonpayable",
      "type": "function"
    }
  ],
  "transactionHash": "0xa023d8deb80427a76a98cce2995fd3cb30003a222761fc738044f75ce592f780",
  "args": [
    "1",
    "0x99dB6b517683237dE9C494bbd17861f3608F3585",
    "0x21263a042aFE4bAE34F08Bb318056C181bD96D3b",
    "0x8E05bcD2812E1449f0EC3aE24E2C395F533d9A99",
    "0xce2Ce2F37fE5B2C2Dd047908B2F61c9c3f707272",
    "0x9f0eC91d28fFc54874e9fF11A316Ba2537aCD72C",
    "0x101cA528F6c2E35664529eB8aa0419Ae1f724b49",
    "0x46D623731E179FAF971CdA04fF8c499C95461b3c"
  ],
  "numDeployments": 1,
  "solcInputHash": "9d8f961b8d6848d1dd32ae08288e8c6a",
  "bytecode": "0x6101e060405263017d78406002553480156200001a57600080fd5b5060405162006294380380620062948339810160408190526200003d916200020a565b61eeee6080819052601260a0819052600160c08190526001600160a01b038a1660e0528a818b8b8b8b8b8b8b6200007433620000cf565b6101a08990526101c08890526001600160a01b0380871661010052858116610120528481166101405283811661016052821661018052620000b5816200011f565b5050505050505050505050505050505050505050620002bf565b600080546001600160a01b038381166001600160a01b0319831681178455604051919092169283917f8be0079c531659141344cd1fd0a4f28419497f9722a3daafe3b4186f6b6457e09190a35050565b6000546001600160a01b031633146200017f5760405162461bcd60e51b815260206004820181905260248201527f4f776e61626c653a2063616c6c6572206973206e6f7420746865206f776e657260448201526064015b60405180910390fd5b6001600160a01b038116620001e65760405162461bcd60e51b815260206004820152602660248201527f4f776e61626c653a206e6577206f776e657220697320746865207a65726f206160448201526564647265737360d01b606482015260840162000176565b620001f181620000cf565b50565b6001600160a01b0381168114620001f157600080fd5b600080600080600080600080610100898b0312156200022857600080fd5b8851975060208901516200023c81620001f4565b60408a01519097506200024f81620001f4565b60608a01519096506200026281620001f4565b60808a01519095506200027581620001f4565b60a08a01519094506200028881620001f4565b60c08a01519093506200029b81620001f4565b60e08a0151909250620002ae81620001f4565b809150509295985092959890939650565b60805160a05160c05160e05161010051610120516101405161016051610180516101a0516101c051615d5d62000537600039600081816103ef015261246d0152600081816103270152611c9901526000818161051701528181610d08015281816115e001528181611c670152818161231b015281816129ba01528181612ab801528181612e1801528181612fb30152818161419a015261457b015260008181610676015261177e0152600081816102db01526137c601526000818161062f015281816108f6015281816109ca0152818161182301528181611d4a015281816127c5015281816130970152818161364201526142cc0152600081816104c501528181610b78015281816111ab015281816114fc015281816123c70152612b6e01526000818161058b0152818161219d01528181612244015281816125fe01526126a50152600081816102860152818161072e015281816116b00152818161172b01528181611c4101528181611f1d0152818161321601526132d501526000818161035b015281816105fb015281816116510152818161167d015281816116dd0152818161175801528181611c1b01528181611ef7015281816131f0015281816132af0152613f950152600081816106ec0152818161078201528181610a5401528181610c2901528181610d8901528181610e15015281816118b501528181611be601528181611ec201528181611fdd0152818161279a01528181612838015281816128fd015281816131ba0152818161327a015281816133570152818161361501528181613f6001528181614023015281816142f90152818161447e015281816144bc0152818161464501526146890152615d5d6000f3fe6080604052600436106102195760003560e01c80638da5cb5b1161011d578063c715967a116100b0578063df21a7dd1161007f578063f2fde38b11610064578063f2fde38b14610750578063fc0c546a14610770578063fe663f0f146107a457600080fd5b8063df21a7dd146106ce578063e5a6b10f1461071c57600080fd5b8063c715967a14610651578063d3419bf314610664578063d6dacc5314610698578063ddca3f43146106b857600080fd5b8063ad007d63116100ec578063ad007d6314610579578063b631b500146105ad578063b7bad1b1146105dd578063c41c2f241461061d57600080fd5b80638da5cb5b146104e7578063975057e714610505578063a02f801c14610539578063a32e1e961461055957600080fd5b80634a4305c0116101b0578063715018a61161017f57806389701db51161016457806389701db5146104665780638af56094146104865780638b79543c146104b357600080fd5b8063715018a6146104315780637258002c1461044657600080fd5b80634a4305c01461039d578063637913ac146103bd57806366248b86146103dd57806369fe0e2d1461041157600080fd5b80632bdfe004116101ec5780632bdfe004146102c95780632d1a590314610315578063313ce56714610349578063405b84fa1461037d57600080fd5b806301ffc9a71461021e5780630cf8e858146102535780631982d679146102685780631ebc263f146102b6575b600080fd5b34801561022a57600080fd5b5061023e61023936600461494e565b6107c4565b60405190151581526020015b60405180910390f35b6102666102613660046149d6565b6108d8565b005b34801561027457600080fd5b506102a8610283366004614a6c565b507f000000000000000000000000000000000000000000000000000000000000000090565b60405190815260200161024a565b6102a86102c4366004614a97565b6109a1565b3480156102d557600080fd5b506102fd7f000000000000000000000000000000000000000000000000000000000000000081565b6040516001600160a01b03909116815260200161024a565b34801561032157600080fd5b506102a87f000000000000000000000000000000000000000000000000000000000000000081565b34801561035557600080fd5b506102a87f000000000000000000000000000000000000000000000000000000000000000081565b34801561038957600080fd5b506102a8610398366004614b5f565b610b5f565b3480156103a957600080fd5b506102a86103b8366004614b8f565b610ebf565b3480156103c957600080fd5b506102666103d8366004614a6c565b610edb565b3480156103e957600080fd5b506102a87f000000000000000000000000000000000000000000000000000000000000000081565b34801561041d57600080fd5b5061026661042c366004614bf9565b610f9b565b34801561043d57600080fd5b50610266611073565b34801561045257600080fd5b50610266610461366004614c12565b6110d9565b34801561047257600080fd5b50610266610481366004614bf9565b611195565b34801561049257600080fd5b506104a66104a1366004614bf9565b611431565b60405161024a9190614c40565b3480156104bf57600080fd5b506102fd7f000000000000000000000000000000000000000000000000000000000000000081565b3480156104f357600080fd5b506000546001600160a01b03166102fd565b34801561051157600080fd5b506102fd7f000000000000000000000000000000000000000000000000000000000000000081565b34801561054557600080fd5b506102a8610554366004614deb565b6114e3565b34801561056557600080fd5b506102a8610574366004614bf9565b61159e565b34801561058557600080fd5b506102fd7f000000000000000000000000000000000000000000000000000000000000000081565b3480156105b957600080fd5b5061023e6105c8366004614a6c565b60046020526000908152604090205460ff1681565b3480156105e957600080fd5b506102a86105f8366004614a6c565b507f000000000000000000000000000000000000000000000000000000000000000090565b34801561062957600080fd5b506102fd7f000000000000000000000000000000000000000000000000000000000000000081565b61026661065f366004614ea4565b611805565b34801561067057600080fd5b506102fd7f000000000000000000000000000000000000000000000000000000000000000081565b3480156106a457600080fd5b506003546102fd906001600160a01b031681565b3480156106c457600080fd5b506102a860025481565b3480156106da57600080fd5b5061023e6106e9366004614f4c565b507f00000000000000000000000000000000000000000000000000000000000000006001600160a01b0390811691161490565b34801561072857600080fd5b506102a87f000000000000000000000000000000000000000000000000000000000000000081565b34801561075c57600080fd5b5061026661076b366004614a6c565b6119a7565b34801561077c57600080fd5b506102fd7f000000000000000000000000000000000000000000000000000000000000000081565b3480156107b057600080fd5b506102a86107bf366004614f78565b611a89565b60006001600160e01b031982167fedb527eb00000000000000000000000000000000000000000000000000000000148061082757506001600160e01b031982167f4a4305c000000000000000000000000000000000000000000000000000000000145b8061085b57506001600160e01b031982167fa02f801c00000000000000000000000000000000000000000000000000000000145b8061088f57506001600160e01b031982167ffe663f0f00000000000000000000000000000000000000000000000000000000145b806108c357506001600160e01b031982167fad007d6300000000000000000000000000000000000000000000000000000000145b806108d257506108d282611aa9565b92915050565b604051636e49181f60e01b81526004810188905230602482015287907f00000000000000000000000000000000000000000000000000000000000000006001600160a01b031690636e49181f90604401602060405180830381865afa158015610945573d6000803e3d6000fd5b505050506040513d601f19601f820116820180604052508101906109699190615031565b61098657604051631b1d5a5960e31b815260040160405180910390fd5b610997888888600089898989611805565b5050505050505050565b604051636e49181f60e01b8152600481018b90523060248201526000908b906001600160a01b037f00000000000000000000000000000000000000000000000000000000000000001690636e49181f90604401602060405180830381865afa158015610a11573d6000803e3d6000fd5b505050506040513d601f19601f82011682018060405250810190610a359190615031565b610a5257604051631b1d5a5960e31b815260040160405180910390fd5b7f00000000000000000000000000000000000000000000000000000000000000006001600160a01b031661eeee14610ac1573415610aa357604051635e7e9adf60e11b815260040160405180910390fd5b47610aaf33308e611b2b565b610ab98147615064565b9b5050610ac5565b349a505b610b4f8b338e8c8c8c8c8c8080601f016020809104026020016040519081016040528093929190818152602001838380828437600081840152601f19601f820116905080830192505050505050508b8b8080601f016020809104026020016040519081016040528093929190818152602001838380828437600092019190915250611b3a92505050565b9c9b505050505050505050505050565b6040516331a9108f60e11b8152600481018390526000907f00000000000000000000000000000000000000000000000000000000000000006001600160a01b031690636352211e90602401602060405180830381865afa158015610bc7573d6000803e3d6000fd5b505050506040513d601f19601f82011682018060405250810190610beb9190615077565b836004610bf9838383612156565b6040517fdf21a7dd0000000000000000000000000000000000000000000000000000000081526001600160a01b037f0000000000000000000000000000000000000000000000000000000000000000811660048301526024820188905286169063df21a7dd90604401602060405180830381865afa158015610c7f573d6000803e3d6000fd5b505050506040513d601f19601f82011682018060405250810190610ca39190615031565b610cd9576040517f581010ed00000000000000000000000000000000000000000000000000000000815260040160405180910390fd5b6040517f6bb6a5ad000000000000000000000000000000000000000000000000000000008152600481018790527f00000000000000000000000000000000000000000000000000000000000000006001600160a01b031690636bb6a5ad906024016020604051808303816000875af1158015610d59573d6000803e3d6000fd5b505050506040513d601f19601f82011682018060405250810190610d7d9190615094565b93508315610e715760007f00000000000000000000000000000000000000000000000000000000000000006001600160a01b031661eeee14610dc0576000610dc2565b845b604080516020810182526000815290517f0cf8e8580000000000000000000000000000000000000000000000000000000081529192506001600160a01b03881691630cf8e858918491610e3d918c918b917f0000000000000000000000000000000000000000000000000000000000000000916004016150fd565b6000604051808303818588803b158015610e5657600080fd5b505af1158015610e6a573d6000803e3d6000fd5b5050505050505b604080518581523360208201526001600160a01b0387169188917fa7519e5f94697b7f53e97c5eb46a0c730a296ab686ab8fd333835c5f735784eb910160405180910390a350505092915050565b6000610ecf8888888787876122cf565b98975050505050505050565b6000546001600160a01b03163314610f3a5760405162461bcd60e51b815260206004820181905260248201527f4f776e61626c653a2063616c6c6572206973206e6f7420746865206f776e657260448201526064015b60405180910390fd5b6003805473ffffffffffffffffffffffffffffffffffffffff19166001600160a01b0383169081179091556040513381527f0a9a80fe9716605b3e52abb3d792d6a4e7816d6afc02a5a4ef023081feaf9f609060200160405180910390a250565b6000546001600160a01b03163314610ff55760405162461bcd60e51b815260206004820181905260248201527f4f776e61626c653a2063616c6c6572206973206e6f7420746865206f776e65726044820152606401610f31565b6302faf080811115611033576040517f45fbd9c100000000000000000000000000000000000000000000000000000000815260040160405180910390fd5b6002819055604080518281523360208201527fd7414e590e1cb532989ab2a34c8f4c2c17f7ab6f006efeeaef2e87cd5008c202910160405180910390a150565b6000546001600160a01b031633146110cd5760405162461bcd60e51b815260206004820181905260248201527f4f776e61626c653a2063616c6c6572206973206e6f7420746865206f776e65726044820152606401610f31565b6110d76000612550565b565b6000546001600160a01b031633146111335760405162461bcd60e51b815260206004820181905260248201527f4f776e61626c653a2063616c6c6572206973206e6f7420746865206f776e65726044820152606401610f31565b6001600160a01b038216600081815260046020908152604091829020805460ff191685151590811790915591513381529192917fa2653e25a502c023a5830d0de847ef6f458387865b1f4f575d7594f9f2c0d71e910160405180910390a35050565b6040516331a9108f60e11b8152600481018290527f00000000000000000000000000000000000000000000000000000000000000006001600160a01b031690636352211e90602401602060405180830381865afa1580156111fa573d6000803e3d6000fd5b505050506040513d601f19601f8201168201806040525081019061121e9190615077565b8160056112336000546001600160a01b031690565b6001600160a01b0316336001600160a01b031614611253848484846125ad565b600085815260016020908152604080832080548251818502810185019093528083529192909190849084015b828210156112f157600084815260209081902060408051608081018252600286029092018054835260019081015463ffffffff8082168587015264010000000082041692840192909252680100000000000000009091046001600160a01b03166060830152908352909201910161127f565b5050506000888152600160205260408120929350611310929150614907565b805160005b8181101561099757600061138d84838151811061133457611334615139565b60200260200101516000015185848151811061135257611352615139565b60200260200101516020015163ffffffff1686858151811061137657611376615139565b60200260200101516040015163ffffffff16612736565b90506113b7818584815181106113a5576113a5615139565b6020026020010151606001518b61277c565b60011515818a7fcf0c92a2c6d7c42f488326b0cb900104b99984b6b218db81cd29371364a352518786815181106113f0576113f0615139565b602002602001015160600151336040516114209291906001600160a01b0392831681529116602082015260400190565b60405180910390a450600101611315565b606060016000838152602001908152602001600020805480602002602001604051908101604052809291908181526020016000905b828210156114d857600084815260209081902060408051608081018252600286029092018054835260019081015463ffffffff8082168587015264010000000082041692840192909252680100000000000000009091046001600160a01b031660608301529083529092019101611466565b505050509050919050565b6040516331a9108f60e11b8152600481018a90526000907f00000000000000000000000000000000000000000000000000000000000000006001600160a01b031690636352211e90602401602060405180830381865afa15801561154b573d6000803e3d6000fd5b505050506040513d601f19601f8201168201806040525081019061156f9190615077565b8a601161157d838383612156565b61158d8d8d8d8c8c8c8c8c612a6c565b9d9c50505050505050505050505050565b6040517fd49031c00000000000000000000000000000000000000000000000000000000081523060048201526024810182905260009081906001600160a01b037f0000000000000000000000000000000000000000000000000000000000000000169063d49031c090604401602060405180830381865afa158015611627573d6000803e3d6000fd5b505050506040513d601f19601f8201168201806040525081019061164b9190615094565b905060007f00000000000000000000000000000000000000000000000000000000000000006012146116a8576116a3827f00000000000000000000000000000000000000000000000000000000000000006012612cb1565b6116aa565b815b905060017f0000000000000000000000000000000000000000000000000000000000000000146117fb576117f6816117037f0000000000000000000000000000000000000000000000000000000000000000600a615233565b6040517fa4d0caf20000000000000000000000000000000000000000000000000000000081527f00000000000000000000000000000000000000000000000000000000000000006004820152600160248201527f000000000000000000000000000000000000000000000000000000000000000060448201527f00000000000000000000000000000000000000000000000000000000000000006001600160a01b03169063a4d0caf290606401602060405180830381865afa1580156117cd573d6000803e3d6000fd5b505050506040513d601f19601f820116820180604052508101906117f19190615094565b612d0e565b6117fd565b805b949350505050565b604051636e49181f60e01b81526004810189905230602482015288907f00000000000000000000000000000000000000000000000000000000000000006001600160a01b031690636e49181f90604401602060405180830381865afa158015611872573d6000803e3d6000fd5b505050506040513d601f19601f820116820180604052508101906118969190615031565b6118b357604051631b1d5a5960e31b815260040160405180910390fd5b7f00000000000000000000000000000000000000000000000000000000000000006001600160a01b031661eeee1461192257341561190457604051635e7e9adf60e11b815260040160405180910390fd5b4761191033308b611b2b565b61191a8147615064565b985050611926565b3497505b61199c89898888888080601f01602080910402602001604051908101604052809392919081815260200183838082843760009201919091525050604080516020601f8c018190048102820181019092528a815292508a9150899081908401838280828437600092019190915250612df492505050565b505050505050505050565b6000546001600160a01b03163314611a015760405162461bcd60e51b815260206004820181905260248201527f4f776e61626c653a2063616c6c6572206973206e6f7420746865206f776e65726044820152606401610f31565b6001600160a01b038116611a7d5760405162461bcd60e51b815260206004820152602660248201527f4f776e61626c653a206e6577206f776e657220697320746865207a65726f206160448201527f64647265737300000000000000000000000000000000000000000000000000006064820152608401610f31565b611a8681612550565b50565b600088886002611a9a838383612156565b610b4f8c8c8c8b8b8b8b612ee6565b60006001600160e01b031982167fc07370e4000000000000000000000000000000000000000000000000000000001480611b0c57506001600160e01b031982167f2896000200000000000000000000000000000000000000000000000000000000145b806108d257506301ffc9a760e01b6001600160e01b03198316146108d2565b611b3582826134de565b505050565b60006001600160a01b038616611b7c576040517fa762251300000000000000000000000000000000000000000000000000000000815260040160405180910390fd5b611bd46040518061012001604052806000815260200160008152602001600081526020016000815260200160008152602001600081526020016000815260200160006001600160a01b03168152602001600081525090565b606060008060405180608001604052807f00000000000000000000000000000000000000000000000000000000000000006001600160a01b031681526020018e81526020017f000000000000000000000000000000000000000000000000000000000000000081526020017f000000000000000000000000000000000000000000000000000000000000000081525090507f00000000000000000000000000000000000000000000000000000000000000006001600160a01b0316632fa1b3918d838e7f00000000000000000000000000000000000000000000000000000000000000008f8d8d6040518863ffffffff1660e01b8152600401611cdd979695949392919061523f565b6000604051808303816000875af1158015611cfc573d6000803e3d6000fd5b505050506040513d6000823e601f3d908101601f19168201604052611d2491908101906153cc565b995091955090935091508115611e7257604051632eec7b5560e11b8152600481018c90527f00000000000000000000000000000000000000000000000000000000000000006001600160a01b031690635dd8f6aa90602401602060405180830381865afa158015611d99573d6000803e3d6000fd5b505050506040513d601f19601f82011682018060405250810190611dbd9190615077565b6040517f8ae9c07b000000000000000000000000000000000000000000000000000000008152600481018d9052602481018490526001600160a01b038c8116604483015260c06064830152600060c48301528a15156084830152600160a48301529190911690638ae9c07b9060e4016020604051808303816000875af1158015611e4b573d6000803e3d6000fd5b505050506040513d601f19601f82011682018060405250810190611e6f9190615094565b94505b88851015611eac576040517f7b94612600000000000000000000000000000000000000000000000000000000815260040160405180910390fd5b8251156120f857600060405180608001604052807f00000000000000000000000000000000000000000000000000000000000000006001600160a01b031681526020018f81526020017f000000000000000000000000000000000000000000000000000000000000000081526020017f0000000000000000000000000000000000000000000000000000000000000000815250905060006040518061014001604052808f6001600160a01b031681526020018e8152602001876020015181526020018481526020018381526020018881526020018d6001600160a01b031681526020018b151581526020018a815260200189815250905060008551905060005b818110156120f3576000878281518110611fc857611fc8615139565b60209081029190910101519050600061eeed197f00000000000000000000000000000000000000000000000000000000000000006001600160a01b031601612011575060208101515b60208083015160808701519091015281516040517fda9ee8b70000000000000000000000000000000000000000000000000000000081526001600160a01b039091169063da9ee8b790839061206a9089906004016155c8565b6000604051808303818588803b15801561208357600080fd5b505af1158015612097573d6000803e3d6000fd5b505050505081600001516001600160a01b03167f16112c26e14efc4be6c690149aa5a1ba75160de245f60d2273e28adb277b9e12868460200151336040516120e1939291906155db565b60405180910390a25050600101611fac565b505050505b50505087816000015182602001517f133161f1c9161488f777ab9a26aae91d47c0d9a3fafb398960f138db02c737978c8b8f888b8b33604051612141979695949392919061560d565b60405180910390a45098975050505050505050565b336001600160a01b0384161480159061220a575060405163c161c93f60e01b81523360048201526001600160a01b03848116602483015260448201849052606482018390527f0000000000000000000000000000000000000000000000000000000000000000169063c161c93f90608401602060405180830381865afa1580156121e4573d6000803e3d6000fd5b505050506040513d601f19601f820116820180604052508101906122089190615031565b155b80156122b1575060405163c161c93f60e01b81523360048201526001600160a01b03848116602483015260006044830152606482018390527f0000000000000000000000000000000000000000000000000000000000000000169063c161c93f90608401602060405180830381865afa15801561228b573d6000803e3d6000fd5b505050506040513d601f19601f820116820180604052508101906122af9190615031565b155b15611b355760405163075fd2b160e01b815260040160405180910390fd5b6040517fc6644597000000000000000000000000000000000000000000000000000000008152600481018790526024810186905260448101859052600090819081906001600160a01b037f0000000000000000000000000000000000000000000000000000000000000000169063c664459790606401610140604051808303816000875af1158015612365573d6000803e3d6000fd5b505050506040513d601f19601f82011682018060405250810190612389919061566e565b91509150858110156123ae5760405163b01493c160e01b815260040160405180910390fd5b6040516331a9108f60e11b8152600481018a90526000907f00000000000000000000000000000000000000000000000000000000000000006001600160a01b031690636352211e90602401602060405180830381865afa158015612416573d6000803e3d6000fd5b505050506040513d601f19601f8201168201806040525081019061243a9190615077565b9050600080600254600014612457576124528c6135f7565b61245d565b633b9aca005b90506000806124938e88602001517f0000000000000000000000000000000000000000000000000000000000000000898761377c565b92509050633b9aca0083146124a757908101905b816000036124b65760006124c3565b6124c38e8884888761393d565b935080156124ef576124d88160025485612736565b6124e29082615064565b97506124ef30868a611b2b565b5050508a846000015185602001517fc41a8d26c70cfcf1b9ea10f82482ac947b8be5bea2750bc729af844bbfde1e28858e88878c8f8f3360405161253a9897969594939291906156c6565b60405180910390a4505050509695505050505050565b600080546001600160a01b0383811673ffffffffffffffffffffffffffffffffffffffff19831681178455604051919092169283917f8be0079c531659141344cd1fd0a4f28419497f9722a3daafe3b4186f6b6457e09190a35050565b801580156125c45750336001600160a01b03851614155b801561266b575060405163c161c93f60e01b81523360048201526001600160a01b03858116602483015260448201859052606482018490527f0000000000000000000000000000000000000000000000000000000000000000169063c161c93f90608401602060405180830381865afa158015612645573d6000803e3d6000fd5b505050506040513d601f19601f820116820180604052508101906126699190615031565b155b8015612712575060405163c161c93f60e01b81523360048201526001600160a01b03858116602483015260006044830152606482018490527f0000000000000000000000000000000000000000000000000000000000000000169063c161c93f90608401602060405180830381865afa1580156126ec573d6000803e3d6000fd5b505050506040513d601f19601f820116820180604052508101906127109190615031565b155b156127305760405163075fd2b160e01b815260040160405180910390fd5b50505050565b6000806127488484633b9aca00612d0e565b6127529085615064565b905061276785633b9aca006117f1818561571a565b6127719086615064565b9150505b9392505050565b604051630862026560e41b8152600160048201526001600160a01b037f0000000000000000000000000000000000000000000000000000000000000000811660248301526000917f000000000000000000000000000000000000000000000000000000000000000090911690638620265090604401602060405180830381865afa15801561280e573d6000803e3d6000fd5b505050506040513d601f19601f820116820180604052508101906128329190615077565b905060007f00000000000000000000000000000000000000000000000000000000000000006001600160a01b031661eeee1461286f576000612871565b845b60408051602080825281830190925291925060009190602082018180368337019050509050836040516020016128a991815260200190565b60408051808303601f19018152908290527f1ebc263f00000000000000000000000000000000000000000000000000000000825291506001600160a01b03841690631ebc263f90849061292e906001908b907f0000000000000000000000000000000000000000000000000000000000000000908c9060009081908b9060040161572d565b60206040518083038185885af193505050508015612969575060408051601f3d908101601f1916820190925261296691810190615094565b60015b612a62573d808015612997576040519150601f19603f3d011682016040523d82523d6000602084013e61299c565b606091505b5060405163e7c8e3e360e01b815260048101869052602481018890527f00000000000000000000000000000000000000000000000000000000000000006001600160a01b03169063e7c8e3e390604401600060405180830381600087803b158015612a0657600080fd5b505af1158015612a1a573d6000803e3d6000fd5b505050506001857f80a889d08f0d59eb962335b57fb1d5b29e86e3d23f15087b5541fddf15422bbe898433604051612a5493929190615784565b60405180910390a350612a64565b505b505050505050565b6040517f25386715000000000000000000000000000000000000000000000000000000008152600481018990526024810188905260448101879052600090819081906001600160a01b037f00000000000000000000000000000000000000000000000000000000000000001690632538671590606401610140604051808303816000875af1158015612b02573d6000803e3d6000fd5b505050506040513d601f19601f82011682018060405250810190612b26919061566e565b9150915087811015612b4b5760405163b01493c160e01b815260040160405180910390fd5b6040516331a9108f60e11b8152600481018c905260009081906001600160a01b037f00000000000000000000000000000000000000000000000000000000000000001690636352211e90602401602060405180830381865afa158015612bb5573d6000803e3d6000fd5b505050506040513d601f19601f82011682018060405250810190612bd99190615077565b9050600060025460001480612bfd57503360009081526004602052604090205460ff165b612c0f57612c0a8e6135f7565b612c15565b633b9aca005b9050633b9aca008114612c3457612c2f8e8686858561393d565b612c37565b60005b80850396509250838314612c5057612c50308b88611b2b565b5050508a826000015183602001517f2eeee47c6d8d31c3523c3aa07b4c3e3795db36be4c04546ef3e30a5102f568e18a8e86898d8d8d33604051612c9b9897969594939291906157b6565b60405180910390a4505098975050505050505050565b6000828203612cc1575082612775565b82821115612cef57612cd38383615064565b612cde90600a615233565b612ce89085615817565b9050612775565b612cf98284615064565b612d0490600a615233565b612ce8908561584c565b6000808060001985870985870292508281108382030391505080600003612d4857838281612d3e57612d3e615836565b0492505050612775565b838110612d8b576040517f773cc18c0000000000000000000000000000000000000000000000000000000081526004810182905260248101859052604401610f31565b60008486880960026001871981018816978890046003810283188082028403028082028403028082028403028082028403028082028403029081029092039091026000889003889004909101858311909403939093029303949094049190911702949350505050565b600083612e02576000612e0c565b612e0c8686613ae6565b90506001600160a01b037f00000000000000000000000000000000000000000000000000000000000000001663e7c8e3e387612e48848961571a565b6040516001600160e01b031960e085901b16815260048101929092526024820152604401600060405180830381600087803b158015612e8657600080fd5b505af1158015612e9a573d6000803e3d6000fd5b50505050857f9ecaf7fc3dfffd6867c175d6e684b1f1e3aef019398ba8db2c1ffab4a09db2538683868633604051612ed695949392919061586e565b60405180910390a2505050505050565b60006001600160a01b038416612f28576040517ff74a1b6600000000000000000000000000000000000000000000000000000000815260040160405180910390fd5b612f806040518061012001604052806000815260200160008152602001600081526020016000815260200160008152602001600081526020016000815260200160006001600160a01b03168152602001600081525090565b6040517fa2df1f950000000000000000000000000000000000000000000000000000000081526060906001600160a01b037f0000000000000000000000000000000000000000000000000000000000000000169063a2df1f9590612ff0908d908d908d908b908b906004016158bb565b6000604051808303816000875af115801561300f573d6000803e3d6000fd5b505050506040513d6000823e601f3d908101601f1916820160405261303791908101906158fb565b975090945090925090508683101561307b576040517ff896960b00000000000000000000000000000000000000000000000000000000815260040160405180910390fd5b87156131a457604051632eec7b5560e11b8152600481018a90527f00000000000000000000000000000000000000000000000000000000000000006001600160a01b031690635dd8f6aa90602401602060405180830381865afa1580156130e6573d6000803e3d6000fd5b505050506040513d601f19601f8201168201806040525081019061310a9190615077565b6040517f1665bc0f0000000000000000000000000000000000000000000000000000000081526001600160a01b038c81166004830152602482018c9052604482018b905260a06064830152600060a4830181905260848301529190911690631665bc0f9060c401600060405180830381600087803b15801561318b57600080fd5b505af115801561319f573d6000803e3d6000fd5b505050505b80511561347257600060405180608001604052807f00000000000000000000000000000000000000000000000000000000000000006001600160a01b03168152602001600081526020017f000000000000000000000000000000000000000000000000000000000000000081526020017f0000000000000000000000000000000000000000000000000000000000000000815250905060006040518061012001604052808d6001600160a01b031681526020018c8152602001856020015181526020018b815260200160405180608001604052807f00000000000000000000000000000000000000000000000000000000000000006001600160a01b031681526020018881526020017f000000000000000000000000000000000000000000000000000000000000000081526020017f00000000000000000000000000000000000000000000000000000000000000008152508152602001838152602001896001600160a01b0316815260200188815260200187815250905060008351905060005b8181101561346d57600085828151811061334257613342615139565b60209081029190910101519050600061eeed197f00000000000000000000000000000000000000000000000000000000000000006001600160a01b03160161338b575060208101515b60208083015160a08701519091015281516040517f2b13c58f0000000000000000000000000000000000000000000000000000000081526001600160a01b0390911690632b13c58f9083906133e4908990600401615abe565b6000604051808303818588803b1580156133fd57600080fd5b505af1158015613411573d6000803e3d6000fd5b505050505081600001516001600160a01b03167f54b3744c489f40987dd2726ca12131243334e8292f567389f761c5a432d813e48684602001513360405161345b93929190615ad1565b60405180910390a25050600101613326565b505050505b50811561348457613484308684611b2b565b87816000015182602001517f2be10f2a0203c77d0fcaa9fd6484a8a1d6904de31cd820587f60c1c8c338c8148c898c888b8b336040516134ca979695949392919061560d565b60405180910390a450979650505050505050565b8047101561352e5760405162461bcd60e51b815260206004820152601d60248201527f416464726573733a20696e73756666696369656e742062616c616e63650000006044820152606401610f31565b6000826001600160a01b03168260405160006040518083038185875af1925050503d806000811461357b576040519150601f19603f3d011682016040523d82523d6000602084013e613580565b606091505b5050905080611b355760405162461bcd60e51b815260206004820152603a60248201527f416464726573733a20756e61626c6520746f2073656e642076616c75652c207260448201527f6563697069656e74206d617920686176652072657665727465640000000000006064820152608401610f31565b604051630862026560e41b8152600160048201526001600160a01b037f00000000000000000000000000000000000000000000000000000000000000008116602483015260009182917f00000000000000000000000000000000000000000000000000000000000000001690638620265090604401602060405180830381865afa158015613689573d6000803e3d6000fd5b505050506040513d601f19601f820116820180604052508101906136ad9190615077565b6001600160a01b0316036136c65750633b9aca00919050565b6003546001600160a01b031615613774576003546040517f77695896000000000000000000000000000000000000000000000000000000008152600481018490526001600160a01b0390911690637769589690602401602060405180830381865afa925050508015613755575060408051601f3d908101601f1916820190925261375291810190615094565b60015b61376157506000919050565b633b9aca0081116137725792915050565b505b506000919050565b6040517f69e11cc50000000000000000000000000000000000000000000000000000000081526004810186905260248101859052604481018490528290600090633b9aca009082907f00000000000000000000000000000000000000000000000000000000000000006001600160a01b0316906369e11cc590606401600060405180830381865afa158015613815573d6000803e3d6000fd5b505050506040513d6000823e601f3d908101601f1916820160405261383d9190810190615ae4565b905060005b815181101561393057600082828151811061385f5761385f615139565b6020026020010151905060008482604001511461388e57613889898360400151633b9aca00612d0e565b613890565b865b90508160400151856138a29190615064565b945060006138b3838e8d858d613eef565b905080158015906138c45750818114155b156138d6576138d3828861571a565b96505b81156138e25781880397505b8a8c8e7f0d31ab573f6daa4b1edba8d31973b4ba9f98fbfecc47010c1533eeefd2a1225a8686863360405161391a9493929190615bee565b60405180910390a4836001019350505050613842565b5050509550959350505050565b600061394c8460025484612736565b610100860151909150604f1c600190811603613a8957600086815260016020818152604080842081516080810183528981526002805463ffffffff9081168387019081528a82168487019081526001600160a01b03808e16606087019081528754808c018955978c5298909a209451958402909401948555519390960180549251955190971668010000000000000000027fffffffff0000000000000000000000000000000000000000ffffffffffffffff9587166401000000000267ffffffffffffffff19909316939096169290921717929092169290921790925590549051859088907f77813be0661650ddc1a5193ff2837df4162b251cb432651e2c060c3fc39756be90613a7c908790899033909283526001600160a01b03918216602084015216604082015260600190565b60405180910390a4613add565b613a9481848861277c565b604080516001600160a01b0385168152336020820152600091839189917fcf0c92a2c6d7c42f488326b0cb900104b99984b6b218db81cd29371364a35251910160405180910390a45b95945050505050565b600082815260016020908152604080832080548251818502810185019093528083528493849084015b82821015613b8157600084815260209081902060408051608081018252600286029092018054835260019081015463ffffffff8082168587015264010000000082041692840192909252680100000000000000009091046001600160a01b031660608301529083529092019101613b0f565b5050506000868152600160205260408120929350613ba0929150614907565b8051839060005b81811015613ea75782600003613c805760008781526001602052604090208451859083908110613bd957613bd9615139565b60209081029190910181015182546001818101855560009485529383902082516002909202019081559181015191909201805460408401516060909401516001600160a01b031668010000000000000000027fffffffff0000000000000000000000000000000000000000ffffffffffffffff63ffffffff9586166401000000000267ffffffffffffffff1990931695909416949094171791909116919091179055613e9f565b838181518110613c9257613c92615139565b6020026020010151600001518310613d2657838181518110613cb657613cb6615139565b60200260200101516000015183039250613d1d848281518110613cdb57613cdb615139565b602002602001015160000151858381518110613cf957613cf9615139565b60200260200101516020015163ffffffff1686848151811061137657611376615139565b85019450613e9f565b60016000888152602001908152602001600020604051806080016040528085878581518110613d5757613d57615139565b602002602001015160000151038152602001868481518110613d7b57613d7b615139565b60200260200101516020015163ffffffff168152602001868481518110613da457613da4615139565b60200260200101516040015163ffffffff168152602001868481518110613dcd57613dcd615139565b6020908102919091018101516060908101516001600160a01b039081169093528454600181810187556000968752958390208551600290920201908155918401519190940180546040850151949095015190921668010000000000000000027fffffffff0000000000000000000000000000000000000000ffffffffffffffff63ffffffff9485166401000000000267ffffffffffffffff19909616949092169390931793909317929092161790558351613e96908490869084908110613cf957613cf9615139565b85019450600092505b600101613ba7565b50604080518381523360208201528591879189917f59860d79d97c1fce2be7f987915c631471f4b08f671200463cc40a3380194ffb910160405180910390a450505092915050565b60c08501516000906001600160a01b0316156142a357633b9aca00821480613f33575060c08601516001600160a01b031660009081526004602052604090205460ff165b15613f3f575081613f51565b613f4c8360025484612736565b830390505b60006040518060c001604052807f00000000000000000000000000000000000000000000000000000000000000006001600160a01b031681526020018381526020017f0000000000000000000000000000000000000000000000000000000000000000815260200187815260200186815260200188815250905060006060613ffd8960c001517f9d740bfa000000000000000000000000000000000000000000000000000000006147ba565b1561416e578860c001516001600160a01b0316639d740bfa61eeee6001600160a01b03167f00000000000000000000000000000000000000000000000000000000000000006001600160a01b031614614057576000614059565b855b604080516001600160e01b031960e085901b16815287516001600160a01b0390811660048301526020808a01516024840152838a015160448401526060808b015160648501526080808c0151608486015260a0808d01518051151560a488015293840151151560c48701529583015160e48601529082015161010485015281015182166101248401529283015161014483015260c090920151909116610164820152610184016000604051808303818588803b15801561411857600080fd5b505af19350505050801561412a575060015b614169573d808015614158576040519150601f19603f3d011682016040523d82523d6000602084013e61415d565b606091505b50600192509050614173565b614173565b600291505b811561429b5760405163e7c8e3e360e01b81526004810189905260248101879052600094507f00000000000000000000000000000000000000000000000000000000000000006001600160a01b03169063e7c8e3e390604401600060405180830381600087803b1580156141e657600080fd5b505af11580156141fa573d6000803e3d6000fd5b50505050877f290b5df59e172593762964e4f8ed2b4a9192d3197bfd2be4bae123908f8007968a888560011461427f5760405160200161426b906020808252600c908201527f49455243313635206661696c0000000000000000000000000000000000000000604082015260600190565b604051602081830303815290604052614281565b845b336040516142929493929190615c75565b60405180910390a25b505050613add565b60608601511561475d576060860151604051630862026560e41b81526000916001600160a01b037f00000000000000000000000000000000000000000000000000000000000000001691638620265091614333917f0000000000000000000000000000000000000000000000000000000000000000906004019182526001600160a01b0316602082015260400190565b602060405180830381865afa158015614350573d6000803e3d6000fd5b505050506040513d601f19601f820116820180604052508101906143749190615077565b90506001600160a01b0381166143b6576040517f6921234300000000000000000000000000000000000000000000000000000000815260040160405180910390fd5b6001600160a01b0381163014806143d05750633b9aca0083145b806143f357506001600160a01b03811660009081526004602052604090205460ff165b1561440057839150614412565b61440d8460025485612736565b840391505b6040805160208082528183019092526000916020820181803683370190505090508660405160200161444691815260200190565b604051602081830303815290604052905087602001511561462857816001600160a01b0316630cf8e85861eeee6001600160a01b03167f00000000000000000000000000000000000000000000000000000000000000006001600160a01b0316146144b25760006144b4565b845b8a60600151867f0000000000000000000000000000000000000000000000000000000000000000866040518663ffffffff1660e01b81526004016144fb94939291906150fd565b6000604051808303818588803b15801561451457600080fd5b505af193505050508015614526575060015b614623573d808015614554576040519150601f19603f3d011682016040523d82523d6000602084013e614559565b606091505b5060405163e7c8e3e360e01b81526004810189905260248101879052600094507f00000000000000000000000000000000000000000000000000000000000000006001600160a01b03169063e7c8e3e390604401600060405180830381600087803b1580156145c757600080fd5b505af11580156145db573d6000803e3d6000fd5b50505050877f290b5df59e172593762964e4f8ed2b4a9192d3197bfd2be4bae123908f8007968a8884336040516146159493929190615c75565b60405180910390a250614756565b614756565b816001600160a01b0316631ebc263f61eeee6001600160a01b03167f00000000000000000000000000000000000000000000000000000000000000006001600160a01b03161461467957600061467b565b845b60608b015160808c015187907f0000000000000000000000000000000000000000000000000000000000000000906001600160a01b03166146bc57336146c2565b8d608001515b8e516040516001600160e01b031960e089901b1681526146ed95949392916000918b9060040161572d565b60206040518083038185885af193505050508015614728575060408051601f3d908101601f1916820190925261472591810190615094565b60015b61429b573d808015614554576040519150601f19603f3d011682016040523d82523d6000602084013e614559565b5050613add565b60808601516000906001600160a01b0316614778573361477e565b86608001515b9050633b9aca008303614793578391506147a5565b6147a08460025485612736565b840391505b6147b0308284611b2b565b5095945050505050565b60006147c5836147d6565b801561277557506127758383614809565b60006147e9826301ffc9a760e01b614809565b80156108d25750614802826001600160e01b0319614809565b1592915050565b604080516001600160e01b0319831660248083019190915282518083039091018152604490910182526020810180517bffffffffffffffffffffffffffffffffffffffffffffffffffffffff166301ffc9a760e01b179052905160009190829081906001600160a01b0387169061753090614885908690615d0b565b6000604051808303818686fa925050503d80600081146148c1576040519150601f19603f3d011682016040523d82523d6000602084013e6148c6565b606091505b50915091506020815110156148e157600093505050506108d2565b8180156148fd5750808060200190518101906148fd9190615031565b9695505050505050565b5080546000825560020290600052602060002090810190611a8691905b8082111561494a57600081556001810180546001600160e01b0319169055600201614924565b5090565b60006020828403121561496057600080fd5b81356001600160e01b03198116811461277557600080fd5b6001600160a01b0381168114611a8657600080fd5b60008083601f84011261499f57600080fd5b50813567ffffffffffffffff8111156149b757600080fd5b6020830191508360208285010111156149cf57600080fd5b9250929050565b600080600080600080600060a0888a0312156149f157600080fd5b87359650602088013595506040880135614a0a81614978565b9450606088013567ffffffffffffffff80821115614a2757600080fd5b614a338b838c0161498d565b909650945060808a0135915080821115614a4c57600080fd5b50614a598a828b0161498d565b989b979a50959850939692959293505050565b600060208284031215614a7e57600080fd5b813561277581614978565b8015158114611a8657600080fd5b6000806000806000806000806000806101008b8d031215614ab757600080fd5b8a35995060208b0135985060408b0135614ad081614978565b975060608b0135614ae081614978565b965060808b0135955060a08b0135614af781614a89565b945060c08b013567ffffffffffffffff80821115614b1457600080fd5b614b208e838f0161498d565b909650945060e08d0135915080821115614b3957600080fd5b50614b468d828e0161498d565b915080935050809150509295989b9194979a5092959850565b60008060408385031215614b7257600080fd5b823591506020830135614b8481614978565b809150509250929050565b600080600080600080600060c0888a031215614baa57600080fd5b8735965060208801359550604088013594506060880135614bca81614978565b93506080880135925060a088013567ffffffffffffffff811115614bed57600080fd5b614a598a828b0161498d565b600060208284031215614c0b57600080fd5b5035919050565b60008060408385031215614c2557600080fd5b8235614c3081614978565b91506020830135614b8481614a89565b602080825282518282018190526000919060409081850190868401855b82811015614ca9578151805185528681015163ffffffff908116888701528682015116868601526060908101516001600160a01b03169085015260809093019290850190600101614c5d565b5091979650505050505050565b634e487b7160e01b600052604160045260246000fd5b604051610120810167ffffffffffffffff81118282101715614cf057614cf0614cb6565b60405290565b6040805190810167ffffffffffffffff81118282101715614cf057614cf0614cb6565b60405160e0810167ffffffffffffffff81118282101715614cf057614cf0614cb6565b604051601f8201601f1916810167ffffffffffffffff81118282101715614d6557614d65614cb6565b604052919050565b600067ffffffffffffffff821115614d8757614d87614cb6565b50601f01601f191660200190565b600082601f830112614da657600080fd5b8135614db9614db482614d6d565b614d3c565b818152846020838601011115614dce57600080fd5b816020850160208301376000918101602001919091529392505050565b60008060008060008060008060006101008a8c031215614e0a57600080fd5b8935985060208a0135975060408a0135965060608a0135614e2a81614978565b955060808a0135945060a08a0135614e4181614978565b935060c08a013567ffffffffffffffff80821115614e5e57600080fd5b614e6a8d838e01614d95565b945060e08c0135915080821115614e8057600080fd5b50614e8d8c828d0161498d565b915080935050809150509295985092959850929598565b60008060008060008060008060c0898b031215614ec057600080fd5b88359750602089013596506040890135614ed981614978565b95506060890135614ee981614a89565b9450608089013567ffffffffffffffff80821115614f0657600080fd5b614f128c838d0161498d565b909650945060a08b0135915080821115614f2b57600080fd5b50614f388b828c0161498d565b999c989b5096995094979396929594505050565b60008060408385031215614f5f57600080fd5b8235614f6a81614978565b946020939093013593505050565b600080600080600080600080610100898b031215614f9557600080fd5b8835614fa081614978565b975060208901359650604089013595506060890135614fbe81614978565b94506080890135935060a0890135614fd581614978565b925060c089013567ffffffffffffffff80821115614ff257600080fd5b614ffe8c838d01614d95565b935060e08b013591508082111561501457600080fd5b506150218b828c01614d95565b9150509295985092959890939650565b60006020828403121561504357600080fd5b815161277581614a89565b634e487b7160e01b600052601160045260246000fd5b818103818111156108d2576108d261504e565b60006020828403121561508957600080fd5b815161277581614978565b6000602082840312156150a657600080fd5b5051919050565b60005b838110156150c85781810151838201526020016150b0565b50506000910152565b600081518084526150e98160208601602086016150ad565b601f01601f19169290920160200192915050565b8481528360208201526001600160a01b038316604082015260a06060820152600060a082015260c0608082015260006148fd60c08301846150d1565b634e487b7160e01b600052603260045260246000fd5b600181815b8085111561518a5781600019048211156151705761517061504e565b8085161561517d57918102915b93841c9390800290615154565b509250929050565b6000826151a1575060016108d2565b816151ae575060006108d2565b81600181146151c457600281146151ce576151ea565b60019150506108d2565b60ff8411156151df576151df61504e565b50506001821b6108d2565b5060208310610133831016604e8410600b841016171561520d575081810a6108d2565b615217838361514f565b806000190482111561522b5761522b61504e565b029392505050565b60006127758383615192565b60006101406001600160a01b03808b168452615288602085018b6001600160a01b0381511682526020810151602083015260408101516040830152606081015160608301525050565b8860a08501528760c085015280871660e085015250806101008401526152b0818401866150d1565b90508281036101208401526152c581856150d1565b9a9950505050505050505050565b80516152de81614978565b919050565b600061012082840312156152f657600080fd5b6152fe614ccc565b9050815181526020820151602082015260408201516040820152606082015160608201526080820151608082015260a082015160a082015260c082015160c082015261534c60e083016152d3565b60e082015261010080830151818301525092915050565b600067ffffffffffffffff82111561537d5761537d614cb6565b5060051b60200190565b600082601f83011261539857600080fd5b81516153a6614db482614d6d565b8181528460208386010111156153bb57600080fd5b6117fd8260208301602087016150ad565b60008060008061018085870312156153e357600080fd5b6153ed86866152e3565b9350610120850151925061014085015167ffffffffffffffff8082111561541357600080fd5b818701915087601f83011261542757600080fd5b81516020615437614db483615363565b82815260069290921b8401810191818101908b84111561545657600080fd5b948201945b838610156154a2576040868d0312156154745760008081fd5b61547c614cf6565b865161548781614978565b8152868401518482015282526040909501949082019061545b565b6101608b01519097509450505050808211156154bd57600080fd5b506154ca87828801615387565b91505092959194509250565b80516001600160a01b031682526000610200602083810151858201526040808501518187015260608086015180516001600160a01b0316828901529283015160808801529082015160a087015281015160c086015250608083015180516001600160a01b031660e08601526020810151610100860152604081015161012086015260608101516101408601525060a083015161016085015260c08301516001600160a01b0381166101808601525060e08301518015156101a086015250610100830151816101c08601526155ac828601826150d1565b9150506101208301518482036101e0860152613add82826150d1565b60208152600061277560208301846154d6565b6060815260006155ee60608301866154d6565b90508360208301526001600160a01b0383166040830152949350505050565b60006001600160a01b03808a168352808916602084015287604084015286606084015260e0608084015261564460e08401876150d1565b83810360a085015261565681876150d1565b92505080841660c08401525098975050505050505050565b600080610140838503121561568257600080fd5b61568c84846152e3565b915061012083015190509250929050565b81835281816020850137506000828201602090810191909152601f909101601f19169091010190565b60006001600160a01b03808b16835289602084015288604084015287606084015286608084015260e060a084015261570260e08401868861569d565b915080841660c0840152509998505050505050505050565b808201808211156108d2576108d261504e565b60006101008983528860208401526001600160a01b03808916604085015280881660608501525085608084015284151560a08401528060c0840152600081840152506101208060e08401526152c5818401856150d1565b83815260606020820152600061579d60608301856150d1565b90506001600160a01b0383166040830152949350505050565b60006001600160a01b03808b16835289602084015288604084015287606084015260e060808401526157eb60e08401886150d1565b83810360a08501526157fe81878961569d565b92505080841660c0840152509998505050505050505050565b60008160001904831182151516156158315761583161504e565b500290565b634e487b7160e01b600052601260045260246000fd5b60008261586957634e487b7160e01b600052601260045260246000fd5b500490565b85815284602082015260a06040820152600061588d60a08301866150d1565b828103606084015261589f81866150d1565b9150506001600160a01b03831660808301529695505050505050565b6001600160a01b038616815284602082015283604082015260a0606082015260006158e960a08301856150d1565b8281036080840152610ecf81856150d1565b600080600080610180858703121561591257600080fd5b61591c86866152e3565b9350610120850151925061014085015167ffffffffffffffff8082111561594257600080fd5b818701915087601f83011261595657600080fd5b81516020615966614db483615363565b82815260069290921b8401810191818101908b84111561598557600080fd5b948201945b838610156154a2576040868d0312156159a35760008081fd5b6159ab614cf6565b86516159b681614978565b8152868401518482015282526040909501949082019061598a565b80516001600160a01b0316825260006101e06020830151602085015260408301516040850152606083015160608501526080830151615a3d60808601826001600160a01b0381511682526020810151602083015260408101516040830152606081015160608301525050565b5060a083015180516001600160a01b03908116610100878101919091526020830151610120880152604083015161014088015260609092015161016087015260c08501511661018086015260e08401516101a0860183905290615aa2838701836150d1565b9250808501519150508482036101c0860152613add82826150d1565b60208152600061277560208301846159d1565b6060815260006155ee60608301866159d1565b60006020808385031215615af757600080fd5b825167ffffffffffffffff811115615b0e57600080fd5b8301601f81018513615b1f57600080fd5b8051615b2d614db482615363565b81815260e09182028301840191848201919088841115615b4c57600080fd5b938501935b83851015615be25780858a031215615b695760008081fd5b615b71614d19565b8551615b7c81614a89565b815285870151615b8b81614a89565b818801526040868101519082015260608087015190820152608080870151615bb281614978565b9082015260a0868101519082015260c080870151615bcf81614978565b9082015283529384019391850191615b51565b50979650505050505050565b6101408101615c4f8287805115158252602081015115156020830152604081015160408301526060810151606083015260808101516001600160a01b03808216608085015260a083015160a08501528060c08401511660c085015250505050565b8460e0830152836101008301526001600160a01b03831661012083015295945050505050565b6000610140615cd68388805115158252602081015115156020830152604081015160408301526060810151606083015260808101516001600160a01b03808216608085015260a083015160a08501528060c08401511660c085015250505050565b8560e084015280610100840152615cef818401866150d1565b9150506001600160a01b03831661012083015295945050505050565b60008251615d1d8184602087016150ad565b919091019291505056fea2646970667358221220fd8d04f3b3bf048a392c4449e52316e1254a93b3c05809d0cda55460ad15b53764736f6c63430008100033",
  "devdoc": {
    "details": "Inherits from - JBPayoutRedemptionPaymentTerminal3_1: Generic terminal managing all inflows and outflows of funds into the protocol ecosystem.",
    "kind": "dev",
    "methods": {
      "acceptsToken(address,uint256)": {
        "params": {
          "_projectId": "The project ID to check for token acceptance.",
          "_token": "The token to check if this terminal accepts or not."
        },
        "returns": {
          "_0": "The flag."
        }
      },
      "addToBalanceOf(uint256,uint256,address,bool,string,bytes)": {
        "params": {
          "_amount": "The amount of tokens to add, as a fixed point number with the same number of decimals as this terminal. If this is an ETH terminal, this is ignored and msg.value is used instead.",
          "_memo": "A memo to pass along to the emitted event.",
          "_metadata": "Extra data to pass along to the emitted event.",
          "_projectId": "The ID of the project to which the funds received belong.",
          "_shouldRefundHeldFees": "A flag indicating if held fees should be refunded based on the amount being added.",
          "_token": "The token being paid. This terminal ignores this property since it only manages one currency. "
        }
      },
      "addToBalanceOf(uint256,uint256,address,string,bytes)": {
        "params": {
          "_amount": "The amount of tokens to add, as a fixed point number with the same number of decimals as this terminal. If this is an ETH terminal, this is ignored and msg.value is used instead.",
          "_memo": "A memo to pass along to the emitted event.",
          "_metadata": "Extra data to pass along to the emitted event.",
          "_projectId": "The ID of the project to which the funds received belong.",
          "_token": "The token being paid. This terminal ignores this property since it only manages one currency. "
        }
      },
      "constructor": {
        "params": {
          "_baseWeightCurrency": "The currency to base token issuance on.",
          "_directory": "A contract storing directories of terminals and controllers for each project.",
          "_operatorStore": "A contract storing operator assignments.",
          "_owner": "The address that will own this contract.",
          "_prices": "A contract that exposes price feeds.",
          "_projects": "A contract which mints ERC-721's that represent project ownership and transfers.",
          "_splitsStore": "A contract that stores splits for each project.",
          "_store": "A contract that stores the terminal's data."
        }
      },
      "currencyForToken(address)": {
        "params": {
          "_token": "The token to check for the currency of."
        },
        "returns": {
          "_0": "The currency index."
        }
      },
      "currentEthOverflowOf(uint256)": {
        "details": "The current overflow is represented as a fixed point number with 18 decimals.",
        "params": {
          "_projectId": "The ID of the project to get overflow for."
        },
        "returns": {
          "_0": "The current amount of ETH overflow that project has in this terminal, as a fixed point number with 18 decimals."
        }
      },
      "decimalsForToken(address)": {
        "params": {
          "_token": "The token to check for the decimals of."
        },
        "returns": {
          "_0": "The number of decimals for the token."
        }
      },
      "distributePayoutsOf(uint256,uint256,uint256,address,uint256,bytes)": {
        "details": "Payouts are sent to the preprogrammed splits. Any leftover is sent to the project's owner.Anyone can distribute payouts on a project's behalf. The project can preconfigure a wildcard split that is used to send funds to msg.sender. This can be used to incentivize calling this function.All funds distributed outside of this contract or any feeless terminals incure the protocol fee.",
        "params": {
          "_amount": "The amount of terminal tokens to distribute, as a fixed point number with same number of decimals as this terminal.",
          "_currency": "The expected currency of the amount being distributed. Must match the project's current funding cycle's distribution limit currency.",
          "_metadata": "Bytes to send along to the emitted event, if provided.",
          "_minReturnedTokens": "The minimum number of terminal tokens that the `_amount` should be valued at in terms of this terminal's currency, as a fixed point number with the same number of decimals as this terminal.",
          "_projectId": "The ID of the project having its payouts distributed.",
          "_token": "The token being distributed. This terminal ignores this property since it only manages one token. "
        },
        "returns": {
          "netLeftoverDistributionAmount": "The amount that was sent to the project owner, as a fixed point number with the same amount of decimals as this terminal."
        }
      },
      "heldFeesOf(uint256)": {
        "params": {
          "_projectId": "The ID of the project for which fees are being held."
        },
        "returns": {
          "_0": "An array of fees that are being held."
        }
      },
      "migrate(uint256,address)": {
        "details": "Only a project's owner or a designated operator can migrate it.",
        "params": {
          "_projectId": "The ID of the project being migrated.",
          "_to": "The terminal contract that will gain the project's funds."
        },
        "returns": {
          "balance": "The amount of funds that were migrated, as a fixed point number with the same amount of decimals as this terminal."
        }
      },
      "owner()": {
        "details": "Returns the address of the current owner."
      },
      "pay(uint256,uint256,address,address,uint256,bool,string,bytes)": {
        "params": {
          "_amount": "The amount of terminal tokens being received, as a fixed point number with the same amount of decimals as this terminal. If this terminal's token is ETH, this is ignored and msg.value is used in its place.",
          "_beneficiary": "The address to mint tokens for and pass along to the funding cycle's data source and delegate.",
          "_memo": "A memo to pass along to the emitted event, and passed along the the funding cycle's data source and delegate.  A data source can alter the memo before emitting in the event and forwarding to the delegate.",
          "_metadata": "Bytes to send along to the data source, delegate, and emitted event, if provided.",
          "_minReturnedTokens": "The minimum number of project tokens expected in return, as a fixed point number with the same amount of decimals as this terminal.",
          "_preferClaimedTokens": "A flag indicating whether the request prefers to mint project tokens into the beneficiaries wallet rather than leaving them unclaimed. This is only possible if the project has an attached token contract. Leaving them unclaimed saves gas.",
          "_projectId": "The ID of the project being paid.",
          "_token": "The token being paid. This terminal ignores this property since it only manages one token. "
        },
        "returns": {
          "_0": "The number of tokens minted for the beneficiary, as a fixed point number with 18 decimals."
        }
      },
      "processFees(uint256)": {
        "details": "Only a project owner, an operator, or the contract's owner can process held fees.",
        "params": {
          "_projectId": "The ID of the project whos held fees should be processed."
        }
      },
      "redeemTokensOf(address,uint256,uint256,address,uint256,address,string,bytes)": {
        "details": "Only a token holder or a designated operator can redeem its tokens.",
        "params": {
          "_beneficiary": "The address to send the terminal tokens to.",
          "_holder": "The account to redeem tokens for.",
          "_memo": "A memo to pass along to the emitted event.",
          "_metadata": "Bytes to send along to the data source, delegate, and emitted event, if provided.",
          "_minReturnedTokens": "The minimum amount of terminal tokens expected in return, as a fixed point number with the same amount of decimals as the terminal.",
          "_projectId": "The ID of the project to which the tokens being redeemed belong.",
          "_token": "The token being reclaimed. This terminal ignores this property since it only manages one token. ",
          "_tokenCount": "The number of project tokens to redeem, as a fixed point number with 18 decimals."
        },
        "returns": {
          "reclaimAmount": "The amount of terminal tokens that the project tokens were redeemed for, as a fixed point number with 18 decimals."
        }
      },
      "renounceOwnership()": {
        "details": "Leaves the contract without owner. It will not be possible to call `onlyOwner` functions anymore. Can only be called by the current owner. NOTE: Renouncing ownership will leave the contract without an owner, thereby removing any functionality that is only available to the owner."
      },
      "setFee(uint256)": {
        "details": "Only the owner of this contract can change the fee.",
        "params": {
          "_fee": "The new fee, out of MAX_FEE."
        }
      },
      "setFeeGauge(address)": {
        "details": "Only the owner of this contract can change the fee gauge.",
        "params": {
          "_feeGauge": "The new fee gauge."
        }
      },
      "setFeelessAddress(address,bool)": {
        "details": "Only the owner of this contract can set addresses as feeless.",
        "params": {
          "_address": "The address that can be paid towards while still bypassing fees.",
          "_flag": "A flag indicating whether the terminal should be feeless or not."
        }
      },
      "supportsInterface(bytes4)": {
        "details": " See {IERC165-supportsInterface}.",
        "params": {
          "_interfaceId": "The ID of the interface to check for adherance to."
        }
      },
      "transferOwnership(address)": {
        "details": "Transfers ownership of the contract to a new account (`newOwner`). Can only be called by the current owner."
      },
      "useAllowanceOf(uint256,uint256,uint256,address,uint256,address,string,bytes)": {
        "details": "Only a project's owner or a designated operator can use its allowance.Incurs the protocol fee.",
        "params": {
          "_amount": "The amount of terminal tokens to use from this project's current allowance, as a fixed point number with the same amount of decimals as this terminal.",
          "_beneficiary": "The address to send the funds to.",
          "_currency": "The expected currency of the amount being distributed. Must match the project's current funding cycle's overflow allowance currency.",
          "_memo": "A memo to pass along to the emitted event.",
          "_metadata": "Bytes to send along to the emitted event, if provided.",
          "_minReturnedTokens": "The minimum number of tokens that the `_amount` should be valued at in terms of this terminal's currency, as a fixed point number with 18 decimals.",
          "_projectId": "The ID of the project to use the allowance of.",
          "_token": "The token being distributed. This terminal ignores this property since it only manages one token. "
        },
        "returns": {
          "netDistributedAmount": "The amount of tokens that was distributed to the beneficiary, as a fixed point number with the same amount of decimals as the terminal."
        }
      }
    },
    "version": 1
  },
  "userdoc": {
    "errors": {
      "PRBMath__MulDivOverflow(uint256,uint256)": [
        {
          "notice": "Emitted when the result overflows uint256."
        }
      ]
    },
    "kind": "user",
    "methods": {
      "acceptsToken(address,uint256)": {
        "notice": "A flag indicating if this terminal accepts the specified token."
      },
      "addToBalanceOf(uint256,uint256,address,bool,string,bytes)": {
        "notice": "Receives funds belonging to the specified project."
      },
      "addToBalanceOf(uint256,uint256,address,string,bytes)": {
        "notice": "Receives funds belonging to the specified project."
      },
      "baseWeightCurrency()": {
        "notice": "The currency to base token issuance on."
      },
      "currency()": {
        "notice": "The currency to use when resolving price feeds for this terminal."
      },
      "currencyForToken(address)": {
        "notice": "The currency that should be used for the specified token."
      },
      "currentEthOverflowOf(uint256)": {
        "notice": "Gets the current overflowed amount in this terminal for a specified project, in terms of ETH."
      },
      "decimals()": {
        "notice": "The number of decimals the token fixed point amounts are expected to have."
      },
      "decimalsForToken(address)": {
        "notice": "The decimals that should be used in fixed number accounting for the specified token."
      },
      "directory()": {
        "notice": "The directory of terminals and controllers for projects."
      },
      "distributePayoutsOf(uint256,uint256,uint256,address,uint256,bytes)": {
        "notice": "Distributes payouts for a project with the distribution limit of its current funding cycle."
      },
      "fee()": {
        "notice": "The platform fee percent."
      },
      "feeGauge()": {
        "notice": "The data source that returns a discount to apply to a project's fee."
      },
      "heldFeesOf(uint256)": {
        "notice": "The fees that are currently being held to be processed later for each project."
      },
      "isFeelessAddress(address)": {
        "notice": "Addresses that can be paid towards from this terminal without incurring a fee."
      },
      "migrate(uint256,address)": {
        "notice": "Allows a project owner to migrate its funds and operations to a new terminal that accepts the same token type."
      },
      "operatorStore()": {
        "notice": " A contract storing operator assignments."
      },
      "pay(uint256,uint256,address,address,uint256,bool,string,bytes)": {
        "notice": "Contribute tokens to a project."
      },
      "payoutSplitsGroup()": {
        "notice": "The group that payout splits coming from this terminal are identified by."
      },
      "prices()": {
        "notice": "The contract that exposes price feeds."
      },
      "processFees(uint256)": {
        "notice": "Process any fees that are being held for the project."
      },
      "projects()": {
        "notice": "Mints ERC-721's that represent project ownership and transfers."
      },
      "redeemTokensOf(address,uint256,uint256,address,uint256,address,string,bytes)": {
        "notice": "Holders can redeem their tokens to claim the project's overflowed tokens, or to trigger rules determined by the project's current funding cycle's data source."
      },
      "setFee(uint256)": {
        "notice": "Allows the fee to be updated."
      },
      "setFeeGauge(address)": {
        "notice": "Allows the fee gauge to be updated."
      },
      "setFeelessAddress(address,bool)": {
        "notice": "Sets whether projects operating on this terminal can pay towards the specified address without incurring a fee."
      },
      "splitsStore()": {
        "notice": "The contract that stores splits for each project."
      },
      "store()": {
        "notice": "The contract that stores and manages the terminal's data."
      },
      "supportsInterface(bytes4)": {
        "notice": "Indicates if this contract adheres to the specified interface."
      },
      "token()": {
        "notice": "The token that this terminal accepts."
      },
      "useAllowanceOf(uint256,uint256,uint256,address,uint256,address,string,bytes)": {
        "notice": "Allows a project to send funds from its overflow up to the preconfigured allowance."
      }
    },
    "notice": "Manages all inflows and outflows of ETH funds into the protocol ecosystem.",
    "version": 1
  },
  "storageLayout": {
    "storage": [
      {
        "astId": 53,
        "contract": "contracts/JBETHPaymentTerminal3_1.sol:JBETHPaymentTerminal3_1",
        "label": "_owner",
        "offset": 0,
        "slot": "0",
        "type": "t_address"
      },
      {
        "astId": 23382,
        "contract": "contracts/JBETHPaymentTerminal3_1.sol:JBETHPaymentTerminal3_1",
        "label": "_heldFeesOf",
        "offset": 0,
        "slot": "1",
        "type": "t_mapping(t_uint256,t_array(t_struct(JBFee)30364_storage)dyn_storage)"
      },
      {
        "astId": 23420,
        "contract": "contracts/JBETHPaymentTerminal3_1.sol:JBETHPaymentTerminal3_1",
        "label": "fee",
        "offset": 0,
        "slot": "2",
        "type": "t_uint256"
      },
      {
        "astId": 23425,
        "contract": "contracts/JBETHPaymentTerminal3_1.sol:JBETHPaymentTerminal3_1",
        "label": "feeGauge",
        "offset": 0,
        "slot": "3",
        "type": "t_contract(IJBFeeGauge)27262"
      },
      {
        "astId": 23431,
        "contract": "contracts/JBETHPaymentTerminal3_1.sol:JBETHPaymentTerminal3_1",
        "label": "isFeelessAddress",
        "offset": 0,
        "slot": "4",
        "type": "t_mapping(t_address,t_bool)"
      }
    ],
    "types": {
      "t_address": {
        "encoding": "inplace",
        "label": "address",
        "numberOfBytes": "20"
      },
      "t_array(t_struct(JBFee)30364_storage)dyn_storage": {
        "base": "t_struct(JBFee)30364_storage",
        "encoding": "dynamic_array",
        "label": "struct JBFee[]",
        "numberOfBytes": "32"
      },
      "t_bool": {
        "encoding": "inplace",
        "label": "bool",
        "numberOfBytes": "1"
      },
      "t_contract(IJBFeeGauge)27262": {
        "encoding": "inplace",
        "label": "contract IJBFeeGauge",
        "numberOfBytes": "20"
      },
      "t_mapping(t_address,t_bool)": {
        "encoding": "mapping",
        "key": "t_address",
        "label": "mapping(address => bool)",
        "numberOfBytes": "32",
        "value": "t_bool"
      },
      "t_mapping(t_uint256,t_array(t_struct(JBFee)30364_storage)dyn_storage)": {
        "encoding": "mapping",
        "key": "t_uint256",
        "label": "mapping(uint256 => struct JBFee[])",
        "numberOfBytes": "32",
        "value": "t_array(t_struct(JBFee)30364_storage)dyn_storage"
      },
      "t_struct(JBFee)30364_storage": {
        "encoding": "inplace",
        "label": "struct JBFee",
        "members": [
          {
            "astId": 30357,
            "contract": "contracts/JBETHPaymentTerminal3_1.sol:JBETHPaymentTerminal3_1",
            "label": "amount",
            "offset": 0,
            "slot": "0",
            "type": "t_uint256"
          },
          {
            "astId": 30359,
            "contract": "contracts/JBETHPaymentTerminal3_1.sol:JBETHPaymentTerminal3_1",
            "label": "fee",
            "offset": 0,
            "slot": "1",
            "type": "t_uint32"
          },
          {
            "astId": 30361,
            "contract": "contracts/JBETHPaymentTerminal3_1.sol:JBETHPaymentTerminal3_1",
            "label": "feeDiscount",
            "offset": 4,
            "slot": "1",
            "type": "t_uint32"
          },
          {
            "astId": 30363,
            "contract": "contracts/JBETHPaymentTerminal3_1.sol:JBETHPaymentTerminal3_1",
            "label": "beneficiary",
            "offset": 8,
            "slot": "1",
            "type": "t_address"
          }
        ],
        "numberOfBytes": "64"
      },
      "t_uint256": {
        "encoding": "inplace",
        "label": "uint256",
        "numberOfBytes": "32"
      },
      "t_uint32": {
        "encoding": "inplace",
        "label": "uint32",
        "numberOfBytes": "4"
      }
    }
  }
}