{
  "address": "0xbF8b5ea02e50073348767fd9418beDEd30C835D4",
  "abi": [
    {
      "inputs": [
        {
          "internalType": "contract IJBDirectory",
          "name": "_directory",
          "type": "address"
        }
      ],
      "stateMutability": "nonpayable",
      "type": "constructor"
    },
    {
      "inputs": [],
      "name": "CONTROLLER_UNAUTHORIZED",
      "type": "error"
    },
    {
      "inputs": [],
      "name": "INVALID_DISTRIBUTION_LIMIT",
      "type": "error"
    },
    {
      "inputs": [],
      "name": "INVALID_DISTRIBUTION_LIMIT_CURRENCY",
      "type": "error"
    },
    {
      "inputs": [],
      "name": "INVALID_OVERFLOW_ALLOWANCE",
      "type": "error"
    },
    {
      "inputs": [],
      "name": "INVALID_OVERFLOW_ALLOWANCE_CURRENCY",
      "type": "error"
    },
    {
      "anonymous": false,
      "inputs": [
        {
          "indexed": true,
          "internalType": "uint256",
          "name": "fundingCycleConfiguration",
          "type": "uint256"
        },
        {
          "indexed": true,
          "internalType": "uint256",
          "name": "projectId",
          "type": "uint256"
        },
        {
          "components": [
            {
              "internalType": "contract IJBPaymentTerminal",
              "name": "terminal",
              "type": "address"
            },
            {
              "internalType": "address",
              "name": "token",
              "type": "address"
            },
            {
              "internalType": "uint256",
              "name": "distributionLimit",
              "type": "uint256"
            },
            {
              "internalType": "uint256",
              "name": "distributionLimitCurrency",
              "type": "uint256"
            },
            {
              "internalType": "uint256",
              "name": "overflowAllowance",
              "type": "uint256"
            },
            {
              "internalType": "uint256",
              "name": "overflowAllowanceCurrency",
              "type": "uint256"
            }
          ],
          "indexed": false,
          "internalType": "struct JBFundAccessConstraints",
          "name": "constraints",
          "type": "tuple"
        },
        {
          "indexed": false,
          "internalType": "address",
          "name": "caller",
          "type": "address"
        }
      ],
      "name": "SetFundAccessConstraints",
      "type": "event"
    },
    {
      "inputs": [],
      "name": "directory",
      "outputs": [
        {
          "internalType": "contract IJBDirectory",
          "name": "",
          "type": "address"
        }
      ],
      "stateMutability": "view",
      "type": "function"
    },
    {
      "inputs": [
        {
          "internalType": "uint256",
          "name": "_projectId",
          "type": "uint256"
        },
        {
          "internalType": "uint256",
          "name": "_configuration",
          "type": "uint256"
        },
        {
          "internalType": "contract IJBPaymentTerminal",
          "name": "_terminal",
          "type": "address"
        },
        {
          "internalType": "address",
          "name": "_token",
          "type": "address"
        }
      ],
      "name": "distributionLimitOf",
      "outputs": [
        {
          "internalType": "uint256",
          "name": "",
          "type": "uint256"
        },
        {
          "internalType": "uint256",
          "name": "",
          "type": "uint256"
        }
      ],
      "stateMutability": "view",
      "type": "function"
    },
    {
      "inputs": [
        {
          "internalType": "uint256",
          "name": "_projectId",
          "type": "uint256"
        },
        {
          "internalType": "uint256",
          "name": "_configuration",
          "type": "uint256"
        },
        {
          "internalType": "contract IJBPaymentTerminal",
          "name": "_terminal",
          "type": "address"
        },
        {
          "internalType": "address",
          "name": "_token",
          "type": "address"
        }
      ],
      "name": "overflowAllowanceOf",
      "outputs": [
        {
          "internalType": "uint256",
          "name": "",
          "type": "uint256"
        },
        {
          "internalType": "uint256",
          "name": "",
          "type": "uint256"
        }
      ],
      "stateMutability": "view",
      "type": "function"
    },
    {
      "inputs": [
        {
          "internalType": "uint256",
          "name": "_projectId",
          "type": "uint256"
        },
        {
          "internalType": "uint256",
          "name": "_configuration",
          "type": "uint256"
        },
        {
          "components": [
            {
              "internalType": "contract IJBPaymentTerminal",
              "name": "terminal",
              "type": "address"
            },
            {
              "internalType": "address",
              "name": "token",
              "type": "address"
            },
            {
              "internalType": "uint256",
              "name": "distributionLimit",
              "type": "uint256"
            },
            {
              "internalType": "uint256",
              "name": "distributionLimitCurrency",
              "type": "uint256"
            },
            {
              "internalType": "uint256",
              "name": "overflowAllowance",
              "type": "uint256"
            },
            {
              "internalType": "uint256",
              "name": "overflowAllowanceCurrency",
              "type": "uint256"
            }
          ],
          "internalType": "struct JBFundAccessConstraints[]",
          "name": "_fundAccessConstraints",
          "type": "tuple[]"
        }
      ],
      "name": "setFor",
      "outputs": [],
      "stateMutability": "nonpayable",
      "type": "function"
    },
    {
      "inputs": [
        {
          "internalType": "bytes4",
          "name": "interfaceId",
          "type": "bytes4"
        }
      ],
      "name": "supportsInterface",
      "outputs": [
        {
          "internalType": "bool",
          "name": "",
          "type": "bool"
        }
      ],
      "stateMutability": "view",
      "type": "function"
    }
  ],
  "transactionHash": "0x1ede608b5f9d5522437016adbd147c9d8a5cae48a6b65c0427942b8532b38caa",
  "args": [
    "0x8E05bcD2812E1449f0EC3aE24E2C395F533d9A99"
  ],
  "numDeployments": 1,
  "solcInputHash": "7271447540576b6e014cf146f777e938",
  "bytecode": "0x60a060405234801561001057600080fd5b50604051610aa3380380610aa383398101604081905261002f91610040565b6001600160a01b0316608052610070565b60006020828403121561005257600080fd5b81516001600160a01b038116811461006957600080fd5b9392505050565b608051610a1161009260003960008181610181015261028a0152610a116000f3fe608060405234801561001057600080fd5b50600436106100675760003560e01c80637a81b562116100505780637a81b562146100eb578063c41c2f241461017c578063e8db2130146101c857600080fd5b806301ffc9a71461006c57806334002f31146100d6575b600080fd5b6100c161007a3660046107be565b7fffffffff00000000000000000000000000000000000000000000000000000000167f01ffc9a7000000000000000000000000000000000000000000000000000000001490565b60405190151581526020015b60405180910390f35b6100e96100e4366004610807565b610242565b005b6101676100f93660046108af565b600093845260016020908152604080862094865293815283852073ffffffffffffffffffffffffffffffffffffffff9384168652815283852091909216845290529020547cffffffffffffffffffffffffffffffffffffffffffffffffffffffffff81169160e89190911c90565b604080519283526020830191909152016100cd565b6101a37f000000000000000000000000000000000000000000000000000000000000000081565b60405173ffffffffffffffffffffffffffffffffffffffff90911681526020016100cd565b6101676101d63660046108af565b60009384526020848152604080862094865293815283852073ffffffffffffffffffffffffffffffffffffffff9384168652815283852091909216845290529020547cffffffffffffffffffffffffffffffffffffffffffffffffffffffffff81169160e89190911c90565b6040517f5dd8f6aa000000000000000000000000000000000000000000000000000000008152600481018590528490339073ffffffffffffffffffffffffffffffffffffffff7f00000000000000000000000000000000000000000000000000000000000000001690635dd8f6aa90602401602060405180830381865afa1580156102d1573d6000803e3d6000fd5b505050506040513d601f19601f820116820180604052508101906102f591906108f9565b73ffffffffffffffffffffffffffffffffffffffff1614610342576040517fab7f741400000000000000000000000000000000000000000000000000000000815260040160405180910390fd5b8160005b818110156107b5577cffffffffffffffffffffffffffffffffffffffffffffffffffffffffff85858381811061037e5761037e610916565b905060c002016040013511156103c0576040517fa9b8fbcf00000000000000000000000000000000000000000000000000000000815260040160405180910390fd5b62ffffff8585838181106103d6576103d6610916565b905060c00201606001351115610418576040517f9583faed00000000000000000000000000000000000000000000000000000000815260040160405180910390fd5b7cffffffffffffffffffffffffffffffffffffffffffffffffffffffffff85858381811061044857610448610916565b905060c0020160800135111561048a576040517f5730278300000000000000000000000000000000000000000000000000000000815260040160405180910390fd5b62ffffff8585838181106104a0576104a0610916565b905060c0020160a0013511156104e2576040517fd9b93c2500000000000000000000000000000000000000000000000000000000815260040160405180910390fd5b60008585838181106104f6576104f6610916565b905060c0020160400135111561061e5760e885858381811061051a5761051a610916565b905060c0020160600135901b85858381811061053857610538610916565b905060c0020160400135176000808981526020019081526020016000206000888152602001908152602001600020600087878581811061057a5761057a610916565b61059092602060c0909202019081019150610945565b73ffffffffffffffffffffffffffffffffffffffff1673ffffffffffffffffffffffffffffffffffffffff16815260200190815260200160002060008787858181106105de576105de610916565b905060c0020160200160208101906105f69190610945565b73ffffffffffffffffffffffffffffffffffffffff1681526020810191909152604001600020555b600085858381811061063257610632610916565b905060c0020160800135111561075b5760e885858381811061065657610656610916565b905060c0020160a00135901b85858381811061067457610674610916565b905060c00201608001351760016000898152602001908152602001600020600088815260200190815260200160002060008787858181106106b7576106b7610916565b6106cd92602060c0909202019081019150610945565b73ffffffffffffffffffffffffffffffffffffffff1673ffffffffffffffffffffffffffffffffffffffff168152602001908152602001600020600087878581811061071b5761071b610916565b905060c0020160200160208101906107339190610945565b73ffffffffffffffffffffffffffffffffffffffff1681526020810191909152604001600020555b86867f26f78d7903ac64ef9b38a2bf94b365f364f28efa245a6b67bcc27350f141c5f787878581811061079057610790610916565b905060c00201336040516107a5929190610962565b60405180910390a3600101610346565b50505050505050565b6000602082840312156107d057600080fd5b81357fffffffff000000000000000000000000000000000000000000000000000000008116811461080057600080fd5b9392505050565b6000806000806060858703121561081d57600080fd5b8435935060208501359250604085013567ffffffffffffffff8082111561084357600080fd5b818701915087601f83011261085757600080fd5b81358181111561086657600080fd5b88602060c08302850101111561087b57600080fd5b95989497505060200194505050565b73ffffffffffffffffffffffffffffffffffffffff811681146108ac57600080fd5b50565b600080600080608085870312156108c557600080fd5b843593506020850135925060408501356108de8161088a565b915060608501356108ee8161088a565b939692955090935050565b60006020828403121561090b57600080fd5b81516108008161088a565b7f4e487b7100000000000000000000000000000000000000000000000000000000600052603260045260246000fd5b60006020828403121561095757600080fd5b81356108008161088a565b60e0810183356109718161088a565b73ffffffffffffffffffffffffffffffffffffffff908116835260208501359061099a8261088a565b808216602085015260408601356040850152606086013560608501526080860135608085015260a086013560a085015280851660c08501525050939250505056fea2646970667358221220209013ddd1317a0fee91151e8a6cd580aa04488c43a62e65806d1c7d37c44dfb64736f6c63430008100033",
  "devdoc": {
    "details": "Adheres to - IJBFundAccessConstraintsStore: General interface for the generic controller methods in this contract that interacts with funding cycles and tokens according to the protocol's rules.Inherits from - JBControllerUtility: Several functions in this contract can only be accessed by a project owner, or an address that has been preconfifigured to be an operator of the project. ERC165: Introspection on interface adherance. ",
    "kind": "dev",
    "methods": {
      "constructor": {
        "params": {
          "_directory": "A contract storing directories of terminals and controllers for each project."
        }
      },
      "distributionLimitOf(uint256,uint256,address,address)": {
        "details": "The number of decimals in the returned fixed point amount is the same as that of the specified terminal. ",
        "params": {
          "_configuration": "The configuration during which the distribution limit applies.",
          "_projectId": "The ID of the project to get the distribution limit of.",
          "_terminal": "The terminal from which distributions are being limited.",
          "_token": "The token for which the distribution limit applies."
        },
        "returns": {
          "_0": "The distribution limit, as a fixed point number with the same number of decimals as the provided terminal.",
          "_1": "The currency of the distribution limit."
        }
      },
      "overflowAllowanceOf(uint256,uint256,address,address)": {
        "details": "The number of decimals in the returned fixed point amount is the same as that of the specified terminal. ",
        "params": {
          "_configuration": "The configuration of the during which the allowance applies.",
          "_projectId": "The ID of the project to get the overflow allowance of.",
          "_terminal": "The terminal managing the overflow.",
          "_token": "The token for which the overflow allowance applies."
        },
        "returns": {
          "_0": "The overflow allowance, as a fixed point number with the same number of decimals as the provided terminal.",
          "_1": "The currency of the overflow allowance."
        }
      },
      "setFor(uint256,uint256,(address,address,uint256,uint256,uint256,uint256)[])": {
        "details": "Only a project's current controller can set its fund access constraints.",
        "params": {
          "_configuration": "The funding cycle configuration the constraints apply within.",
          "_fundAccessConstraints": "An array containing amounts that a project can use from its treasury for each payment terminal. Amounts are fixed point numbers using the same number of decimals as the accompanying terminal. The `_distributionLimit` and `_overflowAllowance` parameters must fit in a `uint232`.",
          "_projectId": "The ID of the project whose fund access constraints are being set."
        }
      },
      "supportsInterface(bytes4)": {
        "details": "See {IERC165-supportsInterface}."
      }
    },
    "stateVariables": {
      "_packedDistributionLimitDataOf": {
        "details": "bits 0-231: The amount of token that a project can distribute per funding cycle.bits 232-255: The currency of amount that a project can distribute. _projectId The ID of the project to get the packed distribution limit data of. _configuration The configuration during which the packed distribution limit data applies. _terminal The terminal from which distributions are being limited. _token The token for which distributions are being limited."
      },
      "_packedOverflowAllowanceDataOf": {
        "details": "bits 0-231: The amount of overflow that a project is allowed to tap into on-demand throughout the configuration.bits 232-255: The currency of the amount of overflow that a project is allowed to tap. _projectId The ID of the project to get the packed overflow allowance data of. _configuration The configuration during which the packed overflow allowance data applies. _terminal The terminal managing the overflow. _token The token for which overflow is being allowed."
      }
    },
    "version": 1
  },
  "userdoc": {
    "kind": "user",
    "methods": {
      "directory()": {
        "notice": " The directory of terminals and controllers for projects."
      },
      "distributionLimitOf(uint256,uint256,address,address)": {
        "notice": "The amount of token that a project can distribute per funding cycle, and the currency it's in terms of."
      },
      "overflowAllowanceOf(uint256,uint256,address,address)": {
        "notice": "The amount of overflow that a project is allowed to tap into on-demand throughout a configuration, and the currency it's in terms of."
      },
      "setFor(uint256,uint256,(address,address,uint256,uint256,uint256,uint256)[])": {
        "notice": "Sets a project's constraints for accessing treasury funds."
      }
    },
    "notice": "Information pertaining to how much funds can be accessed by a project from each payment terminal.",
    "version": 1
  },
  "storageLayout": {
    "storage": [
      {
        "astId": 13256,
        "contract": "contracts/JBFundAccessConstraintsStore.sol:JBFundAccessConstraintsStore",
        "label": "_packedDistributionLimitDataOf",
        "offset": 0,
        "slot": "0",
        "type": "t_mapping(t_uint256,t_mapping(t_uint256,t_mapping(t_contract(IJBPaymentTerminal)27676,t_mapping(t_address,t_uint256))))"
      },
      {
        "astId": 13268,
        "contract": "contracts/JBFundAccessConstraintsStore.sol:JBFundAccessConstraintsStore",
        "label": "_packedOverflowAllowanceDataOf",
        "offset": 0,
        "slot": "1",
        "type": "t_mapping(t_uint256,t_mapping(t_uint256,t_mapping(t_contract(IJBPaymentTerminal)27676,t_mapping(t_address,t_uint256))))"
      }
    ],
    "types": {
      "t_address": {
        "encoding": "inplace",
        "label": "address",
        "numberOfBytes": "20"
      },
      "t_contract(IJBPaymentTerminal)27676": {
        "encoding": "inplace",
        "label": "contract IJBPaymentTerminal",
        "numberOfBytes": "20"
      },
      "t_mapping(t_address,t_uint256)": {
        "encoding": "mapping",
        "key": "t_address",
        "label": "mapping(address => uint256)",
        "numberOfBytes": "32",
        "value": "t_uint256"
      },
      "t_mapping(t_contract(IJBPaymentTerminal)27676,t_mapping(t_address,t_uint256))": {
        "encoding": "mapping",
        "key": "t_contract(IJBPaymentTerminal)27676",
        "label": "mapping(contract IJBPaymentTerminal => mapping(address => uint256))",
        "numberOfBytes": "32",
        "value": "t_mapping(t_address,t_uint256)"
      },
      "t_mapping(t_uint256,t_mapping(t_contract(IJBPaymentTerminal)27676,t_mapping(t_address,t_uint256)))": {
        "encoding": "mapping",
        "key": "t_uint256",
        "label": "mapping(uint256 => mapping(contract IJBPaymentTerminal => mapping(address => uint256)))",
        "numberOfBytes": "32",
        "value": "t_mapping(t_contract(IJBPaymentTerminal)27676,t_mapping(t_address,t_uint256))"
      },
      "t_mapping(t_uint256,t_mapping(t_uint256,t_mapping(t_contract(IJBPaymentTerminal)27676,t_mapping(t_address,t_uint256))))": {
        "encoding": "mapping",
        "key": "t_uint256",
        "label": "mapping(uint256 => mapping(uint256 => mapping(contract IJBPaymentTerminal => mapping(address => uint256))))",
        "numberOfBytes": "32",
        "value": "t_mapping(t_uint256,t_mapping(t_contract(IJBPaymentTerminal)27676,t_mapping(t_address,t_uint256)))"
      },
      "t_uint256": {
        "encoding": "inplace",
        "label": "uint256",
        "numberOfBytes": "32"
      }
    }
  }
}